:020000041004E6
:100000000000012081840510D5790510E1790510E3
:10001000AA5555AA45554C420000000000000000BA
:10002000000000000000000000000000ED79051055
:100030000000000000000000BF260410EF7905104A
:1000400003270410BB3E0410BB4C04105F4E041089
:10005000E75904105F640410476504105F690410D9
:10006000F1790510676C04100B7404103B790410CF
:100070006F7C04103D3D041027830410FB790510AC
:10008000CB900410F9790510217A0510979304108C
:100090000D7A05106FA00410B7A10410057A0510A1
:1000A000FD790510517A05100000000000000000E5
:1000B0000000000000000000000000000000000040
:1000C000FEB51C00089FAA4D6B465870684601702B
:1000D00016001CE00422A9192C3101A801F01CF91A
:1000E000002F0FD101A8C07869464978884209D10C
:1000F0006846007806280FD06846007801A98978FC
:10010000884209D0684680883618B6B20027688DC4
:100110008642DFD10020FEBD002C00D026800120C9
:10012000FEBDF8B584B004000F001600904D607B52
:10013000002802D12A8D002300E0E289009301AB60
:1001400001212078FFF7BCFF002801D1042019E02D
:100150000120607368468088E081684680882C189A
:10016000062221002C3102A801F0D6F820003230FE
:10017000386068460089801F308002A800790A999B
:100180000870002005B0F0BD7CB5794D298D6A4618
:1001900091800021060019E0684680882C1804220E
:1001A00021002C31684601F0B7F800F080FC694668
:1001B0000988421A61182C3120002C3001F0F8F81F
:1001C000688D69460988401A68850121009101AB54
:1001D0006846828806213000FFF772FF0028DBD1D5
:1001E00073BDBD4A514380081B2242438818253005
:1001F000704770B506000D00EFF310840DE0012389
:1002000032780021B54801F0FDF884F31088307889
:10021000401C30702878401E2870287800280BD0A9
:1002200001210020FFF7DDFF72B601F011F900286F
:10023000E5D184F31088072070BD01680022028197
:10024000428182730B78FF2B05D0FE2B09D10389E5
:100250005B1C03810AE04268511A091F818100205A
:100260007047002B0DD143895B1C43814A88D21C07
:10027000032313435B1CC9184A1D43689A42E1D308
:10028000EDE703207047FCB585B00D9F427B002A47
:100290001BD10C9A130005D002AB5A80FE221A70B3
:1002A00002AD00E04568426883689A4215D26A460A
:1002B00091712978FF292E4E01D10EE020000021F6
:1002C000027B002A12D001731EE000970123069AD8
:1002D0000599FFF726FF002847D0042045E00320BA
:1002E00043E06A786B469B799A4216D042686B88E5
:1002F000DB1C03241C43641C15194560826895426D
:10030000E3D22A78FF2AE0D02A78002AEED0FE2A0B
:10031000E5D16A469279FF2AE3D1328D6B469A8005
:1003200004000CE008226846808831182C3103A8AC
:1003300000F0F2FF049861688842BFD0012100916B
:1003400001AB6846828802212078FFF7B9FE0028B9
:10035000E8D16068001D05990860688806990880E2
:10036000002F01D068783870002007B0F0BD000081
:10037000EC0D00207FB515001C00099E0022328084
:100380000B9A01926A46128D009202AB03AAFFF704
:100390007AFF010013D1694609898D4201D30620F5
:1003A0000DE0089A481B904200DA020020000399F1
:1003B000491900F0B1FF684600893080002004B080
:1003C00070BDFEB5A24D0D40491B6B46197000244F
:1003D000070016000AE00422311901A800F09CFF72
:1003E000019A39193D4800F0FBFF241DAC42F2DBB5
:1003F0000020C043019068460278711901A800F0FE
:100400008BFF019A7919354800F0EAFFF7BDF6B580
:1004100085B00E001C0025000027FF43417B00290A
:1004200018D000210091002301AA921C02A9FFF715
:1004300078FE00283AD16846C088801B80B2A0426E
:1004400046D32A0002988119069801F09DF80028E9
:100450003FD03DE0416802918268914202D2097822
:10046000FF2901D1042034E0027B002A1ED1FE299D
:100470001CD17849098D6A469180040001200090C2
:1004800001AB6846828802212078FFF719FE002818
:100490000ED008226F486946898841182C3103A87C
:1004A00000F03AFF049861688842E7D1052010E027
:1004B000029949888E4201D306200AE020732A005F
:1004C0006068001D8119069801F05EF8002800D0D0
:1004D000380007B0F0BD00003423000000100040D9
:1004E000FFB585B000270E9A178069460C8C417BBA
:1004F000002919D0009700230E9A01A9FFF711FED9
:10050000002846D10E9800886946098B421A684631
:10051000008C824200DB220001986946098B411859
:10052000079800F0F9FE50E00F990A0005D002AAE2
:100530005180FE21117002AD00E04568416882687B
:10054000914202D22978FF2901D104203EE0027BAA
:10055000002A1ED1FE291CD13E49098D6A46918090
:1005600006000120009001AB6846828802213078A5
:10057000FFF7A6FD00280ED0082236486946898874
:1005800041182C3103A800F0C7FE04987168884216
:10059000E7D105201AE06846008B6988884201D3BC
:1005A000062013E037736846008B69880A1A69468B
:1005B000098C8A4200DB22007168091D091807981E
:1005C00000F0AAFE68880E990880002009B0F0BDEE
:1005D00038B5050000210420FFF703FEEFF3108477
:1005E00072B600F035FF002803D184F3108807208D
:1005F00032BD2900FF22D243A84800F0F1FE84F367
:100600001088002032BDF8B507000E00150000F07C
:10061000BBFF00281BD0681EA1490143491C4B03A6
:100620001B0EA0483818C20A00219C4800F0EAFEC0
:1006300000240AE06010800F0019801080003258FA
:100640003919964800F0CCFE241DAC42F2D3F1BD1E
:10065000FCFF0000EC0D0020012101700021418011
:1006600081807047F8B58AB005000E0017001C00A5
:1006700000200090FF223900300000F09DFFFE2096
:1006800069460876099508960794109D009C06AE69
:100690001AE06846008A6988401A401E0324044311
:1006A000641CA4B268886946098A091A4A1E032193
:1006B0001143491C89B2059A8A4244DB01209142C8
:1006C000287049D000206880381B001F80B2059038
:1006D0002878002828D0701C0390A888029004A8CD
:1006E0000190059880B200900898001D031900221F
:1006F000FF210998FFF73EFE6946098AA98001009B
:100700000ED16846008A7080042206A90898001954
:1007100000F002FE7088C01C032101436418BFE78B
:1007200007990C800BB0F0BDA888019004A8009038
:10073000059883B20898021969880998FFF7D0FED6
:100740000100A6D0EEE700212970059940186880C5
:10075000079807800020E5E70020F8E7F1B58C480E
:1007600085440027CB488421090169440978142273
:100770005143411801914989002901D100208AE0A3
:1007800000970023028D0621842000016844007830
:10079000FFF796FC002801D009207CE0202000F023
:1007A0008CF9002801D1082075E006A984200001F9
:1007B0006844007800F01AFB079C04A8FFF74CFF80
:1007C000EFF3108604A803C80AAA03C20CA806A95E
:1007D000102200F087FD04A8009003AB80221201D4
:1007E00010A906A8FFF73EFF0500042D08D0002D34
:1007F00051D168468089802109018842E2D103E015
:1008000068468089002816D0012168468089FFF754
:10081000E8FC72B600F01CFE002829D068468289E8
:1008200010A92000FFF7EFFE86F310880127F802D9
:100830002418002DC6D00898401E19490143491CB0
:10084000081BC00A6946487016482018C00A08707C
:10085000491C6846FFF7CDFC072819D16846427845
:100860000178842000016844007800F0B1F912E0BA
:1008700086F31088002F01D107200CE00AA803C8D6
:100880000190029100940CA80FC800F072F902E0E8
:100890000198FFF7D2FCCC498D44F0BD0010004018
:1008A000FF0700000000FCEFF8B5C84CA544802706
:1008B0003F010500EFF3108602A829001831062237
:1008C00000F02AFD04A8291D102200F00BFD2800CD
:1008D0001830009001AB3A0008A9281DFFF7C2FEAE
:1008E000040068468088B84205D0002CE4D06846F1
:1008F0008088002816D0002168468088FFF771FCA8
:1009000072B600F0A5FD002829D06846828808A9A3
:100910006869FFF778FE86F310886869C019686116
:10092000002CC9D0E868401E791E0143491C686943
:10093000081AC00A694648706869B4494018C00A74
:1009400069460870491C6846FFF753FC072815D113
:10095000684642780178287900F03AF915E086F384
:100960001088281D04A9102200F0BCFC28001830B3
:1009700002A9062200F0D0FC072006E045482979AC
:10098000142251434018FFF758FCC6498D44F0BD6E
:10099000C0F7FFFFF8B58D4CA54400216A46917160
:1009A000002400253B4F060000E06D1C3079854295
:1009B00016DAB0680C216943405C010014225143EF
:1009C00079184989002900D00124002100910023D1
:1009D0003A8D0621FFF774FB0028E6D0092055E088
:1009E0003500002C24D080273F013A00FF2108A8C1
:1009F00000F00BFE00240DE002A8FFF72DFE02A878
:100A0000009001ABBA1B92B208A8811904A8FFF7A5
:100A100029FE641C287984420CDAA8680C226243FF
:100A2000011D8E5804A9805C00F0E0F90028E3D095
:100A300000202BE001213800FFF7D3FBEFF31086F5
:100A400072B600F005FD002803D186F31088072058
:100A50001CE03A0008A92868FFF7D5FD86F3108846
:100A600000260C4F684684790CE0A8680C2171437D
:100A7000405C142148433818FFF7DFFB010000D029
:100A80000400761C28798642EFDB200085498D44DE
:100A9000F0BD0000EC0D0020C1498A79824201D1ED
:100AA00002207047897C8142FAD000207047CE48EE
:100AB000418D008D081A80B2704770B50400FFF7B1
:100AC000F6FF050080204000411BA14201DA002012
:100AD00070BDC54E718D401AA0420BDA2A0030005D
:100AE0002C30318D411830002C3000F061FC00209A
:100AF00030857585012070BD70B50C00BA4D6E8DC6
:100B000080214900891B2200914201DA002070BD3A
:100B10000100A8192C3000F0FFFB30196885012076
:100B200070BDFEB504000D00099F581E032101434E
:100B3000491C684601800088C619B61DB0B2FFF78F
:100B4000BCFF002801D10820FEBD01A80121817051
:100B50000680C47005710621FFF7CEFF6846018844
:100B60000898FFF7C9FF39000A98FFF7C5FF002072
:100B7000FEBD1FB588B02020FFF79FFF002801D1E0
:100B800008201EE00E9C6846202101800321817010
:100B9000001D08A9102200F0A5FB05946846183036
:100BA0000FA9062200F0B8FB20216846FFF7A4FF3A
:100BB00001208D4908AA127814235A438918887392
:100BC00000200CB010BD000044080000E0F7FFFF5B
:100BD0007CB504000D0016000620FFF76EFF00280C
:100BE00001D1082076BD684606210180042181706C
:100BF000C470057146710621FFF77EFF01207A4916
:100C00001422544309198873002076BD0000FCEFBC
:100C1000F8B5944CA54407000D0080221201FF2175
:100C200008A800F0F2FC00241BE00C266643A8682C
:100C3000805DB84214D004A900F0D8F8A8688019E3
:100C4000466802A8FFF708FD02A8009001AB8020CB
:100C50000001821B92B208A8811904A8FFF702FDC7
:100C6000641C28798442E0DB2E0080252D010121BF
:100C70002800FFF7B6FAEFF3108472B600F0E8FB35
:100C8000002803D184F31088072007E02A0008A970
:100C90003068FFF7B8FC84F31088002001498D44C8
:100CA000F0BD000024080000FBB582B003236E49AC
:100CB0005218032515436D1C0CE03778FF2F17D011
:100CC000FE2F01D0002F2BD17288D21C1A43521C48
:100CD000B218426082684668741D9442EDD342495E
:100CE0000078142250430818408900281AD015E0D3
:100CF0000190901B884200D308003B4C80B2A9B2FF
:100D00006A46128D8918091D88420DDA019800780B
:100D10001421484320184089002803D00B203DE0CF
:100D200003203BE0022039E06846007BFE216A4652
:100D30001170694648706846008D28184880002167
:100D4000001D80B2FFF74DFAEFF3108772B600F086
:100D50007FFB002803D187F3108807201EE0009A4C
:100D600031007C4800F03CFB049AA9B2301DFFF72B
:100D700028FB0B9A6846018DADB27019001DFFF774
:100D800020FB87F31088200008300199097814228D
:100D9000514340180188491C0180002005B0F0BD76
:100DA0005883051010B500249B480C21614341185D
:100DB0008A79694814235343C0180368002B11D162
:100DC000012A0FDC0A6802608B88D2184260098908
:100DD0000182FFF732FA010005D1641C012CE3DD2A
:100DE000002010BD012010BDEC0D002010B5020048
:100DF000022A01DB012010BD574B142462439A18CC
:100E000013684B6052688A6001220A7308700020E0
:100E1000487310BD7FB5504C05781426754364198E
:100E2000A47B002C01D00A2008E003940294099CC2
:100E300001946C46248C0094FFF79CFA04B070BDBA
:100E40007CB5454C0578142675436419A47B002CA9
:100E500001D00A2076BD0194069C0094FFF740FB68
:100E600076BD0000E0F7FFFFFFFF0000F0B585B0A2
:100E7000060030786C462071374D6846007914249E
:100E800060432818847B002C01D0092041E0521EC9
:100E900003241443641C8789BC46A7B26A46128D9A
:100EA000BA18944506DA4089002801D00B2030E0BA
:100EB00002202EE06846017304930B9F00200090EF
:100EC00000232A8D062168460079FFF7F9F80028EB
:100ED00021D002976846008D019004980090A3B23B
:100EE00072686846017B3078FFF71BFE010010D165
:100EF00028000C30317814225143401801886A468A
:100F0000128DA218521E03231343C91A491F0180D0
:100F1000002005B0F0BD01976846008D0090049B4D
:100F2000A2B26846017B3000FFF7BEFE0100DFD0B1
:100F30000728EED102976846008D01900498009032
:100F4000A3B272686846017B3078FFF7EAFD0100C2
:100F5000CED0DEE700100040EC0D0020FEB505000D
:100F6000694E30000E30297814225143405C00282D
:100F700001D00920FEBD0024687B002810D0E8893C
:100F80003518062229002C31684600F0C5F968465C
:100F900084700622694628002C3000F0BDF938E044
:100FA0006868A96888421DD20178FF291AD0FE29F5
:100FB00016D1FFF70DFB010001D015D129E030005B
:100FC000083029781422514340180188491E0180B5
:100FD00028781421484330184189491C418118E080
:100FE0000520FEBD0420FEBD072813D16F682D78B3
:100FF00008260820FFF761FD002801D10820FEBD6A
:101000006846068002218170C57001970821FFF7AC
:1010100073FD0020FEBD000058830510F0B585B0BB
:101020000400394F1421484338180290807B00286F
:1010300001D0092066E001A92000FFF72DFD02285C
:1010400025D102980068A3494118C90A6A4651701F
:1010500002994968491EA04A0A43521C101AC00A44
:10106000694608702000FFF78FF8694600A8401C09
:10107000FFF7BFF8072806D16846027841782000BC
:10108000FFF7A6FD3EE00298FFF7D7F835E001280C
:1010900037D101992000FFF7BBFD060013D10024D2
:1010A0000198007984422ADA019880680C21614312
:1010B000455C2800FFF768F8142045437819FFF7CE
:1010C000BCF8641CECE7072E19D1019F0826082004
:1010D000FFF7F3FC002801D1082013E02000FFF700
:1010E00053F803A8068005218170C4700497082175
:1010F000FFF702FD012002998873002002E0300012
:1011000000E0012005B0F0BDEC0D00201CB504008E
:101110006946FFF7C1FC022803D12000FFF71EFB40
:1011200016BD012803D10098FFF734FC16BD01203D
:1011300016BDF0B58BB00027684C208D618D8842BC
:1011400038D02518042229002C3102A800F0E4F838
:1011500002A88078012808D006D3032869D051D38B
:10116000052800D190E071D3B2E0062229002C318D
:1011700003A800F0D1F805A903A8C078FFF736FE50
:1011800001970097208D2318323368468089821F8B
:1011900092B203A8017905A8FFF786FD050053D197
:1011A000208D6946098940182085618D80B288426A
:1011B000C3D1A7624A4800214156C8B21422424313
:1011C000A2185389002B03D09389128A934213D318
:1011D000401CC0B2022800D100208842EED100217C
:1011E0000020C0433E4A1170010602D4C0B2FFF78E
:1011F0008DFF00200BB0F0BD411C4AB2022AF1D194
:101200000021EFE7082229002C31684600F084F81D
:101210000198FFF7DDF9050016D16846C078142162
:10122000484320180189491E01814189491C418197
:10123000B6E7202229002C3103A800F06DF803A89E
:10124000FFF732FB0500ABD02800D3E706222900C8
:101250002C31684600F060F86846411D001DFEF71D
:10126000C8FF05000622694620002C30238DC018D7
:1012700000F052F8002DE7D16846C07814214843A9
:101280002018FEF7DAFF8BE7082229002C31684688
:1012900000F042F801996846C078FFF7B9FC0500F4
:1012A000D2D10025019801798D42ECDA80680C21B9
:1012B0006943465C30006946C978884201D0FEF730
:1012C00063FF14204643A019FEF7B7FF6D1CE9E742
:1012D0000C208FE70000FCEFFF070000EC0D002062
:1012E000E610002070B4103A03D378C9103A78C0E1
:1012F000FBD2530701D318C918C001D508C908C0CB
:10130000D20704D30B880380891C801C002A01D5D6
:101310000B78037070BC70478B0701D18307E1D055
:10132000124205D00B78491C0370401C521EF9D1A3
:101330007047F1B4016842184168480813180098D2
:101340008068C9071ED5494640181BE01778521C13
:101350000770401C761EF9D1002C13D01678521C51
:1013600089080D40032D01D11578521C29027118EE
:101370004D424119A41C05D00D78491C0570401C34
:10138000641EF9D19A420FD01178521C032503260E
:101390000E4002D11678F61C521C0C090F2CD9D124
:1013A00014780F34521CD5E700980C30F2BC70470B
:1013B000814202D25318984203D300B5FFF7ACFF25
:1013C00000BD521E03D38B5C8354521EFBD2704768
:1013D00000690840884201D1012070470020704711
:1013E00010B50F2303618903090C81610264332165
:1013F000FFE70160040001212000FFF7E9FF012859
:10140000F9D110BDF8B505000F26FF2909D12E61CD
:101410002220286001212800FFF7DAFF0128F9D1F6
:10142000F1BD17003C00009306E001212800FFF702
:10143000CFFF0128F9D1641C009838188442EFD2FC
:101440002E61E0028003000CA86111202860ECE707
:1014500058B5040000F064FB0600684600F036FD55
:10146000002803D00098801B844201DA012052BD7D
:10147000002052BD10B5FFF795FC424C211D002005
:10148000FFF7B4FC210014310120FFF7AFFC201D51
:10149000206010BD3EB53B4C022802D1250014351A
:1014A00000E0251D256001936B461B8B00930B000C
:1014B00001002068FFF7DAFC002805D0022801D1DE
:1014C000002000E00120C0433EBDF8B584B00E000E
:1014D00019002C4C022E03D125001435012301E004
:1014E000251D00230700256028466D466A8103916B
:1014F0000A9D022F08D102A900912B00039A694688
:101500004989FFF79DFC0FE0002F03D1010018006F
:10151000FFF76CFC02A801900095039B6846428986
:1015200031002068FFF776FC010001D1002005E0C2
:10153000042801D1022000E00120C04305B0F0BD25
:1015400010B5140023000A0001000E480068FEF7E1
:101550005EFF002804D001D5200010BD0220C0434A
:1015600010BD80B5022807D10649086814318842A9
:1015700007D0FFF7F3FC01BD032802D10020FFF7DD
:101580004DFD01BD68100020A446521E08D303780B
:101590000C78401C491CA342F7D0181B64467047C6
:1015A00000206446704710B54C788A780878CB1CC8
:1015B0002146C046C04610BD1206130A1A43130C3A
:1015C0001A4300BF094205D0830707D00270401CB0
:1015D000491EF9D1704700000022FFE713001039BF
:1015E00006D330B41400150010393CC0FCD230BC16
:1015F000490700D30CC000D504C0890002D3028083
:10160000801C002900D50270704710B50400080046
:10161000110002002000FFF7CFFF200010BD8078EE
:10162000800701D58620704700207047010005D44F
:101630000121C006C00E8140A14801607047F3B58A
:1016400089B000250D700998807A00285ED09D48E9
:1016500003C89D4A1268002312184B4106A80CC00B
:10166000EFF31080029072B600F0FAFD02000B005A
:10167000099803C804AC03C4012404A803C800905B
:10168000019106A803C8C826B602002736184F41A4
:1016900000980199B9420ED301D8B0420BD306A8E5
:1016A00003C8B9267600002736184F419F4228D834
:1016B00001D3964225D200200A32434104A803C830
:1016C00000264C38B1418B4213D801D3824210D24C
:1016D0000998027A037B04A803C8190000F06EFE83
:1016E0000A99087009988572099844720998C47219
:1016F00009E09C488572029880F310880A9804706B
:1017000004E071484476029880F310880BB0F0BD75
:1017100080B500F041FD0120A749087101BDF3B576
:1017200087B004460020087000E02469002C5DD0DA
:10173000207B0028F9D0EFF31080019072B60020D2
:1017400069460870491C8748FFF779FF00F088FD5B
:1017500002000B0003CC083C0F00861A9F4104AA2C
:10176000C0C2012504AA0CCA002B34DB01DC012A0B
:1017700031D37C4A0CCA02AE0CC602AAC0CA524A75
:10178000926B002312184B419F4210D801D396420E
:101790000DD2744A527A002A09D002AA0CCA8B428E
:1017A00007D301D8824204D34748057601E0684652
:1017B0000570694604A80CC8100000F0C1FD684619
:1017C0000078012809D16748817A427A0A438272F7
:1017D0000021417201E008980570019880F310889B
:1017E00008980078002801D0079800E0200009B090
:1017F000F0BD1CB5704C6946A068FFF790FFA06073
:1018000068460078012806D1207D411C627D914206
:1018100000D0401C207513BDFEB500256C46257018
:10182000017B002901D00120FEBD0CC00838012138
:101830000173614CA6680196070001E03500366926
:10184000002E08D00CCE083E03CF083F8B42F5D3C4
:1018500001D88242F2D338000661002D01D10190F7
:1018600000E028610199814213D16946FFF757FFD3
:10187000A0606846007800280BD0EFF3108072B6A5
:10188000217D4A1C637D9A4200D0491C217580F35A
:10189000108868460078FEBD10B5474C002808D077
:1018A000207B00280BD120002030FFF731FF0120E2
:1018B00004E02000203000F0FEF80020207310BD6E
:1018C00000E100E0A8100020680F0020F8B500F04B
:1018D00001FD244D00246C726C81EFF310800090A8
:1018E00072B600F0BDFC06000F0000F01AFD020009
:1018F00003CD801BB9410023801A994106000F00D7
:10190000009880F310888F480068C005C00D10381B
:10191000122801D0FFF76DFF002F04DC01DB012E40
:1019200001D20120F2BD002F04DC01DB0F2E01D219
:101930000220F2BD0020F2BD80B569460948FFF7DC
:101940007EFE1D48017E002903D00021017600F0B3
:101950000BF8AF48016801220A430260006800905A
:1019600001BD0000C010002018B513490020087602
:10197000A8480268A84B134003600A7D531C4C7DA5
:10198000A34200D0521C0A75C16901220A43C261F8
:10199000C069009011BD0020A049C8727047684816
:1019A0000168022900D1704780B50068032801D082
:1019B000FFF71FFF01BD0000680F002010B5FFF703
:1019C0002BFF04000120FFF767FFE0B210BDF8B560
:1019D00004000D0000F044FC06000F00290D280350
:1019E0000A22002300F0A8FD8019794102000B00B3
:1019F0002000FFF711FF04000120FFF74DFFE0B2C8
:101A0000F2BDFEB5030000246D462C72834D297390
:101A10002A72834803C81A1A002312184B410CC5B6
:101A2000083D6C72EC720120A87200F019FC7D4A2E
:101A30009268002A04D102A92800FFF700FE34E0D2
:101A4000C0CA083A8F4215D301D8864212D303CDBB
:101A5000083D009001917348806B00218019794105
:101A6000009E019F8F4205D301D8864202D3107B8E
:101A7000002813D102A92800FFF7E1FD694CA668F0
:101A80000CCD03CE083E8B420FD301D882420CD33B
:101A9000307B002809D00120207606E062480178DA
:101AA0004906490E01708474C4740120FFF7F4FEE6
:101AB0006846007AFEBD7CB503005A4CA26815004A
:101AC00000210026100001E02E002D69002D09D014
:101AD0009D42F9D101932B69954201D1180002E092
:101AE000336100E001936D462970019B19738242B6
:101AF00014D06946FFF713FEA060684600780028FE
:101B00000DD0EFF3108072B6217D4A1C637D9A429E
:101B100000D0491C217580F3108873BDA06073BD8F
:101B200080B500F09DFB04BD00B5801A99410A22E2
:101B3000002300F03BFD000B0A051043090B00BD1C
:101B40000C00006004ED00E0F8B5050000F0BAFC00
:101B50009748012641683143416001683143016083
:101B60001820FFF763FD2888C92800DAC8202D4F08
:101B7000B8631420FFF75AFD6846A9788170696838
:101B8000002900D00121C1702988018000F09BFA52
:101B9000234800F083FB0024BC603E736868002883
:101BA00000D00120B8750020F8751C4A5072508191
:101BB000002103C228883861BC82686800030A21BA
:101BC00000F026FD38603C71B34D002804D1280098
:101BD00000F091FC38600AE0280000F08CFC3968C5
:101BE000814203D3280000F086FC01003960B1482F
:101BF000B8627C6300F034FB3A68002312184B4152
:101C000038002030FFF708FE386800F058FBF1BDBF
:101C10004418006030180060FFFFFFBFC0100020B4
:101C2000A8100020680F0020C4000020F8B584B080
:101C3000002469460C70EFF3108672B69E48407A15
:101C400000280CD000F00CFB02000B009A4D03CDD5
:101C5000083D994203D801D3904200D26C7286F3BA
:101C60001088524F22E0401C19E0046900210173E2
:101C70008168002900D088472000F6D16946B868FD
:101C8000FFF74DFDB8606846007801280AD1EFF3F0
:101C9000108172B6387D421C7B7D9A42E3D1387543
:101CA00081F31088787D039940187875787D397DA7
:101CB0000A1A02D2802040001218002A28D003926B
:101CC000BC68002602940194002502E026002469E5
:101CD0006D1C002C0FD0207B0028F7D000F0C0FA3C
:101CE00002000B0003CC083C801A99410029EDDB6F
:101CF00001DC0628EAD3002D03D0002030610294D5
:101D000001E0002001900298B86001980028B4E733
:101D10006A4E0124387900282FD000F049FA0028B3
:101D200042D100253D71B87D002804D1F87D0028FE
:101D300001D0FD7504E000F04DFA300000F0AEFA7D
:101D4000787E00280AD07D765B4884726946FFF76A
:101D500076FC6946B868FFF7E2FCB86038002030CE
:101D6000FFF7A9FE00F07CFA3A68002312184B41F5
:101D700038002030FFF750FD16E0307C002813D0EB
:101D800000F06EFA02AA03C203CEFA225203002325
:101D900012184B4102A803C88B4205D801D38242D6
:101DA00002D200F0F9F93C7105B0F0BD680F0020D7
:101DB0004018006070B586B0050000F06FF800288C
:101DC00068D002A800F094FA3D4C3B4E717A00298D
:101DD00002D1B17A002901D0012802D1F17A00297B
:101DE0001ED000F03DFA04AA03C200F09AFA0200E5
:101DF00003CE0090019104A803C8002312184B41A0
:101E0000206900218018594100221E305141009A5A
:101E1000019B8B4225D301D8824222D3022503E0C5
:101E200002281ED001281CD0A068002831D0007BD9
:101E300000282ED000F014FA02000B00A66803CE92
:101E4000083E00900191206900218018594100222C
:101E50001E305141009A019B8B4204D801D382422B
:101E600001D2012016E0032D12D1306900280FD1D4
:101E70002000203086420BD10120E0750020FFF7C2
:101E80000BFD10480168104A0A400260032001E07F
:101E90000225280006B070BDFFEFFFFF0848017D56
:101EA000427D914204D10079401E8041C00F7047AD
:101EB0000020704711170410C0100020A810002047
:101EC000680F002030180060FFFFFFBF034909685A
:101ED000CA680260087C00097047000024050020E1
:101EE000A948816801220A4382600021016070478D
:101EF00030B5A64BA4490A681A400C681C40A2429F
:101F0000F9D1002AF7D0A24B14125C43D5B25D433D
:101F10002B12E31810335B11436282619D4A4B68B8
:101F200013404C681440A342F9D1002BF7D099110B
:101F3000A34A5143803109120162C36130BD10B51B
:101F40000400FFF7CDFF9F480068C007FBD52000C5
:101F5000FFF7CEFF10BD68214143090ADB22504341
:101F6000000C0818704780B5FFF7F5FFBDE2FEB51D
:101F700004000A00EFF3108772B603CC083C924BC2
:101F80001B681360914E009001913200616AE06A13
:101F9000181A00F095FB0021009A019B8018594106
:101FA000AE4D2A0038320CCA99420FD801D3904264
:101FB0000CD2009001913200616A0020C04300F011
:101FC0007FFB0021009A019B801859412A0038327A
:101FD00003C287F3108803B0F0BD70B506007C4CD7
:101FE000607A7D214843C90000F00FFB451CEDB22B
:101FF000A94A316A1B2000F063FB207041366078EB
:10200000FFF7B1FF3072E0784019FFF7ACFF307096
:1020100020794019FFF7A7FF70706079FFF7A3FFE1
:10202000B070A079FFF79FFFF07070BDFEB504009F
:1020300065480568A76A654E32003900206B281A8A
:1020400000F03EFB02002000083003C80090019120
:1020500010000021009A019B8018594103C4083CDC
:10206000A1480078002811D1206B281A616B8842A2
:102070000CD2320039000020C04300F021FB0CCC10
:10208000083C00218018594103C4083CE5622563DF
:1020900003CC083C2200083203C2606AA062F7BD8C
:1020A00080B57D4A00F00CFB8949884201DD0800BB
:1020B00002E0102800DA1020684900118882888A1E
:1020C0009949086001BDF8B50700644C3888206163
:1020D000964880797D214843C90000F096FA461C55
:1020E000F6B2F878002802D1B87800280DD09048D0
:1020F000C168C907FBD5016817220A4302602000A6
:10210000FFF71DFF606AA06209E0C8204003A062DB
:102110006062884820628848A0618848E0612500A4
:102120004035F8782870216A206980B2FFF7B8FF3F
:1021300000220020A872002103C4083C224B1B6827
:10214000E36223632300383303C32300083303C34C
:10215000EA722000FFF741FF744C20788019FFF7E6
:10216000FAFE1B30687160788019FFF7F4FE1B30AF
:10217000A871A078FFF7EFFE1B30E871E078FFF759
:10218000EAFE1B302872F1BD08100060FFFF070057
:10219000F6BC0800FFFFFF0753480078002806D070
:1021A0008548816801220A438260002101607047EE
:1021B00004480068C107C90F01204840704700006B
:1021C0005307000010100060101800603506000072
:1021D000C500002038B594B0204C4020205C002879
:1021E00031D0684621005022FFF77CF86846FFF79F
:1021F0007FFE0899049880B2FFF752FF6846FFF708
:10220000ECFEEFF3108572B6200040300121C17260
:102210000699A1610799E1610899216209996162B2
:102220000A99A162694641228A5C427042228A5C14
:10223000827043228A5CC27044228A5C0271492205
:10224000895C417202E0EFF3108572B62000FFF75F
:10225000EDFE85F3108815B030BD0000180F00208A
:1022600080B569462148FFF782FE04BDF8B5050038
:102270001E4C69462000FFF77AFE06000F00A14AB7
:10228000616A0098401B00F01BFA00233900301AE5
:102290009941F4BD000000002603000002009A4BA3
:1022A0004020185C1074D869D0601800083003C84A
:1022B00003C2083A98699060186B5061704710B576
:1022C0000A4C924A216A00F0FBF9606310BD0000DD
:1022D000FF0F000000208E4908608E4801688E4A7A
:1022E0000A40026070470000580F0020180F0020BD
:1022F0008A494A68520003D5096801600320704783
:1023000083490A68022A03D14968016001207047A5
:102310000A68032A03D1496801600220704700203F
:1023200070477F480078704708180060C800002098
:1023300004100060C2F528008D5B0000ECEB650125
:1023400070B50C00714A7049096A00F0B9F90100D2
:10235000202900D82021734A106841180831D16122
:1023600093698025AD051D439561136A8025ED05B0
:102370001D4315620023664D2E68022E05D02D6880
:10238000032D02D02578012D01D0237070BD664C3D
:1023900025786D066D0E2570A374E3740F239943A1
:1023A000516191690723994391619169C023DB05CC
:1023B0000B43936170BD000008100060FEB504007F
:1023C000514E300041300079012908D1002A02D055
:1023D0004121715C0CE031004131497808E0002A6C
:1023E00003D031004131897802E031004131C978B0
:1023F0000091019002A93000FFF7B9FD201A4A4D63
:102400000027464C414A01993369C918C8318142B5
:10241000316A17D200F054F96978401A0099401ACD
:102420000299091821606168072291436160384967
:102430000F606168C022D2050A43626000996A7821
:102440008B1813E000F03CF931004131097A401A51
:10245000009A801A029A12182D4B5A6002221A60B2
:1024600062682D4B13406360009A531829788022CC
:102470000A432A70F021A974FF21E974C118581D7C
:10248000814207D2224807606068234901406160A9
:102490000120FEBD1B4A716A180000F011F93100DD
:1024A000413148720020FEBDEFF3108072B61D4925
:1024B0000968174A891C51600221116080F3108855
:1024C000704700001948012142680A4342600268CF
:1024D000114301608020000415490860704780B5F1
:1024E00014480068FFF7C2FE04BD084A0649096A9D
:1024F00000F0E6F802BD80B5024A0349496AF7E7F1
:102500000000000035060000180F00202603000020
:102510000C00006028180060FFFFFFBF2418006057
:10252000620F002010180060C400002048180060EE
:1025300000E100E014000060124224D0994228D942
:1025400070B500251B4202D00C00002109E00024D8
:10255000012649186441944200D3A41A7641F8D365
:102560003100012601E0764109D2001864416D4135
:10257000A41A9D41F7D2A4185D41B619F5D33000D5
:1025800022002B0070BD1B42D8D108B5C046C04602
:1025900008BD01D19042D3D202000B0000210020DF
:1025A000704710B50888C046C04610BD30B44343DC
:1025B00051435D18010C0C00130C5C432D1980B2C3
:1025C000434392B251430024C918644124040B04CC
:1025D000090C09195043C018694130BC7047F446D2
:1025E000002804D4494200F013F8404260474042BA
:1025F000002905D45FD000F00BF840424942604703
:10260000494200F005F84942604703460B43E6D4CF
:102610000022030A8B420BD203098B4219D24308D2
:102620008B422ED2411A00D20146524110467047C9
:10263000FF2209023FD012068B4205D31212090273
:102640008B4201D31212090203098B4219D300E015
:10265000090AC3098B4201D3CB01C01A5241830935
:102660008B4201D38B01C01A524143098B4201D3E3
:102670004B01C01A524103098B4201D30B01C01A0E
:102680005241C3088B4201D3CB00C01A5241830888
:102690008B4201D38B00C01A524143088B4201D3B5
:1026A0004B00C01A5241884200D3401A5241CFD247
:1026B00001461046704708B5C046C04608BD704781
:1026C00010B5904216D98AB2030C090C0C46594336
:1026D00080B25343444350431B191A041B0C101877
:1026E000594180225203002312184B41520DD80247
:1026F000104310BD4843802252031218520D104659
:1027000010BD7047010005D40121C006C00E8140F4
:10271000394801607047010009D40121C006C00E8C
:10272000814036480160BFF34F8FBFF36F8F704712
:1027300081B033490A6802430A6009680840009082
:10274000009801B07047000081B02E4801688903ED
:10275000FCD5816802220A438260002102E000BFAA
:102760000099491C009100990629F8DB8168042230
:102770000A43826001B07047224881680422914375
:10278000816001684905FCD581680222914381601E
:1027900070471D480168890703D500684107C80FC5
:1027A00070470020704719490A6883B213430B60D1
:1027B0008A6A000C104388627047020C80B2144B86
:1027C0000129196805D108431860986A02439A6282
:1027D000704781431960986A9043986270470D4929
:1027E0000028086803D0042202430A6070470422CC
:1027F000904308607047000000E100E080E100E0E5
:102800006000404800004048080040480800504828
:102810000C00504810ED00E0FFB5FFB0F6B004002A
:10282000002069468870EFF310807E9072B6002019
:10283000BB49886000F006FD002801D100F044FC8F
:10284000200000F00FFD05002000FFF7B3FA06009E
:10285000200001F06AFAA54200D92500AE4200D955
:102860002E00B04200D9300069460870AD48AE492C
:102870000861886368460078002804D068460078BC
:10288000012808D130BFFE9908707E9880F3108827
:10289000002000F0AFFCF6A80078002803D08020CC
:1028A0000002FFF780FF68460078022803D1C020AD
:1028B0008001FFF778FFF89DF79C280020435C908B
:1028C0005C98FFF770FF00212800FFF776FF0121D9
:1028D0002000FFF772FFF6A840786946487000258F
:1028E000A021CDA8FEF778FE04A800210022002335
:1028F0000EC001A80EC0182107A8FEF76DFE2C21FE
:1029000051A8FEF769FE2C2146A8FEF765FE682156
:10291000B3A8FEF761FE402183A8FEF75DFE2421E7
:102920001FA8FEF759FE242116A8FEF755FE242104
:102930000DA8FEF751FE58219DA8FEF74DFE30214F
:1029400072A8FEF749FE302166A8FEF745FE2C214D
:102950003BA8FEF741FE2C2130A8FEF73DFE9E4F1E
:10296000386DC0070AD520229121C90528A801F099
:102970004DFAA0229949CDA801F048FA386D4003DC
:1029800004D50C22964904A801F040FA386DC00322
:1029900004D50C22934901A801F038FA386DC0041F
:1029A00004D51822904907A801F030FA386D400785
:1029B00005D52C229021C90551A801F027FA386DC0
:1029C000000704D52C22894946A801F01FFA786D2A
:1029D000C00504D54022110683A801F017FA786DCE
:1029E000C00704D568228249B3A801F00FFAB86D78
:1029F000C00704D524227F491FA801F007FAB86D4B
:102A0000C00404D524227C4916A801F0FFF9B86D52
:102A1000400404D5242279490DA801F0F7F9B86DD6
:102A2000C00604D5582276499DA801F0EFF9B86D8B
:102A3000C00508D568464078002804D13022714985
:102A400072A801F0E3F9B86D400504D530226E4953
:102A500066A801F0DBF9B86D800205D52C22822131
:102A6000C9053BA801F0D2F9B86D000204D52C22AB
:102A7000664930A801F0CAF9C94800689C90C94865
:102A800000689B90C84800689A9000205EAB604E3A
:102A9000810072585A50401C0828F9DBC0488069F0
:102AA00099905C48006898905A4840689790386BB5
:102AB0009690B86B9590386D9490B86D9390386EF1
:102AC000C00703D40120FFF733FE04E0524800683A
:102AD00002210840829051488069800007D44F4805
:102AE00080698021090601434C48816105E04B481B
:102AF00080694000400849498861386EC00703D4A6
:102B0000386E01218843386668460078032810D162
:102B100038685D903868C006386807D5102106E02F
:102B200004000020FFFF00000000504804218843FB
:102B3000386000203A49096850398191D04A51657E
:102B4000D04B516D0A6884001A51401C091DCC4AB3
:102B500051651428F5DB334800693249896B80B22E
:102B6000090401435C98084000D09EE22D4C206887
:102B700020600120FFF733FEFFF70BFE00280DD089
:102B8000FFF7FAFDB868E021884320210143B960CE
:102B90003868802189010143396001205C905D988B
:102BA0001021084080906846007803284CD101220B
:102BB000AF2149001C48006801F0ADF98098002859
:102BC00034D038688006C10F39D001F0B9F9002837
:102BD000F7D0022533E000BF0000404800007048F5
:102BE0000000604800003048000020480000104805
:102BF00000200040002000410030004100700041F2
:102C000000600041005000410040004100100041C0
:102C100000E400E010E000E05416006010180060CE
:102C20000000041000005048D0040020386800075D
:102C3000C10F04D001F084F90028F7D00325002249
:102C40000021002001F067F900207F90786D40049A
:102C500009D58B480078002805D101207F90786D38
:102C6000BA490140796501F05FFC4D488068042154
:102C700088434B49886068460078032814D15D98E2
:102C8000400703D538680421014339608098002843
:102C90000AD0AF48A16A0140A162E16A0840E0623F
:102CA00038681021014339607F98002808D08020BF
:102CB000C001796D01437965796D08405D905D983B
:102CC000A4488068002800D1B7E1002081996C4AAF
:102CD0005165516D6B4A8300D2580A60401C091D32
:102CE000674A51651428F4DB9C982D4908609B982D
:102CF0002C4908609A982C490860002081005EAA3F
:102D000052587250401C0828F8DB96983863959802
:102D1000B863949838659398B865386DC00713D533
:102D2000202228A99120C00501F070F80020CE9043
:102D3000D390D890DD90E290E790EC90F190A022B3
:102D4000CDA9BB4801F062F8386D400304D50C22D0
:102D500004A9C74801F05AF8386DC00304D50C2205
:102D600001A9C44801F052F8386DC00404D51822F6
:102D700007A9C14801F04AF8386D40070BD59020EB
:102D8000C005599901625A994162569941612C22B4
:102D900051A901F03BF8386D000711D5B74805E09F
:102DA00008ED00E00410004000E100E04E990162EF
:102DB0004F9941624B9941612C2246A901F026F8B6
:102DC000786DC00504D5402283A9100601F01EF8D5
:102DD000786DC0070BD5B39CB39801218843B3909D
:102DE000BE4E6822B3A9300001F010F83460B86D0F
:102DF000C00712D51F9C1F98402188431F90B84ED2
:102E00000C221FA9300001F001F814221FA80100B4
:102E10001031B44800F0FAFF3460B86DC00412D528
:102E2000169C1698402188431690AF4E0C2216A986
:102E3000300000F0EBFF142216A801001031BF484B
:102E400000F0E4FF3460B86D400412D50D9C0D987D
:102E5000402188430D90BA4E0C220DA9300000F09D
:102E6000D5FF14220DA801001031B64800F0CEFFA6
:102E70003460B86DC00609D558229DA9B24803E058
:102E8000740400207804002000F0C0FFB86DC00575
:102E900011D56846407800280DD1729C72980121A6
:102EA00088437290A94E242272A9300000F0AEFF30
:102EB0007D98F0623460B86D40050DD5669C6698CB
:102EC000012188436690A24E242266A9300000F0BA
:102ED0009DFF7198F0623460B86D0126F643800260
:102EE0000CD53B9C3B9830403B9020223BA9822054
:102EF000C00500F08BFF8220C0050460B86D0002A1
:102F00000AD5309C309830403090202230A9BC48FF
:102F100000F07CFFBA480460386E012420400CD1D8
:102F20000120FFF705FCB748806940004008B5491B
:102F30008861386E06403E660FE0829800280CD00B
:102F4000B148006802210143AF4805E0FFBFFFFF21
:102F5000FFCFFFFF0400002001600122AF214900E4
:102F6000AA48006800F0D7FF3868800304D400F056
:102F7000E7FF0028F8D0042500220021002000F0FF
:102F8000CAFFA24E5C98002812D10122C8213068E5
:102F900000F0C1FF3868400404D400F0D1FF0028DD
:102FA000F8D0052500220021002000F0B4FF05E044
:102FB000FFF7CAFB3868964901403960386E044013
:102FC0002BD08021C90508680968F0220240080753
:102FD000000F1043102820D18E4841003A6E06237E
:102FE0001340022B01D10A0000E0020034688A4B32
:102FF00094420CD08600B44203D182421AD12A20D6
:1030000004E08C4203D1824201D129201860586823
:103010000007FCD4002000F0B5FF99987F49886133
:103020007F489799416000218160989901600DE087
:10303000000070488A42EAD1E7E75C98002805D092
:10304000FFF782FB386872490140396068460078B2
:10305000032828D10122AF2149006C48006800F004
:103060005AFF6A4800686F49884209D1042608E07F
:103070000000604800003048000020480000104870
:1030800001263968C90631D4386800074BD400F0EE
:1030900057FF0028F8D00324386E250000220021B5
:1030A000002000F038FF684685705F480169826B38
:1030B00089B212040A435D498A655D4982680A4003
:1030C0008260026B114001637E9880F3108859483A
:1030D000806800283ED16946087085E000200040E5
:1030E0000020004110200041003000412C0000254C
:1030F00006E00122AF2149004448006800F00BFFC0
:1031000038688006C9D400F01BFF0028F8D00022E0
:103110000021002000F0FFFE28006D1CC0B2B0426C
:10312000E7DB0224B9E7386EC007B7D5032DB5D069
:103130002C00344800680F28FBD0AEE71030004167
:1031400000700041107000410060004100500041DB
:1031500000400041354CA06D002845D0A16D0025F0
:1031600000200026F02212010F0C334B3B401700C9
:103170000F401F4301970B0C1A40CBB21343802121
:10318000C905002B05D08F691B043B4001D00125E8
:103190000120019B002B30D089690B402DD00126E6
:1031A000A06D2649014002D00F20FFF7B4FA244F4A
:1031B000280005D0A06D384002D01020FFF7ABFAF0
:1031C000A06DC046C046002E06D0A06D1B49014030
:1031D00002D00F20FFF796FA002D05D0A06D074012
:1031E00002D01020FFF78EFA68460078FE9908702A
:1031F000684680787FB07AB0F0BD0028D7D1F3E779
:10320000001000411018006054160060D004002027
:10321000FFDFFFFF0024F4000050004008ED00E055
:1032200010E000E00090D00300005048740400203B
:103230000000FFFF04000020FFF00000000FFFF07F
:10324000FF00000F10B5002401F0A0F9002805D1FF
:1032500003480068C07A002800D10324204610BD2E
:103260002405002080B58C480078072803D001F0A1
:10327000E2FA002801D0002002BD032002BD0000B8
:1032800030B591B00FA800BF44A10CC90CC00DA867
:1032900044A10CC90CC00FAA0621002001F028FB94
:1032A00005007E4C02D0290020003EE018210020BD
:1032B00001F022FB01F099FC050003D02900200059
:1032C000303032E00BA80290801C01900CA80090D6
:1032D000012308220021012001F0B5FC050003D0E4
:1032E000290000BF31A020E00DAA0821002001F034
:1032F00025FD032001F05DFC050003D0290020001E
:10330000583012E06648039001200290102001908E
:1033100007200090002300220021012001F04DFC35
:10332000050006D029002000883001F051FD28005A
:1033300031E000200A9009900120089000200790B9
:103340000120069000200590049003900290072031
:103350000190C0200090A02313220221002001F040
:103360004BFD010019A001F033FD4E4D2B00183329
:103370000D220321002001F066FD01001BA001F0D9
:1033800027FD2000C43001F023FD002042490870D1
:10339000BF48A860002011B030BD0000CCBC00E1E7
:1033A00080020000414E435364656D6F6163695F45
:1033B0006761705F696E69742829206661696C6550
:1033C000643A203078253032780D0A004164766501
:1033D00072746973696E6720636F6E666967757270
:1033E0006174696F6E20253032580A00536574206D
:1033F0006164766572746973696E67206461746173
:1034000020253032580A000070B5A24C11202070DF
:1034100015206070D020A0700026E6702D2020714D
:10342000122060711E20A0714B20E0710F202072CD
:10343000A42060729920A0724E20E072CE202073EA
:10344000B52060733120A073F420E0730520207450
:103450007920607422001221002001F0F8FC0100A4
:10346000B04D02D0280001F0B3FC2675E682267626
:10347000220014320121012001F0EDFC040005D0EE
:1034800021002800343001F0A3FC03E0280068305C
:1034900001F09EFC200070BD5C050020F46E05105C
:1034A00040E2010060030020F0B587B07A4FBA4DCA
:1034B0000126BA4C3878401E082848D801A1095C7A
:1034C00049008F4404D11D476C1476E02800FA218E
:1034D000C900B348FEF77BFAC1B2002902D0200030
:1034E00001F076FC022001F061FD0820CAE0788836
:1034F00001F05BFB00280DD0010020002C30BEE065
:10350000A748FEF7D8FA3A003732FA2149007888FE
:1035100001F07CFDB5E0A348A349785200218B223D
:103520009200BA188BB20C255D43525D002A04D17B
:10353000491C8AB2322AF2DB06E09B4AB9520021CA
:10354000BA189170042139709749795A814200D094
:1035500099E05FE09448385A0C2141436858029042
:1035600002A90E714E713220C8800E721E20488151
:103570000E7396204000C8810E744E748E7402A89B
:10358000C67484B068461422FDF7ACFE0FBC01F08F
:10359000F5FF002875D00100200060306FE0791D34
:1035A000387902F09BF800286BD0010020009030A1
:1035B00065E07D483818007A00280AD02000B43031
:1035C00001F006FC35A001F003FC002076497918D3
:1035D000087201A801F0F2F8012826D0FEF7A0FA3F
:1035E000714ABA1852680023FEF79EFA6F4A002308
:1035F000994248DB01DC904245D300BF2DA001F089
:10360000E7FB8B20800038186749795A0C224A431F
:1036100000218154FA2149006148FEF7D8F9C0B26F
:1036200000282ED00100200029E0684600794128BA
:1036300003D068460079612801D1002100E0012112
:103640005948385A0C224243A85802F084F80028FE
:1036500005D001002000FC3001F0BAFBD1E768463C
:10366000017900BF18A0F7E7022001F0B0FCFFF7D6
:10367000CBFE002805D0010098204000201801F062
:10368000A7FB0020387001F0D6FC07B0F0BD0000A9
:10369000333C04108C1000205C0500202A2A20579F
:1036A000616974696E672035207365632E2E2E2E36
:1036B0000D0A00002A2A20416374696F6E20546944
:1036C0006D656F75740D0A002A2A20416374696F55
:1036D0006E20506572666F726D6564203D202563B3
:1036E0000D0A000010B501002C4C05D1AE204000A1
:1036F000201801F06DFB04E0C2204000201801F00A
:1037000067FBFA2149002648FEF761F9C0B200289C
:1037100003D00100200001F05BFB00202449087069
:1037200010BD000024780510F8B5040004D0010095
:10373000204801F04DFBF1BD08000025079C02293F
:1037400010D100211A480C224A4382188B239B0077
:10375000D2189368A34203D0491C322901DAF2E758
:103760001570F1BD1900069E2300114C0C276F4304
:10377000E4198B27BF00E4192778002F03D06D1CB4
:10378000322DF2DBF1BD012525706070A270E17071
:103790002671A360F1BD000090070020204C0510A9
:1037A00060030020FFFF0000840400008813000075
:1037B0005C050020C8800510F0B585B000280CD04D
:1037C00096488B2189004118954A825A0C2353430D
:1037D0000022CA540921017009E00027080001D025
:1037E000012904D1684681708281029303E005B00B
:1037F000F0BDFF1CBFB2684680898742F7DA02221B
:103800000298C019411C684600F000FB6846008819
:103810000028EED083480190012468468078002873
:1038200000D08CE001988078002800D067E00198F3
:1038300006887D4D2800483001F0CAFA77480C21EF
:10384000714340180490794946183078002807D011
:10385000022801D002D306E076A002E07BA000E0BF
:1038600080A001F0B5FA707801280FD002280BD0A3
:10387000042807D0082803D010280AD17EA006E02B
:1038800084A004E08AA002E08FA000E0684801F074
:103890009FFAB0780B2824D801A1095C8F4400BF9F
:1038A0003C3834302C28241E1A14100C8CA016E03E
:1038B00093A014E02800243011E028000FE000BF9E
:1038C00095A00CE0C8480AE0C84808E097A006E0C8
:1038D000C74804E0C74802E0C74800E099A001F0EB
:1038E00077FAF17828008C3001F072FA04988D2173
:1038F0008900415899A001F06BFA019884700298F0
:10390000C05D072817D801A1095C8F44221E1A1632
:10391000120E0A0699A00CE0CB480AE09CA008E031
:10392000CA4806E09DA004E0C94802E0C94800E09A
:103930009EA001F04DFA05203849087021E0029858
:10394000C05D002803D100BF9DA001F041FA334DB6
:10395000019800880C21414368188B218900401888
:10396000C178012901D0052907D101980472FEF719
:10397000D7F801994860072002E000210170092072
:1039800028700298C05D451EAD41ED0F7F1CBFB28F
:1039900068460288FF20F6308242204C0DD2029801
:1039A000C019811C2000373000F030FA00202100BF
:1039B00037316A46128888540AE0821E0298C0197C
:1039C000811C2000373000F021FA0020BD496054EE
:1039D000684600883F18BF1CBFB2002D15D068464E
:1039E0000288521C332A08DA21003731601D00F0AA
:1039F0000DFA68460088401C06E03222210037316B
:103A0000601D00F003FA322020716846008800280B
:103A100003D0AD496EA001F0DBF9ECE65C050020B7
:103A200084040000E00900201C7605102D0200002F
:103A3000DC6F05100D0A2A2A204576656E743A203F
:103A400052656D6F7665640D0A0000000D0A2A2A22
:103A5000204576656E743A204D6F646966696564C9
:103A60000D0A00000D0A2A2A204576656E743A2058
:103A700041646465640D0A002A2A20547970653A0D
:103A8000204E6567617469766520416374696F6E65
:103A90000D0A00002A2A20547970653A20506F736D
:103AA000697469766520416374696F6E0D0A000060
:103AB0002A2A20547970653A205072652045786929
:103AC0007374696E670D0A002A2A20547970653A6A
:103AD00020496D706F7274616E740D0A00000000F1
:103AE0002A2A2043617465676F72793A20456E74A3
:103AF00065727461696E6D656E740D0A0000000078
:103B00002A2A2043617465676F72793A204C6F638B
:103B10006174696F6E0D0A002A2A2043617465671B
:103B20006F72793A204E6577730D0A002A2A204376
:103B3000617465676F72793A20536F6369616C0DC8
:103B40000A0000002A2A2043617465676F72793A7F
:103B5000204F746865720D0A000000002A2A204E6A
:103B60006F74696669636174696F6E205549443A80
:103B7000203078253038780D0A0000002A2A204E9F
:103B8000656761746976652049443A200000000049
:103B90002A2A20446174653A200000002A2A204D18
:103BA0006573736167653A20000000002A2A20418E
:103BB0007070204964656E7469666965723A2000A8
:103BC0002A2A20417070204E616D653A2000000065
:103BD0002025730D0A000000002803D13B484180D6
:103BE00001210170704700006070051048700510D9
:103BF0002C70051010700510F06F051018B585B009
:103C00000EAC247804946C46A48E03946C46248EE7
:103C100002946C46A48D0194089C0094FFF7DCFF8D
:103C200006B010BD00202A490870022027490870FC
:103C3000704726480178082901D1062102E00A00D0
:103C400000D1092101707047A8700510947005100B
:103C5000847005107870051080B501F027FB01BD58
:103C600080B501F038FB01BD80B501F061FB01BDFD
:103C700080B501F0C5FB01BD80B501F078FB01BD49
:103C800080B501F0CBFB01BD10B5104C63888342B9
:103C90000BD110480B0003D101F09AF8032003E088
:103CA0002C3001F095F80020207010BD80B5074839
:103CB000408800F096FF002803D00100064801F07C
:103CC00087F801BD2A020000930500205C05002052
:103CD00034150020B47D05100082051081B08020CD
:103CE000400243490A6802430A600968084000909C
:103CF000009840480168404A0A408021C9011143A8
:103D00000160802080013D4908603D48016808222B
:103D10000A430260016804220A430260016801222A
:103D20000A430260002001B0704780B501F050FDE9
:103D3000002801D1032002BD012002BDF8B5324D9B
:103D400028680327FF432F4C012640070ED528681B
:103D5000042101432960286804218843286001F078
:103D60003EFD266021003800226E9047286800073B
:103D70000FD5286808210143296028680821884355
:103D8000286001F02CFD0220206021003800226E06
:103D900090472868304029D0286806432E6028685C
:103DA00001218843286001F031FD012806D101F08E
:103DB00016FD032020602100380015E0602120005E
:103DC000FDF70AFC2100012001F02DFD210020312A
:103DD000022001F028FD21004031032001F023FDE5
:103DE00001F0FDFC21000020226E9047F1BD000093
:103DF000500040480CE400E0FF00FFFF00E100E05D
:103E0000080030485C000020040030488B0707D0D1
:103E1000521E22D30B78491C0370401C8B07F7D12C
:103E2000830730D0DB4219D0401E121F08D308C9C7
:103E300043701B0A43801B0C0371001D121FF6D236
:103E4000D20707D30B88437001D08A78C2701B0A4F
:103E50008370704701D00B7843707047121F06D3F0
:103E600008C903801B0C4380001D121FF8D2D20723
:103E700005D30B88038005D08B788370704701D001
:103E80000B780370704770B4103A03D378C978C0C8
:103E9000103AFBD2530701D318C918C001D508C97D
:103EA00008C0D20704D30B880380801C891C002A19
:103EB00001D50B78037070BC704770479948006853
:103EC0008103C80F7047000081B0964801688903DC
:103ED000FCD5816802220A438260002102E000BF13
:103EE0000099491C009100990629F8DB8168042299
:103EF0000A43826001B070478A4800688106C80F93
:103F00007047884800684104C80F704786480068B9
:103F10004107C80F704730B50D00844C002A0AD005
:103F2000FA218900FEF774FB401E684360600020A0
:103F3000A060052002E0206801218843206030BD98
:103F40007A48006880214902084000D00120C0B2B0
:103F5000704770B50E00150001240122010074485D
:103F60000068FFF7D8FFB047A84204D06F48006848
:103F7000C003F8D50024002200210020FFF7CBFF6A
:103F8000200070BDFFB501212022002818D0AE48C6
:103F90000368E024A34313430360836D0624A34313
:103FA00002241C438465836B0B438363836B8B43C5
:103FB0008363836D0B438365806D08400090009898
:103FC0000723A2480469A24DAC4218D104680094AA
:103FD0000468076805682D0D1D4003950068000EF4
:103FE0001840029001250F26380C3040270AF02493
:103FF0003C400194009C240A2640009604E00820DE
:104000000090702401940025924C0F26F643276BF4
:10401000374038432063E06AF027B843019F0743E5
:10402000E762E06A064000983043E0623820002DE5
:104030000CD025689D43039E33402B4323602368A7
:104040008343029DED0005401D4325603F23DB4374
:10405000A56F1D400A262E43A667A56F40262E4356
:10406000A667E56F1D4004262E43E667E56F8026B0
:104070002E43E667E56F4026B543E567A034256823
:104080001D40256065681D4010262E436660A568AA
:104090001D402A43A260E2681A4030251543E560BE
:1040A00022691A4010432061606918403922024396
:1040B0006261A06918403A220243A261E069184097
:1040C0003B220243E261206A18403C220243226202
:1040D000606A03403D20184360625523FF20C043BF
:1040E0007F4A146804401C431460D4680440662569
:1040F0002543D560146A044023431362136C0340C4
:104100001D241C431464D36B034059241C43D46303
:10411000536C1840322303435364506A0143516285
:10412000FFBD0000000040481400504810E000E0CF
:10413000D0040020F8B505006B4C206880214902AE
:1041400001432160012269496420FFF702FF002832
:1041500001D10420F2BD28003025ED43614E20211D
:10416000E022D24303000BD14B0618681F68F023EE
:1041700003403807000F1843102851D10620F2BD24
:104180007700401E06284AD801A31B5C9F4400BF4D
:10419000083C485664728000554801682940102345
:1041A0000B430360A0680240A2603800514E3060AB
:1041B0002068802189010143216001224E49C820E5
:1041C000FFF7C7FE002834D10520F2BDA0680240E9
:1041D0001143A1603000E9E7A0680240402010438D
:1041E000A0607008E2E7A068024060201043A06071
:1041F000B008DBE7A068024080201043A060F00810
:10420000D4E7A0680240A0201043A0603009CDE7A9
:10421000A0680240C0201043A0607009C6E7FEE716
:10422000A06802401143A160FFF74EFE31480660CE
:1042300002E03068B84204D02D48006805402C48A0
:1042400005600020F2BD000008004048E81E001094
:10425000CCECBCFC4816006010B5FF2833D0042914
:104260000CD005290AD0062908D0072906D0062235
:10427000D2439A4B032903D1002809D1012010BD54
:10428000012805D01C682240022414431C6005E06C
:104290001868024004201043186001208022D205D3
:1042A00013681268F0241C401207120F2243102AD0
:1042B00009D18B4A012908D101280CD12A2010608C
:1042C00050680007FCD4002010BD022905D1012848
:1042D00003D12920F3E70028FBD02820EFE70000D6
:1042E000481500600048E80100004048BD3E041049
:1042F00004100040D0040020033F0410F3B583B045
:1043000078487949086079490861794D2868202101
:1043100001432960286840210143296028688021E1
:104320000143296001227349C820FFF712FE0028CB
:1043300001D10120CFE0A869302188432021014329
:10434000A9616D4CA068802149010143A16000264C
:104350006A4B58696A4988421AD1186819681A68FC
:104360001F683F043F0F02971B6801270197D70979
:104370001E223A4000921B02FC2292051A40CB01F9
:10438000E021890119408301F0208000184007E0F6
:10439000D80C10210091F02252050196C02149014C
:1043A000E368584F1F403A43E260E26880231B04F1
:1043B0001343E3601E22D243019B002B09D0E36824
:1043C0001340029F7F001F43E760E36801271F43FC
:1043D000E7604D4B1F683A40009F17431F601A6803
:1043E000012717431F601A68484F17403843186069
:1043F0001868202202431A601868454A0240114397
:10440000196018688021C90001431960A8698021DA
:1044100049000143A9613F48696A01406962A96A8C
:104420000840A862A0683C4901408020000208437F
:10443000A060E06860210143E160206804218843B6
:104440002060206810218843206096277F00334D2C
:10445000002229003800FFF77CFD002800D1022649
:104460002068102101432160012229003800FFF754
:1044700070FD002801D1022601E0300001D030009B
:1044800029E06846047CFF2C02D00120FFF77AFD6A
:104490006846057B22480168224A0A40802189013A
:1044A00011430160016880220A43026001687022A2
:1044B000914330220A4302602800FFF73BFE0100CF
:1044C00009D129002000FFF7C7FE010003D101F048
:1044D00013FA62B6002005B0F0BD0000600040484D
:1044E000005000400000041008ED00E0040000202F
:1044F000040050480D3F041000004048E41E001026
:10450000CCECBCFCFFFFFFC0940050483FFCFFFF19
:10451000FFC7FFFFFFCFFFFFFF7FFEFFF93E041045
:1045200098004048FFC0FFFFEFF31482EFF30981CA
:10453000002080F31488BFF36F8FF0B543464C46DC
:1045400055465E466746F8B40F4CEFF30883636048
:1045500006B4BFF34F8F30BF00BF00BF0A4C646882
:1045600084F3088882B003BCF8BC9846A146AA46EA
:10457000B346BC46F0BC04BC80F3098881F31488C0
:10458000BFF36F8F104700000400002070B5074C88
:104590000121206801F01AFA054620680121103037
:1045A00001F014FA01462943084670BD3805002081
:1045B00081B0A4490A6802430A6009680840009073
:1045C000009801B0704710B50B004B4301685C00C8
:1045D000E418A14353430B43036010BD43688B436E
:1045E000514319434160704710B50B004B4381683C
:1045F0005C00E418A14353430B43836010BD30B506
:10460000CB43914C9025ED05A8421AD1002A03D046
:10461000022A0FD007D330BD2068184020606068A0
:104620000340636030BD60680340636020680143FD
:10463000216030BD206803402360606801436160F1
:1046400030BD002A03D0022A0FD007D330BDA068A6
:104650001840A060E0680340E36030BDE0680340BC
:10466000E360A0680143A16030BDA0680340A3607F
:10467000E0680143E16030BD10B5090A0B004B430F
:104680004B434B43416A1C01E41AA14353430B4380
:10469000436210BD7CB506000420FFF789FF90251A
:1046A000ED058024A400022221002800FFF78BFFE3
:1046B000022221002800FFF797FF00222100280096
:1046C000FFF78CFF012221002800FFF798FF00224E
:1046D00021002800FFF7D0FF0420FFF769FF6408DE
:1046E000022221002800FFF76EFF0222210028008D
:1046F000FFF77AFF002221002800FFF76FFF012259
:1047000021002800FFF77BFF002221002800FFF78F
:10471000B3FFA00057490A6802430A6009680840CD
:104720000090009854488B21C1600168534A0A40A8
:1047300002604168524A0A40426001680C220A4302
:10474000026081684F4A0A40826081684E4A0A408E
:1047500082608168C900C9088160016862050A43F6
:1047600002604168494A0A40426081682A229143B6
:104770008160016801220A43026031000ED0444981
:104780000E60016820220A43026042480168FF224D
:10479000914340220A4302603F48046073BD10B554
:1047A00000233E4A06E014682406FCD5DCB2045D12
:1047B000D4605B1CDCB28C42F5D310BD80B5002107
:1047C000334A1268002A03D000F040F8010006E0E6
:1047D000324A13689B0602D59168017001210800D6
:1047E00002BD2B480268002A00D1704780B52B48D3
:1047F0000168890605D58068694608700121684608
:10480000904701BDF8B502000800254C2168254DF0
:10481000009200220AE0009E97B2F65D6E54491C99
:104820008026F600B14200D10021521C96B2864289
:10483000F1D32160F1BD194800680002C10F0120C9
:1048400048407047500040482000504814494A688A
:104850000B68934201D100207047124B9B5C0370A0
:10486000521C8020C000824200D100224A600120F8
:10487000704700005800404800400041FFE9FFEF4A
:10488000FFCFFFFFFFFCFFFFFFFFFFF1FFB7FFFFC1
:104890003000002008E400E000E100E01C4000419E
:1048A000D0100020EC09002070B50025012804D0AC
:1048B000022802D00020C04370BD002901D1002091
:1048C00070BD0C00160005E001212000FFF767FF16
:1048D000641C6D1C3000461E0028F5D1280070BDF8
:1048E00001B5012269460120FFF7DEFF009802BDF5
:1048F00010B501F079F810BD10B501F04DF910BDFB
:1049000080B501F069F901BD80B501F069F901BD1B
:1049100080B501F091F902BD80B501F0ADF901BD9E
:1049200080B501F0D1F902BD80B501F0F3F902BD07
:1049300080B501F00DFA01BD80B501F027FA01BD87
:1049400080B501F02DFA01BD80B501F03DFA01BD41
:1049500080B50120C04602BD80B501F079FA02BDE4
:1049600080B501F08BFA02BD80B501F096FA02BD68
:1049700080B501F0A1FA02BD80B501F0BDFA02BD1B
:1049800080B501F0DEFA02BD80B501F0E2FA01BDAA
:1049900080B501F0E7FA01BD80B501F0E8FA01BD8C
:1049A00080B501F001FB01BD80B501F01AFB01BD2E
:1049B00080B501F01DFB01BD80B501F022FB01BDFA
:1049C00080B501F027FB01BD80B501F02AFB01BDD8
:1049D00080B501F02BFB01BD80B501F02FFB01BDBF
:1049E00080B501F04EFB01BD80B501F051FB01BD6A
:1049F00080B501F06AFB01BD80B501F082FB01BD0D
:104A000080B501F09BFB01BD80B501F0B3FB01BD9A
:104A100080B501F0CBFB01BD80B501F0E3FB01BD2A
:104A200080B501F0FCFB01BD80B501F016FC01BDB5
:104A300080B501F017FC01BD80B501F036FC01BD69
:104A400080B501F039FC01BD80B501F03DFC01BD30
:104A500080B501F041FC01BD80B501F044FC01BD11
:104A600080B501F054FC01BD80B501F057FC01BDDB
:104A700080B501F06CFC01BD80B501F073FC01BD97
:104A800080B501F07BFC01BD80B501F07CFC01BD6F
:104A900080B501F07DFC01BD80B501F084FC01BD55
:104AA00080B501F088FC01BD80B501F08BFC01BD33
:104AB00080B501F092FC01BD80B501F095FC01BD0F
:104AC00080B501F09EFC01BD80B501F0A8FC01BDE0
:104AD00080B501F0AFFC01BD80B501F0B3FC01BDB4
:104AE00080B501F0B4FC01BD80B501F0B4FC01BD9E
:104AF00080B501F0B5FC02BD80B501F0F9FC02BD46
:104B000080B501F019FD02BD80B501F01DFD01BDAC
:104B100080B501F04DFD01BD80B501F077FD01BD0F
:104B200080B501F0F1FD01BD80B501F014FE02BDBC
:104B300018B585B00CAC247804940BAC247803949D
:104B40000AAC2478029409AC2478019408AC247847
:104B5000009401F033FE06B010BD80B501F050FEA8
:104B600001BD80B501F06CFE01BD80B501F0B8FE5D
:104B700001BD80B501F0E2FE02BD80B501F0F0FE9E
:104B800001BD80B501F032FF01BD80B501F03CFFF1
:104B900001BD80B501F066FF01BD80B501F082FF67
:104BA00001BD80B501F08EFF01BD80B501F09AFF17
:104BB00002BD80B501F09AFF02BD1FB5099C0394A8
:104BC00008AC247802946C46247F01946C46247EC1
:104BD000009401F093FF04B010BD80B501F0D4FF44
:104BE00002BD80B501F0D4FF02BD80B501F0D4FF55
:104BF00002BD80B501F0D4FF02BD80B501F0D4FF45
:104C000002BD80B501F0D4FF02BD80B501F0D4FF34
:104C100002BD80B501F0D4FF02BD1CB5049C009418
:104C200001F0DFFF16BD80B501F0F4FF02BD80B5D5
:104C300001F0F6FF02BD80B501F0FAFF02BD80B5BC
:104C400002F002F802BDFFB583B00D9F0E9E9C4698
:104C50000D4604000BD0A00703D1600701D4200744
:104C600005D5002D06D0012D04D0022D02D08220C2
:104C700007B0F0BD0C98009001970296624620465E
:104C8000059B01F0F1FF0028F2D1FFF761FE01283A
:104C900006D00C9900200880388030800020E7E79B
:104CA00029462046059A00F009F80028E0D132464E
:104CB00039460C9800F02EF8F0E77047F8B505007B
:104CC0000E003F4F3800FFF794FF04001AD16846EA
:104CD00005703C4D3800FFF790FF070068460078EC
:104CE000800706D0390028004830FFF78AFF04000B
:104CF00008D1022E08D1390028006C30FFF781FF5F
:104D0000040001D02000F2BD2FA20721002000F0F6
:104D100015F8F7E7F8B504000F001500294E30002C
:104D20009030FFF76AFF20803000FFF76EFF388079
:104D300030002430FFF769FF2880F1BD70B5040012
:104D40000D0016001F48FFE7FFF75FFF33002A0042
:104D50002100401C80B200F001F870BDF3B581B0B5
:104D600017001D000024174E694608802420604368
:104D70003018FFF74AFF002804D0401C6946098814
:104D8000884202D0641C042CF0D3042C09D068465D
:104D90000389242044433419206A8188DA19914216
:104DA00001DA8220FEBD29003A008068C018FCF7B5
:104DB000B3FA206A0178890700D547800020FEBD3C
:104DC0002C0400209C030020426C75654E52470065
:104DD0000EB4C0B5020003A801900020009001AB02
:104DE0000121044878440C3001F0D4FF029906B048
:104DF000084700BF7D350100FFB58BB0189C1C9F94
:104E000022461D9E1E9D0D990C9802F083FA0028E3
:104E100017D102F0A3FA002813D11B9808970A951E
:104E200007900996179A19991A9814AB049403924B
:104E30000591069007CB6B4607C30BA80FC802F07D
:104E4000B7FA0FB0F0BD10B502F0C4FA10BD10B53E
:104E500002F0C6FA10BD10B502F0C8FA10BD7047D6
:104E600081B063490A6802430A60096808400090FB
:104E7000009801B0704710B50B004B4301685C000F
:104E8000E418A14353430B43036010BD43688B43B5
:104E9000514319434160704710B50B004B43816883
:104EA0005C00E418A14353430B43836010BD30B54D
:104EB000CB43504C9025ED05A8421AD1002A03D0CF
:104EC000022A0FD007D330BD2068184020606068E8
:104ED0000340636030BD6068034063602068014345
:104EE000216030BD20680340236060680143616039
:104EF00030BD002A03D0022A0FD007D330BDA068EE
:104F00001840A060E0680340E36030BDE068034003
:104F1000E360A0680143A16030BDA0680340A360C6
:104F2000E0680143E16030BD38B5010018D10420CC
:104F3000FFF796FF9024E4054020A0610122402164
:104F40002000FFF798FF022240212000FFF7A4FF76
:104F5000002240212000FFF799FF0122402121E09B
:104F6000254C012805D10820FFF77AFF80256D0028
:104F700006E0022819D10820FFF772FF8025AD0056
:104F8000A561012229002000FFF775FF02222900F8
:104F90002000FFF781FF002229002000FFF776FFA5
:104FA000012229002000FFF782FF31BD010002D15C
:104FB0004020124909E01249012802D18020400016
:104FC00003E0022802D180208000086070470100C1
:104FD00002D140200B4909E00B49012802D1802071
:104FE000400003E0022802D1802080000860704762
:104FF0005000404820005048000010482800004859
:10500000280010481800004818001048F8B506009D
:105010000C001500C54F2C220021380002F0EAF9DF
:10502000142C01DA0D20F2BD7E803C84FD6103204A
:1050300038700020F2BDF0B589B0D926B521CE2256
:1050400001251220B94C05AB2778012F00D126E1AC
:10505000032F00D1F4E0052F00D1C0E0072F00D1CD
:105060008EE0092F5DD00B2F39D00D2F2CD00F2FB4
:1050700018D0112F00D017E1A18A00290DD0A27DF0
:10508000D20600D410E12070230038330222891C9C
:1050900089B26088FFF7CFFD002800D104E12570B8
:1050A0000A20F8E0218900290CD0A07AC00609D591
:1050B000230038330222891C89B26088FFF7BBFDC8
:1050C0000028ECD11020EEE0218A6088FFF7AFFDC8
:1050D000002802D025700920DDE00E20E3E02089C1
:1050E000A18A884207D202000800238A591C9842EC
:1050F00005D2E2880AE00A008142F5D2F5E7BF4E08
:10510000934201D2921900E0821992B289B260886A
:10511000FFF789FD002802D025700B20BBE00C2092
:10512000C1E0FB2018707B2058707C209870DA70EA
:105130006A201871B320587144209871BE20D8712C
:1051400019724B205872D62098722420D872E92008
:105150001873C6205873EA2098732220D87310223F
:1051600005A901A8FEF752FE01A800900223E288DB
:10517000A1886088FFF751FD00285ED10A2092E0E7
:105180001E705E70AA209870FD20D870BD20187126
:105190009B205871212098719820D871A8201872EE
:1051A00049205872E12098724520D872F320187374
:1051B000D8205873D12098736920D873102205A97C
:1051C00001A8FEF723FE01A800900223E288A1882F
:1051D0006088FFF722FD00282FD1082063E0BD2161
:1051E00019701D215970A22199709921D970E62159
:1051F000197125215971582199718C21D9711E720B
:10520000422159729D726321D9720D21197358730D
:10521000BF2098739F20D873102205A901A8FEF71C
:10522000F5FD01A800900223E288A1886088FFF7BD
:10523000F4FC002801D1062035E0257007202AE083
:10524000D0261E7000265E702D269E70D8701E20FF
:1052500018714B2058710F209871A420D871992093
:1052600018724E2058729A72D97231201873F42035
:105270005873052098737920D873102205A901A8C6
:10528000FEF7C4FD01AA02216088FFF7C2FC0028D6
:1052900003D025700620E07506E0042003E0E07DE1
:1052A000FEF720FA0220207009B0F0BD30B51F4B88
:1052B0005C78002C0ED101245D88A84201D101291F
:1052C00003D01C700320D87530BD1088988050889A
:1052D000D8805C7030BD30B50124144A5588A8428E
:1052E00002D0147004201AE010201578062D05D184
:1052F0001D78054211D011811D7895721578082D01
:1053000005D11D782D0708D591811D7895731578E5
:105310000A2D09D11D78054203D114700520D075DE
:1053200030BD91821878907530BD0000D8040020FF
:10533000012900D0704770B58F4C6188814215D12A
:10534000002501E02D1DEDB295420FDA595D581987
:10535000407800020843591989785E19F6783602B8
:105360000E43A42189018E42ECD1208270BD38B554
:1053700002000800804C618891423ED10F21022535
:105380002278042A10D0062A10D0082A10D00A2A1F
:1053900010D00C2A13D00E2A13D0102A13D0122AA0
:1053A00014D0132A16D031BD05200DE007200BE0E4
:1053B000092009E0A07B000603D50B2004E00D20A6
:1053C00002E0217031BD1120207031BD2570FEF743
:1053D00089F931BD010005D125702A20205C002803
:1053E00006D131BD002300220021FEF7E5F925702A
:1053F00000202622A0542A21605431BDFFFF000066
:105400005D494B88834207D108780E2804D1107873
:105410005278120202434A8270470000FEB5564E8F
:105420007488A04226D13089401C0C00844203D0ED
:10543000B18A491C8C421DD169460A721F00844200
:1054400015D10020082A00D00E2039797A7912026D
:105450000A43B97909041143FA7912060A43019201
:10546000F9780091BB787A783978FEF75DF9B08ADF
:10547000401C844200D07EE000252620305C0028BD
:1054800000D178E0708C318C6B461B7AC218914247
:1054900009DA2421725CF1698B18821A92B20978B8
:1054A0000D20FEF789F96846027A3900F069738C9D
:1054B000C018FEF7ABFC708C6946097A40187084FE
:1054C0000120009000242AE0318D785D000208431D
:1054D000308538D1062027217054308B002810D118
:1054E0002720305C06280CD1F0692421715C431818
:1054F000728C521A92B201780020FEF75DF92621D3
:1055000074542720305C062808D12720345405E045
:105510000098252170540520272170546D1C684681
:10552000007A854227DA2720305C0528D5D801A1EA
:1055300009568F441C149204DA2C308D401E30859D
:105540000004EBD1C6E70320E6E7785D3085022052
:10555000E2E7308B00997A5D914088433083009870
:10556000DAE72520305C401C252170542421715C31
:10557000C0B28842C8E7F7BDD80400200FB4F8B520
:10558000874D2878132801D10C20A2E000206884E0
:1055900028830520242168540420272168540020F2
:1055A000E9690870042206A9E869401CFEF72EFC90
:1055B0000524012706AE3079002807D0288B012169
:1055C000014329830020E969487106247079002885
:1055D00011D0288B022101432983E9690F55641CEE
:1055E000F088002807D00222B11DE869E3B2C01894
:1055F000FEF70CFCA41C307A002814D0288B042160
:10560000014329830220E969E2B28854641C70894D
:10561000002808D0022231000A31E869E3B2C0183C
:10562000FEF7F4FBA41C307B002814D0288B082143
:10563000014329830320E969E2B28854641CF0899C
:10564000002808D0022231000E31E869E3B2C01808
:10565000FEF7DCFBA41C307C002808D0288B10212E
:10566000014329830420E969E2B28854641C707CF8
:10567000002808D0288B2021014329830520E969CF
:10568000E2B28854641CB07C002808D0288B4021EA
:10569000014329830620E969E2B28854641CF07C46
:1056A000002808D0288B8021014329830720E9693D
:1056B000E2B28854641CEB69E2B2A989491C89B240
:1056C0006888FFF7B8FA010003D113212970262159
:1056D0006F5401B00499F0BC05B00847F8B5304CE0
:1056E0002278132A01D10C20F2BD07000025658421
:1056F0002583401C2422A05404202722A0540126E4
:10570000E26916703A00E069401CFEF77FFB7F1CDF
:10571000208B012101432183E169FAB28D547F1C62
:10572000FFB2A189491CA185E5852786E3696363EA
:105730006088152F04DB21002C31FFF780FA03E08D
:105740003A0089B2FFF777FA010003D113212170E3
:1057500026216654F2BD31B5114C2078132801D1B1
:105760000C2032BD0D000220E16908700422694658
:10577000E069401CFEF74AFBE0694571E3690622D7
:10578000A189491C89B26088FFF755FA010006D14A
:105790001321217001212A23E1542622A15432BD74
:1057A000D804002038B50025ED43174C20680228A6
:1057B0000CD1FEF793FA002808D1EFF3108072B6EF
:1057C0000121216080F31088002032BD280032BD05
:1057D0000D480068012801D1002070470BE0EFF36D
:1057E000108072B608490A68032A00D001E001223D
:1057F00004E080F310880120C04370470A6080F302
:1058000010880020704700007004002011480078C4
:10581000002801D0012070470F480068002800D000
:105820000120C0B27047012808D10C480022835CD7
:105830008B54521C202AFADB00207047022801D129
:105840000748F3E7032801D10648EFE70120704736
:1058500000000000E7100020000430486C043048CD
:1058600090043048B404304810B5C20018231340E7
:10587000FF249C40E2438907090E9940030004D4A9
:1058800016489B089B00C01806E0154B0007000F48
:10589000083880088000181803681A401143016016
:1058A00010BD80B50F480068002814D10E4801686B
:1058B000002902D1806A00280DD001200B498860A0
:1058C000FEF74CFEBFF34F8F09480A490860BFF34B
:1058D0004F8F00BFFDE7012002BD000000E400E0A3
:1058E0001CED00E0940040481000504804000020E7
:1058F0000400FA050CED00E080B503210020FFF75D
:10590000B3FF03210120FFF7AFFF03210220FFF7C0
:10591000ABFF03210320FFF7A7FF03210420FFF7BC
:10592000A3FF03210520FFF79FFF03210620FFF7B8
:105930009BFF03210720FFF797FF03210820FFF7B4
:1059400093FF03210920FFF78FFF03210A20FFF7B0
:105950008BFF03210B20FFF787FF03210C20FFF7AC
:1059600083FF03210D20FFF77FFF03210E20FFF7A8
:105970007BFF03210F20FFF777FF03211020FFF7A4
:1059800073FF03211120FFF76FFF00211220FFF7A3
:105990006BFF03211320FFF767FF03211420FFF79C
:1059A00063FF03211520FFF75FFF03211620FFF798
:1059B0005BFF01211720FFF757FF00211820FFF799
:1059C00053FF03211920FFF74FFF01BD0A46920044
:1059D000121F8258491E002A01D001207047002959
:1059E000F4D10020704770477FB5040066480D462B
:1059F0000068164610D0062C14D0082C0FD0182C96
:105A00000DD0282C0ED02A2C0CD02C2C0DD02E2CC6
:105A10000ED0D02C43D044E0062D0FD041E0102D05
:105A20000CD03EE0022D09D03BE0012D06D038E03D
:105A3000062D36D171798909032948D100192A46E2
:105A40003146FEF7E3F9FEF783FF012822D12C2C23
:105A500020D1307800281DD00020C04601281AD05F
:105A60001B201F304009401C41004118012001F05B
:105A7000CDFC0020C04601280FD01B201F3040095C
:105A80004100401841498989081AC01E81B200208E
:105A900001F0BCFC73E0FB20E3E7FB20EEE7012D07
:105AA00004D00020C046012805D006E01078FFF79A
:105AB00060F804B070BDD12C0AD0302C26D0D32C85
:105AC0002AD0FF2C2ED02F2C39D0322C45D058E0A4
:105AD000082D56D1022231466846FEF797F9022278
