:020000041004E6
:1000000000000120F1100410B5080410C10F041005
:10001000AA5555AA45554C420000000000000000BA
:100020000000000000000000000000004F07041066
:100030000000000000000000B7080410C30F041007
:10004000070E0410230E0410FB0E0410570F0410AB
:10005000B30F0410CF100410DB100410FD100410B7
:10006000FF100410011104100311041005110410F5
:1000700007110410091104100B110410D70F0410FC
:100080000D1104100F11041011110410131104109C
:100090001511041017110410191104101B1104106C
:1000A0001D1104101F1104100000000000000000CA
:1000B0000000000000000000000000000000000040
:1000C000944800684107C80F70479348006881034F
:1000D000C80F704781B0904801688903FCD58168DA
:1000E00002220A438260002102E000BF0099491CFD
:1000F000009100990629F8DB816804220A43826096
:1001000001B07047844800688106C80F7047824874
:1001100000684104C80F704730B50D007F4C002ABD
:100120000AD0FA21890000F0F7FA401E68436060A7
:100130000020A060052002E02068012188432060A3
:1001400030BD70B50E001500012401220100744875
:100150000068FFF7E1FFB047A84204D06F4800688D
:10016000C003F8D50024002200210020FFF7D4FFAF
:10017000200070BDFFB501212022002818D0AE4814
:100180000368E024A34313430360836D0624A34361
:1001900002241C438465836B0B438363836B8B4313
:1001A0008363836D0B438365806D084000900098E6
:1001B0000723A2480469A24DAC4218D104680094F8
:1001C0000468076805682D0D1D4003950068000E42
:1001D0001840029001250F26380C3040270AF024E1
:1001E0003C400194009C240A2640009604E008202C
:1001F0000090702401940025924C0F26F643276B43
:10020000374038432063E06AF027B843019F074333
:10021000E762E06A064000983043E0623820002D33
:100220000CD025689D43039E33402B4323602368F5
:100230008343029DED0005401D4325603F23DB43C2
:10024000A56F1D400A262E43A667A56F40262E43A4
:10025000A667E56F1D4004262E43E667E56F8026FE
:100260002E43E667E56F4026B543E567A034256871
:100270001D40256065681D4010262E436660A568F8
:100280001D402A43A260E2681A4030251543E5600C
:1002900022691A40104320616069184039220243E4
:1002A0006261A06918403A220243A261E0691840E5
:1002B0003B220243E261206A18403C220243226250
:1002C000606A03403D20184360625523FF20C0430D
:1002D0007F4A146804401C431460D46804406625B7
:1002E0002543D560146A044023431362136C034012
:1002F0001D241C431464D36B034059241C43D46352
:10030000536C1840322303435364506A01435162D3
:10031000FFBD0000140050480000404810E000E01D
:100320003C000020F8B505006B4C20688021490294
:1003300001432160012269496420FFF702FF002880
:1003400001D10420F2BD28003025ED43614E20216B
:10035000E022D24303000BD14B0618681F68F0233C
:1003600003403807000F1843102851D10620F2BD72
:100370007700401E06284AD801A31B5C9F4400BF9B
:10038000083C485664728000554801682940102393
:100390000B430360A0680240A2603800514E3060F9
:1003A0002068802189010143216001224E49C82033
:1003B000FFF7C7FE002834D10520F2BDA068024037
:1003C0001143A1603000E9E7A068024040201043DB
:1003D000A0607008E2E7A068024060201043A060BF
:1003E000B008DBE7A068024080201043A060F0085E
:1003F000D4E7A0680240A0201043A0603009CDE7F8
:10040000A0680240C0201043A0607009C6E7FEE764
:10041000A06802401143A160FFF75CFE314806600E
:1004200002E03068B84204D02D48006805402C48EE
:1004300005600020F2BD000008004048E81E0010E2
:10044000CCECBCFC4816006010B5FF2833D0042962
:100450000CD005290AD0062908D0072906D0062283
:10046000D2439A4B032903D1002809D1012010BDA2
:10047000012805D01C682240022414431C6005E0BA
:100480001868024004201043186001208022D20521
:1004900013681268F0241C401207120F2243102A1E
:1004A00009D18B4A012908D101280CD12A201060DA
:1004B00050680007FCD4002010BD022905D1012896
:1004C00003D12920F3E70028FBD02820EFE7000024
:1004D000481500600048E80100004048CB000410C7
:1004E000041000403C0000200F010410F3B583B05D
:1004F00078487949086079490861794D2868202150
:10050000014329602868402101432960286880212F
:100510000143296001227349C820FFF712FE002819
:1005200001D10120CFE0A869302188432021014377
:10053000A9616D4CA068802149010143A16000269A
:100540006A4B58696A4988421AD1186819681A684A
:100550001F683F043F0F02971B6801270197D709C7
:100560001E223A4000921B02FC2292051A40CB0147
:10057000E021890119408301F0208000184007E044
:10058000D80C10210091F02252050196C02149019A
:10059000E368584F1F403A43E260E26880231B043F
:1005A0001343E3601E22D243019B002B09D0E36872
:1005B0001340029F7F001F43E760E36801271F434A
:1005C000E7604D4B1F683A40009F17431F601A6851
:1005D000012717431F601A68484F174038431860B7
:1005E0001868202202431A601868454A02401143E5
:1005F000196018688021C90001431960A869802129
:1006000049000143A9613F48696A01406962A96ADA
:100610000840A862A0683C490140802000020843CD
:10062000A060E06860210143E16020680421884304
:100630002060206810218843206096277F00334D7A
:10064000002229003800FFF77CFD002800D1022697
:100650002068102101432160012229003800FFF7A2
:1006600070FD002801D1022601E0300001D03000E9
:1006700029E06846047CFF2C02D00120FFF77AFDB8
:100680006846057B22480168224A0A408021890188
:1006900011430160016880220A43026001687022F0
:1006A000914330220A4302602800FFF73BFE01001D
:1006B00009D129002000FFF7C7FE010003D100F097
:1006C0008FF862B6002005B0F0BD00006000404821
:1006D000005000400000041008ED00E0040000207D
:1006E00004005048C100041000004048E41E0010FF
:1006F000CCECBCFCFFFFFFC0940050483FFCFFFF68
:10070000FFC7FFFFFFCFFFFFFF7FFEFF05010410C4
:1007100098004048FFC0FFFF094214D088420FD321
:100720000122030C01D100041204002300185B41D4
:100730008B4200D35B1A5241F8D319001000704766
:1007400001000020704708B500F0B6F808BD7047FA
:1007500010B5C20018231340FF249C40E2438907D0
:10076000090E9940030004D416489B089B00C0184A
:1007700006E0154B0007000F0838800880001818A5
:1007800003681A401143016010BD80B50F4800682E
:10079000002814D10E480168002902D1806A00287F
:1007A0000DD001200B49886000F087F8BFF34F8F10
:1007B00009480A490860BFF34F8F00BFFDE70120D9
:1007C00002BD000000E400E01CED00E094004048A1
:1007D00010005048040000200400FA050CED00E071
:1007E00080B503210020FFF7B3FF03210120FFF7AD
:1007F000AFFF03210220FFF7ABFF03210320FFF728
:10080000A7FF03210420FFF7A3FF03210520FFF723
:100810009FFF03210620FFF79BFF03210720FFF71F
:1008200097FF03210820FFF793FF03210920FFF71B
:100830008FFF03210A20FFF78BFF03210B20FFF717
:1008400087FF03210C20FFF783FF03210D20FFF713
:100850007FFF03210E20FFF77BFF03210F20FFF70F
:1008600077FF03211020FFF773FF03211120FFF70B
:100870006FFF00211220FFF76BFF03211320FFF70A
:1008800067FF03211420FFF763FF03211520FFF703
:100890005FFF03211620FFF75BFF01211720FFF701
:1008A00057FF00211820FFF753FF03211920FFF7FE
:1008B0004FFF01BD7047704770477047F0B586B075
:1008C00002007E48009200220EE0130423610AE039
:1008D0002B00039D1D43A560009B9025ED05AB42B9
:1008E000E368F2D12261521C0B68D34000D1E3E0EF
:1008F000DB07F8D54B68022B01D0122B0ED1009BE1
:10090000D408A4001B191C6A96001C2535400F262C
:10091000AE40B4430E69AE4026431E62009B1D6884
:10092000530003269E40F44325400E79B607B60FC8
:100930009E402E43009D2E604D68012D05D0022D56
:1009400003D0112D01D0122D14D1009DAD682C4083
:10095000CD689D402543009B9D60009B5C68012302
:1009600001259540AC434D682D092B40934023430E
:10097000009C63608B68009C9025ED05AC421DD106
:10098000002B03D0022B11D008D334E00C68E343D2
:1009900004681C400460446823400DE00B68446810
:1009A0009C43446004682343036024E00B680468AC
:1009B0009C4304604468234343601CE0002B03D045
:1009C000022B11D008D316E00C68E34384681C4066
:1009D0008460C46823400DE00B68C4689C43C46015
:1009E00084682343836006E00B6884689C438460CA
:1009F000C4682343C3604D68EB0000D473E7002351
:100A00002F4C246801269640049636040396F6433C
:100A100002962D09802676013540954001279740A2
:100A2000FE430196009E9027FF05BE4202D1019E23
:100A3000264002E0029E26402D043543204C2560CE
:100A40004D680595ED031DD46568009EBE4201D139
:100A5000019E00E0029E2E40059FC025AD033D4053
:100A6000C027BF03BD420CD10123A660009D902783
:100A7000FF05BD4202D13500049E01E03500039E12
:100A80002E436660A568002B00D024E79023DB0589
:100A9000009E9E4202D12E00019D01E02E00029D8B
:100AA00035404E68F60200D415E7009E9E4200D005
:100AB0000EE72B00049D0DE706B0F0BD2000504866
:100AC0000C00004081B05E490A6802430A60096870
:100AD00008400090009801B0704710B50B004B43E0
:100AE00001685C00E418A14353430B43036010BD4D
:100AF00043688B43514319434160704710B50B0065
:100B00004B4381685C00E418A14353430B4383606B
:100B100010BD30B5CB434B4C9025ED05A8421AD102
:100B2000002A03D0022A0FD007D330BD2068184016
:100B3000206060680340636030BD606803406360AC
:100B400020680143216030BD206803402360606855
:100B50000143616030BD002A03D0022A0FD007D3C1
:100B600030BDA0681840A060E0680340E36030BD7D
:100B7000E0680340E360A0680143A16030BDA06865
:100B80000340A360E0680143E16030BD38B5010077
:100B900018D10420FFF796FF9024E4054020A061BF
:100BA000012240212000FFF798FF0222402120006F
:100BB000FFF7A4FF002240212000FFF799FF012248
:100BC000402121E0204C012805D10820FFF77AFFC1
:100BD00080256D0006E0022819D10820FFF772FF7A
:100BE0008025AD00A561012229002000FFF775FFD7
:100BF000022229002000FFF781FF002229002000A7
:100C0000FFF776FF012229002000FFF782FF31BDA8
:100C1000010005D10D48016840224A40026070473A
:100C20000B49012803D108688022520004E0022801
:100C300004D108688022920042400A607047000098
:100C40005000404820005048000010481400004860
:100C50001400104810B5002801D0002901D101204E
:100C600010BD0A6802600A6830484B681B060368BA
:100C700002D19343036001E01A4302600A688B6863
:100C8000D143DCB2032C02D143681A4307E0012CA4
:100C90000DD0022C01D0042C06D142680A404260DB
:100CA00082681140816008E0DBB2052B05D1436802
:100CB0001940416081680A438260002010BD030032
:100CC0000020002901D15A60704701207047002898
:100CD00001D1012070470068154A0129116802D12D
:100CE0000843106001E0814311600020704738B56F
:100CF000040020680F4D29680140814205D16168D8
:100D0000002900D088472068286031BD0068094963
:100D100009680140814201D10120704700207047DD
:100D20000068044908607047000000000C000040A3
:100D3000180000401C00004030B589B0FF2102209F
:100D4000FFF7D4FB002800D0FEE700F05DF801209B
:100D5000FFF71CFFFA20400000F064F81422002185
:100D600004A800F073F80C22002101A800F06EF82E
:100D700004201F490A6802430A600A681040009074
:100D80000098802040004A6802434A604968084051
:100D9000009000980024059406948025ED000495A9
:100DA00004A99020C005FFF789FD0195012003905B
:100DB0000294104C01A92000FFF74CFF0E4A0021BD
:100DC0002000FFF77CFF01212000FFF780FF2000BB
:100DD000FFF7A6FF01210F2000F05FF80F2000F0C1
:100DE00061F801210020C04300F057F8FEE7000041
:100DF0005000404840000020FD0D041080B5012047
:100E0000FFF706FF01BD704710B50024032000F076
:100E100075F8002801D0012401E000F095F82000C9
:100E200010BD704738B5050000F096F804000020AA
:100E3000C043854202D0044880682D1800F08CF829
:100E4000001BA842FAD331BD3000002010B50400C9
:100E5000080011000200200000F084F8200010BDFE
:100E600010B5C20018231340FF249C40E2438907B9
:100E7000090E9940030004D41B489B089B00C0182E
:100E800006E01A4B0007000F083880088000181889
:100E900003681A401143016010BD80B5FFF7E0FF01
:100EA00001BD0000010005D40121C006C00E814033
:100EB0000F480160704710B5401E802149048842E8
:100EC00001D3012010BD0B4C606003210020C04302
:100ED000FFF7C6FF0020A0600721216010BD80B58C
:100EE00000F00AF801BD000000E400E01CED00E0A5
:100EF00000E100E010E000E070477047F8B5060040
:100F00000024104DA868002818D000F053F80700FE
:100F1000FA208000A968FFF7FFFB01003800FFF707
:100F2000FBFBFFF7C8FF002808D1042E06D23100D2
:100F30000020C043FFF7B1FF6E6000E001242000F5
:100F4000F2BD00BF3000002080B501210020C04369
:100F5000FFF7A3FF01BD704701480068704700BF5D
:100F6000300000201206130A1A43130C1A4300BF64
:100F7000094205D0830705D00270401C491EF9D1F3
:100F8000704700001300103906D330B41400150068
:100F900010393CC0FCD230BC490700D30CC000D58E
:100FA00004C0890002D30280801C002900D5027091
:100FB0007047704701480068704700003C000020FF
:100FC000FEE780B500F026F8FFF789FF0E480168BC
:100FD000491C016001BD10B50C4C2000FFF796FEC6
:100FE00000280FD0084801684268891AAF225200D1
:100FF000914204D3016841602000FFF778FE206829
:101000000349086010BD0000480000204000002097
:101010001C0000400248016882688918016070471E
:101020003000002030B501684118446862088A1811
:101030008368E40704D54C461B1901E0641C06D103
:1010400091420BD00C7864B2491C0D78491C1D707C
:101050005B1C002CF2D4641EF7D5F1E70C3030BDD8
:1010600010B5074979441831064C7C44163404E025
:10107000081D0A68891888470100A142F8D110BDEF
:1010800008000000240000009DFFFFFFA4000000F6
:1010900018000000C00000208DFFFFFF840000004A
:1010A0002000000030000020FFF76FFB002801D077
:1010B000FFF7D6FF00BF00BF002000BF00BFFFF753
:1010C0003BFE00F000F880B500F002F801BD70476B
:1010D0000746384600F002F8FBE7704780B500BFCE
:1010E00000BF024A11001820ABBEFBE72600020039
:1010F00000BF00BF00BF00BFFFF7D6FF70477047BB
:101100007047704770477047704770477047704727
:101110007047704770477047704770477047704717
:10112000FC000004FD000001FC000290D003F00070
:0C11300081008100810081008100DF004F
:04000005100410F1E2
:00000001FF
