:020000041004E6
:100000000000012099250410DD090410812404104A
:10001000AA5555AA45554C420000000000000000BA
:10002000000000000000000000000000DF090410D4
:1000300000000000000000003F0F041083240410A3
:10004000BF0F0410171004107F1704105B1B04105F
:100050007B1D0410DB1F04108F240410E320041008
:10006000A7230410472504105325041083250410EA
:10007000B1250410B3250410B5250410B7250410CC
:10008000B925041099240410BB250410BD250410C3
:10009000BF250410C1250410C3250410C525041074
:1000A000C7250410C925041000000000000000004E
:1000B0000000000000000000000000000000000040
:1000C0008020C00500680007000F70478020C00531
:1000D00000680006000F7047AE49CBE0AE480068EC
:1000E0004107C80F7047AD490A68AD4B70E0AB4996
:1000F0000A6830239A43BEE0AA490A6882430A602C
:10010000091DBCE0A8490A68A84B1340C002E022C0
:10011000920102401A430A6008688022D20080E0FF
:10012000A1490A68B64B13408001F02292000240B8
:100130001A430A600868202273E09B490A681E235C
:100140009A434000034013430B6068E0AD480168E8
:10015000802252020A4302607047AA480068810365
:10016000C80F7047A8490A68A84B134000021843FB
:1001700008600868802254E0A3490A6870239A4303
:1001800079E0A3490A68A34B1340000618430860AE
:1001900008688022120444E081B09A480068800315
:1001A000FBD59D48016802220A430260002102E05B
:1001B00000BF0099491C009100990629F8DB0168ED
:1001C00004220A43026001B0704793490A68934BC6
:1001D00013401843086070478A48016810220A4398
:1001E00002607047874801681022914301607047A0
:1001F000844800688106C80F704785490A686023F3
:100200009A4338E07F4801680422914301607047B7
:100210007F490A681E239A4340001043086008681B
:10022000012202430A6070477D490A6806239A4307
:1002300021E079490A687B4BCAE77248016880224D
:1002400092010A43026070476E4800684104C80F7B
:10025000704771490A68E0239A430CE081B0704905
:100260000A6802430A60096808400090009801B0DB
:1002700070476D490A681043086070476A490A6808
:1002800082430A607047426830239A4311434160B9
:10029000704710B50C00002A0ED0FA21890000F03A
:1002A000B7FA401E6043CB4908600020CA49086085
:1002B0000520CA49086010BDC84801680122914361
:1002C000016010BDC548006880214902084000D087
:1002D0000120C0B2704770B50E0015000124012244
:1002E0000100BF480068FFF7D4FFB047A84204D020
:1002F000FFF7E8FF0028F8D00024002200210020AA
:10030000FFF7C7FF200070BDF8B50122B549C8202E
:10031000FFF7E1FF002801D10120F2BD2020FFF707
:10032000E6FE80204001FFF784FFAF480068AF4938
:10033000884212D10F20AE490F6807400A68520662
:10034000540F0A68150A05400A68120B1040009005
:1003500008688002800E012604E0082508271E2078
:1003600000260324FFF70DFF002E02D00098FFF7B0
:100370004FFF2800FFF7E1FE3800FFF7D1FE200015
:10038000FFF7C0FE80204000FFF7ADFE0020F2BD69
:100390000000000004005048140050481C00504861
:1003A000FFFEFFFF2800504894005048FFC7FFFFA2
:1003B00070B50024C0208001FFF79EFE802000025F
:1003C000FFF703FF6020FFF718FFFFF71BFFFFF7A2
:1003D00009FF96267600874D002229003000FFF79E
:1003E0007AFF002800D10224FFF7F6FE012229003F
:1003F0003000FFF770FF002800D10224200070BDFC
:100400003FFCFFFF0000404898004048FFC0FFFF4E
:100410000C004048FFFFFFC008004048FF7FFEFF80
:1004200060004048FFEFFFFF40004048F8B500285B
:100430000ED02020FFF70DFF0220FFF7F5FE012070
:10044000FFF717FF0120FFF719FF0120FFF706FF55
:10045000654800686549884215D19D490A680D685C
:100460000B6807200C68240D04400968090E084039
:10047000009001210F201B0C03402E0AF02535406F
:10048000120A104003E008207025082300210F22E3
:10049000D243904E376817403B4333608E4B1E6803
:1004A000F027BE4335431D601D682A401043186085
:1004B000002910D089480168072291436207520F32
:1004C0000A430260016838229143009AD20038231F
:1004D00013400B4303603F20C04381490A68024038
:1004E0000A2313430B600A68402313430B60091D62
:1004F0000A680240042313430B600A6880231343F5
:100500000B600A6840239A430A6024310A6802405B
:100510000A60091D0A680240102313430B60091D7D
:100520000A680240202313430B60091D0A68024039
:10053000302313430B60091D0A680240382313431C
:100540000B60091D0A680240392313430B60091D23
:100550000A6802403A2313430B60091D0A680240EF
:100560003B2313430B60091D0A6802403C231343DD
:100570000B60091D0A6810403D2202430A605521A4
:10058000FF20C043754A136803400B4313600C32CD
:100590001368034066241C4314601432136803403C
:1005A0001943116088490A6802401D2313430B60F8
:1005B000091F0A680240592313430B6008310A6877
:1005C0001040322202430A608048016801220A4337
:1005D0000260F1BD14E000E018E000E010E000E08F
:1005E00038000020DD000410F81E0010CCECBCFC2C
:1005F000E41E0010F101041010B50400FFF7A6FD81
:1006000001227B496420FFF766FE002801D1042007
:1006100010BD200009D1FFF759FD0401FFF750FD7F
:100620002043102840D1062010BD641E062C3AD865
:1006300001A0005D874400BF08323C46505A640068
:1006400010216C48FFF71FFE0020FFF702FE6048F4
:10065000664C2060FFF7F1FD01226749C820FFF7D3
:100660003AFE002829D1052010BD2020FFF7F1FD1A
:100670005848EDE74020FFF7ECFD5748E8E76020D9
:10068000FFF7E7FD5548E3E78020FFF7E2FD544818
:10069000DEE7A020FFF7DDFD5248D9E7C020FFF7D5
:1006A000D8FD5148D4E7FEE72020FFF7D2FDFFF741
:1006B00073FD48484D49086003E02068444988427A
:1006C00003D000214B48FFF7DEFD002010BD0000E5
:1006D000E81E00107816006074160060481600606E
:1006E000C016006070B50400FF282BD00D00042D4B
:1006F00009D0052D07D0062D05D0072D03D0032DD9
:1007000003D1002C07D1012070BD012C03D00220A1
:10071000FFF78AFD03E00420FFF786FD0124FFF7C1
:10072000D5FC0601FFF7CCFC304310280AD1012D7F
:100730000AD1012C0ED12A203049086030480068C7
:100740000007FBD4002070BD022D05D1012C03D180
:100750002920F1E7002CFBD02820EDE748150060A8
:1007600038B504000D00274827490860274908616B
:100770002020FFF7B1FC4020FFF7AEFC8020FFF700
:10078000ABFCFFF7C1FD01001DD1FFF711FE010019
:1007900019D1FF2D02D00120FFF748FE2020FFF7DE
:1007A000E1FC3020FFF7E8FC2000FFF725FF010007
:1007B00009D121002800FFF795FF010003D100F0C7
:1007C000A3F862B6002032BD881500606C15006089
:1007D0000090D0030048E8010024F40000127A00E1
:1007E00000093D0080841E0040420F0038000020B8
:1007F0005B0104100010004049020410005000404A
:10080000045000400000041008ED00E00400002047
:10081000094214D088420FD30122030C01D10004F5
:100820001204002300185B418B4200D35B1A524133
:10083000F8D319001000704701000020704708B578
:1008400000F0CEF808BD4300F0B5020013D4182222
:10085000254B8408A4001C59FF25C6001640B5404E
:10086000AC438907090EC5002A4091402143800806
:1008700080001950F0BD0F251C4B18242A40083A5F
:10088000920892000540083DAD08AD005D59FF2675
:10089000C7002740BE40B5438907090EC000044089
:1008A000A14029439950F0BDBFF34F8F1048114923
:1008B0000860BFF34F8F00BFFDE780B50E480068AA
:1008C00000280ED10D480068002803D10C480068AC
:1008D000002806D001200B49886000F082F8FFF75D
:1008E000E3FF012002BD000000E400E01CED00E099
:1008F0000400FA050CED00E0940040481000504858
:10090000380050480400002080B503210020FFF784
:100910009BFF03210120FFF797FF03210220FFF730
:1009200093FF03210320FFF78FFF03210420FFF72C
:100930008BFF03210520FFF787FF03210620FFF728
:1009400083FF03210720FFF77FFF03210820FFF724
:100950007BFF03210920FFF777FF03210A20FFF720
:1009600073FF03210B20FFF76FFF03210C20FFF71C
:100970006BFF03210D20FFF767FF03210E20FFF718
:1009800063FF03210F20FFF75FFF03211020FFF714
:100990005BFF03211120FFF757FF00211220FFF713
:1009A00053FF03211320FFF74FFF03211420FFF70C
:1009B0004BFF03211520FFF747FF03211620FFF708
:1009C00043FF01211720FFF73FFF00211820FFF709
:1009D0003BFF03211920FFF737FF01BD7047704728
:1009E00070477047F0B597B0050016001F001C98BF
:1009F0006A460023002418C2059104A92B228854BA
:100A00000B9303950F960EE023000F9A04A9039809
:100A100000F07AFA002800D5D8E001E0F4D50124EE
:100A20000F9800190F900F980078252809D1002001
:100A3000089009900A9002240821029104210F9D38
:100A40000CE06A460021C9430F9800F0A7FA0400A1
:100A5000E4D10B98BCE00200012010436D1C2A7801
:100A6000202AF8D0232A0AD02B2A04D02D2A04D0F9
:100A7000302A07D009E02043F0E70843EEE7020000
:100A80000820EAE702001020E7E72A2A0CD13B6899
:100A90001A681B1D3B600D92002A03D553420D932B
:100AA000014308006D1C14E000210D91004A0BE089
:100AB000CBCCCC0C0D9B934205DA9E00F3185B0067
:100AC000591830390D916D1C29780B00303B0A2BD9
:100AD000F0D329782E2903D00021C9430C9125E0B9
:100AE0006D1C29782A2906D139680A68091D3960E0
:100AF0000C926D1C1AE02D2902D12D236D1C00E0F3
:100B0000002300210C910CE0002B09D10C9AB84E67
:100B1000B24205DA9600B2185200511830390C91E1
:100B20006D1C29780A00303A0A2AEDD304A90885F9
:100B30002E783100AFA000F039FA002801D06D1CEA
:100B400000E0002604A82A214654405C682807D10A
:100B50002878682804D1622004A92A2288546D1CB0
:100B600011A807902A78681C0F90252A13D0582ABC
:100B70004FD0632A00D1B1E0642A79D0692A77D0B6
:100B80006F2A46D0702A3BD0732A0AD0752A40D0EB
:100B9000782A3ED0ABE001200890252011A90870EA
:100BA000AFE038680468001D38600694002C14D14A
:100BB00004A82B21405C00280CD00024E44300BF93
:100BC0008EA000F0FDF9201A00D19AE00020C04369
:100BD00017B0F0BD90A0069093E00C9D002D03D5BA
:100BE000200000F011FA09E02A000021200000F0A6
:100BF00013FA002801D0001B00E02800099080E0D3
:100C000038680168001D3860049111A806907821A9
:100C100060E004AB2A20185C622803D0682807D063
:100C20006C280BE039680868091D3960C0B209E01A
:100C300039680868091D396080B203E039680868BE
:100C4000091D39600490188D0299C0B208423CD049
:100C50000498002839D020201043782835D10898EE
:100C600011A930230B54401C431C08930A542CE058
:100C700004AB2A20185C622803D0682807D06C28AF
:100C80000BE039680868091D396040B209E039682D
:100C90000868091D396000B203E039680868091D59
:100CA00039600490002802D508982D2109E0188D9C
:100CB000204202D008982B2103E0C00705D50898F0
:100CC000202111AB1954401C089011A80899401814
:100CD0000690110004A800F0A0F812E0012008908E
:100CE00038680168001D386011A8017009E0012012
:100CF0000890252011A90870100002D0089411A8AE
:100D000042700D980899401A0A99401A0999401A98
:100D1000109004A82821405C400713D42020694685
:100D20000872109800280DDD109C039D012302AA73
:100D300004A9280000F0E8F8002800D046E7641E67
:100D4000F4D10395089D11AC002D0ED0039E21789F
:100D50000598B0470590002800D137E70B98401C54
:100D60000B90641C6D1EF2D1039630206946087208
:100D70000A9C002C0CDD039D012302AA04A9280073
:100D800000F0C2F8002800D020E7641EF4D10395DB
:100D9000069C099D002D0ED0039E21780598B04732
:100DA0000590002800D111E70B98401C0B90641CA3
:100DB0006D1EF2D1039604A82821405C400700D4A0
:100DC00031E62020694608721098002800DC2AE6E7
:100DD000109C039D0F9E012302AA04A9280000F085
:100DE00093F8002800D0F1E6641E00D109E6F2E78E
:100DF000CBCCCC0C686C747A4C0000007072696EBD
:100E000074665F733A2062616420257320617267A3
:100E1000756D656E740000000000F0B583B00A00C7
:100E2000C4686F2901D1082506E0202111437829E3
:100E300001D00A2500E01025182701680E00642A59
:100E400001D0692A03D1002901D571420E00002E7C
:100E50000CD1016A002909D1082D31D12821415C2A
:100E600009072DD517273021E17529E00290684642
:100E700002707F1E019730002900FFF7C9FC303156
:100E8000C8B23A2803DB6846007851380918E155A2
:100E900030002900FFF7BCFC060004D002988068EF
:100EA000E1198842E5D30298082D09D12821415C37
:100EB000090705D5E15D302902D07F1E3021E155BB
:100EC0001821C91B4161E2198260026A914206DA67
:100ED000511A8161018D0B4A0A40028510E0002AF7
:100EE0000ED52822825C14231340102B08D1426AAD
:100EF0000369D21A8369D21A511A012900DB816170
:100F000003B0F0BDEFFF0000F8B50024002B11D0B6
:100F100007000E0014001D0021787068B84770604B
:100F2000002809D0F069401CF0610020641C6D1E8F
:100F3000F2D104002000F2BD0020C043F9E7704761
:100F400030B45368D41803E05B1C491E641C401C79
:100F5000042B06DA002904D0057825700578002DC9
:100F6000F2D1536030BC704738B500290ED01D0057
:100F70001400FFF7E5FF616820006A6B90470122CB
:100F8000D243811A02D0491E02D004E0012000E0C1
:100F90000020C04332BD0021616032BD80B5024BEC
:100FA000FFF7E2FF02BD00003C000020C9B202785A
:100FB0008A4203D0401C002AF9D1002070477047B4
:100FC00080B5002801D100BF07A006490B68002B9F
:100FD00003D022220021984701E000F028F82220C7
:100FE00002BD0000B0030020636F6E73747261690C
:100FF0006E742068616E646C65723A206261642070
:101000006D65737361676500431C0178401C09427C
:10101000FBD1C01A70477047C9B2521E05D303787E
:10102000401C8B42F9D1401E70470020704780B5AC
:10103000012000F001F801BD80B500BF00BF024AE9
:1010400011001820ABBEFBE726000200010005D40A
:101050000121C006C00E8140904801607047F0B584
:10106000020013D418228E4B8408A4001C59FF25BB
:10107000C6001640B540AC438907090EC5002A409A
:1010800091402143800880001950F0BD0F25854B09
:1010900018242A40083A920892000540083DAD08FD
:1010A000AD005D59FF26C7002740BE40B543890704
:1010B000090EC0000440A14029439950F0BDBC492D
:1010C00008E0BC490A6882430A60091D06E0B94984
:1010D0000FE0B9490A6882430A60091F0A68104391
:1010E00008607047B5490A6882430A60091DF5E740
:1010F000B2490A6882430A60091D0A6882430A608D
:10110000704781B0AE4901E081B0AE490A68024340
:101110000A60096808400090009801B0704730B537
:1011200003680C004C4365002C19A3430C004C438E
:1011300054431C43046030BD43688B4351431943FF
:101140004160704730B583680C004C4365002C1932
:10115000A3430C004C4354431C43846030BD80B512
:10116000030008009021C9058B420ED1002A03D04C
:10117000022A07D003D301BDFFF7A9FF01BDFFF786
:101180009EFF01BDFFF79DFF01BD002A03D0022A8B
:1011900007D003D301BDFFF7ABFF01BDFFF799FFF8
:1011A00001BDFFF79FFF01BD30B5446A0B0A0D0A70
:1011B0006B436B436B431D01EB1A9C430B0A0D0AF7
:1011C0006B436B43090A4B4353432343436230BD94
:1011D000016801220A43026070470168802292057B
:1011E0000A43026070478268D200D208490711435F
:1011F0008160704782687F4B1340490619438160C4
:10120000704702680C239A4311430160704730B560
:101210000468794D25402A43114301604168774AAB
:101220000A401343436030BD8268754B1340194335
:101230008160704730B504001D00802000028242AA
:1012400014D17048704A0904C90B515AFFF7E0FAEB
:101250004000690840182900FFF7DAFA80B26B49AC
:1012600001400007400F0143E16030BD6548664A18
:101270000904C90B515AFFF7CBFA69084018290035
:10128000FFF7C6FA80B2E06030BD4168604A0A40AC
:10129000426081682A2291438160704700E100E04A
:1012A00000E400E01CED00E0C0690106C80F7047D3
:1012B000016820220A43026070478162704770B55E
:1012C00006000420FFF71DFF9024E4058025AD00F3
:1012D000022229002000FFF722FF0222290020001D
:1012E000FFF730FF002229002000FFF725FF012231
:1012F00029002000FFF733FF002229002000FFF71C
:1013000053FF0420FFF7FDFE6D0802222900200094
:10131000FFF705FF022229002000FFF713FF00223C
:1013200029002000FFF708FF012229002000FFF715
:1013300016FF002229002000FFF736FFA800FFF764
:10134000E3FE344CE1235B02002200212000FFF782
:1013500071FF0023002200212000FFF758FF0C211D
:101360002000FFF74EFF00212000FFF75DFF002166
:101370002000FFF73FFF00212000FFF734FF20008F
:10138000FFF72BFF2000FFF780FF2000FFF720FF73
:1013900030000BD0204806602000FFF789FF0121B4
:1013A0000820FFF75CFE0820FFF750FE70BD00002C
:1013B00024005048200050482C0050482800504835
:1013C0005000404858004048F8B507000E0000247F
:1013D0000BE0104D2800FFF767FF0028F9D0E0B2BE
:1013E000395C2800FFF769FF641CE0B2B042F0D31B
:1013F000F1BD0000FFFFFFF1FFE9FFEFFFCFFFFFAF
:10140000FFFCFFFF0024F40054250410F0FF00004F
:10141000FFB7FFFF00400041A803002070B5002582
:10142000012804D0022802D00020C04370BD00294A
:1014300001D1002070BD0C00160005E00121200044
:10144000FFF7C2FF641C6D1C3000461E0028F5D15A
:10145000280070BD01B5012269460120FFF7DEFFBB
:10146000009802BDFEB504000220009000270197FD
:1014700010250026002C58D03520205C002804D1EF
:1014800034216754200000F08DF902203522A05449
:101490002168C9693B4A0A402168CA61216808621B
:1014A0006069022839D0E068002800D02025A068B3
:1014B000212800D26D0020683349884203D10420DE
:1014C00000F0DDF9060020683049884203D1082089
:1014D00000F0D5F90600206980218900884208D1F2
:1014E000E068002802D03000A90004E03000E900E4
:1014F00001E030002900FFF78BF90A2148436169B8
:10150000FFF786F9401D0A21FFF782F9C107C90FCD
:10151000401A40080090080201900098801EFE28A2
:1015200005D3A06B10210143A1630120FEBD0098EB
:101530000199014320690843216808622068C06955
:101540001049014060680843A1680143E06808430E
:10155000A16901438020000108432168C861A06897
:10156000302801D0B02806D12068C0698021490107
:1015700001432068C161A763012035216054002028
:10158000FEBD000040F0FFFF003000410070004150
:1015900070B50400002600253520205C012801D00C
:1015A000022546E0002901D0100001D1012070BDC4
:1015B0003420205C012801D1022070BD0120342399
:1015C000E05403203523E054A663E1612068C0693C
:1015D0004007400F032801D0052803D15000208484
:1015E000608401E0228462841448E16A086314483C
:1015F000E16AC8621348E16A4863238C22680C32AE
:10160000E169E06A00F0EEF98020C0002168C96954
:10161000014004D12168C96908432168C8610220DA
:1016200021684968014004D121684968084321685C
:10163000486034202654280070BD0000E3160410D2
:10164000BB160410ED16041010B50168896841221C
:101650000A40012A06D102685268520602D500F0FB
:1016600074F810BD0222114206D003685B681B06A5
:1016700002D500F050F810BD03685B689B061BD5CF
:101680004B0608D503685B686024A3430468636065
:10169000836B1A438263090709D501684968A02250
:1016A000914302685160816B04220A4382630121E5
:1016B0003522815400F050FA10BD80B50100886ACF
:1016C000C96900290AD10168496802229143026868
:1016D00051600021418401213522815400F0D7FA64
:1016E00001BD80B5806A00F0CDFA01BD80B5806A89
:1016F00001684968032291430268516000214184D6
:101700004185012135228154816B08220A4382637D
:1017100000F022FA01BDC1698A1CC2610988026811
:10172000D160418C491E4184418C002900D0704712
:1017300080B501684968A022914302685160012187
:101740003522815400F0A3FA01BD416A8A1C42622D
:101750000268D2680A80418D491E4185418D002969
:1017600000D0704780B501684968602291430268E3
:10177000516001213522815400F08FFA01BD70477C
:1017800081B02F490A6802430A6009680840009046
:10179000009801B0704780B501210020C04300F0DF
:1017A000CEFA01BDF0B585B00400202700970220D5
:1017B000019002900390012504959026F605694654
:1017C000300000F0FDFA03200490280300906946E1
:1017D000300000F0F5FA04951025009569463000B8
:1017E00000F0EEFA0120FFF7CBFF20681549884290
:1017F00023D1154E07207060B5600020F060802076
:101800003061803070618000B061F761C00030628B
:101810000E483060300000F0ACF8E662B462300090
:1018200000F066F8002801D000F036FA00211120FF
:1018300000F085FA112000F086FA05B0F0BD000036
:1018400050004048003000415C0300200800704810
:101850002148016806200840704720480068802120
:101860004901084070471D4800688021090408406C
:1018700070471A4800688021C9030840704738B58E
:1018800004000025012C06D1FFF7E2FF022820D03A
:1018900004281CD00EE0022C0CD1FFF7DEFF00283C
:1018A00004D080214901884202D003E00C4D11E0B0
:1018B0000C4D0FE0042C04D1FFF7D5FF002806D013
:1018C00007E0082C06D1FFF7D4FF002801D1064D10
:1018D00000E0064D280032BD600040480800404846
:1018E00000127A0000093D000024F4000048E801DD
:1018F00010B5040001D1012010BD20683649401800
:101900001421FEF785FF80006064344820640220C3
:10191000252160542068006831490140A0680843CF
:10192000E16801432069084361690143A0690843F4
:10193000E1690143206A0843216808609120C005DD
:10194000616C890889004018A064A0688021C901E1
:10195000884201D1002060602079C006C00EA16CD1
:1019600008600020E06301212522A1542421605455
:1019700010BD10B5040001D1012010BD2068006821
:101980000121884321680860206813494018142108
:10199000FEF73EFF8000606410482064002021684C
:1019A000086001214422A25C3C2313409940226C30
:1019B00051609121C905626C920892008918A16456
:1019C000A16C0860E06220636063A063E06325228D
:1019D000A0542421605410BDF8FF8FB70000704858
:1019E0000F80FFFFF8B50400002000252426A65D27
:1019F000012E01D10220F2BD01262427E65525261D
:101A0000A65D012E24D102262527E655E063206835
:101A100000680126B04326683060200000F085F899
:101A2000206B00282068006801D00E2106E0042108
:101A3000884321680860206800680A210143206803
:101A4000016020680068012101432068016001E015
:101A5000E05502252800F2BD70B5016C09680268E6
:101A600013683C220424456C3C262E400425B540D6
:101A70000D4014D0234212D001680968890604D4AD
:101A800001680968A14303681960416C0A409440E9
:101A9000016C4C60016B002946D0884770BD022460
:101AA000456C3C262E400225B5400D401BD02342FC
:101AB00019D001680968890608D4016809680A23F1
:101AC00099430368196001212523C154416C0A40E0
:101AD0009440016C4C60002124228154C16A002989
:101AE00022D0884770BD0824456C3C262E4008252E
:101AF000B5400D4018D01C4016D0016809680E236F
:101B00009943036819600121436C1A4001239340F3
:101B1000026C5360C1632522815400212422815428
:101B2000416B002900D0884770BD70B50124442561
:101B3000455D3C262E40B440056C6C6004686360D3
:101B40008368102B036803D19A600068C16070BD80
:101B500099600068C26070BD704770473D490A686F
:101B60003D4B134018430860704781B03B490A68F9
:101B700002430A60096808400090009801B070476D
:101B800010B5FFB0A1B0FF210220FEF7E9FD00284B
:101B900000D0FEE700F014FA00F040FA0020FFF752
:101BA0008EFB012000F014FB00F028F8A022920028
:101BB0000021684600F08AFB00210022684654009C
:101BC0000153521C264B54000353521CA0246400A2
:101BD000A242F4D32349018023494180234800F0E5
:101BE0007FFB220069462248FFF7D2FC002804D080
:101BF000204800F075FB00F04FF8FEE710B51C4CD4
:101C00002068C0691C4901402068C1611B482060F0
:101C1000FA20C00160610020A061E0602061606086
:101C2000A06080204001FFF7A0FF0020FFF796FF93
:101C30002000FFF717FC002804D0114800F050FBEB
:101C400000F02AF82068C0698021C900014320689B
:101C5000C16110BD08004048FFFF7FFF58004048A9
:101C6000FFFF0000AAAA0000BBBB000084250410EF
:101C7000840000202C240410FFFBFFFF00300041F3
:101C80005824041080B5012000F0EBFA01BD80B5A6
:101C9000012000F0FAFA01BDFEE77047010005D40B
:101CA0000121C006C00E81402D4801607047F0B58B
:101CB000020013D418222B4B8408A4001C59FF25C2
:101CC000C6001640B540AC438907090EC5002A403E
:101CD00091402143800880001950F0BD0F25224B10
:101CE00018242A40083A920892000540083DAD08A1
:101CF000AD005D59FF26C7002740BE40B5438907A8
:101D0000090EC0000440A14029439950F0BD80B5A0
:101D1000411E80225204914201D3012002BD401E87
:101D20001249086003210020C043FFF7C0FF0020D4
:101D30000F49086007200F490860002002BD80B5E8
:101D4000FFF7B5FF01BD80B5FFF7A8FF01BD80B566
:101D5000FFF7DDFF02BD80B500F00EF801BD000009
:101D600000E100E000E400E01CED00E014E000E031
:101D700018E000E010E000E070477047874908E095
:101D800087490A6882430A60091D06E084490FE01A
:101D900084490A6882430A60091F0A681043086080
:101DA000704781490A6882430A60091DF5E77E4948
:101DB0000A6882430A60091D0A6882430A60704704
:101DC000F8B5002507000C0013E0784800682804E7
:101DD000083108600CE01000AE40320402430A6093
:101DE0009020C0058742F0D17048006870480560B7
:101DF0006D1C2068E84000D1CFE001262068E84053
:101E00003040F5D06068022801D0122815D1E808CA
:101E100080003818036A1C20E908890079188C466C
:101E20000F21AA00024091408B4319002269AB00A8
:101E3000184082400A4361460A62396803206A00FA
:101E4000032393409943626802406B009A400A431F
:101E50003A606168012905D0022903D0112901D017
:101E6000122911D1B9686A0090408143E06890401E
:101E70000843B86078680121A9408843616809096E
:101E80003140A940014379609020C0058742A06895
:101E900011D1002803D0022809D004D31CE0206807
:101EA000FFF774FF18E02068FFF768FF14E0206870
:101EB000FFF766FF10E0002803D0022809D004D302
:101EC0000AE02068FFF773FF06E02068FFF760FF75
:101ED00002E02068FFF765FF6068C00088D5002039
:101EE00034490B689022D2059742324608D1AA4065
:101EF00093439C46626812098B0C1A40AA4009E081
:101F0000AA40120493439C46626813098A0C13404A
:101F1000AB401A0463461A430A606168C90324D4BB
:101F2000254909689022D2059742324601D1AA403C
:101F300001E0AA4012049143C02292036368134057
:101F4000934210D101201D4A11609022D205974280
:101F500004D10A000121A940114304E00122AA4052
:101F600012040A431100144A116014490A68002837
:101F700012D19020C0058742334601D1AB4001E029
:101F8000AB401B049A436368DB0205D5874200D04F
:101F900021E7AE401643320021E7F1BD240050484E
:101FA000200050482C00504828005048180000409D
:101FB0001C0000400C0000401000004014000040D5
:101FC00010B50024032000F09FF9002801D001245F
:101FD00001E0FFF7E0FB200010BD70470B4906E071
:101FE0000B490A6882430A60091D04E009490A682E
:101FF00082430A60091F0A68104308607047064957
:102000000A6882430A60091DF5E700002400504871
:10201000200050482C00504828005048F8B50120B6
:10202000FFF7DEFF0220FFF7DBFF0420FFF7D8FFFA
:102030000820FFF7D5FF1020FFF7D2FF2020FFF781
:10204000CFFF4020FFF7CAFF8020FFF7C9FF8020A5
:102050004000FFF7C5FF80208000FFF7BFFF80270B
:10206000FF003800FFF7BCFF7C002000FFF7B8FF3F
:102070006000FFF7B5FFA000FFF7B2FFE500280002
:10208000FFF7AEFF26013000FFF7AAFF0120FFF7A0
:10209000B6FF0220FFF7B3FF0420FFF7B0FF0820D0
:1020A000FFF7ADFF1020FFF7AAFF2020FFF7A7FFE3
:1020B0004020FFF7A4FF8020FFF7A1FFE008FFF713
:1020C00095FFA008FFF792FF3800FFF798FF200068
:1020D000FFF795FF2800FFF792FF3000FFF78FFF13
:1020E000F1BD7047734908E073490A6882430A608A
:1020F000091D06E070490FE070490A6882430A60D2
:10210000091F0A681043086070476D490A688243D6
:102110000A60091DF5E76A490A6882430A60091DD9
:102120000A6882430A60704781B066490A680243C0
:102130000A60096808400090009801B0704730B507
:1021400003680C004C4365002C19A3430C004C435E
:1021500054431C43046030BD43688B4351431943CF
:102160004160704730B583680C004C4365002C1902
:10217000A3430C004C4354431C43846030BD80B5E2
:10218000030008009021C9058B420ED1002A03D01C
:10219000022A07D003D301BDFFF7ACFF01BDFFF753
:1021A000A1FF01BDFFF7A0FF01BD002A03D0022A55
:1021B00007D003D301BDFFF7AEFF01BDFFF79CFFC2
:1021C00001BDFFF7A2FF01BD8161704781627047C9
:1021D00038B501001BD10420FFF7A6FF9024E405C9
:1021E00040212000FFF7F0FF012240212000FFF7EF
:1021F000A6FF022240212000FFF7B4FF0022402169
:102200002000FFF7A9FF01224021200026E001283D
:1022100006D10820FFF788FF2B4D8024640007E0DB
:1022200002281DD10820FFF77FFF8024A400264D3F
:1022300021002800FFF7C8FF012221002800FFF736
:102240007EFF022221002800FFF78CFF00222100E0
:102250002800FFF781FF012221002800FFF78FFFF0
:1022600031BD80B5010003D140219020C00509E0B7
:10227000012802D18021490003E0022804D18021F5
:1022800089001148FFF7A2FF01BD80B5010003D10D
:1022900040219020C00509E0012802D18021490099
:1022A00003E0022804D1802189000748FFF78CFF52
:1022B00001BD000024005048200050482C00504828
:1022C00028005048500040480000104810B5040055
:1022D000080011000200200000F03EF8200010BDB0
:1022E0000EB4C0B5020003A801900020009001AB1D
:1022F0000121044878440C30FEF774FB029906B0C3
:10230000084700BF69020000F8B505000024104E20
:102310003068002819D000F047F80700FA20800044
:102320003168FEF775FA01003800FEF771FAFFF721
:102330000EFD002809D1042D07D229000020C0433A
:10234000FFF7FDFC0348056000E001242000F2BD1A
:1023500034000020300000201206130A1A43130C28
:102360001A4300BF094205D0830705D00270401C04
:10237000491EF9D1704700001300103906D330B45C
:102380001400150010393CC0FCD230BC490700D302
:102390000CC000D504C0890002D30280801C002933
:1023A00000D5027070477047014800687047000010
:1023B0003800002070B40123002413E00168001DE0
:1023C000194202D04D466D1E49190C60091D121F9D
:1023D000042AFAD20D00960701D50C80AD1C1A40D4
:1023E00000D02C700268001D002AE7D170BC704735
:1023F00030B501684118446862088A188368E407A8
:1024000004D54C461B1901E0641C06D191420BD047
:102410000C7864B2491C0D78491C1D705B1C002CA3
:10242000F2D4641EF7D5F1E70C3030BD4E6F6E2D3F
:10243000426C6F636B696E67206D6F64653A204410
:102440004D4120656E64656420776974682065720B
:10245000726F722E0A0D0000496E697469616C69B1
:102460007A6573207468652049325320656E64650F
:10247000642077697468206572726F722E0A0D008D
:10248000FEE780B500F010F8FFF765FC01BD80B5F0
:102490000448FFF7D9F801BD80B50248C06AFFF7CC
:1024A000DBFA01BD8400002003480168034A12687A
:1024B00089180160704700BFAC0300203400002081
:1024C00010B5074979441831064C7C44163404E0B1
:1024D000081D0A68891888470100A142F8D110BD7B
:1024E000080000003C000000CDFEFFFF3C000000A3
:1024F00084000020580000005C0300200000000061
:10250000F1FEFFFFE400000018000000C000002002
:10251000E1FEFFFFB60000003C000000300000209C
:10252000FEF7CBF9002801D0FFF7CAFF00BF00BFBC
:10253000002000BF00BFFFF723FB00F000F880B5CC
:1025400000F002F801BD704707463846FEF774FDFB
:10255000FBE77047010002000400060008000A00C3
:102560000C001000200040008000000138B505007C
:102570000C002000FEF76EFFA04200D000252800CE
:1025800032BD7047536C617665205472616E736D15
:1025900069747465720A0D0000BF00BF00BF00BF00
:1025A000FFF7BEFF0078401E8041C043C00F704758
:1025B0007047704770477047704770477047704763
:1025C000704770477047704770470004FD00000176
:1025D000FC000790D0034608041001D10003A52594
:1025E0000410F8000001F9008100810081008100E1
:0425F0008100DF0087
:040000051004259925
:00000001FF
