:020000041004E6
:10000000006000205D590510714E05107D4E0510F1
:10001000AA5555AA45554C420000000000000000BA
:10002000000000000000000000000000894E0510E4
:100030000000000000000000C33704108B4E0510C4
:10004000B74104102B430410C7520410BF620410C0
:10005000000000000000000000000000A763041082
:100060008D4E0510BF670410836B0410C76E04101B
:100070001F6F0410B1350410376F0410974E051030
:1000800067740410954E0510BD4E05109B77041043
:10009000A94E0510537E04106F840410A14E051064
:1000A000994E0510ED4E05103B8704106793041020
:1000B0000000000000000000000000000000000040
:1000C000FEB51C00089FAA4D6B465870684601702B
:1000D00016001CE00422A9192C3101A801F01CF91A
:1000E000002F0FD101A8C07869464978884209D10C
:1000F0006846007806280FD06846007801A98978FC
:10010000884209D0684680883618B6B20027688DC4
:100110008642DFD10020FEBD002C00D026800120C9
:10012000FEBDF8B584B004000F001600904D607B52
:10013000002802D12A8D002300E0E289009301AB60
:1001400001212078FFF7BCFF002801D1042019E02D
:100150000120607368468088E081684680882C189A
:10016000062221002C3102A801F0D6F820003230FE
:10017000386068460089801F308002A800790A999B
:100180000870002005B0F0BD7CB5794D298D6A4618
:1001900091800021060019E0684680882C1804220E
:1001A00021002C31684601F0B7F800F080FC694668
:1001B0000988421A61182C3120002C3001F0F8F81F
:1001C000688D69460988401A68850121009101AB54
:1001D0006846828806213000FFF772FF0028DBD1D5
:1001E00073BDBD4A514380081B2242438818253005
:1001F000704770B506000D00EFF310840DE0012389
:1002000032780021B54801F0FDF884F31088307889
:10021000401C30702878401E2870287800280BD0A9
:1002200001210020FFF7DDFF72B601F011F900286F
:10023000E5D184F31088072070BD01680022028197
:10024000428182730B78FF2B05D0FE2B09D10389E5
:100250005B1C03810AE04268511A091F818100205A
:100260007047002B0DD143895B1C43814A88D21C07
:10027000032313435B1CC9184A1D43689A42E1D308
:10028000EDE703207047FCB585B00D9F427B002A47
:100290001BD10C9A130005D002AB5A80FE221A70B3
:1002A00002AD00E04568426883689A4215D26A460A
:1002B00091712978FF292E4E01D10EE020000021F6
:1002C000027B002A12D001731EE000970123069AD8
:1002D0000599FFF726FF002847D0042045E00320BA
:1002E00043E06A786B469B799A4216D042686B88E5
:1002F000DB1C03241C43641C15194560826895426D
:10030000E3D22A78FF2AE0D02A78002AEED0FE2A0B
:10031000E5D16A469279FF2AE3D1328D6B469A8005
:1003200004000CE008226846808831182C3103A8AC
:1003300000F0F2FF049861688842BFD0012100916B
:1003400001AB6846828802212078FFF7B9FE0028B9
:10035000E8D16068001D05990860688806990880E2
:10036000002F01D068783870002007B0F0BD000081
:10037000700900207FB515001C00099E0022328004
:100380000B9A01926A46128D009202AB03AAFFF704
:100390007AFF010013D1694609898D4201D30620F5
:1003A0000DE0089A481B904200DA020020000399F1
:1003B000491900F0B1FF684600893080002004B080
:1003C00070BDFEB5A24D0D40491B6B46197000244F
:1003D000070016000AE00422311901A800F09CFF72
:1003E000019A39193D4800F0FBFF241DAC42F2DBB5
:1003F0000020C043019068460278711901A800F0FE
:100400008BFF019A7919354800F0EAFFF7BDF6B580
:1004100085B00E001C0025000027FF43417B00290A
:1004200018D000210091002301AA921C02A9FFF715
:1004300078FE00283AD16846C088801B80B2A0426E
:1004400046D32A0002988119069801F09DF80028E9
:100450003FD03DE0416802918268914202D2097822
:10046000FF2901D1042034E0027B002A1ED1FE299D
:100470001CD17849098D6A469180040001200090C2
:1004800001AB6846828802212078FFF719FE002818
:100490000ED008226F486946898841182C3103A87C
:1004A00000F03AFF049861688842E7D1052010E027
:1004B000029949888E4201D306200AE020732A005F
:1004C0006068001D8119069801F05EF8002800D0D0
:1004D000380007B0F0BD00003423000000100040D9
:1004E000FFB585B000270E9A178069460C8C417BBA
:1004F000002919D0009700230E9A01A9FFF711FED9
:10050000002846D10E9800886946098B421A684631
:10051000008C824200DB220001986946098B411859
:10052000079800F0F9FE50E00F990A0005D002AAE2
:100530005180FE21117002AD00E04568416882687B
:10054000914202D22978FF2901D104203EE0027BAA
:10055000002A1ED1FE291CD13E49098D6A46918090
:1005600006000120009001AB6846828802213078A5
:10057000FFF7A6FD00280ED0082236486946898874
:1005800041182C3103A800F0C7FE04987168884216
:10059000E7D105201AE06846008B6988884201D3BC
:1005A000062013E037736846008B69880A1A69468B
:1005B000098C8A4200DB22007168091D091807981E
:1005C00000F0AAFE68880E990880002009B0F0BDEE
:1005D00038B5050000210420FFF703FEEFF3108477
:1005E00072B600F035FF002803D184F3108807208D
:1005F00032BD2900FF22D243A84800F0F1FE84F367
:100600001088002032BDF8B507000E00150000F07C
:10061000BBFF00281BD0681EA1490143491C4B03A6
:100620001B0EA0483818C20A00219C4800F0EAFEC0
:1006300000240AE06010800F0019801080003258FA
:100640003919964800F0CCFE241DAC42F2D3F1BD1E
:10065000FCFF000070090020012101700021418091
:1006600081807047F8B58AB005000E0017001C00A5
:1006700000200090FF223900300000F09DFFFE2096
:1006800069460876099508960794109D009C06AE69
:100690001AE06846008A6988401A401E0324044311
:1006A000641CA4B268886946098A091A4A1E032193
:1006B0001143491C89B2059A8A4244DB01209142C8
:1006C000287049D000206880381B001F80B2059038
:1006D0002878002828D0701C0390A888029004A8CD
:1006E0000190059880B200900898001D031900221F
:1006F000FF210998FFF73EFE6946098AA98001009B
:100700000ED16846008A7080042206A90898001954
:1007100000F002FE7088C01C032101436418BFE78B
:1007200007990C800BB0F0BDA888019004A8009038
:10073000059883B20898021969880998FFF7D0FED6
:100740000100A6D0EEE700212970059940186880C5
:10075000079807800020E5E70020F8E7F1B58C480E
:1007600085440027CB488421090169440978142273
:100770005143411801914989002901D100208AE0A3
:1007800000970023028D0621842000016844007830
:10079000FFF796FC002801D009207CE0202000F023
:1007A0008CF9002801D1082075E006A984200001F9
:1007B0006844007800F01AFB079C04A8FFF74CFF80
:1007C000EFF3108604A803C80AAA03C20CA806A95E
:1007D000102200F087FD04A8009003AB80221201D4
:1007E00010A906A8FFF73EFF0500042D08D0002D34
:1007F00051D168468089802109018842E2D103E015
:1008000068468089002816D0012168468089FFF754
:10081000E8FC72B600F01CFE002829D068468289E8
:1008200010A92000FFF7EFFE86F310880127F802D9
:100830002418002DC6D00898401E19490143491CB0
:10084000081BC00A6946487016482018C00A08707C
:10085000491C6846FFF7CDFC072819D16846427845
:100860000178842000016844007800F0B1F912E0BA
:1008700086F31088002F01D107200CE00AA803C8D6
:100880000190029100940CA80FC800F072F902E0E8
:100890000198FFF7D2FCCC498D44F0BD0010004018
:1008A000FF0700000000FCEFF8B5C84CA544802706
:1008B0003F010500EFF3108602A829001831062237
:1008C00000F02AFD04A8291D102200F00BFD2800CD
:1008D0001830009001AB3A0008A9281DFFF7C2FEAE
:1008E000040068468088B84205D0002CE4D06846F1
:1008F0008088002816D0002168468088FFF771FCA8
:1009000072B600F0A5FD002829D06846828808A9A3
:100910006869FFF778FE86F310886869C019686116
:10092000002CC9D0E868401E791E0143491C686943
:10093000081AC00A694648706869B4494018C00A74
:1009400069460870491C6846FFF753FC072815D113
:10095000684642780178287900F03AF915E086F384
:100960001088281D04A9102200F0BCFC28001830B3
:1009700002A9062200F0D0FC072006E045482979AC
:10098000142251434018FFF758FCC6498D44F0BD6E
:10099000C0F7FFFFF8B58D4CA54400216A46917160
:1009A000002400253B4F060000E06D1C3079854295
:1009B00016DAB0680C216943405C010014225143EF
:1009C00079184989002900D00124002100910023D1
:1009D0003A8D0621FFF774FB0028E6D0092055E088
:1009E0003500002C24D080273F013A00FF2108A8C1
:1009F00000F00BFE00240DE002A8FFF72DFE02A878
:100A0000009001ABBA1B92B208A8811904A8FFF7A5
:100A100029FE641C287984420CDAA8680C226243FF
:100A2000011D8E5804A9805C00F0E0F90028E3D095
:100A300000202BE001213800FFF7D3FBEFF31086F5
:100A400072B600F005FD002803D186F31088072058
:100A50001CE03A0008A92868FFF7D5FD86F3108846
:100A600000260C4F684684790CE0A8680C2171437D
:100A7000405C142148433818FFF7DFFB010000D029
:100A80000400761C28798642EFDB200085498D44DE
:100A9000F0BD000070090020C1498A79824201D16D
:100AA00002207047897C8142FAD000207047CE48EE
:100AB000418D008D081A80B2704770B50400FFF7B1
:100AC000F6FF050080204000411BA14201DA002012
:100AD00070BDC54E718D401AA0420BDA2A0030005D
:100AE0002C30318D411830002C3000F061FC00209A
:100AF00030857585012070BD70B50C00BA4D6E8DC6
:100B000080214900891B2200914201DA002070BD3A
:100B10000100A8192C3000F0FFFB30196885012076
:100B200070BDFEB504000D00099F581E032101434E
:100B3000491C684601800088C619B61DB0B2FFF78F
:100B4000BCFF002801D10820FEBD01A80121817051
:100B50000680C47005710621FFF7CEFF6846018844
:100B60000898FFF7C9FF39000A98FFF7C5FF002072
:100B7000FEBD1FB588B02020FFF79FFF002801D1E0
:100B800008201EE00E9C6846202101800321817010
:100B9000001D08A9102200F0A5FB05946846183036
:100BA0000FA9062200F0B8FB20216846FFF7A4FF3A
:100BB00001208D4908AA127814235A438918887392
:100BC00000200CB010BD000044080000E0F7FFFF5B
:100BD0007CB504000D0016000620FFF76EFF00280C
:100BE00001D1082076BD684606210180042181706C
:100BF000C470057146710621FFF77EFF01207A4916
:100C00001422544309198873002076BD0000FCEFBC
:100C1000F8B5944CA54407000D0080221201FF2175
:100C200008A800F0F2FC00241BE00C266643A8682C
:100C3000805DB84214D004A900F0D8F8A8688019E3
:100C4000466802A8FFF708FD02A8009001AB8020CB
:100C50000001821B92B208A8811904A8FFF702FDC7
:100C6000641C28798442E0DB2E0080252D010121BF
:100C70002800FFF7B6FAEFF3108472B600F0E8FB35
:100C8000002803D184F31088072007E02A0008A970
:100C90003068FFF7B8FC84F31088002001498D44C8
:100CA000F0BD000024080000FBB582B003236E49AC
:100CB0005218032515436D1C0CE03778FF2F17D011
:100CC000FE2F01D0002F2BD17288D21C1A43521C48
:100CD000B218426082684668741D9442EDD342495E
:100CE0000078142250430818408900281AD015E0D3
:100CF0000190901B884200D308003B4C80B2A9B2FF
:100D00006A46128D8918091D88420DDA019800780B
:100D10001421484320184089002803D00B203DE0CF
:100D200003203BE0022039E06846007BFE216A4652
:100D30001170694648706846008D28184880002167
:100D4000001D80B2FFF74DFAEFF3108772B600F086
:100D50007FFB002803D187F3108807201EE0009A4C
:100D600031007C4800F03CFB049AA9B2301DFFF72B
:100D700028FB0B9A6846018DADB27019001DFFF774
:100D800020FB87F31088200008300199097814228D
:100D9000514340180188491C0180002005B0F0BD76
:100DA0003458051010B500249B480C2161434118AC
:100DB0008A79694814235343C0180368002B11D162
:100DC000012A0FDC0A6802608B88D2184260098908
:100DD0000182FFF732FA010005D1641C012CE3DD2A
:100DE000002010BD012010BD7009002010B50200C8
:100DF000022A01DB012010BD574B142462439A18CC
:100E000013684B6052688A6001220A7308700020E0
:100E1000487310BD7FB5504C05781426754364198E
:100E2000A47B002C01D00A2008E003940294099CC2
:100E300001946C46248C0094FFF79CFA04B070BDBA
:100E40007CB5454C0578142675436419A47B002CA9
:100E500001D00A2076BD0194069C0094FFF740FB68
:100E600076BD0000E0F7FFFFFFFF0000F0B585B0A2
:100E7000060030786C462071374D6846007914249E
:100E800060432818847B002C01D0092041E0521EC9
:100E900003241443641C8789BC46A7B26A46128D9A
:100EA000BA18944506DA4089002801D00B2030E0BA
:100EB00002202EE06846017304930B9F00200090EF
:100EC00000232A8D062168460079FFF7F9F80028EB
:100ED00021D002976846008D019004980090A3B23B
:100EE00072686846017B3078FFF71BFE010010D165
:100EF00028000C30317814225143401801886A468A
:100F0000128DA218521E03231343C91A491F0180D0
:100F1000002005B0F0BD01976846008D0090049B4D
:100F2000A2B26846017B3000FFF7BEFE0100DFD0B1
:100F30000728EED102976846008D01900498009032
:100F4000A3B272686846017B3078FFF7EAFD0100C2
:100F5000CED0DEE70010004070090020FEB505008D
:100F6000694E30000E30297814225143405C00282D
:100F700001D00920FEBD0024687B002810D0E8893C
:100F80003518062229002C31684600F0C5F968465C
:100F900084700622694628002C3000F0BDF938E044
:100FA0006868A96888421DD20178FF291AD0FE29F5
:100FB00016D1FFF70DFB010001D015D129E030005B
:100FC000083029781422514340180188491E0180B5
:100FD00028781421484330184189491C418118E080
:100FE0000520FEBD0420FEBD072813D16F682D78B3
:100FF00008260820FFF761FD002801D10820FEBD6A
:101000006846068002218170C57001970821FFF7AC
:1010100073FD0020FEBD000034580510F0B585B00A
:101020000400394F1421484338180290807B00286F
:1010300001D0092066E001A92000FFF72DFD02285C
:1010400025D102980068A3494118C90A6A4651701F
:1010500002994968491EA04A0A43521C101AC00A44
:10106000694608702000FFF78FF8694600A8401C09
:10107000FFF7BFF8072806D16846027841782000BC
:10108000FFF7A6FD3EE00298FFF7D7F835E001280C
:1010900037D101992000FFF7BBFD060013D10024D2
:1010A0000198007984422ADA019880680C21614312
:1010B000455C2800FFF768F8142045437819FFF7CE
:1010C000BCF8641CECE7072E19D1019F0826082004
:1010D000FFF7F3FC002801D1082013E02000FFF700
:1010E00053F803A8068005218170C4700497082175
:1010F000FFF702FD012002998873002002E0300012
:1011000000E0012005B0F0BD700900201CB504000E
:101110006946FFF7C1FC022803D12000FFF71EFB40
:1011200016BD012803D10098FFF734FC16BD01203D
:1011300016BDF0B58BB00027684C208D618D8842BC
:1011400038D02518042229002C3102A800F0E4F838
:1011500002A88078012808D006D3032869D051D38B
:10116000052800D190E071D3B2E0062229002C318D
:1011700003A800F0D1F805A903A8C078FFF736FE50
:1011800001970097208D2318323368468089821F8B
:1011900092B203A8017905A8FFF786FD050053D197
:1011A000208D6946098940182085618D80B288426A
:1011B000C3D1A7624A4800214156C8B21422424313
:1011C000A2185389002B03D09389128A934213D318
:1011D000401CC0B2022800D100208842EED100217C
:1011E0000020C0433E4A1170010602D4C0B2FFF78E
:1011F0008DFF00200BB0F0BD411C4AB2022AF1D194
:101200000021EFE7082229002C31684600F084F81D
:101210000198FFF7DDF9050016D16846C078142162
:10122000484320180189491E01814189491C418197
:10123000B6E7202229002C3103A800F06DF803A89E
:10124000FFF732FB0500ABD02800D3E706222900C8
:101250002C31684600F060F86846411D001DFEF71D
:10126000C8FF05000622694620002C30238DC018D7
:1012700000F052F8002DE7D16846C07814214843A9
:101280002018FEF7DAFF8BE7082229002C31684688
:1012900000F042F801996846C078FFF7B9FC0500F4
:1012A000D2D10025019801798D42ECDA80680C21B9
:1012B0006943465C30006946C978884201D0FEF730
:1012C00063FF14204643A019FEF7B7FF6D1CE9E742
:1012D0000C208FE70000FCEFFF07000070090020E2
:1012E000420D002070B4103A03D378C9103A78C088
:1012F000FBD2530701D318C918C001D508C908C0CB
:10130000D20704D30B880380891C801C002A01D5D6
:101310000B78037070BC70478B0701D18307E1D055
:10132000124205D00B78491C0370401C521EF9D1A3
:101330007047F1B4016842184168480813180098D2
:101340008068C9071ED5494640181BE01778521C13
:101350000770401C761EF9D1002C13D01678521C51
:1013600089080D40032D01D11578521C29027118EE
:101370004D424119A41C05D00D78491C0570401C34
:10138000641EF9D19A420FD01178521C032503260E
:101390000E4002D11678F61C521C0C090F2CD9D124
:1013A00014780F34521CD5E700980C30F2BC70470B
:1013B000814202D25318984203D300B5FFF7ACFF25
:1013C00000BD521E03D38B5C8354521EFBD2704768
:1013D00000690840884201D1012070470020704711
:1013E00010B50F2303618903090C81610264332165
:1013F000FFE70160040001212000FFF7E9FF012859
:10140000F9D110BDF8B505000F26FF2909D12E61CD
:101410002220286001212800FFF7DAFF0128F9D1F6
:10142000F1BD17003C00009306E001212800FFF702
:10143000CFFF0128F9D1641C009838188442EFD2FC
:101440002E61E0028003000CA86111202860ECE707
:1014500058B5040000F080FA0600684600F01EFC53
:10146000002803D00098801B844201DA012052BD7D
:10147000002052BD10B5FFF795FC424C211D002005
:10148000FFF7B4FC210014310120FFF7AFFC201D51
:10149000206010BD3EB53B4C022802D1250014351A
:1014A00000E0251D256001936B461B8B00930B000C
:1014B00001002068FFF7DAFC002805D0022801D1DE
:1014C000002000E00120C0433EBDF8B584B00E000E
:1014D00019002C4C022E03D125001435012301E004
:1014E000251D00230700256028466D466A8103916B
:1014F0000A9D022F08D102A900912B00039A694688
:101500004989FFF79DFC0FE0002F03D1010018006F
:10151000FFF76CFC02A801900095039B6846428986
:1015200031002068FFF776FC010001D1002005E0C2
:10153000042801D1022000E00120C04305B0F0BD25
:1015400010B5140023000A0001000E480068FEF7E1
:101550005EFF002804D001D5200010BD0220C0434A
:1015600010BD80B5022807D10649086814318842A9
:1015700007D0FFF7F3FC01BD032802D10020FFF7DD
:101580004DFD01BD7C0C0020A446521E08D30378FB
:101590000C78401C491CA342F7D0181B64467047C6
:1015A00000206446704710B54C788A780878CB1CC8
:1015B0002146C046C04610BD1206130A1A43130C3A
:1015C0001A4300BF094205D0830707D00270401CB0
:1015D000491EF9D1704700000022FFE713001039BF
:1015E00006D330B41400150010393CC0FCD230BC16
:1015F000490700D30CC000D504C0890002D3028083
:10160000801C002900D50270704710B50400080046
:10161000110002002000FFF7CFFF200010BD8078EE
:10162000800701D58620704700207047F3B589B048
:1016300000250D700998807A00285CD0944803C872
:10164000944A1268002312184B4106A80CC0EFF30D
:101650001080029072B600F0EBFC02000B000998BB
:1016600003C804AC03C404A803C80090019106A8F1
:1016700003C8C826B602002736184F4100980199C2
:10168000B9420ED301D8B0420BD306A803C8B9267D
:101690007600002736184F419F4229D801D3964241
:1016A00026D2012400200A32434104A803C80026A0
:1016B0004C38B1418B4213D801D3824210D20998E1
:1016C000027A037B04A803C8190000F03CFD0A99C4
:1016D000087009988572099844720998C47207E0E5
:1016E0009C488572029880F310880A98047002E082
:1016F000029880F310880BB0F0BD80B500F034FC88
:1017000001206449087101BDF8B507000E003C00D6
:101710000020307000E02469002C1FD0207B0028BE
:10172000F9D0EFF3108572B600F082FC02000B00D6
:1017300003CC083C801A9941002906DB01DC012812
:1017400003D3012100F0E4FC01E00120307085F3B7
:1017500010883078002801D03800F2BD2000F2BD9A
:10176000FEB500256C462570017B002901D00120C3
:10177000FEBD0CC0083801210173464CA6680196D5
:10178000070001E035003669002E08D00CCE083E77
:1017900003CF083F8B42F5D301D88242F2D3380001
:1017A0000661002D01D1019000E02861019981427C
:1017B00013D16946FFF7A8FFA060684600780028AB
:1017C0000BD0EFF3108072B6217D4A1C637D9A42E4
:1017D00000D0491C217580F3108868460078FEBD52
:1017E00010B52C4C002808D0207B00280BD12000FD
:1017F0001830FFF782FF012004E02000183000F0CD
:1018000072F80020207310BDFEB500F04BFC7F4D38
:1018100000246C726C81EFF3108672B600F008FC45
:101820006A4603C200F065FC07000CCD684603C899
:10183000121A8B410021D21B8B4186F3108804DCE5
:1018400001DB012A01D20120FEBD002B04DC01DBFB
:101850000F2A01D20220FEBD0020FEBD18B56C4843
:1018600001686C4A0A4002600A490A7D531C4C7D9B
:10187000A34200D0521C0A75C16901220A43C26109
:10188000C069009011BD00206049C8727047000017
:10189000F80C0020A00C002010B5FFF761FF040039
:1018A0000120FFF79DFFE0B210BD38B50300002511
:1018B00068460570274C21732272574803C81A1ACC
:1018C000002312184B410CC4083C6572E5720120DC
:1018D000A07269462000FFF7A9FE0120FFF780FFF4
:1018E0006846007832BD7CB50300A44CA2681500A0
:1018F00000210026100001E02E002D69002D09D0E6
:101900009D42F9D101932B69954201D1180002E063
:10191000336100E001936D462970019B1973824287
:1019200014D06946FFF7F0FEA060684600780028F2
:101930000DD0EFF3108072B6217D4A1C637D9A4270
:1019400000D0491C217580F3108873BDA06073BD61
:1019500000000000100D002080B500F069FB04BD00
:101960007CB5060000F068FC8020400384490860D4
:101970006846B17881707168002900D00121C1707A
:101980003188018000F087FA234800F06FFB7B4D1F
:101990000024AC60012028737068002800D001206A
:1019A000A8750020E875194A50725081002103C2C1
:1019B00030882861AC82706800030A2100F091FC35
:1019C00028602C71AF4E002804D1300000F050FC8C
:1019D00028600AE0300000F04BFC2968814203D304
:1019E000300000F045FC01002960A7482862EC6245
:1019F00000F01EFB2A68002312184B412800183003
:101A0000FFF7AEFE286800F042FB73BD100D00200A
:101A100030180060FFFFFFBFF80C0020F8B584B05D
:101A2000002469460C70EFF3108572B69748407A2F
:101A300000280AD000F0FCFA944A0CCA8B4204D861
:101A400001D3824201D29148447285F310884B4FF2
:101A500022E0401C19E0046900210173816800291B
:101A600000D088472000F6D16946B868FFF74CFEE1
:101A7000B8606846007801280AD1EFF3108172B689
:101A8000387D421C7B7D9A42E3D1387581F3108802
:101A9000787D039940187875787D397D0A1A02D2CD
:101AA000802040001218002A28D00392BC6800262B
:101AB00002940194002502E0260024696D1C002C8C
:101AC0000FD0207B0028F7D000F0B2FA02000B0004
:101AD00003CC083C801A99410029EDDB01DC062883
:101AE000EAD3002D03D000203061029401E00020F1
:101AF00001900298B86001980028B4E7214C387929
:101B0000002824D000F03CFA002834D13871B97D87
:101B1000002904D1F97D002901D0F87504E000F016
:101B200041FA200000F0A2FA69465848FFF77EFD0E
:101B300038001830FFF7D7FE00F07AFA3A68002331
:101B400012184B4138001830FFF70AFE13E0207CD2
:101B5000002810D000F06CFA0CCCFA2464030025A5
:101B6000A4185D418D4206D801D3844203D200F00F
:101B7000FBF90120387105B0F0BD0000A00C002079
:101B800000E100E0F80C002070B586B0050000F020
:101B90006DF8002868D002A800F092FA3C4C3B4E49
:101BA000717A002902D1B17A002901D0012802D12D
:101BB000F17A00291ED000F03BFA04AA03C200F01B
:101BC00098FA020003CE0090019104A803C80023F4
:101BD00012184B41206900218018594100221E3003
:101BE0005141009A019B8B4225D301D8824222D3D6
:101BF000022503E002281ED001281CD0A06800287E
:101C000031D0007B00282ED000F012FA02000B0029
:101C1000A66803CE083E009001912069002180183B
:101C2000594100221E305141009A019B8B4204D839
:101C300001D3824201D2012016E0032D12D1306976
:101C400000280FD12000183086420BD10120E0750A
:101C50000020FFF7C5FD0F4801680F4A0A400260E7
:101C6000032001E00225280006B070BD0848017D70
:101C7000427D914204D10079401E8041C00F7047DF
:101C800000207047FFEFFFFFFB160410100D00202F
:101C9000A00C002030180060FFFFFFBF0349096857
:101CA000CA680260087C00097047000038050020FF
:101CB000A948816801220A438260002101607047BF
:101CC00030B5A64BA4490A681A400C681C40A242D1
:101CD000F9D1002AF7D0A24B14125C43D5B25D4370
:101CE0002B12E31810335B11436282619D4A4B68EB
:101CF00013404C681440A342F9D1002BF7D099113E
:101D0000A34A5143803109120162C36130BD10B54D
:101D10000400FFF7CDFF9F480068C007FBD52000F7
:101D2000FFF7CEFF10BD68214143090ADB22504373
:101D3000000C0818704780B5FFF7F5FF92E2FEB57A
:101D400004000A00EFF3108772B603CC083C924BF4
:101D50001B681360914E009001913200616AE06A45
:101D6000181A00F015FB0021009A019B80185941B8
:101D7000AE4D2A0038320CCA99420FD801D3904296
:101D80000CD2009001913200616A0020C04300F043
:101D9000FFFA0021009A019B801859412A0038322D
:101DA00003C287F3108803B0F0BD70B506007C4C09
:101DB000607A7D214843C90000F090FA451CEDB2DD
:101DC000A94A316A1B2000F0E3FA2070413660789E
:101DD000FFF7B1FF3072E0784019FFF7ACFF3070C9
:101DE00020794019FFF7A7FF70706079FFF7A3FF14
:101DF000B070A079FFF79FFFF07070BDFEB50400D2
:101E000065480568A76A654E32003900206B281ABC
:101E100000F0BEFA02002000083003C800900191D3
:101E200010000021009A019B8018594103C4083C0E
:101E3000A1480078002811D1206B281A616B8842D4
:101E40000CD2320039000020C04300F0A1FA0CCCC3
:101E5000083C00218018594103C4083CE562256311
:101E600003CC083C2200083203C2606AA062F7BDBE
:101E700080B57D4A00F08CFA8949884201DD08006E
:101E800002E0102800DA1020684900118882888A50
:101E90009949086001BDF8B50700644C3888206195
:101EA000964880797D214843C90000F017FA461C06
:101EB000F6B2F878002802D1B87800280DD0904802
:101EC000C168C907FBD5016817220A4302602000D8
:101ED000FFF71DFF606AA06209E0C8204003A0620E
:101EE0006062884820628848A0618848E0612500D7
:101EF0004035F8782870216A206980B2FFF7B8FF72
:101F000000220020A872002103C4083C224B1B6859
:101F1000E36223632300383303C32300083303C37E
:101F2000EA722000FFF741FF744C20788019FFF718
:101F3000FAFE1B30687160788019FFF7F4FE1B30E1
:101F4000A871A078FFF7EFFE1B30E871E078FFF78B
:101F5000EAFE1B302872F1BD08100060FFFF070089
:101F6000F6BC0800FFFFFF0753480078002806D0A2
:101F7000B848816801220A438260002101607047ED
:101F800004480068C107C90F01204840704700009D
:101F900053070000101000601018006035060000A4
:101FA000C500002038B594B0204C4020205C0028AB
:101FB00031D0684621005022FFF794F96846FFF7B8
:101FC0007FFE0899049880B2FFF752FF6846FFF73A
:101FD000ECFEEFF3108572B6200040300121C17293
:101FE0000699A1610799E1610899216209996162E5
:101FF0000A99A162694641228A5C427042228A5C47
:10200000827043228A5CC27044228A5C0271492237
:10201000895C417202E0EFF3108572B62000FFF791
:10202000EDFE85F3108815B030BD0000880B002050
:1020300080B569469148FFF782FE04BDF8B50500FA
:102040001E4C69462000FFF77AFE06000F008C4AFE
:10205000616A0098401B00F09BF900233900301A98
:102060009941F4BD00000000260300000200834BEC
:102070004020185C1074D869D0601800083003C87C
:1020800003C2083A98699060186B5061704710B5A8
:102090000A4C7C4A216A00F07BF9606310BD0000A5
:1020A000FF0F000000207849086078480168784AEE
:1020B0000A40026070470000C80B0020880B002017
:1020C00074494A68520003D50968016003207047CB
:1020D0006D490A68022A03D14968016001207047EE
:1020E0000A68032A03D14968016002207047002072
:1020F000704769480078704708180060C8000020E1
:1021000004100060C2F528008D5B0000ECEB650157
:1021100080B55C4A5949096A00F03AF90100212961
:1021200001D3083100E028215C4A10684118D161D0
:10213000916980239B050B439361116A8023DB0522
:102140000B43136202BDFEB504004C4D2800413024
:102150000079012908D1002A02D04121695C0CE0F4
:1021600029004131497808E0002A03D02900413193
:10217000897802E029004131C9780091019002A9D3
:102180002800FFF7DCFD201A414F0026414C3D4A54
:1021900001992B69C918C8318142296A17D200F008
:1021A000F7F83F490A78801A009A801A029A1218A2
:1021B0002260626807239A436260334A166062684D
:1021C000C023DB0513436360009A097811E000F037
:1021D000DFF829004131097A401A009A801A029AE0
:1021E0001218294B5A6002221A6062683A406260F3
:1021F000009A5318C118581D814206D22248066021
:102200006068074067600120FEBD1D4A696A1800CA
:1022100000F0BEF82900413148720020FEBDEFF306
:10222000108072B61D490968174A891C5160022145
:10223000116080F3108870471A48012142680A43F0
:102240004260026811430160802000041649086062
:10225000704700000810006080B514480068FFF760
:10226000EDFE04BD074A0549096A00F091F802BD78
:1022700080B5034A0149496AF7E70000880B00204E
:1022800035060000260300000C00006028180060DE
:10229000FFFFFFBF24180060D20B00201018006061
:1022A000C50000204818006000E100E01400006054
:1022B000F446002804D4494200F013F84042604735
:1022C0004042002905D45FD000F00BF8404249425B
:1022D0006047494200F005F84942604703460B4316
:1022E000E6D40022030A8B420BD203098B4219D297
:1022F00043088B422ED2411A00D201465241104669
:102300007047FF2209023FD012068B4205D31212FA
:1023100009028B4201D31212090203098B4219D31D
:1023200000E0090AC3098B4201D3CB01C01A524114
:1023300083098B4201D38B01C01A524143098B425E
:1023400001D34B01C01A524103098B4201D30B0147
:10235000C01A5241C3088B4201D3CB00C01A52416C
:1023600083088B4201D38B00C01A524143088B4231
:1023700001D34B00C01A5241884200D3401A524147
:10238000CFD201461046704708B5C046C04608BDCA
:1023900010B5904216D98AB2030C090C0C46594369
:1023A00080B25343444350431B191A041B0C1018AA
:1023B000594180225203002312184B41520DD8027A
:1023C000104310BD4843802252031218520D10468C
:1023D00010BD10B50888C046C04610BD010005D428
:1023E0000121C006C00E81403948016070470100DC
:1023F00009D40121C006C00E814036480160BFF3F8
:102400004F8FBFF36F8F704781B033490A68024323
:102410000A60096808400090009801B07047000009
:1024200081B02E4801688903FCD5816802220A43E5
:102430008260002102E000BF0099491C00910099D0
:102440000629F8DB816804220A43826001B07047E4
:102450002248816804229143816001684905FCD5C6
:10246000816802229143816070471D480168890795
:1024700003D500684107C80F70470020704719490D
:102480000A6883B213430B608A6A000C10438862A7
:102490007047020C80B2144B0129196805D108431A
:1024A0001860986A02439A62704781431960986A7B
:1024B0009043986270470D490028086803D00422B1
:1024C00002430A607047042290430860704700008E
:1024D00000E100E080E100E060004048000040488A
:1024E00008004048080050480C00504810ED00E03B
:1024F000FEB5FFB0FDB00400002069464870EFF360
:102500001080559072B60020B849886000F0A8FC91
:10251000002800D1E5E3200000F06CFE050020005B
:10252000FFF732FB0600200000F026FFA54200D98D
:102530002500AE4200D92E00B04200D930006946D5
:102540000870AB48AB49086188636846007800288A
:1025500004D068460078012808D130BFFFA9496936
:102560000870559880F31088002011E0FCA80078CE
:10257000002803D080200002FFF781FF9E4F022435
:10258000FCA8407800280DD0B868800402D401204F
:1025900000F038FC6003FFF772FFC5480068204375
:1025A000C349086068460078022803D1C020800132
:1025B000FFF765FFFE9EFD9D300028431E901E988C
:1025C000FFF75DFF00213000FFF763FF01212800C6
:1025D000FFF75FFF0025A021D4A8FEF7FDFF01A8AB
:1025E0000021002200230EC00EC01821FEF7F4FFC8
:1025F0002C214AA8FEF7F0FF2C213FA8FEF7ECFFA4
:102600006421BBA8FEF7E8FF6421A2A8FEF7E4FF5F
:10261000642189A8FEF7E0FF402159A8FEF7DCFFFE
:1026200024210DA8FEF7D8FF582173A8FEF7D4FF88
:10263000302133A8FEF7D0FF2C2128A8FEF7CCFFCD
:10264000386DC0070AD520229121C90516A801F0CE
:1026500061F8A0229749D4A801F05CF8386D4003D6
:1026600004D50C22944901A801F054F8386DC00338
:1026700002D5924800680490386DC00404D5182231
:102680008F4907A801F046F8386D400705D52C2280
:102690009021C9054AA801F03DF8386D000704D51E
:1026A0002C2288493FA801F035F8786DC00504D583
:1026B0004022110659A801F02DF8786DC00704D505
:1026C0006422814989A801F025F8786D800704D536
:1026D00064227E49BBA801F01DF8786D400704D53F
:1026E00064227B49A2A801F015F8B86D400404D516
:1026F000242278490DA801F00DF8B86DC00604D564
:102700005822754973A801F005F8B86D400504D545
:102710003022724933A800F0FDFFB86D800205D564
:102720002C228221C90528A800F0F4FFD0480068B7
:102730007290D04800687190CF4800687090002077
:1027400020AB8100CD4A52585A50401C0828F8DB73
:10275000C74880696F90624800686E906048406822
:102760006D90386B6C90B86B6B90386D6A90B86DEB
:102770006990386EC00703D40120FFF745FE03E0DF
:10278000584800680440589457488069800007D42E
:10279000554880698021090601435348816105E05D
:1027A00051488069400040084F498861386EC00731
:1027B00003D4386E012188433866684600780328C0
:1027C0001FD138681F903868C006386816D51021A8
:1027D000884338600748816A444A0A408262C16A75
:1027E000C02292010A43C2620BE000BF0400002035
:1027F000FFFF0000000050480000404804218843CB
:10280000386000203A49096850395791CC4A5165DF
:10281000CC4B516D0A6884001A51401C091DC84AEE
:1028200051651428F5DB334800693249896B80B261
:10283000090401431E98084000D03AE22D4C60681C
:102840008021490001436160206820600120FFF77A
:1028500032FEFFF70AFE00280DD0FFF7F9FDB86839
:10286000E021884320210143B96038688021890133
:102870000143396001201E901F9810210840569096
:1028800068460078032847D10122AF2149001A4841
:10289000006800F0C4FF569800282FD038688006E2
:1028A000C10F34D000F0D0FF0028F7D002252EE071
:1028B00000500041000070480000604800003048AF
:1028C0000000204800001048002000400050004058
:1028D0000060004000700041006000410040004185
:1028E00010E000E05416006010180060FFCFFFFFFA
:1028F0000000041000005048200500203868000740
:10290000C10F04D000F0A0FF0028F7D0032500225B
:102910000021002000F083FF0026786D400408D5D8
:1029200087480078002804D10126786DC34901400A
:10293000796501F03DFA4E488068042188434C498E
:10294000886068460078032814D11F98400703D593
:102950003868042101433960569800280AD0C748D6
:10296000A16A0140A162E16A0840E0623868102172
:1029700001433960002E08D08020C001796D0143E9
:102980007965796D08401F901F98BD4EBD488068DD
:10299000002800D154E100215798694A5065506DD4
:1029A000684A8B00D2580260491C001D644A506579
:1029B0001429F4DB72982E49086071982D4908603B
:1029C00070982D49086000212C4B880020AA1258CD
:1029D0001A50491C0829F8DB6C9838636B98B86367
:1029E0006A9838656998B865386DC00713D5202294
:1029F00016A99120C00500F08DFE0020D590DA9038
:102A0000DF90E490E990EE90F390F890A022D4A9A2
:102A1000C74800F07FFE386D400304D50C2201A9A1
:102A2000C44800F077FE386DC00305D5C248D021F8
:102A30004903816004990160386DC00404D51822EF
:102A400007A9BE4800F066FE386D40070BD5902000
:102A5000C00552990162539941624F9941612C22FC
:102A60004AA900F057FE386D000713D5B44807E0B7
:102A700008ED00E00410004000E100E000E400E0A8
:102A80004799016248994162449941612C223FA9CA
:102A900000F040FE606806406660786DC00504D5B1
:102AA000402259A9100600F035FE786DC0070BD5FD
:102AB000899C8998012188438990A24E642289A922
:102AC000300000F027FE3460786D80070BD5BB9C8A
:102AD000BB9801218843BB909B4E6422BBA9300068
:102AE00000F018FE3460786D40070BD5A29CA298C8
:102AF00001218843A290C74E6422A2A9300000F0B1
:102B000009FE3460B86D400412D50D9C0D9840212B
:102B100088430D90C04E0C220DA9300000F0FAFD44
:102B200014220DA801001031BC4800F0F3FD346000
:102B3000B86DC0060AD5582273A9B94804E000BF91
:102B4000C4040020C804002000F0E4FDB86D012496
:102B5000E44340050CD5339E339820403390242223
:102B600033A9B04800F0D6FD3E98AE49C8620E6069
:102B7000B86D80020CD5289E2898204028902022ED
:102B800028A98220C00500F0C5FD8220C00506608E
:102B9000386EC0070CD40120FFF736FCA2488069CC
:102BA00040004008A0498861386E04403C6608E057
:102BB0005898002805D09D480068022101439B4891
:102BC00001600122AF2149009948006800F027FE0A
:102BD0003868800304D400F037FE0028F8D00425BC
:102BE00000220021002000F01AFE1E98002813D1B8
:102BF0000122C8218E48006800F011FE38684004A8
:102C000004D400F021FE0028F8D005250022002180
:102C1000002000F004FE05E0FFF702FC386885495B
:102C2000014039606F988449886184486D9941609A
:102C3000002181606E9901600EE000BFFFBFFFFFC1
:102C40001E98002805D0FFF7EBFB38687949014052
:102C5000396060680640666068460078032826D1BF
:102C60000122AF2149007248006800F0D8FD704889
:102C700000687349884207D1042606E0FFCFFFFFB2
:102C8000FFFEFFFF0400002001263968C90632D488
:102C9000386800075AD400F0D7FD0028F8D0032484
:102CA000386E250000220021002000F0B8FD6846A3
:102CB000457064480169826B89B212040A43624913
:102CC0008A65624982680A408260026B1140016332
:102CD000FCA84078002804D05D4801680222914396
:102CE0000160559880F310885A488068002838D1D0
:102CF000694608707FE02C00002506E00122AF2124
:102D000049004B48006800F08AFD38688006C8D446
:102D100000F09AFD0028F8D000220021002000F0E9
:102D20007EFD28006D1CC0B2B042E7DB0224B8E78C
:102D30000000704800006048000030480000204853
:102D4000000010480020004000500040386EC007CE
:102D5000A8D5032DA6D02C00334800680F28FBD03F
:102D60009FE7394CA06D002845D0A16D00250020BB
:102D700000260A03120FF0231B010B40134301939B
:102D80000A0AF0273F021740CBB23B438021C90516
:102D9000002B05D08F691B043B4001D00125012089
:102DA000019B002B32D089690B402FD00126A06DEA
:102DB0002949014002D00F20FFF719FB274F2800B7
:102DC00005D0A06D384002D01020FFF710FBA06D99
:102DD000C046C046002E06D0A06D1F49014002D05B
:102DE0000F20FFF7FBFA002D05D0A06D074002D0A1
:102DF0001020FFF7F3FA68460078FFA949690870C8
:102E000068464078FF2189008D44F0BD0028D5D167
:102E1000F1E700BF00600040007000411070004109
:102E2000006000410040004110180060541600602E
:102E300020050020FFDFFFFF08ED00E010E000E0CC
:102E40000090D00300005048C40400200000FFFFA1
:102E50000050004104000020000F0F00FF00F000B0
:102E600010B5002400F0D6FF002805D10348006803
:102E7000C07A002800D10324204610BD3805002068
:102E800010B593A000F0D8FF924C200000F0D4FFC2
:102E90002000403000F0D0FF05A000F0CDFF00BFC3
:102EA0000AA000F0C9FF00BF10A000F0C5FF10BDD0
:102EB000723A202020526573657420746865204240
:102EC0006C75654E52472D4C500D0A003F3A20203C
:102ED00020446973706C6179207468697320686537
:102EE0006C70206D656E750D0A0000000D0A3E20A5
:102EF0000000000010B58AB005A800BF21A10CC9D0
:102F00000CC000BF21A11CC91CC005AA06210020BD
:102F100000F0A6FF0100C04C02D0200000F08CFFA2
:102F20001821002000F0A0FF01F0F7F8002804D0DD
:102F300001002000303000F07FFF03A80290801CC9
:102F4000019004A80090002309220021012001F033
:102F5000F8F8002803D001000FA000F06DFF07AAC9
:102F60000921002001F068F9002805D001002000A7
:102F7000583000F061FF03E02000843000F05CFF77
:102F80000AB010BDBCEC00E180020000506F776514
:102F900072546573740000006163695F6761705FFC
:102FA000696E69742829206661696C65643A20300D
:102FB00078253032780D0A0078B58BB00500FA26F6
:102FC000B600A74CB04201D1200001E02000303013
:102FD00000F032FF6E433000A249FFF77FF9030093
:102FE00000200A90099001200890002007900120FD
:102FF0000690002005900490039002900720019015
:10300000009313220221002001F060F90200290040
:103010002000603000F010FF934B192203210020A4
:1030200001F07BF9010000BF98A000F005FF0CB093
:1030300070BD10B500208D4C207060802071220082
:103040000121012001F06DF90100894802D000F052
:10305000F3FE10BD01212172343000F0EDFE10BDF1
:1030600010B58CB0834C02A821002822FEF73AF953
:10307000A020C00280490A6802430A60096808402B
:103080000090009801F093F987A003C86A4603C234
:103090006846FEF765FCFEF7EDF901F01FFD002123
:1030A000C943884200D1FEE701F04CFD002800D062
:1030B000FEE701F06FFD02A801F0C0FD002805D079
:1030C00001002000283000F0B7FEFEE70CB010BD74
:1030D0000D0A0000F44E051086B00121002000F01A
:1030E0005FFD002800D0FEE701F0E8FD002001F0C0
:1030F00095FEFFF7B5FFFFF7FDFE00BF6CA000F0E7
:103100009BFE00BF71A000F097FE0025049503957B
:1031100069460D81554C2572584F012606E0002066
:1031200001F07CFE76A000F087FE2572FEF776FCAB
:1031300001F0E6FFFDF7FDFF01A801F04DFF0028BB
:1031400045D0207A694609790A2940D00D293ED018
:103150003F292CD0662904D072292BD073291FD087
:1031600031E0002821D16420FFF726FFFFF761FF3F
:10317000267243480068304007D001F051FF002814
:10318000F7D101F054FF0028F3D101F0CEFE01A8E1
:10319000401C009002A80EC80320FFF7A9F9C5E75C
:1031A000002802D1FA208000DEE738000DE0FFF7AA
:1031B00067FE0CE0BFF34F8F324833490860BFF31E
:1031C0004F8F00BFFDE700BF48A000F035FE207A1A
:1031D0000028ABD0022802D00428A0D0C9E70020E4
:1031E00001F01CFE61893800503000F025FE0320FC
:1031F00020729BE780B522480068C00709D501F01E
:103200000FFF002803D101F012FF002801D0002099
:1032100002BD032002BD0000B84A051081B000289D
:1032200004D10298114902220A72488101B0704704
:1032300018B585B00EAC247804946C46A48E039423
:103240006C46248E02946C46A48D0194089C0094D4
:10325000FFF7E4FF06B010BD042004490872704770
:10326000BC4C051071020000A8040020200D0020B5
:10327000EC520510CC55051050004048744F051015
:10328000004000410400FA050CED00E05365742095
:103290006164766572746973696E672064617461D4
:1032A00020253032580A0000D20000000000000043
:1032B000506F77657220436F6E73756D7074696FB0
:1032C0006E20546573740D0A00000000456E74652D
:1032D00072203F20666F72206C697374206F6620C5
:1032E000636F6D6D616E64730D0A0000556E6B6ED9
:1032F0006F776E20436F6D6D616E640D0A00000084
:1033000044657669636520446973636F6E6E6563B7
:103310007465642121210D0A0000000081B0802025
:10332000400226490A6802430A6009680840009082
:10333000009823480168234A0A40C021090211432A
:103340000160802080012049086020480168012236
:103350000A4302600168802252030A430260016846
:10336000802212030A4302600168802292020A430B
:103370000260002001B0704780B501F0C5FB002855
:1033800001D1032002BD012002BD70B50500002659
:10339000864C2660666001F0BEFBA6490D60B00059
:1033A0002218926808180264761C082EF7DB0020A9
:1033B000C043A26E904770BD00000000500040481E
:1033C0000CE400E0FF00FFFF00E100E000003048F7
:1033D000F8B5FA277F00754D964E07E0380001F0EA
:1033E000B1FE002800D0C9E00E20686028680128DE
:1033F0001DD168680E2800D9D4E002A14000095E02
:103400008F4400BF1E00220026002C0056006E00D4
:103410009000AA00C600EC0006012C015801D8FF5C
:103420007C01012002E0022000E003206860F1BD81
:10343000002081002A00083252587250401C08288F
:10344000F7DB310040313000203000F033F9042048
:103450006860320008217E4817E02A006C3208219B
:10346000380001F063FE05206860320008217948C9
:1034700037E02A008C320821380001F057FE062080
:10348000686032000821A920800001F04FFE5A4BED
:1034900032005DE02C00AC3422000821380001F03D
:1034A00045FE072068603200082180484CE02C006F
:1034B000CC3422000821380001F038FE0820686072
:1034C000220029008C31F83055E00920686038006E
:1034D00001F038FE002801D0754864E03200082170
:1034E0005B4801F023FE00BF82A32A006C322FE06C
:1034F0002C00CC3422000821380001F017FE0A20ED
:1035000068603200082174481EE02A006C320821ED
:10351000380001F00BFE0B20686032000821A92062
:10352000800001F003FE00BF72A32A00AC320FE05E
:103530002C008C3422000821380001F0F7FD0C200B
:10354000686032000821654801F0F0FD69A322009F
:1035500031008020400000F07FF8F1BD2C00AC3439
:1035600022000821380001F0E1FD0D2068602200F2
:1035700029006C31F33000F041F8F1BD584812E0F9
:1035800000242C606C6001F0C6FAA000290008310C
:1035900009583150641C082CF7DB31000020AA6E5A
:1035A0009047F1BDA020FFF7F0FEF1BD9C0A00207E
:1035B00010B54C4C2068000307D5606880210903D2
:1035C00001436160B120FFF7E0FE2068C00207D52B
:1035D00060688021490301436160B220FFF7D5FE96
:1035E0002068800306D560688021890201436160FC
:1035F000FFF7EEFE10BD0000F436041070B50E00AB
:103600001500394C2168394A0A40C021090111438B
:1036100021600100012001F077FD32000821FF2028
:103620002E3001F075FD2A000821FF20923003E0C2
:10363000000000005C00002001F06AFD6068C0032B
:10364000C10FFBD1206802210143216070BD000041
:10365000E30200007A020000F8B50E0015001F001A
:10366000214C2168214A0A408021490111432160EF
:103670000100012001F048FD32000821FF202E301A
:1036800001F046FD2A000821FF20923001F040FDA4
:103690003A000821164801F03BFD6068C003C10FE5
:1036A000FBD12068022101432160F1BDB902000075
:1036B00008FF000010B502000C00002A03D008210A
:1036C000572001F033FD002C04D0220008216C208B
:1036D00001F02CFD10BD00008F020000CE020000A2
:1036E0000DFF00000400304800003048FFC0FFFF1D
:1036F00057020000FFFFFFFFFFFFFFFFFFFFFFFF7D
:1037000000000000000000000000000001000000B8
:10371000FFFFFFFF8B0707D0521E22D30B78491CF7
:103720000370401C8B07F7D1830730D0DB4219D0E0
:10373000401E121F08D308C943701B0A43801B0C8C
:103740000371001D121FF6D2D20707D30B884370F6
:1037500001D08A78C2701B0A8370704701D00B7841
:1037600043707047121F06D308C903801B0C4380A7
:10377000001D121FF8D2D20705D30B88038005D095
:103780008B788370704701D00B780370704770B4EA
:10379000103A03D378C978C0103AFBD2530701D34B
:1037A00018C918C001D508C908C0D20704D30B88AE
:1037B0000380801C891C002A01D50B78037070BC23
:1037C00070477047994800688103C80F7047000030
:1037D00081B0964801688903FCD5816802220A43BA
:1037E0008260002102E000BF0099491C009100990D
:1037F0000629F8DB816804220A43826001B0704721
:103800008A4800688106C80F7047884800684104EC
:10381000C80F7047864800684107C80F704730B529
:103820000D00844C002A0AD0FA218900FEF759FDC8
:10383000401E684360600020A060052002E0206810
:1038400001218843206030BD7A4800688021490208
:10385000084000D00120C0B2704770B50E001500BE
:1038600001240122010074480068FFF7D8FFB04727
:10387000A84204D06F480068C003F8D50024002295
:1038800000210020FFF7CBFF200070BDFCB5012117
:10389000002817D0A6480268E0239A432023134348
:1038A0000360826D04239A438265826B0A438263BC
:1038B000826B8A438263826D0A438265806D084011
:1038C0000090009838229B4B18699B4CA04215D160
:1038D000186800901D6818681C681B685B0D134011
:1038E0006402640F0F26000C30402F0AF0253D4083
:1038F0000195009D2D0A2E40009605E008200090BD
:1039000070230193032418239B4D0F26F6432F6B3E
:10391000374038432863E86AF027B843019F0743DC
:10392000EF62E86A064000983043E862286807269C
:10393000B04304432C602868904303432B603F202E
:10394000C043AB6F03400A241C43AC67AB6F4024F9
:103950001C43AC67EB6F034004241C43EC67EB6F24
:1039600080241C43EC67EB6F4024A343EB67834B3D
:103970001C6804401C605C680440102525435D60A1
:103980009C680440202525439D60DC680440302568
:103990002543DD601C69044022431A615A690240D4
:1039A000392414435C619A6902403A2414439C61AF
:1039B000DA6902403B241443DC611A6A02403C2469
:1039C00014431C625A6A10403D2202435A62552039
:1039D000FF22D2436A4C2568154005432560E568FF
:1039E000154066262E43E660256A1540284320626E
:1039F000206C10401D2505432564E06B10405925BF
:103A00000543E563606C1040322505436564606AD8
:103A100001436162986D10401F2101439965D86D83
:103A2000024009201043D865F3BD00000000404863
:103A30001400504810E000E020050020F8B5050013
:103A4000524C2068802149020143216001225049E3
:103A50006420FFF702FF002801D10420F2BD2800F6
:103A60003025ED434B4F484E2021E022D243030046
:103A70004BD0401E062847D801A31B5C9F4400BFC3
:103A8000083842505E6C7A003868284010210143A3
:103A90003960A0680240A26076003F480660206856
:103AA000790C0143216001223C49C820FFF7D5FE73
:103AB000002833D10520F2BDA06802401143A16067
:103AC000EBE7A068024040201043A0607608E4E7DE
:103AD000A068024060201043A060B608DDE7A0683F
:103AE000024080201043A060F608D6E7A06802409C
:103AF000A0201043A0603609CFE7A0680240C02094
:103B00001043A0607609C8E7FEE7A06802401143B1
:103B1000A160FFF75DFE2048066004E01E480068D3
:103B20001849884202D0386805403D600020F2BD47
:103B300008004048E81E0010CCECBCFCFF2819D05F
:103B400004290AD0052908D0062906D0072904D05F
:103B5000844A032903D1002808D101207047012895
:103B600004D0106804218843106003E01068042129
:103B7000014311600020704748160060E81600609D
:103B8000481500600090D0030048E801000040485C
:103B9000C537041004100040200500200B38041025
:103BA000F3B581B070487149086071490861714D81
:103BB000286820210143296028686F490140296055
:103BC00001226E49C820FFF748FE002801D10120DC
:103BD000FEBD2020A969302291430143A961684CB0
:103BE000A168C2010A43A260664B5969664A9142C4
:103BF00014D119681A681E681B681F02FC239B05F4
:103C00003B40F70A1E263E400096D601E022920174
:103C100032408E01F0218900314007E0A021890067
:103C2000F8235B0510220092C0225201E668574F2C
:103C300037403B43E360E36886041E43E660E36885
:103C40001E26B343009E1E43E660E36801261E4322
:103C5000E6604F4B1E684F4F374039431960196873
:103C60000843186018684C4901400A431A601868F4
:103C70008021C90001431960A869802149000143DE
:103C8000A9618020C0050168F0220A400068000791
:103C9000000F1043102803D1A8690F218843A861A1
:103CA00000263E48696A01406962A96A0840A86224
:103CB000A0683B490140802000020843A060E06802
:103CC00060210143E160206804218843206020686E
:103CD00010218843206096277F00324D0022290062
:103CE0003800FFF7BAFD002800D102262068102115
:103CF00001432160012229003800FFF7AEFD0028B2
:103D000001D1022601E0300001D03000FEBD68463E
:103D1000047AFF2C02D00120FFF7B8FD6846057930
:103D200021480168214A0A4080218901114301602C
:103D3000016880220A4302600168702291433022A8
:103D40000A4302602800FFF779FE010009D129002B
:103D50002000FFF7F3FE010003D101F041FA62B643
:103D60000020FEBD600040480000041008ED00E0A7
:103D70000400002004005048FFFEFFFF1538041027
:103D800000004048E41E0010CCECBCFCFFFFFFC06C
:103D9000940050483FFCFFFFFFC7FFFFFFCFFFFF2E
:103DA000FF7FFEFF0138041098004048FFC0FFFF6E
:103DB000EFF31482EFF30981002080F31488BFF33E
:103DC0006F8FF0B543464C4655465E466746F8B49D
:103DD0000F4CEFF30883636006B4BFF34F8F30BF1F
:103DE00000BF00BF0A4C646884F3088882B003BC3B
:103DF000F8BC9846A146AA46B346BC46F0BC04BCF3
:103E000080F3098881F31488BFF36F8F1047000097
:103E10000400002070B5074C0121206801F046FA2B
:103E2000054620680121103001F040FA014629437F
:103E3000084670BD4C0500200EB4C0B5020003A8B2
:103E400001900020009001AB0121044878440C301F
:103E500001F03AFA029906B0084700BFF1190100D3
:103E600010B501F0F1FC10BD10B501F0C5FD10BD9D
:103E700080B501F0E1FD01BD80B501F0E1FD01BDBE
:103E800080B501F009FE02BD80B501F025FE01BD3F
:103E900080B501F049FE02BD80B501F06BFE02BDA8
:103EA00080B501F085FE01BD80B501F09FFE01BD2A
:103EB00080B501F0A5FE01BD80B501F0B5FE01BDE4
:103EC00080B50120C04602BD80B501F0F1FE02BD03
:103ED00080B501F003FF02BD80B501F00EFF02BD09
:103EE00080B501F019FF02BD80B501F035FF02BDBC
:103EF00080B501F056FF02BD80B501F05AFF01BD4B
:103F000080B501F05FFF01BD80B501F060FF01BD2C
:103F100080B501F079FF01BD80B501F092FF01BDD0
:103F200080B501F095FF01BD80B501F09AFF01BD9C
:103F300080B501F09FFF01BD80B501F0A2FF01BD7A
:103F400080B501F0A3FF01BD80B501F0A7FF01BD61
:103F500080B501F0C6FF01BD80B501F0C9FF01BD0C
:103F600080B501F0E2FF01BD80B501F0FAFF01BDAF
:103F700080B502F013F801BD80B502F02BF801BD49
:103F800080B502F043F801BD80B502F05BF801BDD9
:103F900080B502F074F801BD80B502F08EF801BD65
:103FA00080B502F08FF801BD80B502F0AEF801BD1A
:103FB00080B502F0B1F801BD80B502F0B5F801BDE1
:103FC00080B502F0B9F801BD80B502F0BCF801BDC2
:103FD00080B502F0CCF801BD80B502F0CFF801BD8C
:103FE00080B502F0E4F801BD80B502F0EBF801BD48
:103FF00080B502F0F3F801BD80B502F0F4F801BD20
:1040000080B502F0F5F801BD80B502F0FCF801BD05
:1040100080B502F000F901BD80B502F003F901BDE1
:1040200080B502F00AF901BD80B502F00DF901BDBD
:1040300080B502F016F901BD80B502F020F901BD8E
:1040400080B502F027F901BD80B502F02BF901BD62
:1040500080B502F02CF901BD80B502F02CF901BD4C
:1040600080B502F02DF902BD80B502F071F902BDF4
:1040700080B502F091F902BD80B502F095F901BD5D
:1040800080B502F0C5F901BD80B502F0EFF901BDC0
:1040900080B502F069FA01BD80B502F08CFA02BD6C
:1040A00018B585B00CAC247804940BAC2478039438
:1040B0000AAC2478029409AC2478019408AC2478E2
:1040C000009402F0ABFA06B010BD80B502F0C8FA59
:1040D00001BD80B502F0E4FA01BD80B502F030FB0D
:1040E00001BD80B502F05AFB02BD80B502F068FB4D
:1040F00001BD80B502F0AAFB01BD80B502F0B4FBA2
:1041000001BD80B502F0DEFB01BD80B502F0FAFB17
:1041100001BD80B502F006FC01BD80B502F012FCC5
:1041200002BD80B502F012FC02BD80B502F012FCA7
:1041300002BD80B502F012FC02BD80B502F012FC97
:1041400002BDFFB583B00D9F0E9E9C460D46040038
:104150000BD0A00703D1600701D4200705D5002D9F
:1041600006D0012D04D0022D02D0822007B0F0BD70
:104170000C9800900197029662462046059B02F03B
:10418000F5FB0028F2D1FFF79BFE012806D00C9921
:1041900000200880388030800020E7E7294620464C
:1041A000059A00F009F80028E0D1324639460C980B
:1041B00000F02EF8F0E77047F8B505000E003F4F0D
:1041C0003800FFF7AEFF04001AD1684605703C4D79
:1041D0003800FFF7AAFF070068460078800706D07E
:1041E000390028004830FFF7A4FF040008D1022E50
:1041F00008D1390028006C30FFF79BFF040001D084
:104200002000F2BD2FA20721002000F015F8F7E7EB
:10421000F8B504000F001500294E30009030FFF76C
:1042200084FF20803000FFF788FF38803000243082
:10423000FFF783FF2880F1BD70B504000D00160064
:104240001F48FFE7FFF779FF33002A002100401CD9
:1042500080B200F001F870BDF3B581B017001D0009
:104260000024174E69460880242060433018FFF769
:1042700064FF002804D0401C69460988884202D0A7
:10428000641C042CF0D3042C09D068460389242034
:1042900044433419206A8188DA19914201DA822074
:1042A000FEBD29003A008068C018FDF735F8206A85
:1042B0000178890700D547800020FEBD60040020FA
:1042C000D0030020426C75654E524700FFB58BB09D
:1042D000189C1C9F22461D9E1E9D0D990C9802F055
:1042E000DBFB002817D102F0FBFB002813D11B9841
:1042F00008970A9507900996179A19991A9814AB76
:10430000049403920591069007CB6B4607C30BA854
:104310000FC802F00FFC0FB0F0BD10B502F01CFC8E
:1043200010BD10B502F01EFC10BD7047954A5C230D
:1043300058431018C269FF239A43C9B21143C1619F
:104340007047904A5C2358431018026A120C1204FA
:1043500089B2114301627047426801239A43CB0737
:10436000DB0F134343607047426808239A43C90038
:1043700003E0426810239A43090119401143416048
:104380007047426820239A434901F6E74268854B0B
:10439000134009028022520005E04268804B13401E
:1043A000490280229200114019434160704770B564
:1043B0007D4C60688021884360607C4D6068284047
:1043C000C901014361607A4861680140FC2292039F
:1043D0000A436260774962680A4090231B051343D1
:1043E0006360A2680240B423DB031343A360A268A6
:1043F0001140C82292050A43A260FF26F643A16835
:1044000031405A220A43A260A1682940C822920181
:104410000A43A260E1680840610A0143E16010209C
:1044200000F0DAF804202169314001432161E1689C
:104430000E4014213143E160E1680D40A021C90024
:104440002943E16061690843606160698021090472
:1044500001436161A0697F218843A06101205B491C
:1044600008745E224A745A4A136B8B74C8745D23B5
:104470000B75D36A4B7588755223CB7512680A7613
:10448000487612228A76534A1368CB76087715232A
:104490004B77D3688B77C8771A2320254B55136A3F
:1044A00021254B5522254855222323254B55136C96
:1044B00024254B5525254855212326254B55D36BBF
:1044C00027254B5528254855232329254B55536C23
:1044D0002A254B552B2548551B232C254B55526A15
:1044E0002D23CA542E23C85490222F23CA54424A43
:1044F000136830254B5531254855912332254B55AE
:1045000052683323CA54002234254A550B00103315
:104510000B604B600B000C338B60CA60096822682B
:1045200021603649086060698021C90501436161E5
:1045300070BD30B5012901D108240CE006240D001E
:1045400003D1012A0DD199230CE0022903D00024C4
:10455000032907D1F5E7012A01D19B2302E03D237E
:1045600000E03B23C01A001B30BD25490A68254BDB
:104570001340254A37E02548016808220A430260B3
:1045800070470000DC000020214801688022914330
:10459000016070471E48016880220A43026070472C
:1045A000FFFDFFFFFFFEFFFFC0000020FF00FFFF39
:1045B000FFFF00FFFFFFFF0015490A687F239A43B2
:1045C0004006400E1043086070470000D80B0020E2
:1045D000481600604815006084490A68954B1340EE
:1045E0000006FC22920502401A430A60704701004F
:1045F00094480840704700004017006010140060A5
:10460000040000604F000200B0FFFDFF18000060D2
:10461000C40000208021C903084070478021C905DB
:104620000840704780218904084070478021890133
:10463000084070478021C902084070478021490224
:104640000840704780218903084070478021890015
:104650000840704780210901084070478021090601
:10466000084070478021C9040840704780214904F0
:104670000840704780B50021FFF776FE01BD416814
:10468000802291434160704780B50021FFF764FEAE
:1046900001BD80B51022002102F068FA01BD80B58D
:1046A0000121FFF76EFE01BD80B50121FFF761FE1C
:1046B00001BD80B50121FFF757FE01BD4168802291
:1046C0000A4342607047C1688022D2050A43C26033
:1046D0007047C168802292040A43C2607047C16873
:1046E000802212060A43C2607047C1688022D20449
:1046F0000A43C2607047C168802252040A43C26004
:104700007047416804220A434260704780B5002127
:10471000FFF73CFE01BD80B50121FFF737FE01BD6B
:10472000416840220A434260704780B50121FFF78B
:1047300013FE01BD80B51FE0C268120D120509030A
:10474000090B1143C1607047C168802252030A43BC
:10475000C2607047C168802212040A43C260704779
:10476000C1688022D2030A43C260704780B54168A5
:104770008022D2000A4342600121FFF70EFE01BDF4
:104780006B4802686B4B134009026B4AFFE0000064
:104790006A4A5C23584310180029016803D040225C
:1047A0000A43026070474022914301607047000055
:1047B00062495C22504308180168614A0A4002605D
:1047C000016A604A0A400262704700005B495C224D
:1047D000504308180168802292030A430260016A6C
:1047E000802292050A43026270470000CC0000203C
:1047F00052495C2250430818406A70474F4A5C2374
:1048000058431018C26A120C0A70C26A120E4A701B
:10481000026B8A70026B120ACA70006B8002800EF3
:104820000871704745495C2250430818383070477A
:1048300000000000FFFFFFC040495C225043081801
:104840004030704730DFC9003C495C2250430818B3
:10485000C06A8004800E704738495C225043085873
:104860000106C80F704735495C2250430858800440
:10487000800E7047314A5C2358431018C269120AEF
:104880000A60036A1B0613430B60006A0004000EF3
:104890004860704729495C22504308584000400F47
:1048A000704787495C22504308584001400F7047C9
:1048B00038B504005C220021814823005C256B434D
:1048C000C01802F053F901212000FFF761FF31BD4C
:1048D0007B4A5C2358431018426A4162704710B506
:1048E000774A5C2358431018C26A92B20B784C780E
:1048F00024021C4323041343C362026B920D9205EE
:104900008B78CC7824021C4309790904214389025D
:10491000890A1143016310BD694A5C23584310188A
:10492000826A120E12060902090A11438162704757
:10493000D0000020FF0000F000FFFF0FDC0000208F
:10494000FFFFDFFFFFFFFFDF5D4A5C2358431018C6
:10495000826A1202120A0906114381627047584A9C
:104960005C2358431018C26A564B13400902FC22BC
:1049700092010A401A43C2627047514A5C2358436D
:10498000101802684F4B13400902FC2292010A40A2
:104990001A430260704710B5494A03005C24634320
:1049A000D218D369DBB20C6824021C43D4614A6874
:1049B00012020968090E1143FFF7C3FC10BD80B550
:1049C0003F4902005C235A438918096A8AB2802150
:1049D00009021143FFF7B5FC01BD39495C22504380
:1049E000081801688022914301607047344A5C23B3
:1049F00058431018826881607047314A5C235843DD
:104A000010180268304B13400907E022D205BEE7B8
:104A100038B50A682A4B04005C256C431B199C6955
:104A20009A614968FFF782FC31BD80B524490200D4
:104A30005C235A438918C969CAB280211143FFF720
:104A400075FC01BD1E495C22504308180168802294
:104A50000A43026070471A4A5C23584310184268A0
:104A600041607047164A5C23584310180268174B80
:104A700013400906E022D20489E7114A5C23584317
:104A80001018C26A1F239A43C906C90E1143C16296
:104A900070470B4A5C235843101802683F239A431F
:104AA0008906890E11430160704705495C22504315
:104AB00008180168802212024A4002607047000014
:104AC000DC000020FFC0FFFFFFFFFF8FFFFFFFF8AC
:104AD000042801D19D2070471220704738B5002569
:104AE000ED43174C206802280CD1FEF717FC002874
:104AF00008D1EFF3108072B60121216080F3108895
:104B0000002032BD280032BD0D480068012801D1C7
:104B1000002070470BE0EFF3108072B608490A6876
:104B2000032A00D001E0012204E080F31088012074
:104B3000C04370470A6080F310880020704700006F
:104B4000A404002081B08020C0020F490A680243FB
:104B50000A6009680840009000980C480168042227
:104B6000914301604168C907FCD54068104000D0FE
:104B7000012001B0704706490A68D207FCD5496890
:104B800089B2016000207047500040480000604832
:104B90000400604881B026490A6A012002400CD115
:104BA0000A6802430A600A6882430A600A6A02438A
:104BB0000A62096A084000900098002001B070471E
:104BC000FCB501231B4C1C4D6E4636792E700E68C9
:104BD00026604E6866608E68A660CE68E6600668ED
:104BE0002661466866618668A661C668E6616426D5
:104BF0006F463E70266B1E4326636E463678761EE1
:104C00003E70666B1E4003D06E463678002EF4D19F
:104C10006E463678266A1660666A5660A66A9660A0
:104C2000E66AD6602E783F79BE42CDD10020F6BD2F
:104C30004000404828000060400D002010B5C17AB7
:104C4000002480290CD8418B172909D30122920214
:104C5000914205D8C189172902D3121F914201D967
:104C600082240EE0014628220748FEF753FD01F09A
:104C700089FF05494968814201D5872401E002F096
:104C80008DF8204610BD0000D00C0020094902E03C
:104C9000084908E008494A6882434A600A681043A4
:104CA0000860704704490A6882430A604A681043F2
:104CB00048607047200050482800504880B50120C7
:104CC000FFF7E4FF0220FFF7E1FF0420FFF7E0FF1A
:104CD0000820FFF7DBFF80204000FFF7D9FF80208E
:104CE0008000FFF7D5FF8020C000FFF7D1FF8020B4
:104CF0000001FFF7CDFF0120FFF7D4FF0220FFF7EF
:104D0000C9FF0420FFF7C6FF0820FFF7CBFF1020E4
:104D1000FFF7C0FF2020FFF7C5FF4020FFF7C2FFCD
:104D20008020FFF7B7FF8020C001FFF7BBFF802086
:104D30000002FFF7AFFF01BD81B0C3490A6802431B
:104D40000A60096808400090009801B0704710B5EB
:104D50000B004B4301685C00E418A14353430B4331
:104D6000036010BD43688B43514319434160704752
:104D700010B50B004B4381685C00E418A14353431A
:104D80000B43836010BD30B5CB43B04C9025ED058F
:104D9000A8421AD1002A03D0022A0FD007D330BD6F
:104DA00020681840206060680340636030BD606820
:104DB0000340636020680143216030BD20680340E8
:104DC000236060680143616030BD002A03D0022A7D
:104DD0000FD007D330BDA0681840A060E068034042
:104DE000E36030BDE0680340E360A0680143A16078
:104DF00030BDA0680340A360E0680143E16030BDBE
:104E000010B50B004B434B434B43016A1C01E41AA2
:104E1000A14353430B43036210BD000038B50500A6
:104E20000420FFF789FF9024E405022202212000DC
:104E3000FFF78DFF022202212000FFF799FF0022D9
:104E400002212000FFF78EFF012202212000FFF740
:104E50009AFF022202212000FFF7D2FF0820FFF76D
:104E60006BFF854C022201212000FFF770FF022218
:104E700001212000FFF77CFF002201212000FFF725
:104E800071FF012201212000FFF77DFF0022012197
:104E90002000FFF7B5FF8020C00078490A68024370
:104EA0000A60096808400090009875488B21C1602D
:104EB0000168744A0A4002604168734A0A404260CD
:104EC00001680C220A4302608168704A0A408260CD
:104ED00081686F4A0A4082608168C900C9088160A0
:104EE0000168802292050A4302604168694A0A40CB
:104EF000426081682A2291438160016801220A434D
:104F00000260290010D064490D60016820220A4324
:104F1000026062480168FF22914340220A43026016
:104F2000802040005E49086031BD38B554480168B2
:104F3000202291430160D1005A4A1160BFF34F8F84
:104F4000BFF36F8F0125ED430168294001604B4895
:104F50000168554A0A400260474C032201212000A3
:104F6000FFF7F5FE002201212000FFF701FF0122DB
:104F700001212000FFF7F6FE344CA0682840A06015
:104F8000E0680540E5609025ED0503220221280038
:104F9000FFF7DDFE002202212800FFF7E9FE0122D3
:104FA00002212800FFF7DEFE0220C04321680140F5
:104FB000216061680840606031BD10B500233B4A44
:104FC00006E014682406FCD5DCB2045DD4605B1CEA
:104FD000DCB28C42F5D310BD80B500212E4A126898
:104FE000002A03D000F034F8010006E02F4A1368CD
:104FF0009B0602D5916801700121080002BD264878
:105000000268002A00D1704780B5284801688906E7
:1050100005D580686946087001216846904701BD42
:10502000224800680002C10F0120484070471F4815
:105030000168090602D50068400601D401207047C6
:1050400000207047000000005000404820005048F9
:1050500017494A680B68934201D100207047154BED
:105060009B5C0370521C8020C000824200D1002251
:105070004A60012070470000000010485800404876
:1050800000400041FFE9FFEFFFCFFFFFFFFCFFFF04
:10509000FFFFFFF1FFB7FFFF3000002008E400E052
:1050A00000E100E080E100E0FFFBFFFF1C40004169
:1050B0002C0D00207005002070B50025012804D0BB
:1050C000022802D00020C04370BD002901D1002079
:1050D00070BD0C00160005E001212000FFF76DFFF8
:1050E000641C6D1C3000461E0028F5D1280070BDE0
:1050F00001B5012269460120FFF7DEFF009802BDDD
:1051000010B501F09BFE10BD104A80001150704791
:105110000E4B8000181804E013680360121D001D78
:10512000491E0129F8DA002101607047074B800011
:10513000181804E003681360001D121D491E0129A0
:10514000F8DA704701498000085870470004304879
:1051500010B5C20018231340FF249C40E243890786
:10516000090E9940030004D416489B089B00C01800
:1051700006E0154B0007000F08388008800018185B
:1051800003681A401143016010BD80B50F480068E4
:10519000002814D10E480168002902D1806A002835
:1051A0000DD001200B498860FEF71CFEBFF34F8F26
:1051B00009480A490860BFF34F8F00BFFDE701208F
:1051C00002BD000000E400E01CED00E09400404857
:1051D00010005048040000200400FA050CED00E027
:1051E00080B503210020FFF7B3FF03210120FFF763
:1051F000AFFF03210220FFF7ABFF03210320FFF7DE
:10520000A7FF03210720FFF7A3FF03210820FFF7D3
:105210009FFF03210920FFF79BFF03210A20FFF7CF
:1052200097FF03210B20FFF793FF03210C20FFF7CB
:105230008FFF03210D20FFF78BFF03210E20FFF7C7
:1052400087FF03210F20FFF783FF03211020FFF7C3
:105250007FFF03211120FFF77BFF00211220FFF7C2
:1052600077FF03211320FFF773FF03211420FFF7BB
:105270006FFF03211520FFF76BFF03211620FFF7B7
:1052800067FF01211720FFF763FF00211820FFF7B8
:105290005FFF03211920FFF75BFF03211A20FFF7AF
:1052A00057FF03211B20FFF753FF01BD0A46920061
:1052B000121F8258491E002A01D001207047002980
:1052C000F4D1002070477047F8B596B0050017007C
:1052D0001E001C98049103A92B22885400200A90D8
:1052E00002950E9700960EE0252912D00498029A96
:1052F00090470490002800D1D2E00A98401C0A9000
:105300000E98401C0E900E9801780029ECD10A9856
:10531000C8E000200790089009900226082101911A
:10532000012404210E9D00E020436D1C2A78202AD0
:10533000FAD0232A0AD02B2A04D02D2A04D0302ACE
:1053400008D00AE03043F0E70843EEE70200082007
:105350001043EAE702001020FAE72A2A0ED1009A49
:1053600017683A683F1D009B1F600C92002A03D506
:1053700053420C93014308006D1C14E000210C9172
:10538000004A0BE0CBCCCC0C0C9B934205DA9F007F
:10539000FB185B00591830390C916D1C29780B00F3
:1053A000303B0A2BF0D329782E2903D00021C943A2
:1053B0000B9127E06D1C29782A2908D100990968EA
:1053C0000A68091D009B19600B926D1C1AE02D29BB
:1053D00002D12D236D1C00E0002300210B910CE075
:1053E000002B09D10B9ABC4FBA4205DA9700BA18C4
:1053F0005200511830390B916D1C29780A00303A4F
:105400000A2AEDD303A908852F783900B3A001F04B
:1054100051FD002801D038006D1C03AF2A217854BB
:10542000785C682805D12878682802D162207854F1
:105430006D1C10A806902A78681C0E90252A15D09D
:10544000582A52D0632A00D1BCE0642A00D17FE000
:10545000692A00D17CE06F2A47D0702A3AD0732A9B
:1054600008D0752A41D0782A3FD0B5E0079410A91A
:105470000A70BAE0009800680468001D009908608E
:105480000594002C13D12B20385C00280CD000246C
:10549000E44300BF93A001F017FD201A00D1A4E05F
:1054A0000020C04317B0F0BD95A005909DE00B9D76
:1054B000002D03D5200001F02BFD09E02A0000217A
:1054C000200001F02DFD002801D0001B00E0280085
:1054D00008908AE0009800680168001D009A10603A
:1054E000039110A80590782168E0785C622803D0C9
:1054F000682809D06C280FE0009801680868091D29
:10550000009B1960C0B20DE0009801680868091D91
:10551000009B196080B205E0009801680868091DC9
:10552000009B19600390388D0199C0B2084240D0A9
:10553000039800283DD020201043782839D10798BF
:1055400010A930230B54401C431C07930A5430E02D
:10555000785C622803D0682809D06C280FE0009896
:1055600001680868091D009B196040B20DE00098B1
:1055700001680868091D009B196000B205E00098E9
:1055800001680868091D009B19600390002802D576
:1055900007982D2109E0388D304202D007982B2141
:1055A00003E0C00705D50798202110AB1954401C13
:1055B000079010A8079940180590110003A800F063
:1055C000A0F812E00794009800680168001D009A96
:1055D000106010A8017008E00794252010A9087039
:1055E000100002D0079610A842700C980799401A34
:1055F0000999401A0899401A0F902820385C4007F2
:1056000013D42020694608710F9800280DDD0F9CE7
:10561000029D012301AA03A9280000F0FAF800283E
:1056200000D03DE7641EF4D10295079D10AC002D1B
:105630000ED0029E227803A9300000F0D9F800288D
:1056400002D4641C6D1EF5D10296002800D027E715
:10565000302069460871099C002C0CDD029D012355
:1056600001AA03A9280000F0D4F8002800D017E709
:10567000641EF4D10295059C089D002D0ED0029E5B
:10568000227803A9300000F0B3F8002802D4641C8B
:105690006D1EF5D10296002800D001E72820385C65
:1056A000400700D42FE62020694608710F98002893
:1056B00000DC28E60F9C029D0E9F009E012301AA9C
:1056C00003A9280000F0A5F8002800D0E8E6641E31
:1056D00000D105E6F2E70000CBCCCC0C686C747A04
:1056E0004C0000007072696E74665F733A206261EC
:1056F0006420257320617267756D656E740000000B
:105700000000F0B583B00A00C4686F2901D10825F4
:1057100006E020211143782901D00A2500E0102558
:10572000182701680E00642A01D0692A03D10029D4
:1057300001D571420E00002E0CD1016A002909D159
:10574000082D31D12821415C09072DD5172730219B
:10575000E17529E00290684602707F1E01973000D3
:105760002900FCF7BEFD3031C8B23A2803DB684699
:10577000007851380918E15530002900FCF7B1FDD7
:10578000060004D002988068E1198842E5D30298A7
:10579000082D09D12821415C090705D5E15D302993
:1057A00002D07F1E3021E1551821C91B4161E21949
:1057B0008260026A914206DA511A8161018D0B4AB8
:1057C0000A40028510E0002A0ED52822825C1423AC
:1057D0001340102B08D1426A0369D21A8369D21A86
:1057E000511A012900DB816103B0F0BDEFFF000019
:1057F00010B503000C001100606898476060002835
:1058000004D0E069401CE061002010BD0020C043CE
:1058100010BDF8B50024002B11D007000E001400B5
:105820001D0021787068B8477060002809D0F069C1
:10583000401CF0610020641C6D1EF2D104002000A9
:10584000F2BD0020C043F9E77FB5040066480D466D
:105850000068164610D0062C14D0082C0FD0182C37
:105860000DD0282C0ED02A2C0CD02C2C0DD02E2C68
:105870000ED0D02C43D044E0062D0FD041E0102DA7
:105880000CD03EE0022D09D03BE0012D06D038E0DF
:10589000062D36D171798909032948D100192A4684
:1058A0003146FDF737FFFEF70BFB012822D12C2CE8
:1058B00020D1307800281DD00020C04601281AD001
:1058C0001B201F304009401C41004118012001F0FD
:1058D00033FB0020C04601280FD01B201F30400999
:1058E0004100401841498989081AC01E81B2002030
:1058F00001F022FB73E0FB20E3E7FB20EEE7012D44
:1059000004D00020C046012805D006E01078FEF73C
:10591000E8FB04B070BDD12C0AD0302C26D0D32C9B
:105920002AD0FF2C2ED02F2C39D0322C45D058E045
:10593000082D56D1022231466846FDF7EBFE0222C1
:10594000B11C01A8FDF7E6FE0222311D02A8FDF7F9
:10595000E1FE0222B11D03A8FDF7DCFE6846838943
:105960000289818800888220C046D2E7012D38D183
:105970003078FEF77DFBCCE7012D32D1307801F095
:10598000E5FAC6E7042D2CD1042231466846FDF71E
:10599000C1FE00980020C046002820D121E0012D42
:1059A0001FD1307800281CD008281AD201F0DCFA68
:1059B000FF3031784130017211E0022D11D1022205
:1059C00031466846FDF7A6FE68460188002908D0E2
:1059D0000748814205D207480068283041860020E8
:1059E00097E7122095E7000024050020D00C002046
:1059F0000907000028050020F8B50C4605461F29B8
:105A000001D8012D01D91220F8BD0A480068477A53
:105A1000867A44728572284601F0BEFAA74201D107
:105A2000AE4205D001237F221946FF20C046C04662
:105A30000020F8BD3805002010B5C046C04610BD96
:105A40007CB51348066828360020C046002803D0DD
:105A500010480024857D17E00125002420461422EB
:105A600050430246F16A12328A5C012A0AD1801C34
:105A7000085C800706D5684604706A46012100204C
:105A800001F070F8641CE4B2AC42E7D37CBD0000C6
:105A900028050020D00C002070B50C4605460020DB
:105AA000C04600280CD0FEF70BFA002802D02407CD
:105AB000240F0AE0052004420CD10A20044004E02F
:105AC0002007800F06D1A407A40F002C02D02C7051
:105AD000002070BD822070BD38B51248046828349B
