:020000041004E6
:1000000000000120591E0410BD0804104D1D0410ED
:10001000AA5555AA45554C420000000000000000BA
:10002000000000000000000000000000C3080410F1
:100030000000000000000000830E04104F1D04109B
:10004000030F04105B0F04108F1804104B1D0410D5
:10005000371E0410711E0410731E0410751E041048
:10006000771E0410791E04107B1E0410511D04100D
:100070007D1E04107F1E0410811E0410831E0410B8
:10008000851E0410871E0410891E04108B1E041088
:100090008D1E04108F1E0410911E0410931E041058
:1000A000951E0410971E04100000000000000000C0
:1000B0000000000000000000000000000000000040
:1000C000944800688103C80F7047000081B09148D0
:1000D00001688903FCD5816802220A4382600021FD
:1000E00002E000BF0099491C009100990629F8DB45
:1000F000816804220A43826001B070478548006825
:100100008106C80F7047834800684104C80F7047D4
:10011000814800684107C80F704730B50D007F4C1B
:10012000002A0AD0FA21890000F0F6FA401E68433E
:1001300060600020A060052002E020680121884363
:10014000206030BD70B50E001500012401220100B1
:1001500073480068FFF7E1FFB047A84204D06F483A
:100160000068C003F8D50024002200210020FFF71A
:10017000D4FF200070BDFFB501212022002818D037
:10018000AD480368E024A34313430360836D062452
:10019000A34302241C438465836B0B438363836BFB
:1001A0008B438363836D0B438365806D08400090B0
:1001B00000980723A1480469A14DAC4218D10468F6
:1001C00000940468076805682D0D1D4003950068BC
:1001D000000E1840029001250F26380C3040270AE7
:1001E000F0243C400194009C240A2640009604E040
:1001F00008200090702401940025924C0F26F643AD
:10020000276B374038432063E06AF027B843019FEB
:100210000743E762E06A064000983043E062382016
:10022000002D0CD025689D43039E33402B43236053
:1002300023688343029DED0005401D4325603F2355
:10024000DB43A56F1D400A262E43A667A56F4026F7
:100250002E43A667E56F1D4004262E43E667E56F33
:1002600080262E43E667E56F4026B543E567A03458
:1002700025681D40256065681D4010262E43666078
:10028000A5681D402A43A260E2681A403025154344
:10029000E56022691A4010432061606918403922E4
:1002A00002436261A06918403A220243A261E069F8
:1002B00018403B220243E261206A18403C2202437C
:1002C0002262606A03403D20184360625523FF208C
:1002D000C0437F4A146804401C431460D46804403F
:1002E00066252543D560146A044023431362136CCA
:1002F00003401D241C431464D36B034059241C4346
:10030000D463536C1840322303435364506A01434F
:100310005162FFBD000040481400504810E000E06A
:1003200074030020F8B505006B4C20688021490259
:1003300001432160012269496420FFF703FF00287F
:1003400001D10420F2BD28003025ED43614E20216B
:10035000E022D24303000BD14B0618681F68F0233C
:1003600003403807000F1843102851D10620F2BD72
:100370007700401E06284AD801A31B5C9F4400BF9B
:10038000083C485664728000554801682940102393
:100390000B430360A0680240A2603800514E3060F9
:1003A0002068802189010143216001224E49C82033
:1003B000FFF7C8FE002834D10520F2BDA068024036
:1003C0001143A1603000E9E7A068024040201043DB
:1003D000A0607008E2E7A068024060201043A060BF
:1003E000B008DBE7A068024080201043A060F0085E
:1003F000D4E7A0680240A0201043A0603009CDE7F8
:10040000A0680240C0201043A0607009C6E7FEE764
:10041000A06802401143A160FFF758FE3148066012
:1004200002E03068B84204D02D48006805402C48EE
:1004300005600020F2BD000008004048E81E0010E2
:10044000CCECBCFC4816006010B5FF2833D0042962
:100450000CD005290AD0062908D0072906D0062283
:10046000D2439A4B032903D1002809D1012010BDA2
:10047000012805D01C682240022414431C6005E0BA
:100480001868024004201043186001208022D20521
:1004900013681268F0241C401207120F2243102A1E
:1004A00009D18B4A012908D101280CD12A201060DA
:1004B00050680007FCD4002010BD022905D1012896
:1004C00003D12920F3E70028FBD02820EFE7000024
:1004D000481500600048E80100004048C1000410D1
:1004E000041000407403002007010410F3B583B02A
:1004F00078487949086079490861794D2868202150
:10050000014329602868402101432960286880212F
:100510000143296001227349C820FFF713FE002818
:1005200001D10120CFE0A869302188432021014377
:10053000A9616D4CA068802149010143A16000269A
:100540006A4B58696A4988421AD1186819681A684A
:100550001F683F043F0F02971B6801270197D709C7
:100560001E223A4000921B02FC2292051A40CB0147
:10057000E021890119408301F0208000184007E044
:10058000D80C10210091F02252050196C02149019A
:10059000E368584F1F403A43E260E26880231B043F
:1005A0001343E3601E22D243019B002B09D0E36872
:1005B0001340029F7F001F43E760E36801271F434A
:1005C000E7604D4B1F683A40009F17431F601A6851
:1005D000012717431F601A68484F174038431860B7
:1005E0001868202202431A601868454A02401143E5
:1005F000196018688021C90001431960A869802129
:1006000049000143A9613F48696A01406962A96ADA
:100610000840A862A0683C490140802000020843CD
:10062000A060E06860210143E16020680421884304
:100630002060206810218843206096277F00334D7A
:10064000002229003800FFF77DFD002800D1022696
:100650002068102101432160012229003800FFF7A2
:1006600071FD002801D1022601E0300001D03000E8
:1006700029E06846047CFF2C02D00120FFF77BFDB7
:100680006846057B22480168224A0A408021890188
:1006900011430160016880220A43026001687022F0
:1006A000914330220A4302602800FFF73BFE01001D
:1006B00009D129002000FFF7C7FE010003D100F097
:1006C00093F862B6002005B0F0BD0000600040481D
:1006D000005000400000041008ED00E0040000207D
:1006E000040050481101041000004048E41E0010AE
:1006F000CCECBCFCFFFFFFC0940050483FFCFFFF68
:10070000FFC7FFFFFFCFFFFFFF7FFEFFFD000410CD
:1007100098004048FFC0FFFF094214D088420FD321
:100720000122030C01D100041204002300185B41D4
:100730008B4200D35B1A5241F8D319001000704766
:1007400001000020704708B500F0BAF808BD026843
:10075000531C03601170704710B5C200182313407A
:10076000FF249C40E2438907090E9940030004D40A
:1007700016489B089B00C01806E0154B0007000FA9
:10078000083880088000181803681A401143016077
:1007900010BD80B50F480068002814D10E480168CC
:1007A000002902D1806A00280DD001200B49886001
:1007B00000F0A2F8BFF34F8F09480A490860BFF361
:1007C0004F8F00BFFDE7012002BD000000E400E004
:1007D0001CED00E094004048100050480400002048
:1007E0000400FA050CED00E080B503210020FFF7BE
:1007F000B3FF03210120FFF7AFFF03210220FFF722
:10080000ABFF03210320FFF7A7FF03210420FFF71D
:10081000A3FF03210520FFF79FFF03210620FFF719
:100820009BFF03210720FFF797FF03210820FFF715
:1008300093FF03210920FFF78FFF03210A20FFF711
:100840008BFF03210B20FFF787FF03210C20FFF70D
:1008500083FF03210D20FFF77FFF03210E20FFF709
:100860007BFF03210F20FFF777FF03211020FFF705
:1008700073FF03211120FFF76FFF00211220FFF704
:100880006BFF03211320FFF767FF03211420FFF7FD
:1008900063FF03211520FFF75FFF03211620FFF7F9
:1008A0005BFF01211720FFF757FF00211820FFF7FA
:1008B00053FF03211920FFF74FFF01BD704743008D
:1008C00070477047EFF31482EFF30981002080F343
:1008D0001488BFF36F8FF0B543464C4655465E46CD
:1008E0006746F8B40F4CEFF30883636006B4BFF3B8
:1008F0004F8F30BF00BF00BF0A4C646884F3088884
:1009000082B003BCF8BC9846A146AA46B346BC4692
:10091000F0BC04BC80F3098881F31488BFF36F8FA7
:100920001047000004000020F0B597B00500160045
:100930001F001C986A460023002418C2059104A9D0
:100940002B2288540B9303950F960EE023000F9AE9
:1009500004A9039800F07AFA002800D5D8E001E055
:10096000F4D501240F9800190F900F9800782528CE
:1009700009D10020089009900A90022408210291D0
:1009800004210F9D0CE06A460021C9430F9800F036
:10099000A7FA0400E4D10B98BCE002000120104348
:1009A0006D1C2A78202AF8D0232A0AD02B2A04D0BA
:1009B0002D2A04D0302A07D009E02043F0E708436D
:1009C000EEE702000820EAE702001020E7E72A2A03
:1009D0000CD13B681A681B1D3B600D92002A03D5A1
:1009E00053420D93014308006D1C14E000210D914A
:1009F000004A0BE0CBCCCC0C0D9B934205DA9E0059
:100A0000F3185B00591830390D916D1C29780B00D3
:100A1000303B0A2BF0D329782E2903D00021C9437B
:100A20000C9125E06D1C29782A2906D139680A68BD
:100A3000091D39600C926D1C1AE02D2902D12D235D
:100A40006D1C00E0002300210C910CE0002B09D16B
:100A50000C9AB84EB24205DA9600B21852005118FC
:100A600030390C916D1C29780A00303A0A2AEDD3EE
:100A700004A908852E783100AFA000F039FA0028CB
:100A800001D06D1C00E0002604A82A214654405CD9
:100A9000682807D12878682804D1622004A92A226E
:100AA00088546D1C11A807902A78681C0F90252A7D
:100AB00013D0582A4FD0632A00D1B1E0642A79D0EC
:100AC000692A77D06F2A46D0702A3BD0732A0AD081
:100AD000752A40D0782A3ED0ABE00120089025202E
:100AE00011A90870AFE038680468001D38600694EA
:100AF000002C14D104A82B21405C00280CD0002429
:100B0000E44300BF8EA000F0FDF9201A00D19AE066
:100B10000020C04317B0F0BD90A0069093E00C9D5C
:100B2000002D03D5200000F011FA09E02A00002171
:100B3000200000F013FA002801D0001B00E028007C
:100B4000099080E038680168001D3860049111A8A0
:100B50000690782160E004AB2A20185C622803D05C
:100B6000682807D06C280BE039680868091D3960CF
:100B7000C0B209E039680868091D396080B203E035
:100B800039680868091D39600490188D0299C0B24F
:100B900008423CD00498002839D0202010437828FF
:100BA00035D1089811A930230B54401C431C0893DD
:100BB0000A542CE004AB2A20185C622803D0682871
:100BC00007D06C280BE039680868091D396040B20D
:100BD00009E039680868091D396000B203E0396826
:100BE0000868091D39600490002802D508982D2155
:100BF00009E0188D204202D008982B2103E0C0079D
:100C000005D50898202111AB1954401C089011A853
:100C1000089940180690110004A800F0A0F812E00E
:100C20000120089038680168001D386011A8017023
:100C300009E001200890252011A90870100002D0B9
:100C4000089411A842700D980899401A0A99401A00
:100C50000999401A109004A82821405C400713D439
:100C6000202069460872109800280DDD109C039D15
:100C7000012302AA04A9280000F0E8F8002800D007
:100C800046E7641EF4D10395089D11AC002D0ED0EB
:100C9000039E21780598B0470590002800D137E7DA
:100CA0000B98401C0B90641C6D1EF2D103963020F3
:100CB000694608720A9C002C0CDD039D012302AAE0
:100CC00004A9280000F0C2F8002800D020E7641E24
:100CD000F4D10395069C099D002D0ED0039E21782A
:100CE0000598B0470590002800D111E70B98401CEB
:100CF0000B90641C6D1EF2D1039604A82821405C61
:100D0000400700D431E62020694608721098002878
:100D100000DC2AE6109C039D0F9E012302AA04A971
:100D2000280000F093F8002800D0F1E6641E00D1FE
:100D300009E6F2E7CBCCCC0C686C747A4C0000006E
:100D40007072696E74665F733A2062616420257305
:100D500020617267756D656E740000000000F0B56B
:100D600083B00A00C4686F2901D1082506E020215C
:100D70001143782901D00A2500E0102518270168C1
:100D80000E00642A01D0692A03D1002901D57142DD
:100D90000E00002E0CD1016A002909D1082D31D195
:100DA0002821415C09072DD517273021E17529E05D
:100DB0000290684602707F1E019730002900FFF7FD
:100DC000ABFC3031C8B23A2803DB684600785138B2
:100DD0000918E15530002900FFF79EFC060004D0F9
:100DE00002988068E1198842E5D30298082D09D15C
:100DF0002821415C090705D5E15D302902D07F1E1D
:100E00003021E1551821C91B4161E2198260026A53
:100E1000914206DA511A8161018D0B4A0A4002851E
:100E200010E0002A0ED52822825C14231340102BD8
:100E300008D1426A0369D21A8369D21A511A012968
:100E400000DB816103B0F0BDEFFF0000F8B50024C6
:100E5000002B11D007000E0014001D0021787068CF
:100E6000B8477060002809D0F069401CF06100208C
:100E7000641C6D1EF2D104002000F2BD0020C043AE
:100E8000F9E7704730B45368D41803E05B1C491E7F
:100E9000641C401C042B06DA002904D00578257058
:100EA0000578002DF2D1536030BC704738B5002969
:100EB0000ED01D001400FFF7E5FF616820006A6B8B
:100EC00090470122D243811A02D0491E02D004E089
:100ED000012000E00020C04332BD0021616032BD2E
:100EE00080B5024BFFF7E2FF02BD0000780300204F
:100EF000C9B202788A4203D0401C002AF9D10020EE
:100F00007047704780B5002801D100BF07A006498F
:100F10000B68002B03D022220021984701E000F04B
:100F200028F8222002BD0000C4030020636F6E7306
:100F3000747261696E742068616E646C65723A20C7
:100F4000626164206D65737361676500431C01789D
:100F5000401C0942FBD1C01A70477047C9B2521EEB
:100F600005D30378401C8B42F9D1401E7047002006
:100F7000704780B5012000F001F801BD80B500BFC9
:100F800000BF024A11001820ABBEFBE7260002009A
:100F900070B5049C0568934E2E4031431204FF2522
:100FA0002D0415400D431902FF2212020A402A4364
:100FB000E1B21143016070BD70B5049C45688A4E72
:100FC0002E40490331432404FF252D0425400D43C1
:100FD0001902FF231B020B402B43D1B2194341607E
:100FE00070BDC269814B134009061943C161704746
:100FF00070B5049CC5697B4E2E4031431204FF2519
:101000002D0415400D431902FF2212020A402A4303
:10101000E1B21143C16170BD70B505000C0001263D
:10102000CA20686253206862280000F05AF901283B
:1010300016D0A8684021884321680143A960286927
:10104000C00BC003A168014329612869B849014068
:1010500060680004084328618020C043E8600026DF
:10106000FF206862300070BDF8B584B004000F0046
:10107000150001264020A168084000D12860CA2040
:10108000606253206062200000F02BF9012842D0FA
:101090002879039068790290A87901902D68002F33
:1010A00003D00090029B039A24E00A21FFF734FB4F
:1010B000070101980A21FFF72FFB3943C9B20091BC
:1010C00002980A21FFF728FB070102980A21FFF77F
:1010D00023FB0B003B43DBB2019303980A21FFF78C
:1010E0001BFB070103980A21FFF716FB0A003A438E
:1010F000D2B2019B29002000FFF74AFF8020C043A5
:10110000AC490860A068800604D4200000F012F901
:10111000060000E00026FF206062300005B0F0BD50
:10112000F8B584B00C0015000126002C06D16978B2
:10113000CA0603D5EF220A400A326A700700CA20A5
:10114000786253207862380000F0CBF8012844D050
:10115000A878039068780290EE782D78002C03D060
:101160000096029B039A27E030000A21FFF7D4FA89
:101170000001019030000A21FFF7CEFA01980143E7
:10118000C9B2009102980A21FFF7C6FA0601029837
:101190000A21FFF7C1FA0B003343DBB20193039836
:1011A0000A21FFF7B9FA060103980A21FFF7B4FAFA
:1011B0000A003243D2B2019B29003800FFF7FCFE3F
:1011C0008020C0437B490860B868800604D438009A
:1011D00000F0B0F8060000E00026FF207862300042
:1011E00005B0F0BD808080FFC00000FFFFFFFFC0A2
:1011F000BFB50400150040200022A368184000D1AC
:101200002A60CA20606253206062E8680028E069B2
:1012100054D1694A0240E2612F7C002904D0390090
:101220002000FFF7DEFE56E038000A21FFF774FACF
:101230000001009038000A21FFF76EFA0098014380
:10124000C9B22000FFF7CDFE28790390687902909B
:10125000AF7938000A21FFF75FFA000101903800EA
:101260000A21FFF759FA01980143C9B20091029887
:101270000A21FFF751FA070102980A21FFF74CFAF9
:101280003943C9B2019103980A21FFF745FA0701D2
:1012900003980A21FFF740FA3943CAB2019B296833
:1012A0002000FFF7A5FEE06944490140A868084313
:1012B000E061FF206062002004B0B0BD8022D20552
:1012C0000243E261E0693E4A0240287C0006104386
:1012D000E0610029B8D0A87900906B792A79DEE71F
:1012E000000081B00100FA20800000900020CA6850
:1012F000520619D40022D243CA60CA685306DA0FD4
:101300000DE0304A1268D20302D5009A521E0092B4
:10131000CA685306DA0F009B002B00D10120009B06
:10132000002B01D0002AECD001B070470000000073
:10133000FFFF80FF78B50100FA24A400009400208C
:10134000CA6880231A40A023DB431343CB60CA68DA
:101350009206D50F1B4B0CE01D68ED0302D5009DD6
:101360006D1E0095CD68AE06F50F009E002E00D1D3
:101370000120009E002E01D0002DEDD1050016D1D8
:101380000094CC68A506EC0F0CE01C68E40302D5C1
:10139000009C641E0094CC68A506EC0F009D002DF7
:1013A00000D10120009D002D01D0002CEDD072BD98
:1013B000000000000C400040FFFFFFBF7F7F7F7FE9
:1013C000FFFFFFF010E000E010B5C200182313404B
:1013D000FF249C40E2438907090E9940030004D48E
:1013E000BC489B089B00C01806E0BB4B0007000FE1
:1013F000083880088000181803681A4011430160FB
:1014000010BD0168FC2080030AE00168FE20C001D5
:101410000840010B0901000506E04168FF200004B7
:101420000840010D09010003000F0843704741689F
:10143000F82040010840010B09010005F4E7000015
:10144000F8B58CB0FF210220FFF750F8002800D03B
:10145000FEE701210020C043FFF7B6FF9F48006868
:1014600000F078F900F0B0F9002000F083FA1822BB
:10147000002101A800F050FB994C0820616B01434A
:101480006163616B084000900098964E8020400098
:10149000B061019001200290002503950495059507
:1014A00001A9300000F042FB80204000B0618E486E
:1014B00000F0D2FB0C22002103A800F02DFB082233
:1014C000002101A800F028FB04220021684600F05A
:1014D00023FB1422002106A800F01EFB80277F01B9
:1014E000A06B3843A063A06B38400B900B9820682A
:1014F000802101432160A0693843A061A0697B4934
:101500000140A16120680006FCD5206880210143CC
:101510002160774CCA206062532060620020C04383
:10152000E060E0684006FCD5FF26666203957F20F8
:101530000490059603A92000FFF76EFD01A8232162
:101540000171592141715021817101AA01212000AD
:10155000FFF78AFD68460721017012214170312191
:1015600081701921C1706A4601212000FFF7D8FD62
:1015700006A88580857180210906089109950121B9
:10158000017406AA2000FFF733FECA2060625320D0
:101590006062A068A10D0143A160E068802108405D
:1015A00054490143E160A0680743A76066620121D6
:1015B0000B20FFF709FFE00C4F49086000F006F828
:1015C000FA20800000F0D3F8F8E70000FEB5484CA0
:1015D000206821680006000F4007400F0A22504390
:1015E0000907090F46182000FFF70FFF05062D0F0A
:1015F0000A2045432000FFF708FF0007000F2818C6
:10160000694608712000FFF7FCFE05002000FFF787
:10161000F8FE3A4FF6B2009669460B792906090F93
:101620000A2251430007000F0A18D2B237A138002E
:1016300000F026FB2000FFF7F0FE05062D0F0A2024
:1016400045432000FFF7E9FE0007000F2E186068F1
:1016500061680006000F8007800F0A2250430907C7
:10166000090F4018694608712000FFF7E0FE0500E9
:101670002000FFF7DCFEF6B2FA21C90071180091D4
:1016800069460B792906090F0A2251430007000F0A
:101690000A18D2B221A138000C3000F0F1FA00BFD4
:1016A00022A43900200000F0D7FA39000C312000C4
:1016B00000F0D2FA12A000F0CFFAF7BD80B580207A
:1016C000400010490860104800F0C6FA19A000F068
:1016D000C3FA01BD00E400E01CED00E0740300204B
:1016E0001C004048000010487C1D0410FFEFFFFF65
:1016F000004000407FFEFFFF00E100E05C030020AF
:101700000A0D000028001048CC1D0410252E32645C
:101710003A252E32643A252E32640000252E32649A
:101720002D252E32642D252E3264000025730A0DDE
:10173000000000002A2A20546573742073756363C7
:1017400065737366756C6C792E202A2A200A0D0A3F
:101750000D00000010B50F4CFA218900FEF7DCFFE8
:10176000401E60600020A0600720206010BD81B096
:1017700008490A680092009A0022D243904202D09F
:10178000401C002804D00A68D203FCD5401EF8E7AC
:1017900001B0704710E000E0094902E0084908E0A4
:1017A00008494A6882434A600A68104308607047E3
:1017B00004490A6882430A604A68104348607047D7
:1017C0002000504828005048F8B50120FFF7E6FFF8
:1017D0000220FFF7E3FF0420FFF7E0FF0820FFF7F8
:1017E000DDFF1020FFF7DAFF2020FFF7D7FF4020B2
:1017F000FFF7D2FF8020FFF7D1FF80204000FFF7E6
:10180000CDFF80208000FFF7C7FF8027FF00380052
:10181000FFF7C4FF7C002000FFF7C0FF6000FFF768
:10182000BDFFA000FFF7BAFFE5002800FFF7B6FFF5
:1018300026013000FFF7B2FF0120FFF7B9FF0220B9
:10184000FFF7B6FF0420FFF7B3FF0820FFF7B0FF54
:101850001020FFF7ADFF2020FFF7AAFF4020FFF781
:10186000A7FF8020FFF7A4FFE008FFF799FFA0087B
:10187000FFF796FF3800FFF79BFF2000FFF798FF68
:101880002800FFF795FF3000FFF792FFF1BD70478A
:1018900081B082490A6802430A60096808400090E2
:1018A000009801B0704710B50B004B4301685C0015
:1018B000E418A14353430B43036010BD43688B43BB
:1018C000514319434160704710B50B004B43816889
:1018D0005C00E418A14353430B43836010BD30B553
:1018E000CB436F4C9025ED05A8421AD1002A03D0B6
:1018F000022A0FD007D330BD2068184020606068EE
:101900000340636030BD606803406360206801434A
:10191000216030BD2068034023606068014361603E
:1019200030BD002A03D0022A0FD007D330BDA068F3
:101930001840A060E0680340E36030BDE068034009
:10194000E360A0680143A16030BDA0680340A360CC
:10195000E0680143E16030BD10B5090A0B004B435C
:101960004B434B43416A1C01E41AA14353430B43CD
:10197000436210BD7CB506000420FFF789FF902567
:10198000ED058024A400022221002800FFF78BFF30
:10199000022221002800FFF797FF002221002800E3
:1019A000FFF78CFF012221002800FFF798FF00229B
:1019B00021002800FFF7D0FF0420FFF769FF64082B
:1019C000022221002800FFF76EFF022221002800DA
:1019D000FFF77AFF002221002800FFF76FFF0122A6
:1019E00021002800FFF77BFF002221002800FFF7DD
:1019F000B3FFA0002B490A6802430A600968084047
:101A00000090009828488B21C1600168274A0A404D
:101A100002604168264A0A40426001680C220A437B
:101A200002608168234A0A4082608168224A0A4033
:101A300082608168C900C9088160016862050A4343
:101A4000026041681D4A0A40426081682A2291432F
:101A50008160016801220A43026031000ED01849FA
:101A60000E60016820220A43026016480168FF22C6
:101A7000914340220A4302601348046073BD10B5CD
:101A80000023124A06E014682406FCD5DCB2045D8B
:101A9000D4605B1CDCB28C42F5D310BD50004048D2
:101AA000200050485800404800400041FFE9FFEF47
:101AB000FFCFFFFFFFFCFFFFFFFFFFF1FFB7FFFFBF
:101AC000C003002008E400E000E100E01C40004109
:101AD00070B50025012804D0022802D00020C043A0
:101AE00070BD002901D1002070BD0C00160005E07A
:101AF00001212000FFF7C3FF641C6D1C3000461E4F
:101B00000028F5D1280070BD01B5012269460120E9
:101B1000FFF7DEFF009802BD10B5040008001100B9
:101B20000200200000F0CCF8200010BDFCB503003E
:101B300008000024474A190000940FE093682340EE
:101B40009360D3681C40D46005E0D5682C40D46015
:101B5000946823439360009B5B1C00930468009B84
:101B60002500DD4068D00123009DAB402340F2D02A
:101B70001C005C434568022D1CD145690195FF2B73
:101B80000BD826005E435E430D6A3701BF1BBD4381
:101B9000019F7E432E430E620CE01E0A3500754302
:101BA000754375434E6A2F017F1BBE43019F7D43E2
:101BB00035434D6265002E19F5430E682E40476887
:101BC000674337430F604668012E01D0022E05D1CE
:101BD0008E683540866874432C438C600569DC430D
:101BE0009026F605B1421AD1002D11D0022D01D058
:101BF00007D3B0E715682C40146054682343536042
:101C0000A9E755682C405460146823431360A2E789
:101C100013682340136053681C4054609BE7002DF9
:101C20008CD0022D01D090D395E795682C4094601C
:101C3000D4682343D3608EE74268012A01D0022A88
:101C400005D14A68A243C068444314434C60002055
:101C5000F6BD0000200050480EB4C0B5020003A835
:101C600001900020009001AB0121044878440C3021
:101C7000FEF75AFE029906B0084700BFC7010000F0
:101C80000CB418B583B004000A0006A802900194B1
:101C90000020009002AB01A9084878441E30FEF7EE
:101CA00043FE0021019A1170002801D40198001B05
:101CB00004B0019910BC03B0084700BF93EAFFFFCE
:101CC0001206130A1A43130C1A4300BF094205D027
:101CD000830705D00270401C491EF9D170470000EF
:101CE0001300103906D330B41400150010393CC06D
:101CF000FCD230BC490700D30CC000D504C0890019
:101D000002D30280801C002900D50270704730B5D4
:101D100001684118446862088A188368E40704D59A
:101D20004C461B1901E0641C06D191420BD00C7883
:101D300064B2491C0D78491C1D705B1C002CF2D448
:101D4000641EF7D5F1E70C3030BD7047FEE77047F1
:101D500010B5084C2068C0040AD56068C00507D5D6
:101D6000FFF7ACFC606880210840034901436160D3
:101D700010BD0000084000407FFEFFFF5254435F4B
:101D8000416C61726D5F496E6974206578616D7038
:101D90006C6520697320737461727465642E0A0D1A
:101DA0000000000010B5074979441831064C7C4406
:101DB000163404E0081D0A68891888470100A1420A
:101DC000F8D110BD2C000000480000005475726E60
:101DD000204C454432206F6E3A20416C61726D2078
:101DE00067656E65726174696F6E0A0D00000000B0
:101DF0001FFFFFFFD000000018000000C0000020FF
:101E00000FFFFFFF94000000580000005C0300205B
:101E1000FEF7BFFC002801D0FFF7C4FF00BF00BFE2
:101E2000002000BF00BFFFF70BFB00F000F880B5FB
:101E300000F002F801BD704707463846FFF79EF8EC
:101E4000FBE738B505000C002000FFF75DFEA0425F
:101E500000D00025280032BD00BF00BF00BF00BF7A
:101E6000FFF7D6FF0078401E8041C043C00F704787
:101E700070477047704770477047704770477047AA
:101E8000704770477047704770477047704770479A
:101E900070477047704770470768683A6D733A73C8
:101EA00073FC000564642F6D6D2FFC61FD000790CD
:101EB000D003BE08041001D10003651E0410F80011
:101EC0000001F10081008100810081008100DF00BC
:0400000510041E596C
:00000001FF
