:020000041004E6
:10000000000001206D1B041031090410751A041042
:10001000AA5555AA45554C420000000000000000BA
:10002000000000000000000000000000930E04101B
:100030000000000000000000130F0410771A0410E5
:100040006B0F0410DB140410EF1904104B1B041089
:10005000851B0410791A0410871B0410891B0410D7
:10006000A11A04108B1B04108D1B04108F1B04108D
:10007000911B0410931B0410951B0410971B041074
:10008000991B04109B1B04109D1B04109F1B041044
:10009000A11B0410A31B0410A51B0410A71B041014
:1000A000A91B0410AB1B041000000000000000009E
:1000B0000000000000000000000000000000000040
:1000C000944800688103C80F7047000081B09148D0
:1000D00001688903FCD5816802220A4382600021FD
:1000E00002E000BF0099491C009100990629F8DB45
:1000F000816804220A43826001B070478548006825
:100100008106C80F7047834800684104C80F7047D4
:10011000814800684107C80F704730B50D007F4C1B
:10012000002A0AD0FA21890000F0F6FA401E68433E
:1001300060600020A060052002E020680121884363
:10014000206030BD70B50E001500012401220100B1
:1001500073480068FFF7E1FFB047A84204D06F483A
:100160000068C003F8D50024002200210020FFF71A
:10017000D4FF200070BDFFB501212022002818D037
:10018000AD480368E024A34313430360836D062452
:10019000A34302241C438465836B0B438363836BFB
:1001A0008B438363836D0B438365806D08400090B0
:1001B00000980723A1480469A14DAC4218D10468F6
:1001C00000940468076805682D0D1D4003950068BC
:1001D000000E1840029001250F26380C3040270AE7
:1001E000F0243C400194009C240A2640009604E040
:1001F00008200090702401940025924C0F26F643AD
:10020000276B374038432063E06AF027B843019FEB
:100210000743E762E06A064000983043E062382016
:10022000002D0CD025689D43039E33402B43236053
:1002300023688343029DED0005401D4325603F2355
:10024000DB43A56F1D400A262E43A667A56F4026F7
:100250002E43A667E56F1D4004262E43E667E56F33
:1002600080262E43E667E56F4026B543E567A03458
:1002700025681D40256065681D4010262E43666078
:10028000A5681D402A43A260E2681A403025154344
:10029000E56022691A4010432061606918403922E4
:1002A00002436261A06918403A220243A261E069F8
:1002B00018403B220243E261206A18403C2202437C
:1002C0002262606A03403D20184360625523FF208C
:1002D000C0437F4A146804401C431460D46804403F
:1002E00066252543D560146A044023431362136CCA
:1002F00003401D241C431464D36B034059241C4346
:10030000D463536C1840322303435364506A01434F
:100310005162FFBD000040481400504810E000E06A
:10032000B0030020F8B505006B4C2068802149021D
:1003300001432160012269496420FFF703FF00287F
:1003400001D10420F2BD28003025ED43614E20216B
:10035000E022D24303000BD14B0618681F68F0233C
:1003600003403807000F1843102851D10620F2BD72
:100370007700401E06284AD801A31B5C9F4400BF9B
:10038000083C485664728000554801682940102393
:100390000B430360A0680240A2603800514E3060F9
:1003A0002068802189010143216001224E49C82033
:1003B000FFF7C8FE002834D10520F2BDA068024036
:1003C0001143A1603000E9E7A068024040201043DB
:1003D000A0607008E2E7A068024060201043A060BF
:1003E000B008DBE7A068024080201043A060F0085E
:1003F000D4E7A0680240A0201043A0603009CDE7F8
:10040000A0680240C0201043A0607009C6E7FEE764
:10041000A06802401143A160FFF758FE3148066012
:1004200002E03068B84204D02D48006805402C48EE
:1004300005600020F2BD000008004048E81E0010E2
:10044000CCECBCFC4816006010B5FF2833D0042962
:100450000CD005290AD0062908D0072906D0062283
:10046000D2439A4B032903D1002809D1012010BDA2
:10047000012805D01C682240022414431C6005E0BA
:100480001868024004201043186001208022D20521
:1004900013681268F0241C401207120F2243102A1E
:1004A00009D18B4A012908D101280CD12A201060DA
:1004B00050680007FCD4002010BD022905D1012896
:1004C00003D12920F3E70028FBD02820EFE7000024
:1004D000481500600048E80100004048C1000410D1
:1004E00004100040B003002007010410F3B583B0EE
:1004F00078487949086079490861794D2868202150
:10050000014329602868402101432960286880212F
:100510000143296001227349C820FFF713FE002818
:1005200001D10120CFE0A869302188432021014377
:10053000A9616D4CA068802149010143A16000269A
:100540006A4B58696A4988421AD1186819681A684A
:100550001F683F043F0F02971B6801270197D709C7
:100560001E223A4000921B02FC2292051A40CB0147
:10057000E021890119408301F0208000184007E044
:10058000D80C10210091F02252050196C02149019A
:10059000E368584F1F403A43E260E26880231B043F
:1005A0001343E3601E22D243019B002B09D0E36872
:1005B0001340029F7F001F43E760E36801271F434A
:1005C000E7604D4B1F683A40009F17431F601A6851
:1005D000012717431F601A68484F174038431860B7
:1005E0001868202202431A601868454A02401143E5
:1005F000196018688021C90001431960A869802129
:1006000049000143A9613F48696A01406962A96ADA
:100610000840A862A0683C490140802000020843CD
:10062000A060E06860210143E16020680421884304
:100630002060206810218843206096277F00334D7A
:10064000002229003800FFF77DFD002800D1022696
:100650002068102101432160012229003800FFF7A2
:1006600071FD002801D1022601E0300001D03000E8
:1006700029E06846047CFF2C02D00120FFF77BFDB7
:100680006846057B22480168224A0A408021890188
:1006900011430160016880220A43026001687022F0
:1006A000914330220A4302602800FFF73BFE01001D
:1006B00009D129002000FFF7C7FE010003D100F097
:1006C000CDF862B6002005B0F0BD000060004048E3
:1006D000005000400000041008ED00E0040000207D
:1006E000040050481101041000004048E41E0010AE
:1006F000CCECBCFCFFFFFFC0940050483FFCFFFF68
:10070000FFC7FFFFFFCFFFFFFF7FFEFFFD000410CD
:1007100098004048FFC0FFFF094214D088420FD321
:100720000122030C01D100041204002300185B41D4
:100730008B4200D35B1A5241F8D319001000704766
:1007400001000020704708B500F0F4F808BDF1B4CE
:100750000168421841684808131800988068C90762
:100760001ED5494640181BE01778521C0770401CE4
:10077000761EF9D1002C13D01678521C89080D4032
:10078000032D01D11578521C290271184D424119CF
:10079000A41C05D00D78491C0570401C641EF9D1BD
:1007A0009A420FD01178521C032503260E4002D125
:1007B0001678F61C521C0C090F2CD9D114780F3462
:1007C000521CD5E700980C30F2BC704710B5C2003F
:1007D00018231340FF249C40E2438907090E9940E7
:1007E000030004D416489B089B00C01806E0154B74
:1007F0000007000F083880088000181803681A40A6
:100800001143016010BD80B50F480068002814D165
:100810000E480168002902D1806A00280DD001200D
:100820000B49886000F087F8BFF34F8F09480A49E9
:100830000860BFF34F8F00BFFDE7012002BD00003D
:1008400000E400E01CED00E0940040481000504837
:10085000040000200400FA050CED00E080B503213F
:100860000020FFF7B3FF03210120FFF7AFFF0321B3
:100870000220FFF7ABFF03210320FFF7A7FF0321AF
:100880000420FFF7A3FF03210520FFF79FFF0321AB
:100890000620FFF79BFF03210720FFF797FF0321A7
:1008A0000820FFF793FF03210920FFF78FFF0321A3
:1008B0000A20FFF78BFF03210B20FFF787FF03219F
:1008C0000C20FFF783FF03210D20FFF77FFF03219B
:1008D0000E20FFF77BFF03210F20FFF777FF032197
:1008E0001020FFF773FF03211120FFF76FFF002196
:1008F0001220FFF76BFF03211320FFF767FF03218F
:100900001420FFF763FF03211520FFF75FFF03218A
:100910001620FFF75BFF01211720FFF757FF00218B
:100920001820FFF753FF03211920FFF74FFF01BDE8
:100930007047430070477047F0B597B00500160048
:100940001F001C986A460023002418C2059104A9C0
:100950002B2288540B9303950F960EE023000F9AD9
:1009600004A9039800F07AFA002800D5D8E001E045
:10097000F4D501240F9800190F900F9800782528BE
:1009800009D10020089009900A90022408210291C0
:1009900004210F9D0CE06A460021C9430F9800F026
:1009A000A7FA0400E4D10B98BCE002000120104338
:1009B0006D1C2A78202AF8D0232A0AD02B2A04D0AA
:1009C0002D2A04D0302A07D009E02043F0E708435D
:1009D000EEE702000820EAE702001020E7E72A2AF3
:1009E0000CD13B681A681B1D3B600D92002A03D591
:1009F00053420D93014308006D1C14E000210D913A
:100A0000004A0BE0CBCCCC0C0D9B934205DA9E0048
:100A1000F3185B00591830390D916D1C29780B00C3
:100A2000303B0A2BF0D329782E2903D00021C9436B
:100A30000C9125E06D1C29782A2906D139680A68AD
:100A4000091D39600C926D1C1AE02D2902D12D234D
:100A50006D1C00E0002300210C910CE0002B09D15B
:100A60000C9AB84EB24205DA9600B21852005118EC
:100A700030390C916D1C29780A00303A0A2AEDD3DE
:100A800004A908852E783100AFA000F039FA0028BB
:100A900001D06D1C00E0002604A82A214654405CC9
:100AA000682807D12878682804D1622004A92A225E
:100AB00088546D1C11A807902A78681C0F90252A6D
:100AC00013D0582A4FD0632A00D1B1E0642A79D0DC
:100AD000692A77D06F2A46D0702A3BD0732A0AD071
:100AE000752A40D0782A3ED0ABE00120089025201E
:100AF00011A90870AFE038680468001D38600694DA
:100B0000002C14D104A82B21405C00280CD0002418
:100B1000E44300BF8EA000F0FDF9201A00D19AE056
:100B20000020C04317B0F0BD90A0069093E00C9D4C
:100B3000002D03D5200000F011FA09E02A00002161
:100B4000200000F013FA002801D0001B00E028006C
:100B5000099080E038680168001D3860049111A890
:100B60000690782160E004AB2A20185C622803D04C
:100B7000682807D06C280BE039680868091D3960BF
:100B8000C0B209E039680868091D396080B203E025
:100B900039680868091D39600490188D0299C0B23F
:100BA00008423CD00498002839D0202010437828EF
:100BB00035D1089811A930230B54401C431C0893CD
:100BC0000A542CE004AB2A20185C622803D0682861
:100BD00007D06C280BE039680868091D396040B2FD
:100BE00009E039680868091D396000B203E0396816
:100BF0000868091D39600490002802D508982D2145
:100C000009E0188D204202D008982B2103E0C0078C
:100C100005D50898202111AB1954401C089011A843
:100C2000089940180690110004A800F0A0F812E0FE
:100C30000120089038680168001D386011A8017013
:100C400009E001200890252011A90870100002D0A9
:100C5000089411A842700D980899401A0A99401AF0
:100C60000999401A109004A82821405C400713D429
:100C7000202069460872109800280DDD109C039D05
:100C8000012302AA04A9280000F0E8F8002800D0F7
:100C900046E7641EF4D10395089D11AC002D0ED0DB
:100CA000039E21780598B0470590002800D137E7CA
:100CB0000B98401C0B90641C6D1EF2D103963020E3
:100CC000694608720A9C002C0CDD039D012302AAD0
:100CD00004A9280000F0C2F8002800D020E7641E14
:100CE000F4D10395069C099D002D0ED0039E21781A
:100CF0000598B0470590002800D111E70B98401CDB
:100D00000B90641C6D1EF2D1039604A82821405C50
:100D1000400700D431E62020694608721098002868
:100D200000DC2AE6109C039D0F9E012302AA04A961
:100D3000280000F093F8002800D0F1E6641E00D1EE
:100D400009E6F2E7CBCCCC0C686C747A4C0000005E
:100D50007072696E74665F733A20626164202573F5
:100D600020617267756D656E740000000000F0B55B
:100D700083B00A00C4686F2901D1082506E020214C
:100D80001143782901D00A2500E0102518270168B1
:100D90000E00642A01D0692A03D1002901D57142CD
:100DA0000E00002E0CD1016A002909D1082D31D185
:100DB0002821415C09072DD517273021E17529E04D
:100DC0000290684602707F1E019730002900FFF7ED
:100DD000A3FC3031C8B23A2803DB684600785138AA
:100DE0000918E15530002900FFF796FC060004D0F1
:100DF00002988068E1198842E5D30298082D09D14C
:100E00002821415C090705D5E15D302902D07F1E0C
:100E10003021E1551821C91B4161E2198260026A43
:100E2000914206DA511A8161018D0B4A0A4002850E
:100E300010E0002A0ED52822825C14231340102BC8
:100E400008D1426A0369D21A8369D21A511A012958
:100E500000DB816103B0F0BDEFFF0000F8B50024B6
:100E6000002B11D007000E0014001D0021787068BF
:100E7000B8477060002809D0F069401CF06100207C
:100E8000641C6D1EF2D104002000F2BD0020C0439E
:100E9000F9E7704730B45368D41803E05B1C491E6F
:100EA000641C401C042B06DA002904D00578257048
:100EB0000578002DF2D1536030BC704738B5002959
:100EC0000ED01D001400FFF7E5FF616820006A6B7B
:100ED00090470122D243811A02D0491E02D004E079
:100EE000012000E00020C04332BD0021616032BD1E
:100EF00080B5024BFFF7E2FF02BD0000B403002003
:100F0000C9B202788A4203D0401C002AF9D10020DD
:100F10007047704780B5002801D100BF07A006497F
:100F20000B68002B03D022220021984701E000F03B
:100F300028F8222002BD000088000020636F6E7335
:100F4000747261696E742068616E646C65723A20B7
:100F5000626164206D65737361676500431C01788D
:100F6000401C0942FBD1C01A70477047C9B2521EDB
:100F700005D30378401C8B42F9D1401E70470020F6
:100F8000704780B5012000F001F801BD80B500BFB9
:100F900000BF024A11001820ABBEFBE7260002008A
:100FA00010B5C20018231340FF249C40E243890778
:100FB000090E9940030004D4A4489B089B00C01864
:100FC00006E0BF4B0007000F0838800880001818A3
:100FD00003681A401143016010BD81B0C3490A681B
:100FE00002430A60096808400090009801B0704709
:100FF000F0B591B0FF210220FFF778FA002800D069
:10100000FEE701210020C043FFF7CAFF00F002FA0B
:101010008F4800F0D5FA8F48006800F0B5FB182221
:10102000002101A800F0D2FB0820FFF7D6FF042022
:10103000FFF7D3FF80204000A24D296801432960BB
:101040002968014000910099A94988610190012017
:101050000290002403940494059401A9A44800F08C
:10106000BFFBA448A4490A6802400A604A681040CD
:1010700048609020C0050068A04901409020C0054C
:1010800001602822002107A800F0A0FB18220021FF
:10109000684600F09BFB686801210143696068684D
:1010A000C107C90F06910698802080010090022593
:1010B00001950326029603940495059569469020B0
:1010C000C00500F08DFB6F03009701950296039415
:1010D000049505946946864800F082FB00970195C7
:1010E000029603940495059569469020C00500F08A
:1010F00077FB0420FFF771FFAF029020C0058761E6
:101100000097012001900294039404906946902076
:10111000C00500F065FB01210520FFF741FF2026F7
:101120008448066007948220400008900A950120B8
:101130000B9040020C900D960E940F940720109087
:10114000050209957C4C07A9200000F0DFFB6068D0
:1011500010218843606060680821884360600998B6
:10116000F0210901884203D160687449014061603F
:101170000998A84203D16068F10101436160606889
:101180008021014361604025606828436060606899
:101190000643666075A000F0EFFB00BF77A000F08B
:1011A000EBFB00F018F89020C0058762206805432B
:1011B0002560634800F0E0FB00F026F8FEE738B554
:1011C0000500614C206880214900414021602800D1
:1011D00000F0E7FAF6E770B55C4800F0CDFB80243C
:1011E0006400594D5A4E05E0286860402860C820C8
:1011F00000F0D7FA57480068400502D4307800283C
:10120000F2D06C6070BD000080B553480278417820
:10121000531E99428378FADBC1789942FCD34F4937
:101220004F4800F019F8002804D000BF59A000F082
:10123000A3FB6FE080204000424908605AA000F004
:101240009BFB00BF5FA000F097FB01BD00E400E046
:101250001F130410B003002010B501E0401C491C0E
:1012600013005A1E1B0605D003780C78A342F5D054
:10127000012010BD002010BD10B53749CA78501CA0
:10128000C8702D48C368354CA3548A78C9788A42FF
:1012900014D14021C94342680A4042608268C02399
:1012A0005B011340FAD182681206D30FFBD10268AA
:1012B00011400160802000012A49086010BD000033
:1012C0001CED00E05400404823494878421C4A7015
:1012D000234A125C244802724A7809788A4203D170
:1012E000016880229143016070470000500040482F
:1012F00000001048FFFBFFFF20005048FFFFCFFF1A
:1013000080B519480168402291430160016880223C
:1013100091430160FA208000FFF751FF01BD0029D1
:1013200007D00078632801D0432802D10120084962
:101330000870704700E100E000200041FFEFFFFF70
:10134000D01A04102800104814001048F019041096
:101350008C00002010000048FC030020300000201A
:101360005C03002018000048042000414D617374A4
:10137000657220626F6172642E0A0D00535049201D
:1013800064617461207769647468203820626974CC
:101390000A0D000050726F63657373696E672045B4
:1013A00072726F722E0A0D00446174612061726561
:1013B0002077656C6C2072656365697665642E0ABA
:1013C0000D0000002A2A205465737420737563632E
:1013D00065737366756C6C792E202A2A200A0D0AB3
:1013E0000D000000094902E0084908E008494A6880
:1013F00082434A600A6810430860704704490A68DB
:1014000082430A604A681043486070472000504891
:1014100028005048F8B50120FFF7E6FF0220FFF74B
:10142000E3FF0420FFF7E0FF0820FFF7DDFF1020B7
:10143000FFF7DAFF2020FFF7D7FF4020FFF7D2FFAA
:101440008020FFF7D1FF80204000FFF7CDFF8020F4
:101450008000FFF7C7FF8027FF003800FFF7C4FFB9
:101460007C002000FFF7C0FF6000FFF7BDFFA00079
:10147000FFF7BAFFE5002800FFF7B6FF26013000AE
:10148000FFF7B2FF0120FFF7B9FF0220FFF7B6FF19
:101490000420FFF7B3FF0820FFF7B0FF1020FFF78D
:1014A000ADFF2020FFF7AAFF4020FFF7A7FF802015
:1014B000FFF7A4FFE008FFF799FFA008FFF796FFEA
:1014C0003800FFF79BFF2000FFF798FF2800FFF789
:1014D00095FF3000FFF792FFF1BD704781B08B4957
:1014E0000A6802430A60096808400090009801B049
:1014F000704710B50B004B4301685C00E418A14332
:1015000053430B43036010BD43688B43514319435E
:101510004160704710B50B004B4381685C00E418D4
:10152000A14353430B43836010BD30B5CB43784C8C
:101530009025ED05A8421AD1002A03D0022A0FD027
:1015400007D330BD206818402060606803406360A6
:1015500030BD60680340636020680143216030BD96
:1015600020680340236060680143616030BD002A49
:1015700003D0022A0FD007D330BDA0681840A06066
:10158000E0680340E36030BDE0680340E360A068CA
:101590000143A16030BDA0680340A360E06801433F
:1015A000E16030BD10B5090A0B004B434B434B4380
:1015B000416A1C01E41AA14353430B43436210BD2B
:1015C0007CB506000420FFF789FF9025ED058024F7
:1015D000A400022221002800FFF78BFF0222210035
:1015E0002800FFF797FF002221002800FFF78CFF5B
:1015F000012221002800FFF798FF00222100280087
:10160000FFF7D0FF0420FFF769FF640802222100E2
:101610002800FFF76EFF022221002800FFF77AFF63
:10162000002221002800FFF76FFF0122210028007F
:10163000FFF77BFF002221002800FFF7B3FFA00087
:1016400034490A6802430A6009680840009000981B
:1016500031488B21C1600168304A0A40026041680C
:101660002F4A0A40426001680C220A4302608168E6
:101670002C4A0A40826081682B4A0A408260816855
:10168000C900C9088160016862050A4302604168B7
:10169000264A0A40426081682A229143816001689B
:1016A00001220A43026031000ED021490E60016818
:1016B00020220A4302601F480168FF229143402212
:1016C0000A4302601C48046073BD10B500231B4A26
:1016D00006E014682406FCD5DCB2045DD4605B1C13
:1016E000DCB28C42F5D310BD11480268002A00D14B
:1016F000704780B511480168890605D5806869463C
:10170000087001216846904701BD00005000404824
:10171000200050485800404800400041FFE9FFEFDA
:10172000FFCFFFFFFFFCFFFFFFFFFFF1FFB7FFFF52
:101730008400002008E400E000E100E01C400041DB
:1017400070B50025012804D0022802D00020C04333
:1017500070BD002901D1002070BD0C00160005E00D
:1017600001212000FFF7B1FF641C6D1C3000461EF4
:101770000028F5D1280070BD01B50122694601207D
:10178000FFF7DEFF009802BD10B50F4CFA2189006B
:10179000FEF7C2FF401E60600020A06007202060AE
:1017A00010BD81B008490A680092009A0022D24315
:1017B000904202D0401C002804D00A68D203FCD515
:1017C000401EF8E701B0704710E000E010B50400DB
:1017D000080011000200200000F0E2F8200010BD17
:1017E000FCB5030008000024474A190000940FE0EC
:1017F000936823409360D3681C40D46005E0D568AB
:101800002C40D460946823439360009B5B1C00933E
:101810000468009B2500DD4068D00123009DAB409B
:101820002340F2D01C005C434568022D1CD1456961
:101830000195FF2B0BD826005E435E430D6A3701EE
:10184000BF1BBD43019F7E432E430E620CE01E0A68
:1018500035007543754375434E6A2F017F1BBE43A8
:10186000019F7D4335434D6265002E19F5430E6897
:101870002E404768674337430F604668012E01D00A
:10188000022E05D18E683540866874432C438C60E7
:101890000569DC439026F605B1421AD1002D11D01E
:1018A000022D01D007D3B0E715682C4014605468AE
:1018B00023435360A9E755682C40546014682343C0
:1018C0001360A2E713682340136053681C40546000
:1018D0009BE7002D8CD0022D01D090D395E7956821
:1018E0002C409460D4682343D3608EE74268012A79
:1018F00001D0022A05D14A68A243C0684443144378
:101900004C600020F6BD000020005048020001207D
:1019100013685B0625D41068144B0340086818430D
:101920004B680343C86818430B690343486918436D
:101930008B690343C86918430B6A034313605068FB
:101940000B4B0340886818434B691B0C03435360DF
:10195000086A80239B01984202D1486A80B21061D4
:101960000020D169034B0B40D36170474000FFFF5B
:10197000FBF0FFFFFFF7FFFF0EB4C0B5020003A8A6
:1019800001900020009001AB0121044878440C3004
:10199000FEF7D2FF029906B0084700BFBB01000066
:1019A0001206130A1A43130C1A4300BF094205D04A
:1019B000830705D00270401C491EF9D17047000012
:1019C0001300103906D330B41400150010393CC090
:1019D000FCD230BC490700D30CC000D504C089003C
:1019E00002D30280801C002900D502707047704726
:1019F0005761697420666F72205573657220707527
:101A000073682D627574746F6E2028505553483179
:101A100029207072657373206F7220656E74657211
:101A2000202763272F27432720636861726163742F
:101A300065722E0A0D00000070B40123002413E02B
:101A40000168001D194202D04D466D1E49190C60F7
:101A5000091D121F042AFAD20D00960701D50C8029
:101A6000AD1C1A4000D02C700268001D002AE7D17E
:101A700070BC7047FEE7704710B5084C2068C0077F
:101A800001D5FFF7F9FB2068800701D5FFF71CFCA3
:101A90002068400601D5FFF733FC10BD0820004147
:101AA00080B5FFF721FE01BD10B507497944183113
:101AB000064C7C44163404E0081D0A6889188847DF
:101AC0000100A142F8D110BD2C0000005800000018
:101AD000456E61626C6520746865205350495F4DA6
:101AE0004153544552207065726970686572616C2B
:101AF0002E0A0D0045FFFFFF6000000030000020AF
:101B0000000000004BECFFFFE300000014000000A9
:101B1000C00000203BECFFFF9400000078000000B4
:101B20005C030020FEF76FFE002801D0FFF7BCFF2A
:101B300000BF00BF002000BF00BFFFF759FA00F050
:101B400000F880B500F002F801BD7047074638463E
:101B5000FFF71CFAFBE738B505000C002000FFF783
:101B60000BFEA04200D00025280032BD00BF00BF00
:101B700000BF00BFFFF7D6FF0078401E8041C04382
:101B8000C00F704770477047704770477047704785
:101B9000704770477047704770477047704770478D
:101BA000704770477047704770477047122A01F0BE
:101BB0001427205350495F495420636F6D6D756E33
:101BC00069636174696F6E201AF00A1D000000904D
:101BD000D003320904100100016002791B041033A4
:101BE000613C000229005300000000F2FF0001F1F7
:051BF000FF01F16A0194
:0400000510041B6D5B
:00000001FF
