:020000041004E6
:1000000000600020C517041089090410D1170410DE
:10001000AA5555AA45554C420000000000000000BA
:10002000000000000000000000000000FB070410BA
:1000300000000000000000008B090410D31704101A
:10004000630D0410471104104F1604106B160410B2
:100050000000000000000000000000007317041002
:100060007F170410DB170410DD170410DF170410CE
:10007000E1170410E3170410E5170410E717041044
:10008000E9170410EB170410ED170410EF17041014
:10009000F1170410F3170410F5170410F7170410E4
:1000A000F9170410FB170410FD170410FF170410B4
:1000B0000000000000000000000000000000000040
:1000C0008020C00500680007000F70478020C00531
:1000D00000680006000F70479149D5E0B3480068FA
:1000E0004107C80F7047B2490A68B24B7AE0B0497D
:1000F0000A6830239A43C8E0AD490A680F239A433F
:10010000C3E0AD490A6882430A60091DC1E0AB49FA
:100110000A68AB4B1340C002E022920102401A432E
:100120000A6008688022D20002430A607047A3492F
:100130000A68B84B13408001F022920002401A4333
:100140000A600868202202430A6070477448016808
:10015000984A0A4002607047AF4801688022520204
:100160000A4302607047AC4800688103C80F7047BB
:10017000AA490A68AA4B134000021843086008689D
:10018000802202430A607047A4490A6870239A4398
:100190007BE0A4490A68A44B13400006184308609A
:1001A00008688022120402430A60704781B09A48AE
:1001B00000688003FBD59D48016802220A43026063
:1001C000002102E000BF0099491C00910099062916
:1001D000F8DB016804220A43026001B070479349CA
:1001E0000A68934B13401843086070478A480168B7
:1001F00010220A4302607047874801681022914329
:1002000001607047844800688106C80F70478549BF
:100210000A6860239A4338E07F48016804229143CA
:10022000016070477F490A681E239A4340001043CB
:1002300008600868012202430A6070477D490A6825
:1002400004239A4321E079490A687B4BCAE7724844
:100250000168802292010A43026070476E4800687C
:100260004104C80F704771490A68E0239A430CE0C3
:1002700081B070490A6802430A600968084000902A
:10028000009801B070476D490A68104308607047D4
:100290006A490A6882430A607047426830239A4379
:1002A00011434160704710B50C00002A0ED0FA21AE
:1002B000890000F087FA401E6043CD4908600020A5
:1002C000CC4908600520CC49086010BDCA480168C7
:1002D00001229143016010BDC74800688021490296
:1002E000084000D00120C0B2704770B50E00150064
:1002F000012401220100C1480068FFF7D4FFB04784
:10030000A84204D0FFF7E8FF0028F8D0002400221C
:1003100000210020FFF7C7FF200070BD0000000093
:100320000400504870B50122B549C820FFF7DDFF31
:10033000002801D1012070BD2020FFF7D8FE8020C9
:100340004001FFF780FFAF480068AF4988420DD1F8
:100350000F26AE4804683440016849064D0F016815
:10036000090B0E4000688002800E03E00A241F2063
:1003700008260325FFF70DFF3000FFF753FF20008D
:10038000FFF7D5FE2800FFF7C2FE80204000FFF7F0
:10039000AAFEFFF79BFE0401FFF792FE2043102800
:1003A00002D10020FFF7A8FE002070BD14005048C5
:1003B0001C005048FFFEFFFF2800504894005048A2
:1003C000FFC7FFFF70B50024C0208001FFF799FE32
:1003D00080200002FFF703FF6020FFF718FFFFF700
:1003E0001BFFFFF709FF96267600BA4D0022290071
:1003F0003000FFF77AFF002800D10224FFF7F6FE55
:10040000012229003000FFF770FF002800D10224EC
:10041000200070BD3FFCFFFF0000404898004048AE
:10042000FFC0FFFF0C004048FFFFFFC0080040482E
:10043000FF7FFEFF60004048FFEFFFFF40004048A5
:10044000F8B500280ED02020FFF70DFF0020FFF7A1
:10045000F5FE0120FFF717FF0120FFF719FF01202C
:10046000FFF706FF674800686749884213D19A483A
:1004700005680468036802680068400D382101407F
:100480005002420F0F201B0C0340260AF024344078
:100490002D0A284004E00820702408230322182194
:1004A0000F25ED438D4E37682F403B4333608C4B17
:1004B0001E68F027BE4334431C601C682540284357
:1004C0001860884803680724A3431A43026002683F
:1004D00038239A43114301603F20C04382490A6890
:1004E00002400A2313430B600A68402313430B6046
:1004F000091D0A680240042313430B600A68802325
:1005000013430B600A6840239A430A6024310A6847
:1005100002400A60091D0A680240102313430B6061
:10052000091D0A680240202313430B60091D0A6855
:100530000240302313430B60091D0A680240382330
:1005400013430B60091D0A680240392313430B60F3
:10055000091D0A6802403A2313430B60091D0A680B
:1005600002403B2313430B60091D0A6802403C23F1
:1005700013430B60091D0A6810403D2202430A60C4
:100580005521FF20C0437E4A136803400B4313608C
:100590000C321368034066241C4314601432136841
:1005A00003401943116077490A6802401D23134331
:1005B0000B60091F0A680240592313430B6008317E
:1005C0000A680240322313430B6020390A68012372
:1005D00013430B606C490A6802401F2313430B60EE
:1005E000091D0A681040092202430A60F1BD00009B
:1005F00014E000E018E000E010E000E03800002027
:10060000DD000410F81E0010CCECBCFCE41E001051
:1006100010B50400FFF7A0FD012264496420FFF734
:1006200064FE002801D1042010BD20003ED0641ECD
:10063000062C3AD801A0005D874400BF08323C4632
:10064000505A640010215A48FFF727FE0020FFF798
:100650000AFE4E48544C2060FFF7F9FD012255492F
:10066000C820FFF742FE002829D1052010BD202018
:10067000FFF7F9FD4648EDE74020FFF7F4FD454858
:10068000E8E76020FFF7EFFD4348E3E78020FFF74E
:10069000EAFD4248DEE7A020FFF7E5FD4048D9E744
:1006A000C020FFF7E0FD3F48D4E7FEE72020FFF73A
:1006B000DAFDFFF77BFD36483B49086003E0206820
:1006C0003249884203D000213948FFF7E6FD002077
:1006D00010BD000005020410E81E0010781600602E
:1006E0007416006048160060C016006080B5FF28D0
:1006F00014D0042909D0052907D0062905D00729D7
:1007000003D0032903D1002805D1012002BD01280F
:1007100001D0002000E00420FFF790FD002002BD82
:1007200038B504000D0024482449086024490861B4
:100730002020FFF7D1FCFFF709FDFFF7F3FD0100D3
:100740001DD1FFF73FFE010019D1FF2D02D001207E
:10075000FFF776FE2020FFF70BFD3020FFF714FD9A
:100760002000FFF755FF010009D121002800FFF705
:10077000BDFF010003D100F0A1F862B6002032BD38
:100780004815006088150060401700600090D00395
:100790000048E8010024F40000127A0000093D003E
:1007A00080841E0040420F003800002067010410C2
:1007B000001000405D0204100000041008ED00E08D
:1007C00004000020094214D088420FD30122030CF8
:1007D00001D100041204002300185B418B4200D3B6
:1007E0005B1A5241F8D31900100070470100002035
:1007F000704708B500F0CAF808BD7047F0B50200B0
:1008000013D41822254B8408A4001C59FF25C600C8
:100810001640B540AC438907090EC5002A409140F7
:100820002143800880001950F0BD0F251C4B18246F
:100830002A40083A920892000540083DAD08AD00F4
:100840005D59FF26C7002740BE40B5438907090E02
:10085000C0000440A14029439950F0BDBFF34F8F21
:10086000104811490860BFF34F8F00BFFDE780B506
:100870000E48006800280ED10D480068002803D1FA
:100880000C480068002806D001200B49886000F061
:100890007EF8FFF7E3FF012002BD000000E400E066
:1008A0001CED00E00400FA050CED00E09400404867
:1008B00010005048380050480400002080B5032143
:1008C0000020FFF79BFF03210120FFF797FF032183
:1008D0000220FFF793FF03210320FFF78FFF03217F
:1008E0000720FFF78BFF03210820FFF787FF032175
:1008F0000920FFF783FF03210A20FFF77FFF032171
:100900000B20FFF77BFF03210C20FFF777FF03216C
:100910000D20FFF773FF03210E20FFF76FFF032168
:100920000F20FFF76BFF03211020FFF767FF032164
:100930001120FFF763FF00211220FFF75FFF032163
:100940001320FFF75BFF03211420FFF757FF03215C
:100950001520FFF753FF03211620FFF74FFF01215A
:100960001720FFF74BFF00211820FFF747FF032157
:100970001920FFF743FF03211A20FFF73FFF032150
:100980001B20FFF73BFF01BD704770477047704762
:1009900010B5040001D1012010BDA07F002803D1B3
:1009A0006077200000F0F0F90220A077211D206878
:1009B00000F0D4F857E010B504001BE00400080074
:1009C00006D0042908D008290AD00C290CD011E03F
:1009D0002068C06802220AE02068C068042206E09D
:1009E0002068C068082202E02068C0681022024324
:1009F0002068C2600122206800F0A4F92068104934
:100A0000884202D00F49884205D1406C80210902FA
:100A1000014320684164206881680848084006282E
:100A200009D080214902884205D020680068012150
:100A3000014320680160002010BD00000700010094
:100A400000500040006000402068006A1A490140E0
:100A500009D12068006A400705D420680068012198
:100A60008843216808600120A077002010BD38B5B8
:100A70000400607F012801D1022032BD0125657785
:100A80000220A077002A06D0042A08D0082A0AD01B
:100A90000C2A0CD00EE0206800F08BF80AE02068E9
:100AA00000F0B5F806E0206800F0C9F802E0206820
:100AB00000F0DCF84EE000001111000038B5040031
:100AC000607F012801D1022032BD01256577022017
:100AD000A07720688068724A0240206882600868B7
:100AE00040282ED050281ED0602823D0702803D054
:100AF0006A0390420AD02DE0CB684A688968206872
:100B000000F002F920688068772108E0CB684A6825
:100B10008968206800F0F8F820688068A90301431C
:100B20002068816016E0CA684968206800F0BAF859
:100B300050210CE0CA684968206800F0C4F86021C0
:100B400005E0CA684968206800F0ACF840212068D8
:100B500000F0D2F8A5770020607732BD10B50368A9
:100B6000624A904205D17024A3431C004B68234382
:100B700005E05F4CA04202D0684CA04203D15D4C1E
:100B80001C40CB6823438024A3434C691C4304606E
:100B90008B68C3620B688362904205D0544A9042CE
:100BA00002D05E4A904201D109690163012141618D
:100BB00010BD70B5026A01239A430262046A42685A
:100BC0008369574D1D400B682B430225AC438D684C
:100BD0002543474CA04202D0504EB04208D10826CF
:100BE000B5432E00CD6835430426B543A04202D05C
:100BF0004A4CA04205D14B4C14404E6926438A69A9
:100C000032434260836149684163056270BD30B51B
:100C1000026A10239A430262026A43688469424D61
:100C200025400C6824022C432025AA438D682D0101
:100C300015434360846149688163056230BD30B506
:100C4000026A3A4B13400362046A4268C369344D36
:100C50001D400B682B43364D25408C6824022C43E5
:100C60004260C3614968C163046230BD30B5026A45
:100C7000304B13400362036A4268C4692A4D254021
:100C80000C6824022C432C4D1D408B681B032B4306
:100C90004260C46149680164036230BD0000000025
:100CA0008800FEFF30B5036A046A0125AC43046284
:100CB0008469F025AC431201224382610A229343E6
:100CC0001943016230BD30B5036A1024A3430362A7
:100CD0008469036A194D254012032A438261202248
:100CE000934309011943016230BD00000020004018
:100CF00000500040FFFCFFFF826870239A431143BD
:100D000007220A438260704730B584680C4D254045
:100D100029430A4319021143816030BD006000403D
:100D20008CFFFEFFFFFCFFFFFF8CFFFEFFFEFFFFBF
:100D3000FFFDFFFFFFEFFFFFFFDFFFFFFF0FFFFFE5
:100D4000FF00FFFF70B51F23046A01250E001E403F
:100D5000B540AC430462046A0B409A4022430262ED
:100D600070BD704781B01E490A6802430A60096875
:100D700008400090009801B0704780B50121002024
:100D8000C04300F07BF801BDF0B585B0040014222B
:100D90000021684600F084F82068124988421CD17E
:100DA0000120FFF7DFFF8020C001009002240194A2
:100DB000012602960325039504940B4F69463800DB
:100DC00000F09AF8202000900194029603950420E8
:100DD00004906946380000F08FF805B0F0BD0000BF
:100DE000540040480020004000001048F0B50200C8
:100DF00013D41822254B8408A4001C59FF25C600D3
:100E00001640B540AC438907090EC5002A40914001
:100E10002143800880001950F0BD0F251C4B182479
:100E20002A40083A920892000540083DAD08AD00FE
:100E30005D59FF26C7002740BE40B5438907090E0C
:100E4000C0000440A14029439950F0BD80B5411E27
:100E500080225204914201D3012002BD401E0D495F
:100E6000086003210020C043FFF7C0FF00200A49AB
:100E70000860072009490860002002BD80B5FFF71F
:100E8000B5FF01BD80B5FFF7E1FF02BD00E400E062
:100E90001CED00E014E000E018E000E010E000E0ED
:100EA00010B50400080011000200200000F024F931
:100EB000200010BD874908E087490A6882430A601C
:100EC000091D06E084490FE084490A6882430A60EC
:100ED000091F0A6810430860704781490A68824305
:100EE0000A60091DF5E77E490A6882430A60091D08
:100EF0000A6882430A607047F8B5002507000C00B5
:100F000013E0784800682804083108600CE01000FD
:100F1000AE40320402430A609020C0058742F0D1FF
:100F200070480068704805606D1C2068E84000D17A
:100F3000CFE001262068E8403040F5D06068022804
:100F400001D0122815D1E80880003818036A1C2047
:100F5000E908890079188C460F21AA0002409140C7
:100F60008B4319002269AB00184082400A43614656
:100F70000A62396803206A00032393409943626838
:100F800002406B009A400A433A606168012905D02B
:100F9000022903D0112901D0122911D1B9686A00A0
:100FA00090408143E06890400843B8607868012130
:100FB000A9408843616809093140A940014379602B
:100FC0009020C0058742A06811D1002803D00228D4
:100FD00009D004D31CE02068FFF774FF18E02068F4
:100FE000FFF768FF14E02068FFF766FF10E00028B5
:100FF00003D0022809D004D30AE02068FFF773FF6A
:1010000006E02068FFF760FF02E02068FFF765FF59
:101010006068C00088D5002034490B689022D20552
:101020009742324608D1AA4093439C46626812090F
:101030008B0C1A40AA4009E0AA40120493439C4634
:10104000626813098A0C1340AB401A0463461A43C2
:101050000A606168C90324D4254909689022D20531
:101060009742324601D1AA4001E0AA4012049143BE
:10107000C022920363681340934210D101201D4A9D
:1010800011609022D205974204D10A000121A940A3
:10109000114304E00122AA4012040A431100144A39
:1010A000116014490A68002812D19020C0058742B7
:1010B000334601D1AB4001E0AB401B049A43636867
:1010C000DB0205D5874200D021E7AE40164332004F
:1010D00021E7F1BD24005048200050482C00504822
:1010E00028005048180000401C0000400C00004040
:1010F00010000040140000401206130A1A43130C9B
:101100001A4300BF094205D0830705D00270401C76
:10111000491EF9D1704700001300103906D330B4CE
:101120001400150010393CC0FCD230BC490700D374
:101130000CC000D504C0890002D30280801C0029A5
:1011400000D5027070477047010005D40121C00628
:10115000C00E81408F4801607047F0B5020013D483
:1011600018228D4B8408A4001C59FF25C600164088
:10117000B540AC438907090EC5002A409140214380
:10118000800880001950F0BD0F25844B18242A4098
:10119000083A920892000540083DAD08AD005D593F
:1011A000FF26C7002740BE40B5438907090EC0008F
:1011B0000440A14029439950F0BDB74908E0B74920
:1011C0000A6882430A60091D06E0B4490FE0B44989
:1011D0000A6882430A60091F0A6810430860704762
:1011E000B0490A6882430A60091DF5E7AD490A68FB
:1011F00082430A60091D0A6882430A60704781B011
:10120000A94901E081B0A9490A6802430A60096856
:1012100008400090009801B0704730B503680C009A
:101220004C4365002C19A3430C004C4354431C430E
:10123000046030BD43688B4351431943416070479C
:1012400030B583680C004C4365002C19A3430C0097
:101250004C4354431C43846030BD80B503000800F8
:101260009021C9058B420ED1002A03D0022A07D053
:1012700003D301BDFFF7A9FF01BDFFF79EFF01BD2D
:10128000FFF79DFF01BD002A03D0022A07D003D338
:1012900001BDFFF7ABFF01BDFFF799FF01BDFFF7F0
:1012A0009FFF01BD30B5036A0C004C434C434C43D7
:1012B00025012C1BA3430C004C434C434C4354438B
:1012C0001C43046230BD016801220A43026070477A
:1012D0000168802292050A43026070478268D2004A
:1012E000D20849071143816070478268704B1340F0
:1012F000490619438160704702680C239A431143E1
:101300000160704730B504686A4D25402A43114397
:1013100001604168684A0A401343436030BD8268F7
:10132000664B134019438160704730B504001D00BF
:1013300080200002824214D16148624A0904C90B2C
:10134000515AFFF73FFA4000690840182900FFF79B
:1013500039FA80B25C4901400007400F0143E16067
:1013600030BD5748574A0904C90B515AFFF72AFAAA
:10137000690840182900FFF725FA80B2E06030BD07
:101380004168524A0A40426081682A229143816042
:101390007047000000E100E000E400E01CED00E028
:1013A000016820220A430260704738B50500042016
:1013B000FFF725FF9024E405022202212000FFF719
:1013C0002CFF022202212000FFF73AFF0022022117
:1013D0002000FFF72FFF012202212000FFF73DFF31
:1013E000022202212000FFF75DFF0820FFF707FF20
:1013F000374C022201212000FFF70FFF02220121BA
:101400002000FFF71DFF002201212000FFF712FF3F
:10141000012201212000FFF720FF002201212000EE
:10142000FFF740FF8020C000FFF7ECFE294CE123CE
:101430005B02002200212000FFF777FF002300223B
:1014400000212000FFF75EFF0C212000FFF754FF72
:1014500000212000FFF763FF00212000FFF745FF78
:1014600000212000FFF73AFF2000FFF731FF2000A6
:10147000FFF786FF2000FFF726FF28000BD0164855
:1014800005602000FFF78CFF01210820FFF765FEB3
:101490000820FFF759FE31BD240050482000504875
:1014A0002C00504828005048500040485800404800
:1014B000FFFFFFF1FFE9FFEFFFCFFFFFFFFCFFFFA3
:1014C0000024F40094170410F0FF0000FFB7FFFFA2
:1014D00000001048004000413C0000200B4906E09D
:1014E0000B490A6882430A60091D04E009490A6839
:1014F00082430A60091F0A68104308607047064962
:101500000A6882430A60091DF5E70000240050487C
:10151000200050482C0050482800504880B5012039
:10152000FFF7DCFF0220FFF7D9FF0420FFF7D8FF09
:101530000820FFF7D3FF80204000FFF7D1FF802075
:101540008000FFF7CDFF8020C000FFF7C9FF80209B
:101550000001FFF7C5FF0120FFF7D1FF0220FFF7D1
:10156000C5FF0420FFF7C2FF0820FFF7C8FF1020C7
:10157000FFF7BCFF2020FFF7C2FF4020FFF7BFFFAF
:101580008020FFF7B3FF8020C001FFF7B8FF802065
:101590000002FFF7ABFF01BD80B5FF210220FFF77E
:1015A000BFF8002800D0FEE700F052F8FFF7B6FFC2
:1015B0000020FFF7FAFE00F009F804212148FFF7A8
:1015C000FAF9002801D000F041F8FEE718B58BB019
:1015D000102200216846FFF763FC1C22002104A8AA
:1015E000FFF75EFC174C1848206000206060A06088
:1015F0000121E16020618022A2614A0300920390F0
:101600000290019060220492059106900990089042
:101610002000FFF7BDF9002801D000F017F8694657
:101620002000FFF74BFA002801D000F00FF8042249
:1016300004A92000FFF71BFA002801D000F006F8EB
:101640000CB010BD4400002000200040FEE77047B1
:1016500010B50024032000F009F8002801D001246F
:1016600001E0FFF78AFB200010BD7047F8B50500C8
:101670000024104E3068002819D000F01FF8070031
:10168000FA2080003168FFF79DF801003800FFF76D
:1016900099F8FFF7F7FB002809D1042D07D229009C
:1016A0000020C043FFF7EAFB0348056000E0012487
:1016B0002000F2BD34000020300000200148006806
:1016C000704700003800002030B5016841184468B8
:1016D00062088A188368E40704D54C461B1901E0A8
:1016E000641C06D191420BD00C7864B2491C0D7871
:1016F000491C1D705B1C002CF2D4641EF7D5F1E769
:101700000C3030BD10B5074979441831064C7C4483
:10171000163404E0081D0A68891888470100A142B0
:10172000F8D110BD08000000240000009DFFFFFF5D
:10173000D00000001C000000C00000208DFFFFFF53
:10174000CE0000001C00000030000020FFF78FF8E2
:10175000002801D0FFF7D6FF00BF00BF002000BF68
:1017600000BFFFF719FF00F000F880B500F002F8A5
:1017700001BD70470746384600F002F8FBE77047A6
:1017800080B500BF00BF024A11001820ABBEFBE7C6
:1017900026000200010002000400060008000A0002
:1017A0000C00100020004000800000010348016888
:1017B000034A126889180160704700BF400000208A
:1017C0003400002000BF00BF00BF00BFFFF7BEFF16
:1017D000FEE780B5FFF7EAFF01BD7047704770472D
:1017E0007047704770477047704770477047704741
:1017F0007047704770477047704770477047704731
:10180000810081008100810081008100FE000004D0
:0C181000FD000001FC000290D003D80095
:04000005100417C507
:00000001FF
