:020000041004E6
:1000000000600020CD250410BD1D04107B0E0410DF
:10001000AA5555AA45554C420000000000000000BA
:10002000000000000000000000000000771604102F
:1000300000000000000000005F1C041031250410C7
:10004000BF1D041067230410F72304103D2504107E
:100050000000000000000000000000004F24041019
:10006000AB250410E5250410E7250410E92504104C
:10007000EB250410ED250410EF250410F1250410E4
:10008000F3250410F5250410F7250410F9250410B4
:10009000FB250410FD250410FF2504100126041083
:1000A0000326041005260410072604100926041050
:1000B0000000000000000000000000000000000040
:1000C00070B5040001D1012070BD25004035002627
:1000D0006878002803D12E70200000F013FD242042
:1000E00068702068016801229143016060681E49C0
:1000F00001402068016121681C488A6802408A60CA
:10010000E1680129A16801D1C24301E08422120201
:100110000A4321688A60E168022903D1802109012C
:100120002268516021684A68114B13434B60216873
:10013000CA681040C860206961690143A069000273
:1001400008432168C860E069216A014320680160B2
:100150002068016801220A4302606E6020206870F6
:100160002663AE70002070BDFFFFFFF0FF7FFFFF32
:1001700000800002F8B5030040335C78202C1BD1CE
:100180004024045D012C17D001241C7021245C70D4
:1001900020249C7000245C6005686E681C4F37400A
:1001A0006F6041624285418D01851849C1621949DC
:1001B00041631C70052125E00220F2BDF8B5030063
:1001C00040335C78202C1BD14024045D012C17D0D7
:1001D00001241C7022245C7020249C7000245C602C
:1001E00005686E680A4F37406F6041624285418DF5
:1001F00001850649C162074941631C70062101E07F
:100200000220F2BD00F0F9FB0020F2BD0000FFFF6C
:10021000FF7FFFFF93020410026891691268436B2D
:10022000002B00D1704780B5984701BD38B50168F3
:100230008A690B68D40508D51C0606D5446C0125CF
:100240002543456480246400CC61510509D5190615
:1002500007D5416C08240C4344648021C90004681C
:10026000E161910509D5190607D5416C02220A43BF
:100270004264802189000268D161416C0B220A40EE
:1002800001D000F017FB31BD4121405C7047406C4C
:100290007047F8B50400E06A4023E35C012B01D10C
:1002A0000220F2BD0091260040360121317009067E
:1002B000414B1500009AD2062DD5EA062BD5102207
:1002C000678D002F18D17178282907D151058842F0
:1002D00004D10099200000F0BFFA5FE0717829296D
:1002E00007D1984205D02068C261200000F041FB90
:1002F00051E02068C26151E02368DA61726804232A
:1003000013437360002801D0884247D171682000F0
:1003100000F0D0FA42E0DA43009F7F0717D56F075D
:1003200015D5618D00290CD02168496A676A39703A
:10033000616A491C6162218D89182185618D891846
:100340006185618D002929D1984227D023E0009B47
:100350001B0706D52B0704D50099200000F028F9CB
:100360001CE0009B9B0719D5AB0717D5638D002BAD
:100370000DD0606A007821688862606A401C606203
:10038000608D80186085208D8018208506E0884269
:1003900001D0002802D1200000F079F900988006F1
:1003A00005D5A80603D50099200000F0EBF9002040
:1003B0003070F2BD000000000000FFFFF8B504003F
:1003C0004020205C012801D10220F2BD26004036E9
:1003D00001203070C80610D5D0060ED51020216837
:1003E000C86170680421014371601221200000F08F
:1003F00004FB200000F0BDFA5DE08025ED01EB027A
:100400006A480F0635D5570633D521680A68402754
:10041000BA430A602168628D002A26D0496889059E
:10042000890D628DFF2A03D9FF2020855B0805E036
:10043000628D2285E26A824200D0E36A0020009049
:10044000228DD2B2200000F0C7FA608D218D401AB3
:100450006085206871782229016803D16A000A4307
:10046000026028E00D43056025E04868034012D093
:1004700015E04F0618D5570616D5618D00290ED107
:1004800021684A68134016D1E26A824203D1486863
:1004900005434D600FE0200000F0D6F80BE040214E
:1004A000200000F007FA06E0880604D5900602D581
:1004B000200000F018F900203070F2BDF8B50400FB
:1004C000E06A002500234026A65D012E01D102200E
:1004D000F2BD009101214027E155009EF6064ED560
:1004E000D6064CD51026C0273F02174044D0E26BF9
:1004F000002A04D012685268002A00D10123A16B9F
:10050000002903D009684968002901D0002B1DD0BB
:10051000210040314978282907D17105884204D14A
:100520000099200000F098F93CE021004031497822
:10053000292921D11D4988421ED02068C66120008A
:1005400000F017FA200000F0A2F82BE02168CE613D
:1005500021004031496804220A43210040314A60A9
:10056000002802D0310588421CD12000403041686B
:10057000200000F09FF915E02068C66112E00098A5
:10058000000706D5100704D50099200000F010F8E8
:1005900008E00098800605D5900603D50099200054
:1005A00000F0F0F8402025540020F2BD0000FFFFCD
:1005B000FEB507003C004034386800250821627809
:1005C00028231340282B3CD18269D203D30F6A46DB
:1005D00013708269120CFE26164082689205920DF5
:1005E0006B465A80C368FE221A406B469A80FA68AE
:1005F000022A1AD1062216405B88DB091A4096426D
:100600000BD1A268521CA260A268022A1BD1A5606D
:10061000C1612570684642880EE00421380000F070
:100620002DFA25706846828806E00421380000F023
:1006300025FA2570320068460178380000F0A0FAEB
:10064000F7BDC1612570F7BD70B5040026004036C6
:100650000025B57020207178212970700BD11120F0
:10066000206365630121200000F008FA3570200046
:1006700000F087FA70BD122020636563022120001C
:1006800000F0FCF93570200000F07CFA70BD38B540
:10069000040000254220255420003030282141222A
:1006A000A25C292A0DD14122A154212101600121FE
:1006B000200000F0E3F940202554200000F03EFB2C
:1006C00031BD4122A25C2A2A0CD14122A15422210F
:1006D00001600221200000F0D1F9402025542000C3
:1006E00000F02EFB31BDF8B5060020273068C76149
:1006F00030684268A64B134043600024346374633F
:10070000A448F062350040351020014005D0316822
:10071000C8616868042101436960300000F029F96C
:100720000321300000F0AAF968686978602901D0D7
:10073000002804D06968300000F0BCF8F1BD68788A
:1007400021280DD16F70A8784028AC702C7003D18F
:10075000300000F019FBF1BD300000F012FAF1BDDD
:10076000687822280CD16F70A8784028AC702C7063
:1007700003D1300000F009FBF1BD300000F002FAB7
:10078000F1BD0000F2B50400206807682025C561AE
:100790000721200000F072F92068AE024168314361
:1007A0004160206841687A4A0A404260200000F0B7
:1007B000E0F8780401D5A06B02E03E4005D0E06B84
:1007C000002802D0006840686085009F042007422E
:1007D0000FD02168496A626A1170616A491C6162BE
:1007E000218D002905D06C4A89182185618D8918D1
:1007F000618526004036618D002902D0716808436A
:10080000706000202063B0706063716800290BD0B5
:100810007168200000F04EF8707828281BD139004C
:10082000200000F019F8F1BD5C49E26A8A4206D066
:10083000E16275703070200000F0A8FAF1BD7178A7
:1008400022297570307003D1200000F079FAF1BDD3
:10085000200000F073FAF1BD70B504004D48E0626D
:10086000002525632600403620207070B570656332
:100870000420014012D02168496A626A1170616ADD
:10088000491C6162218D002908D0434A89182185BD
:10089000618D8918618571680843706007212000A7
:1008A00000F0ECF810202168C8613570200000F0DD
:1008B0006DFA70BDF8B5040026004036707800254A
:1008C000B570344AE2626585726811437160202711
:1008D000282803D0292801D02A2809D10321200063
:1008E00000F0CCF82820707025632D48606309E083
:1008F0000721200000F0C2F87078602800D07770DF
:1009000025636563216827480A6852040A680ED582
:10091000254B13400B60A16B002929D088633570EB
:10092000A06B00F035FA002822D0A06B10E0120472
:1009300011D50A68274B13400B60E16B002917D0D3
:1009400088633570E06B00F023FA002810D0E06B6C
:10095000816B8847F1BD7078602805D1777035705C
:10096000200000F03CFAF1BD3570200000F0EDF9F8
:10097000F1BD00688169890701D5002181620121EB
:1009800082690A4002D18269114381617047000087
:1009900000E800FE0000FFFFFFFF00000000FFFF77
:1009A00093020410AD090410FFBFFFFF80B5806AF9
:1009B0000021826B9163C26B91634121415C60298C
:1009C00005D120214122815400F009FA01BD00F037
:1009D000BCF901BDFF7FFFFFF0B5059C00684568CD
:1009E000660D234F3743BD438905890D2943120402
:1009F0000A4313431C434460F0BDF1B581B00020AD
:100A0000019A526B00920A0012230425009E194F8E
:100A1000BE4202D0184FBE4210D1294200D0B820A9
:100A200011211140112902D10100902008431340E7
:100A3000122B16D120210143402011E0294200D081
:100A4000B820CC0702D50400F2202043890702D544
:100A50000100F42008431340122B02D10100202092
:100A60000843019909680A6810430860F3BD000053
:100A7000FF63FF03BD030410BD04041010B5002282
:100A80002823CC0706D542224124045D1C40282C93
:100A900000D0F2228C070AD51400442222434124BC
:100AA000045D2340282B02D01300B0221A434B07C9
:100AB00002D51300B8221A4311230B40112B02D187
:100AC000130090221A4312230B40122B03D1202132
:100AD000114340220A43006801689143016010BD40
:100AE00081B024490A6802430A60096808400090FE
:100AF000009801B0704780B501210020C04300F08C
:100B00008CF901BD00688221C905884200D0704778
:100B1000F8B586B00820FFF7E3FF0820FFF7E0FFF5
:100B2000402000901226019601240294002503958E
:100B30000495114F6946380000F0A0F9802000901C
:100B400001960294039504956946380000F096F9E1
:100B500060050A490A6802430A600968084005906E
:100B600005980121032000F058F9032000F05AF9FC
:100B700007B0F0BD50004048000010485800404801
:100B8000704770477047F1B40168421841684808DF
:100B9000131800988068C9071ED5494640181BE005
:100BA0001778521C0770401C761EF9D1002C13D008
:100BB0001678521C89080D40032D01D11578521C5E
:100BC000290271184D424119A41C05D00D78491C09
:100BD0000570401C641EF9D19A420FD01178521C46
:100BE000032503260E4002D11678F61C521C0C0970
:100BF0000F2CD9D114780F34521CD5E700980C3043
:100C0000F2BC70477CB5FF21022000F01FFC0028D9
:100C100000D0FEE700F022FD00F046FD002000F0CD
:100C2000F3FD082040490A6802430A600968084049
:100C3000009000983D4C8220C00520603C486060D8
:100C40003C48A0600220E060002020616061A0615B
:100C5000E06120622000FFF733FA002801D000F0A5
:100C60007EF80021200000F0A5FE002801D000F051
:100C700076F80021200000F0BAFE002801D000F034
:100C80006EF8012000F040FF022000F03DFF00BFA1
:100C900035A000F0B5FF284D280000F0B1FF260078
:100CA000E036932231002000FFF788FA002801D0B7
:100CB00000F055F82000FFF7E7FA2028FAD12800C5
:100CC000343000F09DFF932221004C312000FFF7CB
:100CD00051FA002801D000F042F82000FFF7D4FAC2
:100CE0002028FAD12800583000F08AFF93202100F4
:100CF0004C3101E0491C761C0200501E12040BD03E
:100D00000A7833789A42F5D0000405D01AA000F092
:100D100077FF00F024F8FEE719A000F071FF012032
:100D200000F042FFF7E7000050004048BC030020FD
:100D3000090332100F0300008424041080B500E082
:100D400080B5012000F03FFF01BD80B5FFF79FFA9D
:100D5000042803D0022000F027FFFEE701BD80B584
:100D6000022000F021FFFEE7536C61766520626F80
:100D70006172640A0D0000004572726F720A0D0004
:100D80004F6B0A0D0000000070477047704743002A
:100D900070B50022002401212523C35C022B03D05F
:100DA0000422C263012418E003681D680E26B543BF
:100DB0001D6003681D688D431D604423C35C3C2592
:100DC0001D400123AB40056C6B602523C1542421D9
:100DD0004254816B002900D08847200070BD7047C5
:100DE00010B5C20018231340FF249C40E24389073A
:100DF000090E9940030004D41B489B089B00C018AF
:100E000006E01A4B0007000F083880088000181809
:100E100003681A401143016010BD80B5FFF7E0FF81
:100E200001BD0000010005D40121C006C00E8140B3
:100E30000F480160704710B5401E80214904884268
:100E400001D3012010BD0B4C606003210020C04382
:100E5000FFF7C6FF0020A0600721216010BD80B50C
:100E600000F00AF801BD000000E400E01CED00E025
:100E700000E100E010E000E070477047F0B586B098
:100E800002007E48009200220EE0130423610AE073
:100E90002B00039D1D43A560009B9025ED05AB42F3
:100EA000E368F2D12261521C0B68D34000D1E3E029
:100EB000DB07F8D54B68022B01D0122B0ED1009B1B
:100EC000D408A4001B191C6A96001C2535400F2667
:100ED000AE40B4430E69AE4026431E62009B1D68BF
:100EE000530003269E40F44325400E79B607B60F03
:100EF0009E402E43009D2E604D68012D05D0022D91
:100F000003D0112D01D0122D14D1009DAD682C40BD
:100F1000CD689D402543009B9D60009B5C6801233C
:100F200001259540AC434D682D092B409340234348
:100F3000009C63608B68009C9025ED05AC421DD140
:100F4000002B03D0022B11D008D334E00C68E3430C
:100F500004681C400460446823400DE00B6844684A
:100F60009C43446004682343036024E00B680468E6
:100F70009C4304604468234343601CE0002B03D07F
:100F8000022B11D008D316E00C68E34384681C40A0
:100F90008460C46823400DE00B68C4689C43C4604F
:100FA00084682343836006E00B6884689C43846004
:100FB000C4682343C3604D68EB0000D473E700238B
:100FC0002F4C246801269640049636040396F64377
:100FD00002962D09802676013540954001279740DD
:100FE000FE430196009E9027FF05BE4202D1019E5E
:100FF000264002E0029E26402D043543204C256009
:101000004D680595ED031DD46568009EBE4201D173
:10101000019E00E0029E2E40059FC025AD033D408D
:10102000C027BF03BD420CD10123A660009D9027BD
:10103000FF05BD4202D13500049E01E03500039E4C
:101040002E436660A568002B00D024E79023DB05C3
:10105000009E9E4202D12E00019D01E02E00029DC5
:1010600035404E68F60200D415E7009E9E4200D03F
:101070000EE72B00049D0DE706B0F0BD20005048A0
:101080000C000040944800684107C80F704793481F
:1010900000688103C80F704781B0904801688903D8
:1010A000FCD5816802220A438260002102E000BF71
:1010B0000099491C009100990629F8DB81680422F7
:1010C0000A43826001B07047844800688106C80FF7
:1010D0007047824800684104C80F704730B50D0062
:1010E0007F4C002A0AD0FA21890000F09DFD401EA5
:1010F000684360600020A060052002E020680121B4
:101100008843206030BD70B50E0015000124012217
:10111000010074480068FFF7E1FFB047A84204D01F
:101120006F480068C003F8D5002400220021002089
:10113000FFF7D4FF200070BDFCB50121002817D0B7
:10114000A6480268E0239A43202313430360826D7C
:1011500004239A438265826B0A438263826B8A43CB
:101160008263826D0A438265806D0840009000981A
:1011700038229B4B18699B4CA04215D118680090EF
:101180001D6818681C681B685B0D13406402640FBF
:101190000F26000C30402F0AF0253D400195009DA0
:1011A0002D0A2E40009605E0082000907023019340
:1011B000032418239B4D0F26F6432F6B37403843EB
:1011C0002863E86AF027B843019F0743EF62E86AA3
:1011D000064000983043E86228680726B04304437D
:1011E0002C602868904303432B603F20C043AB6FC3
:1011F00003400A241C43AC67AB6F40241C43AC671C
:10120000EB6F034004241C43EC67EB6F80241C430A
:10121000EC67EB6F4024A343EB67834B1C680440EF
:101220001C605C680440102525435D609C68044098
:10123000202525439D60DC68044030252543DD6082
:101240001C69044022431A615A690240392414433C
:101250005C619A6902403A2414439C61DA69024055
:101260003B241443DC611A6A02403C2414431C6290
:101270005A6A10403D2202435A625520FF22D2434F
:101280006A4C2568154005432560E56815406626CB
:101290002E43E660256A154028432062206C1040EA
:1012A0001D2505432564E06B104059250543E56382
:1012B000606C1040322505436564606A01436162D9
:1012C000986D10401F2101439965D86D0240092097
:1012D0001043D865F3BD000014005048000040489A
:1012E00010E000E03C050020F8B50500524C2068F5
:1012F0008021490201432160012250496420FFF707
:1013000002FF002801D10420F2BD28003025ED4362
:101310004B4F484E2021E022D24303004BD0401EC9
:10132000062847D801A31B5C9F4400BF08384250E1
:101330005E6C7A0038682840102101433960A0684B
:101340000240A26076003F4806602068790C0143A5
:10135000216001223C49C820FFF7D5FE002833D187
:101360000520F2BDA06802401143A160EBE7A06830
:10137000024040201043A0607608E4E7A0680240E5
:1013800060201043A060B608DDE7A068024080201E
:101390001043A060F608D6E7A0680240A0201043E2
:1013A000A0603609CFE7A0680240C0201043A060CB
:1013B0007609C8E7FEE7A06802401143A160FFF785
:1013C0006BFE2048066004E01E4800681849884209
:1013D00002D0386805403D600020F2BD080040485A
:1013E000E81E0010CCECBCFCFF2819D004290AD060
:1013F000052908D0062906D0072904D0844A0329E4
:1014000003D1002808D101207047012804D01068BA
:1014100004218843106003E0106804210143116037
:101420000020704748160060E8160060481500600C
:101430000090D0030048E801000040488F100410DD
:10144000041000403C050020D3100410F3B581B017
:1014500070487149086071490861714D2868202100
:101460000143296028686F490140296001226E49C3
:10147000C820FFF748FE002801D10120FEBD202032
:10148000A969302291430143A961684CA168C20156
:101490000A43A260664B5969664A914214D11968A1
:1014A0001A681E681B681F02FC239B053B40F70A55
:1014B0001E263E400096D601E022920132408E0167
:1014C000F0218900314007E0A0218900F8235B0565
:1014D00010220092C0225201E668574F37403B432A
:1014E000E360E36886041E43E660E3681E26B343B8
:1014F000009E1E43E660E36801261E43E6604F4BF4
:101500001E684F4F37403943196019680843186007
:1015100018684C4901400A431A6018688021C900C4
:1015200001431960A869802149000143A961802015
:10153000C0050168F0220A4000680007000F104350
:10154000102803D1A8690F218843A86100263E48CE
:10155000696A01406962A96A0840A862A0683B49BB
:101560000140802000020843A060E0686021014340
:10157000E1602068042188432060206810218843AE
:10158000206096277F00324D002229003800FFF7A7
:10159000BAFD002800D102262068102101432160F5
:1015A000012229003800FFF7AEFD002801D10226F4
:1015B00001E0300001D03000FEBD6846047AFF2C07
:1015C00002D00120FFF7B8FD68460579214801687F
:1015D000214A0A408021890111430160016880226B
:1015E0000A43026001687022914330220A4302607C
:1015F0002800FFF779FE010009D129002000FFF73C
:10160000F3FE010003D100F073FB62B60020FEBDC3
:10161000600040480000041008ED00E004000020D5
:1016200004005048FFFEFFFF8510041000004048F2
:10163000E41E0010CCECBCFCFFFFFFC0940050483F
:101640003FFCFFFFFFC7FFFFFFCFFFFFFF7FFEFF56
:10165000C910041098004048FFC0FFFF10B50024D7
:10166000032000F0ADFB002801D0012401E0FFF7CA
:1016700042FA200010BD7047094902E0084908E01D
:1016800008494A6882434A600A6810430860704704
:1016900004490A6882430A604A68104348607047F8
:1016A000200050482800504880B50120FFF7E4FF93
:1016B0000220FFF7E1FF0420FFF7E0FF0820FFF71B
:1016C000DBFF80204000FFF7D9FF80208000FFF77C
:1016D000D5FF8020C000FFF7D1FF80200001FFF779
:1016E000CDFF0120FFF7D4FF0220FFF7C9FF042040
:1016F000FFF7C6FF0820FFF7CBFF1020FFF7C0FF62
:101700002020FFF7C5FF4020FFF7C2FF8020FFF732
:10171000B7FF8020C001FFF7BBFF80200002FFF76A
:10172000AFFF01BD81B083490A6802430A600968BE
:1017300008400090009801B0704710B50B004B4373
:1017400001685C00E418A14353430B43036010BDE0
:1017500043688B43514319434160704710B50B00F8
:101760004B4381685C00E418A14353430B438360FF
:1017700010BD30B5CB43704C9025ED05A8421AD171
:10178000002A03D0022A0FD007D330BD20681840AA
:10179000206060680340636030BD60680340636040
:1017A00020680143216030BD2068034023606068E9
:1017B0000143616030BD002A03D0022A0FD007D355
:1017C00030BDA0681840A060E0680340E36030BD11
:1017D000E0680340E360A0680143A16030BDA068F9
:1017E0000340A360E0680143E16030BD10B50B0029
:1017F0004B434B434B43016A1C01E41AA14353433F
:101800000B43036210BD000038B505000420FFF74C
:1018100089FF9024E405022202212000FFF78DFFBA
:10182000022202212000FFF799FF0022022120005E
:10183000FFF78EFF012202212000FFF79AFF02220C
:1018400002212000FFF7D2FF0820FFF76BFF3B4C7F
:10185000022201212000FFF770FF02220121200057
:10186000FFF77CFF002201212000FFF771FF01221A
:1018700001212000FFF77DFF002201212000FFF75A
:10188000B5FF8020C0002E490A6802430A6009683B
:101890000840009000982B488B21C16001682A4ABB
:1018A0000A4002604168294A0A40426001680C22ED
:1018B0000A4302608168264A0A4082608168254A9C
:1018C0000A4082608168C900C9088160016880227D
:1018D00092050A43026041681F4A0A4042608168DB
:1018E0002A2291438160016801220A430260290093
:1018F00010D01A490D60016820220A43026018487E
:101900000168FF22914340220A4302608020400088
:101910001449086031BD10B50023134A06E014686D
:101920002406FCD5DCB2045DD4605B1CDCB28C42C6
:10193000F5D310BD5000404820005048000010482A
:101940005800404800400041FFE9FFEFFFCFFFFF94
:10195000FFFCFFFFFFFFFFF1FFB7FFFF880500203F
:1019600008E400E000E100E01C40004170B5002503
:10197000012804D0022802D00020C04370BD0029F5
:1019800001D1002070BD0C00160005E001212000EF
:10199000FFF7C1FF641C6D1C3000461E0028F5D106
:1019A000280070BD01B5012269460120FFF7DEFF66
:1019B000009802BD70B5020040325378202B14D13C
:1019C0004023C35C012B10D00123137024245470D6
:1019D000046825689D43256004682568164E2E40DE
:1019E00026600468256829431CE0022070BD70B59C
:1019F000020040325378202B12D14023C35C012BCC
:101A00000ED00123137024245470046825689D436C
:101A1000256004682568094E2E400902314301E023
:101A2000022070BD2160006801680B430360202024
:101A300050700020107070BDFFEFFFFFFFF0FFFF40
:101A400081B06A490A6802430A6009680840009048
:101A5000009801B0704710B50B004B4301685C0063
:101A6000E418A14353430B43036010BD43688B4309
:101A7000514319434160704710B50B004B438168D7
:101A80005C00E418A14353430B43836010BD30B5A1
:101A9000CB43574C9025ED05A8421AD1002A03D01C
:101AA000022A0FD007D330BD20681840206060683C
:101AB0000340636030BD6068034063602068014399
:101AC000216030BD2068034023606068014361608D
:101AD00030BD002A03D0022A0FD007D330BDA06842
:101AE0001840A060E0680340E36030BDE068034058
:101AF000E360A0680143A16030BDA0680340A3601B
:101B0000E0680143E16030BD10B53A4C010016D1E8
:101B10000820FFF795FF0220A0610122022120008A
:101B2000FFF799FF022202212000FFF7A5FF002204
:101B300002212000FFF79AFF0022022130E0012855
:101B400016D10820FFF77CFF1020A0610122102190
:101B50002000FFF780FF022210212000FFF78CFFFA
:101B6000002210212000FFF781FF0022102117E042
:101B7000022818D10820FFF763FF0420A06101228A
:101B800004212000FFF767FF022204212000FFF755
:101B900073FF002204212000FFF768FF00220421C8
:101BA0002000FFF774FF10BD1349FFE7020001D1C9
:101BB000022006E0012801D1102002E0022801D114
:101BC0000420086070470D49020002D10868022213
:101BD00008E0012802D10868102203E0022803D19E
:101BE0000868042242400A607047000050004048E4
:101BF00020005048000010482800104814001048E9
:101C00000EB4C0B5020003A801900020009001AB03
:101C10000121044878440C3000F0F8F8029906B02D
:101C2000084700BF93090000094214D088420FD32F
:101C30000122030C01D100041204002300185B41AF
:101C40008B4200D35B1A5241F8D319001000704741
:101C500001000020704708B500F086FB08BD704702
:101C600010B5C20018231340FF249C40E2438907AB
:101C7000090E9940030004D416489B089B00C01825
:101C800006E0154B0007000F083880088000181880
:101C900003681A401143016010BD80B50F48006809
:101CA000002814D10E480168002902D1806A00285A
:101CB0000DD001200B49886000F057FBBFF34F8F18
:101CC00009480A490860BFF34F8F00BFFDE70120B4
:101CD00002BD000000E400E01CED00E0940040487C
:101CE00010005048040000200400FA050CED00E04C
:101CF00080B503210020FFF7B3FF03210120FFF788
:101D0000AFFF03210220FFF7ABFF03210320FFF702
:101D1000A7FF03210720FFF7A3FF03210820FFF7F8
:101D20009FFF03210920FFF79BFF03210A20FFF7F4
:101D300097FF03210B20FFF793FF03210C20FFF7F0
:101D40008FFF03210D20FFF78BFF03210E20FFF7EC
:101D500087FF03210F20FFF783FF03211020FFF7E8
:101D60007FFF03211120FFF77BFF00211220FFF7E7
:101D700077FF03211320FFF773FF03211420FFF7E0
:101D80006FFF03211520FFF76BFF03211620FFF7DC
:101D900067FF01211720FFF763FF00211820FFF7DD
:101DA0005FFF03211920FFF75BFF03211A20FFF7D4
:101DB00057FF03211B20FFF753FF01BD70477047FA
:101DC000F8B506000024104DA868002818D000F0CF
:101DD000CDFA0700FA208000A968FFF725FF01006F
:101DE0003800FFF721FFFFF726F8002808D1042E5E
:101DF00006D231000020C043FFF70FF86E6000E00C
:101E000001242000F2BD00BF30050020F0B597B0DE
:101E1000050016001F001C986A460023002418C203
:101E2000059104A92B2288540B9303950F960EE07D
:101E300023000F9A04A9039800F07AFA002800D52D
:101E4000D8E001E0F4D501240F9800190F900F9805
:101E50000078252809D10020089009900A900224D2
:101E60000821029104210F9D0CE06A460021C9431C
:101E70000F9800F0AFFA0400E4D10B98BCE0020028
:101E8000012010436D1C2A78202AF8D0232A0AD07A
:101E90002B2A04D02D2A04D0302A07D009E0204371
:101EA000F0E70843EEE702000820EAE7020010200E
:101EB000E7E72A2A0CD13B681A681B1D3B600D928C
:101EC000002A03D553420D93014308006D1C14E012
:101ED00000210D91004A0BE0CBCCCC0C0D9B934222
:101EE00005DA9E00F3185B00591830390D916D1C0E
:101EF00029780B00303B0A2BF0D329782E2903D008
:101F00000021C9430C9125E06D1C29782A2906D1AE
:101F100039680A68091D39600C926D1C1AE02D2978
:101F200002D12D236D1C00E0002300210C910CE058
:101F3000002B09D10C9AB84EB24205DA9600B218BD
:101F40005200511830390C916D1C29780A00303A32
:101F50000A2AEDD304A908852E783100AFA000F03D
:101F600041FA002801D06D1C00E0002604A82A21B7
:101F70004654405C682807D12878682804D162203C
:101F800004A92A2288546D1C11A807902A78681C7D
:101F90000F90252A13D0582A4FD0632A00D1B1E0E0
:101FA000642A79D0692A77D06F2A46D0702A3BD02C
:101FB000732A0AD0752A40D0782A3ED0ABE001209F
:101FC0000890252011A90870AFE038680468001D4A
:101FD00038600694002C14D104A82B21405C002802
:101FE0000CD00024E44300BF8EA000F005FA201AB4
:101FF00000D19AE00020C04317B0F0BD90A0069039
:1020000093E00C9D002D03D5200000F019FA09E0A3
:102010002A000021200000F01BFA002801D0001B3C
:1020200000E02800099080E038680168001D3860F1
:10203000049111A80690782160E004AB2A20185C76
:10204000622803D0682807D06C280BE0396808683C
:10205000091D3960C0B209E039680868091D396096
:1020600080B203E039680868091D39600490188D52
:102070000299C0B208423CD00498002839D02020F0
:102080001043782835D1089811A930230B54401CEF
:10209000431C08930A542CE004AB2A20185C6228E5
:1020A00003D0682807D06C280BE039680868091D40
:1020B000396040B209E039680868091D396000B22A
:1020C00003E039680868091D39600490002802D5CA
:1020D00008982D2109E0188D204202D008982B2164
:1020E00003E0C00705D50898202111AB1954401C06
:1020F000089011A8089940180690110004A800F053
:10210000A0F812E00120089038680168001D3860CE
:1021100011A8017009E001200890252011A908707C
:10212000100002D0089411A842700D980899401A26
:102130000A99401A0999401A109004A82821405C75
:10214000400713D4202069460872109800280DDD3E
:10215000109C039D012302AA04A9280000F0E8F8BE
:10216000002800D046E7641EF4D10395089D11AC09
:10217000002D0ED0039E21780598B04705900028C9
:1021800000D137E70B98401C0B90641C6D1EF2D1F8
:1021900003963020694608720A9C002C0CDD039DD2
:1021A000012302AA04A9280000F0C2F8002800D0E8
:1021B00020E7641EF4D10395069C099D002D0ED0E6
:1021C000039E21780598B0470590002800D111E7BB
:1021D0000B98401C0B90641C6D1EF2D1039604A852
:1021E0002821405C400700D431E62020694608726F
:1021F0001098002800DC2AE6109C039D0F9E012306
:1022000002AA04A9280000F093F8002800D0F1E603
:10221000641E00D109E6F2E7CBCCCC0C686C747A72
:102220004C0000007072696E74665F733A206261E0
:102230006420257320617267756D656E74000000FF
:102240000000F0B583B00A00C4686F2901D10825E9
:1022500006E020211143782901D00A2500E010254D
:10226000182701680E00642A01D0692A03D10029C9
:1022700001D571420E00002E0CD1016A002909D14E
:10228000082D31D12821415C09072DD51727302190
:10229000E17529E00290684602707F1E01973000C8
:1022A0002900FFF7C1FC3031C8B23A2803DB684689
:1022B000007851380918E15530002900FFF7B4FCC7
:1022C000060004D002988068E1198842E5D302989C
:1022D000082D09D12821415C090705D5E15D302988
:1022E00002D07F1E3021E1551821C91B4161E2193E
:1022F0008260026A914206DA511A8161018D0B4AAD
:102300000A40028510E0002A0ED52822825C1423A0
:102310001340102B08D1426A0369D21A8369D21A7A
:10232000511A012900DB816103B0F0BDEFFF00000D
:10233000F8B50024002B11D007000E0014001D007A
:1023400021787068B8477060002809D0F069401C97
:10235000F0610020641C6D1EF2D104002000F2BD6B
:102360000020C043F9E77047704770470148006894
:10237000704700003C05002030B45368D41803E0D7
:102380005B1C491E641C401C042B06DA002904D087
:10239000057825700578002DF2D1536030BC704768
:1023A00038B500290ED01D001400FFF7E5FF616865
:1023B00020006A6B90470122D243811A02D0491E45
:1023C00002D004E0012000E00020C04332BD002123
:1023D000616032BD80B5024BFFF7E2FF02BD000035
:1023E00040050020C9B202788A4203D0401C002A6E
:1023F000F9D100207047704780B5002801D100BF97
:1024000007A006490B68002B03D022220021984721
:1024100001E000F028F8222002BD00008C05002019
:10242000636F6E73747261696E742068616E646C40
:1024300065723A20626164206D657373616765003F
:10244000431C0178401C0942FBD1C01A70477047F9
:10245000C9B2521E05D30378401C8B42F9D1401EED
:1024600070470020704780B5012000F001F801BDE1
:1024700080B500BF00BF024A11001820ABBEFBE7C9
:102480002600020054686520626F617264207265E4
:1024900063656976657320746865206D6573736123
:1024A000676520616E642073656E647320697420B3
:1024B0006261636B2E0A0D0053746172742074683C
:1024C00065207472616E736D697373696F6E2070CD
:1024D000726F636573732E0A0D000000436F6D7099
:1024E000617265207468652073656E7420616E6426
:1024F00020726563656976656420627566666572DB
:10250000733A0A0D0000000010B5074979441831EC
:10251000064C7C44163404E0081D0A688918884774
:102520000100A142F8D110BD3C000000580000009D
:1025300080B500F00FF8FEF792FC01BD10B5044C19
:102540002000FDF769FE2000FDF770FE10BD0000C1
:10255000BC03002002480168826889180160704746
:102560003005002023E6FFFF0301000014000000F7
:10257000C000002013E6FFFF92000000A80000004A
:10258000BC030020FFF789FB002801D0FFF7BCFF48
:1025900000BF00BF002000BF00BFFEF733FB00F00C
:1025A00000F880B500F002F801BD704707463846D4
:1025B000FFF75EFFFBE738B505000C002000FFF7D2
:1025C000F1F9A04200D00025280032BD00BF00BFB5
:1025D00000BF00BFFFF7D6FF0078401E8041C04318
:1025E000C00F70477047704770477047704770471B
:1025F0007047704770477047704770477047704723
:1026000070477047704770477047F23A00011320D7
:102610002A0110204932435F54776F426F61726420
:102620007320636F6D6D756E69636174696F6E2081
:10263000626173656420092349542BF2512031F201
:1026400087000112049A22019EF0061E90D0038E8C
:102650000D041001AA6002D925041033E13C0000EA
:102660000000000000000000000000F2FF0001F187
:05267000FF01F1CA01A9
:04000005100425CDF1
:00000001FF
