:020000041004E6
:1000000000000120D12904100D1E0410E92904105C
:10001000AA5555AA45554C420000000000000000BA
:10002000000000000000000000000000B3100410F9
:10003000000000000000000003110410EB29041070
:1000400053120410371604103B160410AB2304108F
:10005000BB260410AB2804103F290410AF2904105C
:10006000ED290410EF290410F1290410F3290410DC
:10007000F5290410F7290410F9290410FB290410AC
:10008000FD290410FF290410012A0410032A04107A
:10009000052A0410072A0410092A04100B2A041048
:1000A0000D2A04100F2A04100000000000000000B8
:1000B0000000000000000000000000000000000040
:1000C000FDB5B4B03C9801AA0023002418C20691E3
:1000D00004A93B2288540F9329A8401C289014E0BF
:1000E000359C3D00349E21780698B0470690002844
:1000F00001D100F04FFE0F98401C0F90641C6D1E44
:10010000F1D134963598C019359035980078252866
:100110000CD1002009900A900B900C900D900E903D
:100120000021022408200390359D10E001AA00213F
:10013000C943359800F070FF070002D10F9800F016
:100140002BFECDD50127DDE70800012101436D1C01
:1001500028782028F8D023280BD02B2804D02D284D
:1001600004D0302808D00AE02143F0E70800042139
:10017000ECE708000821E9E708001021E6E72A2853
:100180000FD1369802681068121D369B1A601190C4
:10019000002804D5424211920800042101436D1C3D
:1001A00012E000201190634A09E0119B934205DAA6
:1001B0009E00F3185B001818303811906D1C2878D9
:1001C0000300303B0A2BF0D328782E2803D00020E0
:1001D000C043109027E06D1C28782A2808D1369853
:1001E00000680268001D369B186010926D1C1AE0B2
:1001F0002D2802D12D226D1C00E00022002010903D
:100200004C4B0BE0002A08D1109E9E4205DAB70045
:10021000BE1976003018303810906D1C2878060012
:10022000303E0A2EEED304A801872E7831003F48D5
:100230007844FF30C01F00F0FBFE002801D06D1C89
:1002400000E0002604A83A214654405C682804D106
:10025000287868280BD1622005E06C2807D128781F
:100260006C2804D1712004A93A2288546D1C18A866
:100270000890287869460870681C359068460278AE
:10028000100025382DD02038022800D801E213387C
:1002900001D100F0A5FC0B3801D100F03EFD401E5D
:1002A00001D100F0EBFC401E022800D8F1E1001F54
:1002B00001D100F0E3FC401F00D149E1401E01D113
:1002C00000F08EFC401E00D1ECE0C01E10D0801E5D
:1002D00001D100F085FCC01E01D100F081FC00F0CE
:1002E00027FD252018A908700120099000F02BFD9A
:1002F000369800680468001D369908600794002C41
:1003000000D0BBE004A83B21405C002800D1AEE057
:100310000024E44306487844163000F093FE201A87
:1003200001D000F037FD00F00EFD00BFA825000051
:10033000DC250000CBCCCC0C641E01D000F020FDED
:100340003495099D18AC002D0FD0349E2178069865
:10035000B0470690002801D100F01CFD0F98401C0A
:100360000F90641C6D1EF1D13496302069460870E0
:100370000C9C002C0DDD349D01236A4604A9280045
:1003800000F0C2FD002801D000F004FD641EF3D18E
:100390003495079C0A9D002D0FD0349E2178069835
:1003A000B0470690002801D100F0F4FC0F98401CE3
:1003B0000F90641C6D1EF1D1349630206946087090
:1003C0000D9C002C0DDD349D01236A4604A92800F4
:1003D00000F09AFD002801D000F0DCFC641EF3D18F
:1003E000349507980A9944180B9D002D0FD0349E20
:1003F00021780698B0470690002801D100F0CAFC89
:100400000F98401C0F90641C6D1EF1D13496302063
:10041000694608700E9C002C0DDD349D01236A4650
:1004200004A9280000F070FD002801D000F0B2FC03
:10043000641EF3D1349504A83821405C400700D4F1
:1004400063E6202069460870002F00DC5DE63C0072
:10045000349D01236A4604A9280000F055FD0028B8
:1004600001D000F097FC641EF3D134954DE63E4870
:100470007844FF300B38079000F065FC109D002D8C
:1004800003D5200000F002FE09E02A000021200030
:1004900000F004FE002801D0001B00E028000A90B4
:1004A00000F051FC369800680268001D369908601B
:1004B0000020C0430021104004AA03C218A80790DE
:1004C000089A3C2304A803C8002904D1002802D1BB
:1004D000109C002C13D05B1E05072D0F3035EEB29B
:1004E0003A2E00DB2735D55400090C0720430909B3
:1004F00001D1002803D0079CD518AC42EBD33C2097
:10050000C01A0A90D11807911099884208DA081A7F
:100510000C9004A8018FBD4A0A40028700F013FC2A
:10052000002901D400F00FFC04A93822895C1422B0
:100530000A40102A01D000F006FC1199099A891A84
:100540000C9A891A081A002801DC00F0FCFB45E32C
:1005500004A83B21415C002908D00024E443494819
:100560007844FF302130D8E6C02300003A21405CB7
:10057000622868D0682819D06A2844D06C2806D030
:1005800071284ED0742830D07A2820D06CE036986C
:1005900000680168001D369A1060002976D1002499
:1005A000E44339487844FF301F38B6E6369800688F
:1005B0000168001D369A1060002905D10024E4432B
:1005C00031487844C230A8E60F980880BBE33698DB
:1005D00000680168001D369A1060002956D1002479
:1005E000E44329487844A03097E6369800680168CB
:1005F000001D369A1060002948D10024E4432248A7
:100600007844843089E6369800680268001D36997F
:100610000860002A13D10024E4431B487844683062
:100620007BE6369800680268001D36990860002A4B
:1006300005D10024E443144878444C306DE60F980B
:10064000C11703C27FE3369800680168001D369A1F
:100650001060002905D10024E4430B487844283079
:100660005BE60F9808706EE3369800680168001D1D
:10067000369A1060002909D10024E44302487844E6
:10068000801D4AE6582200006C2200000F98086086
:1006900059E336980368DB1D0720834336980360CF
:1006A00003CB369D2B6004AB03C3C80F02D009985F
:1006B0002D210AE004A8008F204202D009982B21A6
:1006C00003E0C00705D50998202118AB1954401C38
:1006D000099018A809994318079329AE04A803C8DC
:1006E00016AC03C41098002801D5062007E007D1F6
:1006F0006846007820210143672901D1012010902C
:1007000004A803C8080041004915491C10D1000382
:100710000ED003200A90613A1A2A04D23C49794447
:10072000FF31113915E03B497944FF31173910E0A9
:1007300004A803C8080041004915491C0ED1000354
:100740000CD103200A90613A1A2A16D3324979440F
:10075000C6310322180000F0C7FCF4E204A830C838
:1007600088A003C82940002280235B03994208D255
:100770000020694014AB03C313E0284979449C313D
:10078000E7E77A4B2B407A4D1D4314AA30C2080D7F
:1007900078A20CCA101879494843794900F0B2FC94
:1007A000020014A803C804AB03C304A803C875A4BB
:1007B00030CC04400D4002D1002C00D1B9E016A885
:1007C00030C86D006D0815920720801A05DD020003
:1007D0002000290000F072FB0AE0424200206B4931
:1007E00000F06CFB02000B002000290000F0B9FCB7
:1007F00020226B461B781A436B465A706A46527821
:10080000662A0DD1159A0A320BE000BFEFFF0000F7
:100810001C2100001C2100002021000018210000E4
:100820000622109B9A18142A00DD142229AB3024CA
:100830001C705C1C02E016A803C8149A002A3CDD58
:1008400016AB03C3149216A803C800F0EBFC279064
:1008500006460834042530000A2100F067FC0F002A
:1008600030000A2100F062FC06003037601E07707D
:1008700030000A2100F05AFC0F0030000A2100F07D
:1008800055FC0600A41E303727706D1EE3D10834D6
:100890001498083814900028CDDD279800F0DAFC71
:1008A00002000B0016A803C800F051FD0022384BCF
:1008B00000F0C4FD16AA03C2C5E72898201A29A98A
:1008C0004E1C159D02E0401E6D1E761C31783029AD
:1008D000F9D069464978662901D1691C06E0694664
:1008E0004978652901D1012100E00021109A5418AE
:1008F000A04200DA441E002C1BD4844204DA305D8E
:10090000342801DD392000E030202100721E521809
:1009100001E0641E521E491E13788342F9D0392823
:1009200002D1705C401C7054002902D5761E641CF4
:100930006D1C684600786946487000F072FB406A9A
:10094000007869460870109F20B2002803DC01245B
:10095000054E7E44123668464178202008436628BA
:1009600018D16D1C2EE000BFD41F0000FFFF0F80C8
:100970000000E03F02FCFFFFFFFFFFFF9775000054
:10098000A0860100FFFFFFFFFFFFFF7F0000F03F99
:1009900084D7974167285ED128B20321C943884292
:1009A00043DBB84241DA6D1C04A8008F0399C0B242
:1009B000084203D120B2B84200DA070028B23F1A39
:1009C00000D500270A99079840182AB2002A00DDAE
:1009D000A8E0491C0A9130210170002F05DC04A811
:1009E000008F0399C0B2084206D00A98411C0A91B0
:1009F00069460978079A115428B241428F4200DAB9
:100A00007D422DB268420D907D1920B2854200DAF8
:100A10002C0024B20B942200310007980A9BC018C6
:100A200000F062FB281B0E90C2E020B2B84206DA4A
:100A300004A9098F039AC9B2114200D107007F1E91
:100A400000D5002768464078672801D1652000E07E
:100A50004520694648700A98411C0A913178079AE6
:100A60001154711C002F05DC04A8008F039AC0B23A
:100A7000104219D00A98421C0A926A461278079BC3
:100A80001A54002F10DD641E20B2874200DA3C00A9
:100A900022B207980A9BC01800F026FB24B20A98DD
:100AA00000190A90381B0D9007980A99401869465A
:100AB0004978017029B2002903D42B214170861C8A
:100AC00003E02D224270861C4D42002414A9280008
:100AD0000D0005E00A2100F015FB2970641C6D1C57
:100AE00000B20028F6DC012C08DC684640782021A2
:100AF0000143652902D130203070761C002C09D1C9
:100B000030203070761C07E0641E14A8005D303081
:100B10003070761C002CF7DC07980A994018301AC0
:100B20000B9045E021B291421BDA22B2310000F075
:100B3000DBFA24B20A9800190A902DB2291B0D91F4
:100B4000002F05DC04A9098F039AC9B2114206D00F
:100B500069460978079A11540B98401C0B900E9720
:100B600026E0310000F0C0FA28B20A9909180A916B
:100B7000641B002F05DC04AA128F039BD2B21A4219
:100B800005D04A1C0A926A461278079B5A5421B231
:100B90008F4200DA3C0022B2311807980A9BC01835
:100BA00000F0A2FA24B20A9800190A90381B0D909E
:100BB00004A83821405C14210140102900D0C2E073
:100BC00009980A9940180D9940180B9940180E99E8
:100BD00040181199884200DBB5E0081A0C90B2E089
:100BE00004AA3A20105C622808D068280ED06A282F
:100BF00014D06C281DD0712810D01AE036980168E6
:100C00000868091D369B1960C0B218E03698016863
:100C10000868091D369B196080B210E03698036899
:100C2000DB1D072083433698036003CB369C23608B
:100C300006E0369801680868091D369B1960002196
:100C400004AB03C3108F0399C0B208425BD004A861
:100C500003C8002901D1002855D06846007820211A
:100C6000014378294FD1099818A930220A54401C11
:100C7000421C09926A4612780A5444E004AA3A20B7
:100C8000105C622808D068280ED06A2814D06C281E
:100C90001DD0712810D01AE0369801680868091D27
:100CA000369B196040B218E0369801680868091D43
:100CB000369B196000B210E036980368DB1D0720F0
:100CC00083433698036003CB369D2B6006E036984D
:100CD00001680868091D369B1960C11704AB03C37E
:100CE000002902DA09982D2109E0108F204202D054
:100CF00009982B2103E0C00705D50998202118AADF
:100D00001154401C099018A809994018079068468A
:100D1000017804A800F042F815E001200990369807
:100D200000680168001D369A106018A801700AE07A
:100D3000252018A90870012009906846007800282D
:100D400001D04A70099411980999401A0C99401AD7
:100D50000A99401A0D99401A0B99401A0E99471A90
:100D600004A83821405C400701D5FFF7EAFA2020AB
:100D700069460870002F01DCFFF7E3FA3C00349D60
:100D800001236A4604A9280000F0BEF8002801D11A
:100D9000FFF7D2FA0020C04337B0F0BDF2B586B0FD
:100DA000040025696F2901D1082707E008462021A2
:100DB0000143782901D00A2700E010273C2603CC04
:100DC000083C04AA03C26A46127E642A03D06A461B
:100DD000127E692A09D1002907DA04A803C8002273
:100DE0000023121A8B4104A80CC004A803C80029D0
:100DF0000DD100280BD1206B002808D1082F3BD142
:100E00003820205C000737D53B26302033E00294A1
:100E1000009504A830C8761E0196200029003A00EB
:100E2000FB1700F0CDFB3032D0B23A2803DB684626
:100E3000007E5138121800988255200029003A008F
:100E4000FB1700F0BDFB04000D0001D1002C05D004
:100E50000298C068009989198842DCD3029C009DE1
:100E6000082F09D13820205C000705D5A85D30285F
:100E700002D0761E3020A8553C20801BA061A91905
:100E8000E160216B884206DA081A2062208F1C4933
:100E90000140218710E000290ED53821615C142221
:100EA0000A40102A08D1616B6269891A226A891A7C
:100EB000081A002800DD206207B0F0BDF8B5002652
:100EC000104F04000D00009214E0C00707D5320057
:100ED0003B002000290000F0B1FA04000D0000984A
:100EE000401000903000390032003B0000F0A6FABC
:100EF00006000F0000980028E7D120002900F4BD6B
:100F0000EFFF000000002440F8B50024002B11D0B2
:100F100007000E0014001D002178B068B847B060CB
:100F2000002809D0F06A401CF0620020641C6D1E8D
:100F3000F2D104002000F2BD0020C043F9E7F1B473
:100F40000168421841684808131800988068C9076A
:100F50001ED5494640181BE01778521C0770401CEC
:100F6000761EF9D1002C13D01678521C89080D403A
:100F7000032D01D11578521C290271184D424119D7
:100F8000A41C05D00D78491C0570401C641EF9D1C5
:100F90009A420FD01178521C032503260E4002D12D
:100FA0001678F61C521C0C090F2CD9D114780F346A
:100FB000521CD5E700980C30F2BC704730B453682F
:100FC000D41803E05B1C491E641C401C042B06DA89
:100FD000002904D0057825700578002DF2D15360E2
:100FE00030BC704738B500290ED01D001400FFF743
:100FF000E5FF616820006A6B90470122D243811AA5
:1010000002D0491E02D004E0012000E00020C043CD
:1010100032BD0021616032BD80B5034BFFF7E2FFB6
:1010200002BD0248704700006C0000203400002020
:10103000C9B202788A4203D0401C002AF9D10020AC
:1010400070472E0080B5002801D100BF07A00649D7
:101050000B68002B03D022220021984701E000F00A
:10106000E4FA222002BD0000B8000020636F6E7316
:10107000747261696E742068616E646C65723A2086
:10108000626164206D65737361676500431C01785C
:10109000401C0942FBD1C01A70474300C9B2521E1E
:1010A00005D30378401C8B42F9D1401E70470020C5
:1010B0007047704770B4103A03D378C9103A78C0BB
:1010C000FBD2530701D318C918C001D508C908C0FD
:1010D000D20704D30B880380891C801C002A01D509
:1010E0000B78037070BC70478B0701D18307E1D088
:1010F000124205D00B78491C0370401C521EF9D1D6
:1011000070477047CA0F00D0494203105A400DD0B3
:1011100004B500D3404200F009F8009AD20701D389
:101120004942124200D5404204BD0000094214D099
:1011300088420FD30122030C01D1000412040023C2
:1011400000185B418B4200D35B1A5241F8D319005F
:101150001000704701000020704708B500F06AFADF
:1011600008BDF0B40E005E400125ED072E40B446E8
:10117000AE0ADF184C18F4423BD2F74241D2640D5C
:1011800043D07F0D38D0E41BC902DB0229432B4337
:10119000CF0ADB0A0600B61A9F4104D2641EB619B4
:1011A0007F41B6185F416812800D241800188442F0
:1011B00022DAE80C0021B6197F41B61A9F4102D20B
:1011C000B6185F413F1C40414941F4D3241C21DD46
:1011D0002405B6197F41B61A9F4105D33743C60788
:1011E00037430026012F7041614166463143F0BC10
:1011F0007047FCD1F74205D20020C1434905490898
:10120000F3E704D00020C143F1E77F0DFAD00020BE
:101210006146ECE72442FAD1401C61410F03F6D34A
:101220000020E2E74A1812D2400DC902084301210A
:10123000C9070843520D40210901521A521C06D415
:1012400052421F3201D4D0407047C017704700206F
:1012500070477047010042221201D21E004207D09F
:1012600002D4521E0018FCD5C10A40051205891887
:10127000704700000100EED54042F446FFF7EBFF57
:101280000122D20711436047F0B40125ED070F009A
:101290005F404FD48B4200D1824205D98446100072
:1012A00062468C4619006346DF184C18640D7F0DAA
:1012B0003AD0661C760537D0E61B352E34DCDB02CF
:1012C0002B43DB0A0C0DC9022943C912202E0DDB6A
:1012D0001700203E06D01F00F741F3405F40002674
:1012E000012A7741C01871410DD217E01700F7416C
:1012F000F2405740F3415A40B340F3405A40002671
:10130000801859410AD3A21C52050FD0C207012FE1
:10131000724117004008CB0718434908641C240594
:101320004208AF4170416141F0BC7047641C210527
:101330000020F9E76B4010E06B40ABE7F742F3D1D8
:10134000E943F1E72442EFD100200021ECE7F0B4BB
:101350000125ED070F005F40EED40C00871A9C4179
:1013600005D2C01BA141D219634169406B40AE0A4E
:10137000DF184C18F442E1D2640D7F0DE2D0E61B79
:10138000362ED1DCDB022B43DB0AA4460C0DC9024E
:101390002943C90A012E28DC04D1D6075208DF07E9
:1013A0003A435B08EF0A76429041994114D03942A2
:1013B0003BD1B61940414941761C394204D1761CD3
:1013C000001849413942FAD0B9436746B74208D9B3
:1013D000A41B24052143A7E70042EAD13642E8D105
:1013E000A2E7E40AE10700209EE7202E0BDD203E65
:1013F0001F00F340F7415F40012A002257417E421F
:10140000984191410BE01700F741F2405740F341FA
:101410005A40B340F3405A407E42904199410A03FA
:1014200003D2641EB619404149410027641E2405B9
:101430004208AE4178416141F0BC7047F0B50E0002
:101440005E400125ED072E40B446AE0ADF184C1869
:10145000F44208D2F7420ED2640D01D07F0D12D1B2
:1014600000206146F0BD05D1F74201D87F0D05D1BE
:101470000020C143F0BDFBD1640DF9D00020C14371
:10148000490549088FE0E419C902DB0229432B43CF
:10149000DB0A460DC00231438E4630B487B295B2A6
:1014A0007D432E0CADB2140C7C43A419260C2404ED
:1014B00025439CB27C43A419190C7943270CC91904
:1014C000A4B20F043C43090C000C97B247432E0C06
:1014D000BE193543ADB2170C4743360CBF19A6B23F
:1014E000BF193E043543240C3E0C36199FB24743C6
:1014F000BF19BCB23E0C89191F0C47437F183E042C
:101500003443390C704680B297B247432E0CBE1953
:101510003543ADB2170C4743360CBF19A6B2BF19FD
:101520003E043543240C3E0C36199FB24743BF1985
:10153000BCB23E0C89191F0C47437F183E0434434C
:10154000390C77463F0C90B278432E0C8019060474
:10155000ADB22E43050CA0B22D18120C7A435019CF
:10156000020C80B2240CA4189AB27A431219140403
:101570002043120C89181B0C7B43C91830BCEF0A9E
:10158000394203D1B61940414941641E6F12BF0D63
:10159000E41B0BDBFF19BC4211DA240500274208CB
:1015A000AE417841614166463143F0BD641C05D1CE
:1015B000401C6141CF0201D34908F4E750E75DE7E1
:1015C000124224D0994228D970B500251B4202D07E
:1015D0000C00002109E000240126491864419442CE
:1015E00000D3A41A7641F8D33100012601E07641F8
:1015F00009D2001864416D41A41A9D41F7D2A41884
:101600005D41B619F5D3300022002B0070BD1B429E
:10161000D8D108B500F010F808BD01D19042D3D25E
:1016200002000B0000210020704780B5012000F06F
:1016300005F801BD704770477047704780B500BF1F
:1016400000BF024A11001820ABBEFBE726000200D3
:10165000944800688103C80F7047000081B091482A
:1016600001688903FCD5816802220A438260002157
:1016700002E000BF0099491C009100990629F8DB9F
:10168000816804220A43826001B07047854800687F
:101690008106C80F7047834800684104C80F70472F
:1016A000814800684107C80F704730B50D007F4C76
:1016B000002A0AD0FA218900FFF738FD401E68434E
:1016C00060600020A060052002E0206801218843BE
:1016D000206030BD70B50E0015000124012201000C
:1016E00073480068FFF7E1FFB047A84204D06F4895
:1016F0000068C003F8D50024002200210020FFF775
:10170000D4FF200070BDFFB501212022002818D091
:10171000AD480368E024A34313430360836D0624AC
:10172000A34302241C438465836B0B438363836B55
:101730008B438363836D0B438365806D084000900A
:1017400000980723A1480469A14DAC4218D1046850
:1017500000940468076805682D0D1D400395006816
:10176000000E1840029001250F26380C3040270A41
:10177000F0243C400194009C240A2640009604E09A
:1017800008200090702401940025924C0F26F64307
:10179000276B374038432063E06AF027B843019F46
:1017A0000743E762E06A064000983043E062382071
:1017B000002D0CD025689D43039E33402B432360AE
:1017C00023688343029DED0005401D4325603F23B0
:1017D000DB43A56F1D400A262E43A667A56F402652
:1017E0002E43A667E56F1D4004262E43E667E56F8E
:1017F00080262E43E667E56F4026B543E567A034B3
:1018000025681D40256065681D4010262E436660D2
:10181000A5681D402A43A260E2681A40302515439E
:10182000E56022691A40104320616069184039223E
:1018300002436261A06918403A220243A261E06952
:1018400018403B220243E261206A18403C220243D6
:101850002262606A03403D20184360625523FF20E6
:10186000C0437F4A146804401C431460D468044099
:1018700066252543D560146A044023431362136C24
:1018800003401D241C431464D36B034059241C43A0
:10189000D463536C1840322303435364506A0143AA
:1018A0005162FFBD000040481400504810E000E0C5
:1018B00030000020F8B505006B4C206880214902FB
:1018C00001432160012269496420FFF703FF0028DA
:1018D00001D10420F2BD28003025ED43614E2021C6
:1018E000E022D24303000BD14B0618681F68F02397
:1018F00003403807000F1843102851D10620F2BDCD
:101900007700401E06284AD801A31B5C9F4400BFF5
:10191000083C4856647280005548016829401023ED
:101920000B430360A0680240A2603800514E306053
:101930002068802189010143216001224E49C8208D
:10194000FFF7C8FE002834D10520F2BDA068024090
:101950001143A1603000E9E7A06802404020104335
:10196000A0607008E2E7A068024060201043A06019
:10197000B008DBE7A068024080201043A060F008B8
:10198000D4E7A0680240A0201043A0603009CDE752
:10199000A0680240C0201043A0607009C6E7FEE7BF
:1019A000A06802401143A160FFF758FE314806606D
:1019B00002E03068B84204D02D48006805402C4849
:1019C00005600020F2BD000008004048E81E00103D
:1019D000CCECBCFC4816006010B5FF2833D00429BD
:1019E0000CD005290AD0062908D0072906D00622DE
:1019F000D2439A4B032903D1002809D1012010BDFD
:101A0000012805D01C682240022414431C6005E014
:101A10001868024004201043186001208022D2057B
:101A200013681268F0241C401207120F2243102A78
:101A300009D18B4A012908D101280CD12A20106034
:101A400050680007FCD4002010BD022905D10128F0
:101A500003D12920F3E70028FBD02820EFE700007E
:101A6000481500600048E801000040485116041085
:101A7000041000403000002097160410F3B583B026
:101A800078487949086079490861794D28682021AA
:101A9000014329602868402101432960286880218A
:101AA0000143296001227349C820FFF713FE002873
:101AB00001D10120CFE0A8693021884320210143D2
:101AC000A9616D4CA068802149010143A1600026F5
:101AD0006A4B58696A4988421AD1186819681A68A5
:101AE0001F683F043F0F02971B6801270197D70922
:101AF0001E223A4000921B02FC2292051A40CB01A2
:101B0000E021890119408301F0208000184007E09E
:101B1000D80C10210091F02252050196C0214901F4
:101B2000E368584F1F403A43E260E26880231B0499
:101B30001343E3601E22D243019B002B09D0E368CC
:101B40001340029F7F001F43E760E36801271F43A4
:101B5000E7604D4B1F683A40009F17431F601A68AB
:101B6000012717431F601A68484F17403843186011
:101B70001868202202431A601868454A024011433F
:101B8000196018688021C90001431960A869802183
:101B900049000143A9613F48696A01406962A96A35
:101BA0000840A862A0683C49014080200002084328
:101BB000A060E06860210143E1602068042188435F
:101BC0002060206810218843206096277F00334DD5
:101BD000002229003800FFF77DFD002800D10226F1
:101BE0002068102101432160012229003800FFF7FD
:101BF00071FD002801D1022601E0300001D0300043
:101C000029E06846047CFF2C02D00120FFF77BFD11
:101C10006846057B22480168224A0A4080218901E2
:101C200011430160016880220A430260016870224A
:101C3000914330220A4302602800FFF73BFE010077
:101C400009D129002000FFF7C7FE010003D100F0F1
:101C500073F862B6002005B0F0BD00006000404897
:101C6000005000400000041008ED00E004000020D7
:101C700004005048A116041000004048E41E001063
:101C8000CCECBCFCFFFFFFC0940050483FFCFFFFC2
:101C9000FFC7FFFFFFCFFFFFFF7FFEFF8D16041082
:101CA00098004048FFC0FFFF10B5C2001823134042
:101CB000FF249C40E2438907090E9940030004D4A5
:101CC00016489B089B00C01806E0154B0007000F44
:101CD000083880088000181803681A401143016012
:101CE00010BD80B50F480068002814D10E48016867
:101CF000002902D1806A00280DD001200B4988609C
:101D000000F085F8BFF34F8F09480A490860BFF318
:101D10004F8F00BFFDE7012002BD000000E400E09E
:101D20001CED00E0940040481000504804000020E2
:101D30000400FA050CED00E080B503210020FFF758
:101D4000B3FF03210120FFF7AFFF03210220FFF7BC
:101D5000ABFF03210320FFF7A7FF03210420FFF7B8
:101D6000A3FF03210520FFF79FFF03210620FFF7B4
:101D70009BFF03210720FFF797FF03210820FFF7B0
:101D800093FF03210920FFF78FFF03210A20FFF7AC
:101D90008BFF03210B20FFF787FF03210C20FFF7A8
:101DA00083FF03210D20FFF77FFF03210E20FFF7A4
:101DB0007BFF03210F20FFF777FF03211020FFF7A0
:101DC00073FF03211120FFF76FFF00211220FFF79F
:101DD0006BFF03211320FFF767FF03211420FFF798
:101DE00063FF03211520FFF75FFF03211620FFF794
:101DF0005BFF01211720FFF757FF00211820FFF795
:101E000053FF03211920FFF74FFF01BD70477047B3
:101E100081B082490A6802430A600968084000905C
:101E2000009801B0704710B50B004B4301685C008F
:101E3000E418A14353430B43036010BD43688B4335
:101E4000514319434160704710B50B004B43816803
:101E50005C00E418A14353430B43836010BD30B5CD
:101E6000CB436F4C9025ED05A8421AD1002A03D030
:101E7000022A0FD007D330BD206818402060606868
:101E80000340636030BD60680340636020680143C5
:101E9000216030BD206803402360606801436160B9
:101EA00030BD002A03D0022A0FD007D330BDA0686E
:101EB0001840A060E0680340E36030BDE068034084
:101EC000E360A0680143A16030BDA0680340A36047
:101ED000E0680143E16030BD10B5090A0B004B43D7
:101EE0004B434B43416A1C01E41AA14353430B4348
:101EF000436210BD7CB506000420FFF789FF9025E2
:101F0000ED058024A400022221002800FFF78BFFAA
:101F1000022221002800FFF797FF0022210028005D
:101F2000FFF78CFF012221002800FFF798FF002215
:101F300021002800FFF7D0FF0420FFF769FF6408A5
:101F4000022221002800FFF76EFF02222100280054
:101F5000FFF77AFF002221002800FFF76FFF012220
:101F600021002800FFF77BFF002221002800FFF757
:101F7000B3FFA0002B490A6802430A6009680840C1
:101F80000090009828488B21C1600168274A0A40C8
:101F900002604168264A0A40426001680C220A43F6
:101FA00002608168234A0A4082608168224A0A40AE
:101FB00082608168C900C9088160016862050A43BE
:101FC000026041681D4A0A40426081682A229143AA
:101FD0008160016801220A43026031000ED0184975
:101FE0000E60016820220A43026016480168FF2241
:101FF000914340220A4302601348046073BD10B548
:102000000023124A06E014682406FCD5DCB2045D05
:10201000D4605B1CDCB28C42F5D310BD500040484C
:10202000200050485800404800400041FFE9FFEFC1
:10203000FFCFFFFFFFFCFFFFFFFFFFF1FFB7FFFF39
:10204000B400002008E400E000E100E01C40004192
:1020500070B50025012804D0022802D00020C0431A
:1020600070BD002901D1002070BD0C00160005E0F4
:1020700001212000FFF7C3FF641C6D1C3000461EC9
:102080000028F5D1280070BD01B501226946012064
:10209000FFF7DEFF009802BD826A714B134009030F
:1020A0001943816270470000F8B5FF210220FFF755
:1020B000E5FC002800D0FEE700F014F90020FFF74F
:1020C00019FF002000F0D6F9012000F0D3F965488F
:1020D000006800F049FA302063490A6802430A6048
:1020E0000968084000900098604EB06820210143C4
:1020F000B160B06801210143B1607068C02149013D
:1021000001437160F0693F21884327210143F16158
:102110007068574901408020400008437060706833
:10212000802109030143716070683C21884370601D
:10213000306A0F2188430C21014331624D490A68FE
:102140004D48C34314001C409C422BD0B46A20402D
:1021500013401843B062086800030016E0310968B4
:10216000002907D1410605D501217F22D243024330
:10217000881A01E00121081A404908700846002128
:10218000405601004031802904D300213000FFF780
:1021900083FF0CE0C1B23000FFF77EFF002037491B
:1021A000087004E0B16A084035490143B162022772
:1021B000B0683843B06018E010004242210000BF10
:1021C00034A000F0F3F9F764002000F0A6F96420D1
:1021D00000F0D7F9B0683843B060F06C800604D5E1
:1021E0002020F064012000F087F9F06C8007F4D51E
:1021F000706C80B200F0EEF90100224800F005FAA0
:1022000000F05CFA0022204BFEF7ABFF04000D004B
:102210001A4800214056E12109014843FFF72AF8F6
:1022200000221A4BFFF70AF922002B00FFF72CF8C7
:1022300000F05DFA050000F08BFA040000F0DAF916
:102240000100280000F0D9FA114900F0DEF900F091
:102250007FFA02002800B90500F028FBACD8ADE7F2
:10226000FF0FF8FF30000020580040480060004198
:102270007FFEFFFF1C1E001000F0FFFFBC000020CF
:102280005505000000006145E0FFEF400000303FD1
:1022900000007A444261747465727920766F6C74C0
:1022A0006167652025642E25303364206D560D0A44
:1022B00000000000094902E0084908E008494A68AE
:1022C00082434A600A6810430860704704490A68FC
:1022D00082430A604A6810434860704720005048B3
:1022E00028005048F8B50120FFF7E6FF0220FFF76D
:1022F000E3FF0420FFF7E0FF0820FFF7DDFF1020D9
:10230000FFF7DAFF2020FFF7D7FF4020FFF7D2FFCB
:102310008020FFF7D1FF80204000FFF7CDFF802015
:102320008000FFF7C7FF8027FF003800FFF7C4FFDA
:102330007C002000FFF7C0FF6000FFF7BDFFA0009A
:10234000FFF7BAFFE5002800FFF7B6FF26013000CF
:10235000FFF7B2FF0120FFF7B9FF0220FFF7B6FF3A
:102360000420FFF7B3FF0820FFF7B0FF1020FFF7AE
:10237000ADFF2020FFF7AAFF4020FFF7A7FF802036
:10238000FFF7A4FFE008FFF799FFA008FFF796FF0B
:102390003800FFF79BFF2000FFF798FF2800FFF7AA
:1023A00095FF3000FFF792FFF1BD704781B067499C
:1023B0000A6802430A60096808400090009801B06A
:1023C000704710B50B004B4301685C00E418A14353
:1023D00053430B43036010BD43688B435143194380
:1023E0004160704710B50B004B4381685C00E418F6
:1023F000A14353430B43836010BD30B5CB43544CD2
:102400009025ED05A8421AD1002A03D0022A0FD048
:1024100007D330BD206818402060606803406360C7
:1024200030BD60680340636020680143216030BDB7
:1024300020680340236060680143616030BD002A6A
:1024400003D0022A0FD007D330BDA0681840A06087
:10245000E0680340E36030BDE0680340E360A068EB
:102460000143A16030BDA0680340A360E068014360
:10247000E16030BD38B5010018D10420FFF796FFA8
:102480009024E4054020A061012240212000FFF7B4
:1024900098FF022240212000FFF7A4FF00224021E4
:1024A0002000FFF799FF0122402121E0294C01285B
:1024B00005D10820FFF77AFF80256D0006E002288D
:1024C00019D10820FFF772FF8025AD00A561012218
:1024D00029002000FFF775FF022229002000FFF7E6
:1024E00081FF002229002000FFF776FF012229004A
:1024F0002000FFF782FF31BD010002D140201649C4
:1025000009E01649012802D18020400003E002289A
:1025100002D18020800008607047010005D110487A
:10252000016840224A40026070470E49012803D1E9
:1025300008688022520004E0022804D10868802242
:10254000920042400A60704700000000500040487E
:10255000200050480000104828000048280010487B
:10256000140000481400104810B50F4CFA218900DF
:10257000FEF7DCFD401E60600020A06007202060A8
:1025800010BD81B008490A680092009A0022D24327
:10259000904202D0401C002804D00A68D203FCD527
:1025A000401EF8E701B0704710E000E00EB4C0B57F
:1025B000020003A801900020009001AB0121044813
:1025C00078440C30FDF77CFD029906B0084700BF47
:1025D000EB0300009D2102000AD002D4491E92188C
:1025E000FCD5C905100A1206524100D3012A484100
:1025F000704700009D210200EED55242F446FFF7DD
:10260000EBFF0122D2071043604730B405004D4074
:102610000122D20715404B180418240E2ED01B0E91
:1026200032D0FF2C34D0FF2B3AD0E418000209023C
:1026300010431143000A090A9446C2B24A43000AF1
:10264000C3B24B43000A4843110A5B181A43D2B283
:10265000190A091801D44918641E080A7F3C23DBB3
:10266000FE2C08DAE40509061143634699416041EE
:10267000284330BC7047FF20C005F9E728001B0E37
:10268000FF2BF6D1D043F4E72800FF2CF1D1F9E776
:102690004002F7D1FF2B01D14902F3D1E005E7E772
:1026A000D8054902E4D0EDE743020020641CDFD1E5
:1026B0005B129B1CDCD9D805DAE7704701221206B1
:1026C0000118CA420AD28A420DD8382212060909D4
:1026D0008918C20FD20711434007704700D049083C
:1026E0000909014301E0C10FC90700207047012219
:1026F00052054B18DA4201D9581570475B0D072275
:10270000D2019B1A10D9FF2B1DD2DB050122D20763
:102710000A4013430903020D1143490AC200524102
:1027200000D9491CC81870470AD1800A0A0302431D
:102730005212921C04D9D3070B40D005184370479E
:10274000C80FC0077047C80F0002FF30C0057047B0
:102750000122D2070118090E7F3910D449421F31D6
:102760000FD4001805D2C0011043C84000D5D04393
:102770007047C0011043C84005D440427047002054
:1027800070470042F3D5100070470122D2070300C2
:102790004B402ED4431A01D2C01AC91830B44B187A
:1027A0000418240E1B0E22D0FF2C20D0E31A182B65
:1027B0001DDC09021143C40D641E0002104394463F
:1027C0001925ED1A0A00AA40D940451801D36D0811
:1027D000A41CE405D209280A2D062A436546AA410D
:1027E000604103181B0EFF2B01D3C00DC00530BC88
:1027F0007047514006E05140CCE70122D207030068
:102800004B40F8D4431A03D2C01AC9185040514063
:1028100030B44B18090211430418240E1B0E40D08B
:10282000FF2C3AD025009D410BD31ED8C50D400288
:10283000401A0BD3ED050100400AC90591416841DA
:10284000D5E7C50D40024918401AD0D001214008F3
:10285000491C0018FCD58C4204D36D1A000AED0502
:102860004019C4E7E8051040C1E7182DBFDCAC1CD7
:102870000D00E140E5414D40012D4941C40D0002EC
:102880001043451A01D46D199543641EE405280AC6
:102890002D069541604130BC7047FF2BA7D1D8432E
:1028A000A5E72442A3D10020A1E770470CB4012280
:1028B00012060318DA4207D84B18DA4204D802008D
:1028C0000A43921802D281420CBC7047FCD0884265
:1028D0000CBC7047686A6C747A4C00007072696E48
:1028E00074665F733A20256E20646973616C6C6F47
:1028F000776564007072696E74663A206261642064
:10290000256E20617267756D656E74007072696EF8
:1029100074665F733A206261642025732061726778
:10292000756D656E74000000000000006E616E0041
:102930004E414E00696E6600494E460030007047B9
:1029400010B5074979441831064C7C44163404E02C
:10295000081D0A68891888470100A142F8D110BDF6
:102960000800000024000000D7E5FFFFD5000000AC
:1029700014000000C0000020C7E5FFFF9500000024
:102980006000000030000020FFF7ABF9002801D004
:10299000FFF7D6FF00BF00BF002000BF00BFFFF75A
:1029A00083FB00F000F880B500F002F801BD70472D
:1029B00007463846FEF742FEFBE738B505000C0037
:1029C0002000FFF761FBA04200D00025280032BDA7
:1029D00000BF00BF00BF00BFFFF7D6FF0078401E5A
:1029E0008041C043C00F7047FEE770477047704793
:1029F000704770477047704770477047704770471F
:102A0000704770477047704770477047704770470E
:102A100000F006070090D003102A04100452FF01B2
:102A2000E3421014100100009A14F0071601000090
:102A3000003400002000016002DD2904102CE201B6
:0B2A400035F2FF0001F1FF01F16A0117
:04000005100429D1E9
:00000001FF
