:020000041004E6
:1000000000600020AD040410FD0304100904041076
:10001000AA5555AA45554C420000000000000000BA
:100020000000000000000000000000001D0404109B
:1000300000000000000000002B0404101F04041046
:100040008B04041097040410B9040410BB040410BA
:10005000000000000000000000000000BD040410CB
:1000600021040410BF040410C1040410C3040410CC
:10007000C5040410C7040410C904041025040410A6
:10008000CB0404102304041029040410CD0404102C
:1000900027040410CF040410D1040410D304041066
:1000A000D5040410D7040410D9040410DB04041090
:1000B0000000000000000000000000000000000040
:1000C0000023DB4300E0001D884204D202689A420C
:1000D000F9D0012070470020704780B502000B1A4C
:1000E0005B1C00214C4800F0C1F801BD70B590B018
:1000F0004A484B4A4B494C4B1C68002C02D10C68B7
:10010000002C1AD0494C1D68A54202D10D68002D63
:1001100013D01D68A54202D10D68A5420DD000255F
:10012000ED431E68002E02D10E68AE4205D01E6857
:10013000A6422FD10E68AE422CD116003C49FFF7E3
:10014000BFFF002803D05C212F20FFF7C6FF3948EE
:1001500000683949884258D13848816D012291435D
:10016000816537490A6830239A43102313430B6093
:100170000168E0229143016030001830006805906A
:10018000304D07AB08AA014630002C68A047002874
:1001900021D0FEE71E68002E02D10E68A6420BD0C9
:1001A0001E68AE4202D10E68002E05D01E68AE4217
:1001B0000CD10E68A64209D10600411E1000FFF7BF
:1001C0007FFF0028C3D02E210120BEE71868A84277
:1001D00000D10868FEE71C4C06A804900320039099
:1001E00008A8029005983018019018480090042340
:1001F000174A010D17486D68A847A04204D1069818
:1002000044401548844200D0FEE7301D0068316844
:1002100081F308888047FEE7001000400078051051
:10022000000804101078051010080410AA5555AAEB
:10023000FFE70610001800100BC11CEC0800404836
:100240000410004028000010EB0300000818001004
:10025000081A0010081900103A3A3A0000690840DC
:10026000884201D10120704700207047F8B5050091
:100270000F26FF2909D12E612220286001212800A4
:10028000FFF7ECFF0128F9D1F1BD17003C00009306
:1002900006E001212800FFF7E1FF0128F9D1641CE5
:1002A000009838188442EFD22E61E0028003000CDF
:1002B000A86111202860ECE7EFF31482EFF30981C5
:1002C000002080F31488BFF36F8FF0B543464C468F
:1002D00055465E466746F8B40F4CEFF308836360FB
:1002E00006B4BFF34F8F30BF00BF00BF0A4C646835
:1002F00084F3088882B003BCF8BC9846A146AA469D
:10030000B346BC46F0BC04BC80F3098881F3148872
:10031000BFF36F8F1047000004000020002300246B
:10032000104AA5005351641C0A2CFAD31160506086
:100330000223C026F60199004418083CE0252D064A
:100340006519B54201D2246854505B1C0A2BF2D3C4
:10035000BFF34F8F044805490860BFF34F8F00BFBC
:10036000FDE70000340000200400FA050CED00E079
:1003700080B50E480068002814D10D480168002996
:1003800002D1806A00280DD001200A498860FFF759
:10039000ADFFBFF34F8F084808490860BFF34F8F88
:1003A00000BFFDE7012002BD0000000094004048AE
:1003B00010005048040000200400FA050CED00E095
:1003C00030B501684118446862088A188368E407F8
:1003D00004D54C461B1901E0641C06D191420BD098
:1003E0000C7864B2491C0D78491C1D705B1C002CF4
:1003F000F2D4641EF7D5F1E70C3030BD0549EFF3B8
:100400000880FFF78BFFFEE70349EFF30880FFF753
:1004100085FFFEE70100ECBC0200ECBC70477047B2
:1004200070477047704770477047704710B507496D
:1004300079441831064C7C44163404E0081D0A68DF
:10044000891888470100A142F8D110BD08000000BA
:10045000140000006DFFFFFF840000001C0000007E
:10046000C0000020FFF784FF002801D0FFF7DEFF67
:1004700000BF00BF002000BF00BFFFF737FE00F045
:1004800000F880B500F002F801BD70470746384615
:1004900000F002F8FBE7704780B500BF00BF024ADA
:1004A00011001820ABBEFBE72600020000BF00BF12
:1004B00000BF00BFFFF7D6FF704770477047704717
:1004C0007047704770477047704770477047704774
:1004D00070477047704770477047704781008100D0
:0A04E0008100810081008100FE0010
:04000005100404AD32
:00000001FF
