:020000041004E6
:10000000B85F002059AA041009A4041015A4041014
:10001000AA5555AA45554C420000000000000000BA
:10002000000000000000000000000000E567041070
:100030000000000000000000A7670410ED65041038
:10004000F31204102F200410432104108721041000
:10005000000000000000000000000000A7360410AF
:1000600021A404108F500410DF58041053690410A9
:100070006B6E041095340410C36E041025A4041094
:10008000EF6E041023A4041063A40410777004100E
:100090004FA4041003720410A77404102FA40410BA
:1000A00027A40410B1A40410EF760410F37A04100E
:1000B0000000000000000000000000000000000040
:1000C000FEB51C00089FAA4D6B465870684601702B
:1000D00016001CE00422A9192C3101A800F0DEFF53
:1000E000002F0FD101A8C07869464978884209D10C
:1000F0006846007806280FD06846007801A98978FC
:10010000884209D0684680883618B6B20027688DC4
:100110008642DFD10020FEBD002C00D026800120C9
:10012000FEBDF8B584B004000F001600904D607B52
:10013000002802D12A8D002300E0E289009301AB60
:1001400001212078FFF7BCFF002801D1042019E02D
:100150000120607368468088E081684680882C189A
:10016000062221002C3102A800F098FF2000323036
:10017000386068460089801F308002A800790A999B
:100180000870002005B0F0BD7CB5794D298D6A4618
:1001900091800021060019E0684680882C1804220E
:1001A00021002C31684600F079FF00F01CFC694604
:1001B0000988421A61182C3120002C3000F084FF8D
:1001C000688D69460988401A68850121009101AB54
:1001D0006846828806213000FFF772FF0028DBD1D5
:1001E00073BD8B4A514380081B2242438818253037
:1001F000704770B506000D00EFF310840DE0012389
:1002000032780021834800F089FF84F31088307829
:10021000401C30702878401E2870287800280BD0A9
:1002200001210020FFF7DDFF72B600F09DFF0028DE
:10023000E5D184F31088072070BD01680022028197
:10024000428182730B78FF2B05D0FE2B09D10389E5
:100250005B1C03810AE04268511A091F818100205A
:100260007047002B0DD143895B1C43814A88D21C07
:10027000032313435B1CC9184A1D43689A42E1D308
:10028000EDE703207047FCB585B00D9F427B002A47
:100290001BD10C9A130005D002AB5A80FE221A70B3
:1002A00002AD00E04568426883689A4215D26A460A
:1002B00091712978FF292E4E01D10EE020000021F6
:1002C000027B002A12D001731EE000970123069AD8
:1002D0000599FFF726FF002847D0042045E00320BA
:1002E00043E06A786B469B799A4216D042686B88E5
:1002F000DB1C03241C43641C15194560826895426D
:10030000E3D22A78FF2AE0D02A78002AEED0FE2A0B
:10031000E5D16A469279FF2AE3D1328D6B469A8005
:1003200004000CE008226846808831182C3103A8AC
:1003300000F0B4FE049861688842BFD001210091AA
:1003400001AB6846828802212078FFF7B9FE0028B9
:10035000E8D16068001D05990860688806990880E2
:10036000002F01D068783870002007B0F0BD000081
:100370002C1D00207FB515001C00099E0022328034
:100380000B9A01926A46128D009202AB03AAFFF704
:100390007AFF010013D1694609898D4201D30620F5
:1003A0000DE0089A481B904200DA020020000399F1
:1003B000491900F073FE684600893080002004B0BF
:1003C00070BDFEB5704D0D40491B6B461970002481
:1003D000070016000AE00422311901A800F05EFEB1
:1003E000019A39190B4800F087FE241DAC42F2DB5C
:1003F0000020C043019068460278711901A800F0FE
:100400004DFE019A7919034800F076FEF7BD000011
:100410003423000000100040FFB585B000270E9A7D
:10042000178069460C8C417B002919D00097002366
:100430000E9A01A9FFF775FE002846D10E98008894
:100440006946098B421A6846008C824200DB220012
:1004500001986946098B4118079800F01FFE50E08B
:100460000F990A0005D002AA5180FE21117002AD39
:1004700000E0456841688268914202D22978FF29EC
:1004800001D104203EE0027B002A1ED1FE291CD1AE
:100490003E49098D6A46918006000120009001AB1B
:1004A0006846828802213078FFF70AFE00280ED0C5
:1004B000082236486946898841182C3103A800F083
:1004C000EDFD049871688842E7D105201AE068467E
:1004D000008B6988884201D3062013E03773684691
:1004E000008B69880A1A6946098C8A4200DB22005F
:1004F0007168091D0918079800F0D0FD68880E99E9
:100500000880002009B0F0BD38B5050000210420A6
:10051000FFF767FEEFF3108472B600F025FE0028A7
:1005200003D184F31088072032BD2900FF22D24373
:10053000A84800F0E1FD84F31088002032BDF8B532
:1005400007000E00150000F089FE00281BD0681E71
:10055000A1490143491C4B031B0EA0483818C20A8D
:1005600000219C4800F0DAFD00240AE06010800FB2
:1005700000198010800032583919964800F0BCFDEF
:10058000241DAC42F2D3F1BDFCFF00002C1D002065
:10059000012101700021418081807047F8B58AB047
:1005A00005000E0017001C0000200090FF223900FB
:1005B000300000F067FEFE2069460876099508962F
:1005C0000794109D009C06AE1AE06846008A698870
:1005D000401A401E03240443641CA4B26888694680
:1005E000098A091A4A1E03211143491C89B2059A36
:1005F0008A4244DB01209142287049D00020688063
:10060000381B001F80B205902878002828D0701C65
:100610000390A888029004A80190059880B20090E9
:100620000898001D03190022FF210998FFF7A2FE78
:100630006946098AA98001000ED16846008A708047
:10064000042206A90898001900F028FD7088C01C33
:10065000032101436418BFE707990C800BB0F0BD7C
:10066000A888019004A80090059883B20898021900
:1006700069880998FFF7D0FE0100A6D0EEE70021B7
:100680002970059940186880079807800020E5E7E1
:100690000020F8E7F1B58C4885440027CB48842139
:1006A000090169440978142251434118019149898B
:1006B000002901D100208AE000970023028D062145
:1006C0008420000168440078FFF7FAFC002801D07C
:1006D00009207CE0202000F08CF9002801D10820BE
:1006E00075E006A9842000016844007800F01AFB38
:1006F000079C04A8FFF74CFFEFF3108604A803C87B
:100700000AAA03C20CA806A9102200F0ADFC04A896
:10071000009003AB8022120110A906A8FFF73EFF4C
:100720000500042D08D0002D51D168468089802114
:1007300009018842E2D103E068468089002816D08A
:10074000012168468089FFF74CFD72B600F00CFD70
:10075000002829D06846828910A92000FFF7EFFE03
:1007600086F310880127F8022418002DC6D00898B7
:10077000401E19490143491C081BC00A69464870BC
:1007800016482018C00A0870491C6846FFF731FD5A
:10079000072819D16846427801788420000168440E
:1007A000007800F0B1F912E086F31088002F01D133
:1007B00007200CE00AA803C80190029100940CA83D
:1007C0000FC800F072F902E00198FFF736FDCC493E
:1007D0008D44F0BD00100040FF0700000000FCEF5A
:1007E000F8B5C84CA54480273F010500EFF31086FB
:1007F00002A829001831062200F050FC04A8291D87
:10080000102200F031FC28001830009001AB3A00B3
:1008100008A9281DFFF7C2FE040068468088B84278
:1008200005D0002CE4D068468088002816D000212E
:1008300068468088FFF7D5FC72B600F095FC00286A
:1008400029D06846828808A96869FFF778FE86F390
:1008500010886869C0196861002CC9D0E868401E1A
:10086000791E0143491C6869081AC00A6946487024
:100870006869B4494018C00A69460870491C68464E
:10088000FFF7B7FC072815D1684642780178287928
:1008900000F03AF915E086F31088281D04A910220B
:1008A00000F0E2FB2800183002A9062200F0F6FB57
:1008B000072006E045482979142251434018FFF7E4
:1008C000BCFCC6498D44F0BDC0F7FFFFF8B58D4CA8
:1008D000A54400216A469171002400253B4F060083
:1008E00000E06D1C3079854216DAB0680C2169434E
:1008F000405C01001422514379184989002900D035
:1009000001240021009100233A8D0621FFF7D8FB36
:100910000028E6D0092055E03500002C24D080279F
:100920003F013A00FF2108A800F0D9FC00240DE0A7
:1009300002A8FFF72DFE02A8009001ABBA1B92B2ED
:1009400008A8811904A8FFF729FE641C28798442AD
:100950000CDAA8680C226243011D8E5804A9805C41
:1009600000F0E0F90028E3D000202BE0012138005E
:10097000FFF737FCEFF3108672B600F0F5FB0028A6
:1009800003D186F3108807201CE03A0008A92868E4
:10099000FFF7D5FD86F3108800260C4F6846847952
:1009A0000CE0A8680C217143405C142148433818BE
:1009B000FFF743FC010000D00400761C2879864232
:1009C000EFDB200085498D44F0BD00002C1D002088
:1009D000C1498A79824201D102207047897C8142D3
:1009E000FAD000207047CE48418D008D081A80B2A1
:1009F000704770B50400FFF7F6FF05008020400047
:100A0000411BA14201DA002070BDC54E718D401A14
:100A1000A0420BDA2A0030002C30318D4118300012
:100A20002C3000F051FB002030857585012070BD11
:100A300070B50C00BA4D6E8D80214900891B2200D3
:100A4000914201DA002070BD0100A8192C3000F09D
:100A500025FB30196885012070BDFEB504000D002E
:100A6000099F581E03210143491C684601800088E4
:100A7000C619B61DB0B2FFF7BCFF002801D108208F
:100A8000FEBD01A8012181700680C4700571062198
:100A9000FFF7CEFF684601880898FFF7C9FF3900C5
:100AA0000A98FFF7C5FF0020FEBD1FB588B02020C3
:100AB000FFF79FFF002801D108201EE00E9C68462A
:100AC0002021018003218170001D08A9102200F05F
:100AD000CBFA0594684618300FA9062200F0DEFA1A
:100AE00020216846FFF7A4FF01208D4908AA12784B
:100AF00014235A438918887300200CB010BD0000DD
:100B000044080000E0F7FFFF7CB504000D0016006C
:100B10000620FFF76EFF002801D1082076BD684649
:100B20000621018004218170C4700571467106217F
:100B3000FFF77EFF01207A49142254430919887374
:100B4000002076BD0000FCEFF8B5944CA5440700EA
:100B50000D0080221201FF2108A800F0C0FB002434
:100B60001BE00C266643A868805DB84214D004A937
:100B700000F0D8F8A8688019466802A8FFF708FDB9
:100B800002A8009001AB80200001821B92B208A84D
:100B9000811904A8FFF702FD641C28798442E0DB78
:100BA0002E0080252D0101212800FFF71AFBEFF30D
:100BB000108472B600F0D8FA002803D184F31088AC
:100BC000072007E02A0008A93068FFF7B8FC84F383
:100BD0001088002001498D44F0BD00002408000069
:100BE000FBB582B003236E495218032515436D1CD3
:100BF0000CE03778FF2F17D0FE2F01D0002F2BD11C
:100C00007288D21C1A43521CB2184260826846682D
:100C1000741D9442EDD342490078142250430818C1
:100C2000408900281AD015E00190901B884200D31B
:100C300008003B4C80B2A9B26A46128D8918091D82
:100C400088420DDA01980078142148432018408921
:100C5000002803D00B203DE003203BE0022039E0D8
:100C60006846007BFE216A461170694648706846F6
:100C7000008D281848800021001D80B2FFF7B1FACE
:100C8000EFF3108772B600F06FFA002803D187F3F4
:100C9000108807201EE0009A31007C4800F02CFAF2
:100CA000049AA9B2301DFFF78CFB0B9A6846018DA0
:100CB000ADB27019001DFFF784FB87F31088200088
:100CC0000830019909781422514340180188491CC1
:100CD0000180002005B0F0BDFCA9041010B500246F
:100CE0006C480C21614341188A79694814235343A5
:100CF000C0180368002B11D1012A0FDC0A680260BA
:100D00008B88D218426009890182FFF796FA0100A8
:100D100005D1641C012CE3DD002010BD012010BDB5
:100D20002C1D002010B50200022A01DB012010BD9D
:100D3000574B142462439A1813684B6052688A60B8
:100D400001220A7308700020487310BD7FB5504C13
:100D50000578142675436419A47B002C01D00A2061
:100D600008E003940294099C01946C46248C00943E
:100D7000FFF700FB04B070BD7CB5454C0578142628
:100D800075436419A47B002C01D00A2076BD019420
:100D9000069C0094FFF740FB76BD0000E0F7FFFFE4
:100DA000FFFF0000F0B585B0060030786C4620717A
:100DB000374D68460079142460432818847B002C42
:100DC00001D0092041E0521E03241443641C87898A
:100DD000BC46A7B26A46128DBA18944506DA408915
:100DE000002801D00B2030E002202EE0684601737D
:100DF00004930B9F0020009000232A8D0621684653
:100E00000079FFF75DF9002821D002976846008D30
:100E1000019004980090A3B272686846017B307814
:100E2000FFF71BFE010010D128000C30317814228E
:100E30005143401801886A46128DA218521E03239E
:100E40001343C91A491F0180002005B0F0BD019766
:100E50006846008D0090049BA2B26846017B30007A
:100E6000FFF7BEFE0100DFD00728EED102976846EB
:100E7000008D019004980090A3B272686846017BCF
:100E80003078FFF7EAFD0100CED0DEE70010004029
:100E90002C1D0020FCA904101CB504006946FFF7B6
:100EA00097FD022803D12000FFF7F4FB16BD0128AF
:100EB00003D10098FFF70AFD16BD012016BDF0B55D
:100EC0008BB00027664C208D618D884238D0251864
:100ED000042229002C3102A800F0E0F802A8807852
:100EE000012808D006D3032869D051D3052800D1A2
:100EF00090E071D3B2E0062229002C3103A800F063
:100F0000CDF805A903A8C078FFF70CFF019700975B
:100F1000208D2318323368468089821F92B203A83D
:100F2000017905A8FFF75CFE050053D1208D6946C5
:100F3000098940182085618D80B28842C3D1A7629B
:100F4000484800214156C8B214224243A21853898E
:100F5000002B03D09389128A934213D3401CC0B252
:100F6000022800D100208842EED100210020C04399
:100F70003C4A1170010602D4C0B2FFF78DFF002079
:100F80000BB0F0BD411C4AB2022AF1D10021EFE7BB
:100F9000082229002C31684600F080F80198FFF7FC
:100FA000B3FA050016D16846C078142148432018CA
:100FB0000189491E01814189491C4181B6E72022EE
:100FC00029002C3103A800F069F803A8FFF708FCFA
:100FD0000500ABD02800D3E7062229002C31684653
:100FE00000F05CF86846411D001DFFF702F905009E
:100FF0000622694620002C30238DC01800F04EF8E0
:10100000002DE7D16846C078142148432018FFF727
:1010100014F98BE7082229002C31684600F03EF8CD
:1010200001996846C078FFF78FFD0500D2D10025F1
:10103000019801798D42ECDA80680C216943465CA5
:1010400030006946C978884201D0FFF79DF8142026
:101050004643A019FFF7F1F86D1CE9E70C208FE774
:101060002C1D00202222002070B4103A03D378C92E
:10107000103A78C0FBD2530701D318C918C001D564
:1010800008C908C0D20704D30B880380891C801CC0
:10109000002A01D50B78037070BC70478B0701D113
:1010A0008307E1D0124205D00B78491C0370401C25
:1010B000521EF9D1704710B54C788A780878CB1C4D
:1010C0002146C046C04610BD814202D25318984204
:1010D00003D300B5FFF7E2FF00BD521E03D38B5CC4
:1010E0008354521EFBD2704700690840884201D1E8
:1010F000012070470020704710B50F23036189035A
:10110000090C816102643321FFE7016004000121C1
:101110002000FFF7E9FF0128F9D110BDF8B505005F
:101120000F26FF2909D12E612220286001212800E5
:10113000FFF7DAFF0128F9D1F1BD17003C00009359
:1011400006E001212800FFF7CFFF0128F9D1641C38
:10115000009838188442EFD22E61E0028003000C20
:10116000A86111202860ECE758B5040000F072FA7D
:101170000600684600F01CFC002803D00098801B85
:10118000844201DA012052BD002052BD10B5FFF7A4
:10119000A5FD314C211D0020FFF7C4FD21001431B5
:1011A0000120FFF7BFFD201D206010BD3EB52A4C79
:1011B000022802D12500143500E0251D2560019389
:1011C0006B461B8B00930B0001002068FFF7EAFDC4
:1011D000002805D0022801D1002000E00120C043F2
:1011E0003EBDF8B584B00E0019001B4C022E03D191
:1011F00025001435012301E0251D0023070025608B
:1012000028466D466A8103910A9D022F08D102A9E2
:1012100000912B00039A69464989FFF7ADFD0FE065
:10122000002F03D101001800FFF77CFD02A80190F8
:101230000095039B6846428931002068FFF786FDD0
:10124000010001D1002005E0042801D1022000E0C6
:101250000120C04305B0F0BD48200020A446521E26
:1012600008D303780C78401C491CA342F7D0181B04
:101270006446704700206446704710B50888C04631
:10128000C04610BD1206130A1A43130C1A4300BFBE
:10129000094205D083070BD00270401C491EF9D1CA
:1012A000704700001206130A1A43130C1A4300BFBA
:1012B0001300103906D330B41400150010393CC0A7
:1012C000FCD230BC490700D30CC000D504C0890053
:1012D00002D30280801C002900D50270704710B52F
:1012E00004000800110002002000FFF7CBFF2000DF
:1012F00010BD7047F3B589B000250D700998807A4C
:1013000000285CD0944803C8944A1268002312183D
:101310004B4106A80CC0EFF31080029072B600F0AB
:1013200011FD02000B00099803C804AC03C404A813
:1013300003C80090019106A803C8C826B60200277A
:1013400036184F4100980199B9420ED301D8B042E6
:101350000BD306A803C8B9267600002736184F41DC
:101360009F4229D801D3964226D2012400200A3276
:10137000434104A803C800264C38B1418B4213D81E
:1013800001D3824210D20998027A037B04A803C8D1
:10139000190000F062FD0A99087009988572099891
:1013A00044720998C47207E0A9488572029880F3D4
:1013B00010880A98047002E0029880F310880BB03D
:1013C000F0BD80B500F05AFC01206449087101BDF0
:1013D000F8B507000E003C000020307000E02469E2
:1013E000002C1FD0207B0028F9D0EFF3108572B6B7
:1013F00000F0A8FC02000B0003CC083C801A9941C5
:10140000002906DB01DC012803D3012100F00AFDDD
:1014100001E00120307085F310883078002801D079
:101420003800F2BD2000F2BDFEB500256C462570E7
:10143000017B002901D00120FEBD0CC0083801212C
:101440000173464CA6680196070001E03500366935
:10145000002E08D00CCE083E03CF083F8B42F5D3B8
:1014600001D88242F2D338000661002D01D10190EB
:1014700000E028610199814213D16946FFF7A8FF76
:10148000A0606846007800280BD0EFF3108072B699
:10149000217D4A1C637D9A4200D0491C217580F34E
:1014A000108868460078FEBD10B52C4C002808D086
:1014B000207B00280BD120001830FFF782FF01208D
:1014C00004E02000183000F08CF80020207310BDDC
:1014D000FEB500F071FC924D00246C726C81EFF34C
:1014E000108672B600F02EFC6A4603C200F08BFC38
:1014F00007000CCD684603C8121A8B410021D21B8D
:101500008B4186F3108804DC01DB012A01D2012023
:10151000FEBD002B04DC01DB0F2A01D20220FEBD40
:101520000020FEBD18B57F4801687F4A0A4002606E
:101530000A490A7D531C4C7DA34200D0521C0A75F7
:10154000C16901220A43C261C069009011BD002037
:101550007349C87270470000F021002070210020FC
:1015600010B5FFF761FF04000120FFF79DFFE0B217
:1015700010BDF8B504000D0000F0E4FB06000F00FC
:10158000290D28030A22002300F01CFD801979414F
:1015900002000B002000FFF747FF04000120FFF7C7
:1015A00083FFE0B2F2BD38B5030000256846057040
:1015B000274C217322725D4803C81A1A002312189F
:1015C0004B410CC4083C6572E5720120A07269466B
:1015D0002000FFF78FFE0120FFF766FF68460078C6
:1015E00032BD7CB50300AA4CA2681500002100267C
:1015F000100001E02E002D69002D09D09D42F9D187
:1016000001932B69954201D1180002E0336100E09B
:1016100001936D462970019B1973824214D069466B
:10162000FFF7D6FEA0606846007800280DD0EFF3E3
:10163000108072B6217D4A1C637D9A4200D0491CFD
:10164000217580F3108873BDA06073BD0000000099
:101650000822002080B500F075FB04BD00B5801A9B
:1016600099410A22002300F0E3FC000B0A05104315
:10167000090B00BD7CB5060000F068FC802040032B
:10168000844908606846B17881707168002900D08B
:101690000121C1703188018000F087FA234800F0F1
:1016A0006FFB7B4D0024AC6001202873706800281C
:1016B00000D00120A8750020E875194A50725081A9
:1016C000002103C230882861AC82706800030A21BF
:1016D00000F0E0FC28602C71AF4E002804D13000EF
:1016E00000F050FC28600AE0300000F04BFC296854
:1016F000814203D3300000F045FC01002960A74877
:101700002862EC6200F01EFB2A68002312184B418D
:1017100028001830FFF788FE286800F042FB73BDF0
:101720000822002030180060FFFFFFBFF0210020DA
:10173000F8B584B0002469460C70EFF3108572B6DA
:101740009748407A00280AD000F0FCFA944A0CCA64
:101750008B4204D801D3824201D29148447285F36E
:1017600010884B4F22E0401C19E0046900210173EE
:101770008168002900D088472000F6D16946B86802
:10178000FFF726FEB8606846007801280AD1EFF31B
:10179000108172B6387D421C7B7D9A42E3D1387548
:1017A00081F31088787D039940187875787D397DAC
:1017B0000A1A02D2802040001218002A28D0039270
:1017C000BC68002602940194002502E026002469EA
:1017D0006D1C002C0FD0207B0028F7D000F0B2FA4F
:1017E00002000B0003CC083C801A99410029EDDB74
:1017F00001DC0628EAD3002D03D0002030610294DA
:1018000001E0002001900298B86001980028B4E738
:10181000214C3879002824D000F03CFA002834D13B
:101820003871B97D002904D1F97D002901D0F875FE
:1018300004E000F041FA200000F0A2FA694658489E
:10184000FFF758FD38001830FFF7CBFE00F07AFAAA
:101850003A68002312184B4138001830FFF7E4FDB6
:1018600013E0207C002810D000F06CFA0CCCFA2495
:1018700064030025A4185D418D4206D801D384423B
:1018800003D200F0FBF90120387105B0F0BD000073
:101890007021002000E100E0F021002070B586B04A
:1018A000050000F06DF8002868D002A800F092FA58
:1018B0003C4C3B4E717A002902D1B17A002901D00B
:1018C000012802D1F17A00291ED000F03BFA04AAC7
:1018D00003C200F098FA020003CE0090019104A820
:1018E00003C8002312184B41206900218018594178
:1018F00000221E305141009A019B8B4225D301D812
:10190000824222D3022503E002281ED001281CD0E7
:10191000A068002831D0007B00282ED000F012FAF9
:1019200002000B00A66803CE083E009001912069DA
:1019300000218018594100221E305141009A019B1C
:101940008B4204D801D3824201D2012016E0032D3C
:1019500012D1306900280FD12000183086420BD1F7
:101960000120E0750020FFF79FFD0F4801680F4A36
:101970000A400260032001E00225280006B070BD85
:101980000848017D427D914204D10079401E80418A
:10199000C00F704700207047FFEFFFFFC313041014
:1019A000082200207021002030180060FFFFFFBFD8
:1019B00003490968CA680260087C00097047000092
:1019C000D4180020A948816801220A4382600021BE
:1019D0000160704730B5A64BA4490A681A400C68EC
:1019E0001C40A242F9D1002AF7D0A24B14125C434A
:1019F000D5B25D432B12E31810335B114362826151
:101A00009D4A4B6813404C681440A342F9D1002B07
:101A1000F7D09911A34A5143803109120162C36181
:101A200030BD10B50400FFF7CDFF9F480068C00728
:101A3000FBD52000FFF7CEFF10BD68214143090A06
:101A4000DB225043000C0818704780B5FFF7F5FF04
:101A500092E2FEB504000A00EFF3108772B603CCE1
:101A6000083C924B1B681360914E0090019132002C
:101A7000616AE06A181A00F065FB0021009A019B78
:101A800080185941AE4D2A0038320CCA99420FD8FD
:101A900001D390420CD2009001913200616A002083
:101AA000C04300F04FFB0021009A019B8018594170
:101AB0002A00383203C287F3108803B0F0BD70B536
:101AC00006007C4C607A7D214843C90000F0DFFAB3
:101AD000451CEDB2A94A316A1B2000F033FB20708F
:101AE00041366078FFF7B1FF3072E0784019FFF7B8
:101AF000ACFF307020794019FFF7A7FF7070607954
:101B0000FFF7A3FFB070A079FFF79FFFF07070BDE3
:101B1000FEB5040065480568A76A654E32003900C5
:101B2000206B281A00F00EFB02002000083003C8CA
:101B30000090019110000021009A019B80185941EA
:101B400003C4083CA1480078002811D1206B281A52
:101B5000616B88420CD2320039000020C04300F093
:101B6000F1FA0CCC083C00218018594103C4083C10
:101B7000E562256303CC083C2200083203C2606A98
:101B8000A062F7BD80B57D4A00F0DCFA8949884241
:101B900001DD080002E0102800DA10206849001179
:101BA0008882888A9949086001BDF8B50700644CAD
:101BB00038882061964880797D214843C90000F02B
:101BC00066FA461CF6B2F878002802D1B8780028E8
:101BD0000DD09048C168C907FBD5016817220A4398
:101BE00002602000FFF71DFF606AA06209E0C820C4
:101BF0004003A0626062884820628848A0618848EB
:101C0000E06125004035F8782870216A206980B2AB
:101C1000FFF7B8FF00220020A872002103C4083C8F
:101C2000224B1B68E36223632300383303C3230082
:101C3000083303C3EA722000FFF741FF744C207899
:101C40008019FFF7FAFE1B30687160788019FFF782
:101C5000F4FE1B30A871A078FFF7EFFE1B30E8718F
:101C6000E078FFF7EAFE1B302872F1BD0810006033
:101C7000FFFF0700F6BC0800FFFFFF07534800788E
:101C8000002806D0B848816801220A4382600021FA
:101C90000160704704480068C107C90F012048402F
:101CA000704700005307000010100060101800601B
:101CB00035060000C500002038B594B0204C402007
:101CC000205C002831D0684621005022FFF7CCF973
:101CD0006846FFF77FFE0899049880B2FFF752FF2D
:101CE0006846FFF7ECFEEFF3108572B62000403037
:101CF0000121C1720699A1610799E16108992162E8
:101D0000099961620A99A162694641228A5C42701E
:101D100042228A5C827043228A5CC27044228A5CBE
:101D200002714922895C417202E0EFF3108572B6BC
:101D30002000FFF7EDFE85F3108815B030BD0000E0
:101D40007020002080B569469148FFF782FE04BDEF
:101D5000F8B505001E4C69462000FFF77AFE060024
:101D60000F008C4A616A0098401B00F0EBF90023D9
:101D70003900301A9941F4BD00000000260300002C
:101D80000200834B4020185C1074D869D0601800A2
:101D9000083003C803C2083A98699060186B506114
:101DA000704710B50A4C7C4A216A00F0CBF9606399
:101DB00010BD0000FF0F000000207849086078483F
:101DC0000168784A0A40026070470000B020002095
:101DD0007020002074494A68520003D509680160E8
:101DE000032070476D490A68022A03D149680160DF
:101DF000012070470A68032A03D149680160022064
:101E000070470020704769480078704708180060E4
:101E1000C800002004100060C2F528008D5B00009F
:101E2000ECEB650180B55C4A5949096A00F08AF912
:101E30000100212901D3083100E028215C4A106803
:101E40004118D161916980239B050B439361116A0D
:101E50008023DB050B43136202BDFEB504004C4D2D
:101E6000280041300079012908D1002A02D04121FF
:101E7000695C0CE029004131497808E0002A03D070
:101E800029004131897802E029004131C978009167
:101E9000019002A92800FFF7DCFD201A414F00261F
:101EA000414C3D4A01992B69C918C8318142296AC0
:101EB00017D200F047F93F490A78801A009A801A31
:101EC000029A12182260626807239A436260334ABA
:101ED00016606268C023DB0513436360009A0978CB
:101EE00011E000F02FF929004131097A401A009AD7
:101EF000801A029A1218294B5A6002221A606268EC
:101F00003A406260009A5318C118581D814206D2A7
:101F1000224806606068074067600120FEBD1D4AD8
:101F2000696A180000F00EF929004131487200205A
:101F3000FEBDEFF3108072B61D490968174A891C6F
:101F400051600221116080F3108870471A48012106
:101F500042680A4342600268114301608020000425
:101F600016490860704700000810006080B51448EA
:101F70000068FFF7EDFE04BD074A0549096A00F055
:101F8000E1F802BD80B5034A0149496AF7E700005C
:101F90007020002035060000260300000C000060C1
:101FA00028180060FFFFFFBF24180060BA2000203F
:101FB00010180060C50000204818006000E100E033
:101FC00014000060124224D0994228D970B500252F
:101FD0001B4202D00C00002109E000240126491810
:101FE0006441944200D3A41A7641F8D3310001260B
:101FF00001E0764109D2001864416D41A41A9D4167
:10200000F7D2A4185D41B619F5D3300022002B0099
:1020100070BD1B42D8D108B5C046C04608BD01D12D
:102020009042D3D202000B0000210020704770477D
:1020300030B4434351435D18010C0C00130C5C4356
:102040002D1980B2434392B251430024C918644110
:1020500024040B04090C09195043C018694130BC11
:102060007047F446002804D4494200F013F8404277
:1020700060474042002905D45FD000F00BF8404291
:1020800049426047494200F005F84942604703462B
:102090000B43E6D40022030A8B420BD203098B4286
:1020A00019D243088B422ED2411A00D20146524126
:1020B00010467047FF2209023FD012068B4205D31B
:1020C000121209028B4201D31212090203098B4238
:1020D00019D300E0090AC3098B4201D3CB01C01A0E
:1020E000524183098B4201D38B01C01A52414309EB
:1020F0008B4201D34B01C01A524103098B4201D3D9
:102100000B01C01A5241C3088B4201D3CB00C01A45
:10211000524183088B4201D38B00C01A52414308BD
:102120008B4201D34B00C01A5241884200D3401A5F
:102130005241CFD201461046704708B5C046C0464E
:1021400008BD704710B5904216D98AB2030C090C2D
:102150000C46594380B25343444350431B191A045D
:102160001B0C1018594180225203002312184B41B6
:10217000520DD802104310BD48438022520312185A
:10218000520D104610BD7047010005D40121C00654
:10219000C00E8140394801607047010009D4012117
:1021A000C006C00E814036480160BFF34F8FBFF3B9
:1021B0006F8F704781B033490A6802430A6009682B
:1021C00008400090009801B07047000081B02E4890
:1021D00001688903FCD5816802220A4382600021DC
:1021E00002E000BF0099491C009100990629F8DB24
:1021F000816804220A43826001B0704722488168E6
:1022000004229143816001684905FCD5816802225E
:102210009143816070471D480168890703D50068B4
:102220004107C80F70470020704719490A6883B2F8
:1022300013430B608A6A000C104388627047020CDB
:1022400080B2144B0129196805D108431860986AB7
:1022500002439A62704781431960986A904398627A
:1022600070470D490028086803D0042202430A6021
:1022700070470422904308607047000000E100E0CE
:1022800080E100E06000404800004048080040480D
:10229000080050480C00504810ED00E0FFB587B032
:1022A0000400002069468870EFF31080029072B637
:1022B0000020BF49886000F02DFD002801D100F00A
:1022C00060FC200000F024FF05002000FFF7E6FA84
:1022D0000600200000F0C2FFA54200D92500AE4252
:1022E00000D92E00B04200D9300069464870B1488C
:1022F000B1490861886368464078002804D0684680
:102300004078012807D130BF10990870029880F3F7
:102310001088002010E008A80078002803D0802052
:102320000002FFF782FFA54F08A8407800280FD0D1
:10233000B868800402D4012000F0C8FC8020C001ED
:10234000FFF773FF9E480068022101439C4801602B
:10235000C025AD0168464078022802D12800FFF769
:1023600064FF0A9E099C3000204301900198FFF70A
:102370005CFF00213000FFF762FF01212000FFF722
:102380005EFF002069460870386DC04CC0070CD550
:1023900020229121C905D5208000201801F02CF9B8
:1023A000A022BB49200001F027F9386D400306D573
:1023B0000C22B849DD208000201801F01DF9386D8D
:1023C000C00305D5B4480068882149006118C86673
:1023D000386DC00406D51822B049E02080002018CE
:1023E00001F00AF9386D400706D52C229021C90565
:1023F0002000D03001F000F9386D000705D52C22FF
:10240000A7492000FC3001F0F7F8786DC00506D52B
:1024100040221106E6208000201801F0EDF8786DCA
:10242000C00706D564229F4994208000201801F03F
:10243000E3F8786D800706D564229B49C4204000EC
:10244000201801F0D9F8786D400706D56422974925
:10245000F6204000201801F0CFF8B86D400406D5F2
:1024600024229349AD208000201801F0C5F8B86DF2
:10247000C00606D558228F49F6208000201801F0AA
:10248000BBF8B86D400505D530228B492000A0303F
:1024900001F0B2F8B86D800207D52C228221C9055F
:1024A000B6208000201801F0A7F8CC480068AD21C4
:1024B00089006118086581480068CD21890061188C
:1024C00048607F480068AD21890061184865002098
:1024D000C3218900611806918100C14A5258069BA8
:1024E0005A50401C0828F3DBBC488069AD218900A4
:1024F0006118886773480068AD2189006118C86752
:1025000070484068CD2189006050386B6118886040
:10251000B86BCD2189006118C860386DCD21890064
:1025200061180861B86DCD21890061184861386E65
:10253000C00703D40120FFF73DFE07E062480068B2
:1025400002210840CD2189006118C8615F48806977
:10255000800007D45D4880698021090601435B48FB
:10256000816105E059488069400040085749886109
:10257000386EC00703D4386E012188433866684638
:102580004078032821D13868CD21890061188861FD
:102590003868C006386815D5102188433860064869
:1025A000816A4B4A0A408262C16A0D43C5620CE0EF
:1025B00004000020FFFF00000000504800004048D9
:1025C00000500041042188433860002241480068DF
:1025D000503805908821490061188866882040009D
:1025E0002018816E94235B00E31804930B68049D0C
:1025F0009600AB51521C091D8166142AEEDB364849
:1026000000693549896B80B209040143019808408B
:1026100000D09EE2304E7068802149000143716015
:10262000306830600120FFF71CFEFFF7F4FD002842
:102630000DD0FFF7E3FDB868E02188432021014376
:10264000B960386880218901014339600120019017
:1026500068464078032853D10122AF2149001F4822
:10266000006801F04EF8CD2080002018007EC006E2
:102670006846057834D538688006C10F39D001F036
:1026800055F80028F7D0022533E000BFFC180020E1
:1026900000007048000060480000304800002048FA
:1026A0000000104800200040005000400060004042
:1026B00000700041006000410040004104100040F3
:1026C00000E100E010E000E0541600601018006027
:1026D000FFCFFFFF0000041000005048C01800208A
:1026E00038680007C10F04D001F020F80028F7D0A7
:1026F00003256846057000220021002001F001F842
:1027000000200390786D400409D5CB48007800285C
:1027100005D101200390786DC8490140796501F029
:10272000B9FA2E488068042188432C49886068469D
:102730004078032816D1CD208000201881694807F1
:1027400003D53868042202433A601020014009D0C2
:10275000BB49B26A0A40B262F26A1140F16239685A
:10276000084338600398002808D08020C001796DA4
:1027700001437965796D084003900398D5488068D6
:10278000002800D1A8E10020059988225200A21853
:102790009166882149006118896E049A8300D25895
:1027A0000A60401C091D88225200A2189166142854
:1027B000EFDBAD2080002018006D08490860CD20B7
:1027C000800020184068D4490860AD20800020189F
:1027D000406DD24908600020014B03E008ED00E0A5
:1027E00000E400E08100069A52585A50401C082824
:1027F000F8DBCD208000201880683863CD20800071
:102800002018C068B863CD208000201800693865A2
:10281000CD20800020184069B865386DC00716D5F6
:102820002022D520800021189120C00500F0E4FE70
:1028300000206060A061E06220646065A066E067DF
:1028400090216050A0222100D34800F0D5FE386DC1
:10285000400306D50C22DD2080002118CF4800F06F
:10286000CBFE386DC00308D5CD48D0214903816027
:10287000882149006118C96E0160386DC00406D511
:102880001822E02080002118C64800F0B5FE386DFF
:1028900040070DD5C4499020C0050A6E02624A6EF9
:1028A0004262496D41612C222100D03100F0A4FE2A
:1028B000386D00070ED5882040002118BB48CA6833
:1028C00002620A694262096841612C222100FC31DE
:1028D00000F092FE7068CC4901407160786DC005CF
:1028E00006D54022E62080002118100600F084FE64
:1028F000786DC00710D5C548416E0391416E012225
:1029000091434166C24D6422942080002118280022
:1029100000F072FE03982860786D800712D5882039
:1029200040002018816F0391816F012291438167DC
:10293000B84D6422C42040002118280000F05CFE3D
:1029400003982860786D40070DD5B049086803905A
:102950000868012290430860AF4D6422280000F00F
:102960004BFE03982860B86D400414D5AB49086845
:1029700003900868402290430860A94D0C2228006B
:1029800000F03AFE1422B12080002118A54800F082
:1029900033FE03982860B86DC00606D55822F6208D
:1029A00080002118A04800F027FEB86D0126F643EC
:1029B000400510D57C4D2869039028693040286176
:1029C00024222100A031C44800F016FEE86BC24961
:1029D000C86203980860B86D800210D58F48416ABC
:1029E0000391416A314041628225ED052022B620E3
:1029F00080002118280000F0FFFD03982860386E41
:102A0000C0070CD40120FFF7D5FBB4488069400013
:102A10004008B2498861386E06403E6613E0CD201A
:102A200080002018C06900280DD0AD480068022140
:102A30000143AB4806E000BFB8180020FFBFFFFF0E
:102A4000FFCFFFFF01600122AF214900A5480068C8
:102A500000F057FE684605783868800304D400F01B
:102A600065FE0028F8D00425684605700022002184
:102A7000002000F046FE0198002817D10122C8214D
:102A80009848006800F03DFE6846057838684004C4
:102A900004D400F04BFE0028F8D0052568460570E8
:102AA00000220021002000F02CFE05E0FFF78EFB45
:102AB00038688D49014039605848816F8B4A91616F
:102AC0008B49CD229200A2584A6000228A60C06FD2
:102AD00008600EE0040000200198002805D0FFF7F0
:102AE00075FB38688049014039607068464901408B
:102AF000716068464078032827D10122AF21490040
:102B00007848006800F0FDFD764800687949884201
:102B100006D1042605E000BF0410004000E100E0FB
:102B2000012600253868C00642D4386800075CD406
:102B300000F0FCFD0028F8D00324386E68460470CD
:102B400000220021002000F0DCFD68460078694684
:102B5000887069480169826B89B212040A43674927
:102B60004A60674982680A408260026B11400163D3
:102B700008A84078002804D06248016802229143E6
:102B80000160029880F310885F48806800284DD16A
:102B90006946487094E000BF00007048000060483B
:102BA00000003048000020488C1900200000104828
:102BB0006846047806E00122AF21490049480068D0
:102BC00000F09FFD38688006B8D400F0AFFD002803
:102BD000F8D000220021002000F093FD28006D1C99
:102BE000C0B2B042E7DB0224A8E7386EC007A7D521
:102BF000684600780328A3D0684604783748006800
:102C00000F28FBD09AE700BFFFFEFFFFE81A002065
:102C1000002000400050004000600040B01B002039
:102C2000007000411070004100600041334C60684A
:102C3000002845D061680025002000260A03120FF5
:102C4000F0231B010B40134301930A0AF0273F02B4
:102C50001740CBB23B438021C905002B05D08F69BB
:102C60001B043B4001D001250120019B002B2FD0EC
:102C700089690B402CD0012660682449014002D0AC
:102C80000F20FFF78AFA224F280005D060683840ED
:102C900002D01020FFF781FA6068C046C046002EBF
:102CA00006D060681949014002D00F20FFF76CFA86
:102CB000002D05D06068074002D01020FFF764FAAD
:102CC0006846407810990870684680780BB0F0BD6F
:102CD0000028D8D1F4E7000000400041101800603F
:102CE00054160060C0180020FFDFFFFF08ED00E071
:102CF00010E000E00090D00300005048B818002019
:102D00000000FFFF0050004104000020000F0F00F2
:102D1000FF00F00010B5002400F0EEFF002805D100
:102D200003480068C07A002800D10324204610BD63
:102D3000D418002010B58CB0BB4C02A8210028226A
:102D4000FEF792F9A020C002B8490A6802430A605F
:102D5000096808400090009801F002F811A003C82B
:102D60006A4603C26846FEF785FCFEF70FFA01F0DB
:102D70005BFA0021C943884200D1FEE701F088FADE
:102D8000002800D0FEE701F0ABFA02A801F0FCFA3F
:102D9000002805D001002000283001F01DFBFEE7CF
:102DA0000CB010BD400100000000000080B5FEF72F
:102DB000BFFC01F025FBFEF782F801BDF0B587B03E
:102DC00005A800BF24A10CC90CC005AA062100203B
:102DD00001F01AFB1821002001F01AFB0600B84D83
:102DE000CA4C0027FF43002E0ED03900606A01F064
:102DF00003FD3100280001F0EFFA0023002200213A
:102E0000606A01F077FBFEE703A80290801C019046
:102E100004A80090002308220021022001F04EFEA9
:102E20000600606A08D0390001F0E6FC3100280095
:102E3000303001F0D1FA06E0390001F0DDFC00BFCE
:102E4000CDA001F0C9FA002300220021606A01F040
:102E500051FB07B0F0BD0000667788E180020000FA
:102E600010B50021012000F00DFE002800D0FEE783
:102E700001F076FE002001F023FFA44C012001F0B8
:102E800024FB6062002002F069F8022002F066F87C
:102E9000002002F0B3F803220021012001F0F4FA2F
:102EA000E061012001F011FB2062E169002901D0FD
:102EB000002800D1FEE7FFF73DFF0021C943606A0B
:102EC00001F09AFC9FA1A04801F086FA002300229D
:102ED0000021606A01F00EFB00F0F4F8002010BD44
:102EE000F8B58EB0894D0027FF433900286A01F0FC
:102EF00083FCFFF763FF00200A90099001200890EF
:102F00000020079001200690002005900490039077
:102F1000029007200190A0200090A02310220321FE
:102F2000002002F085F80600884C06D03900686A57
:102F300001F062FC3100200026E02B001B2203215F
:102F4000002002F09CF8060007D03900686A01F002
:102F500053FC310020003C3016E000BF8EA001F091
:102F60003BFA00200BA90870488008710BAA0121C8
:102F7000012002F088F806000FD03900686A01F0DD
:102F80003BFC31002000703001F026FA00230022C3
:102F90000021686A01F0AEFA03E000BF86A001F0EC
:102FA0001BFA002300220021286A01F0A3FA39004D
:102FB000286A01F021FCFFF7F9FE0023002200211E
:102FC000286A01F097FAFFF7A5FE0028EFD0FEF778
:102FD000D7FC0128EBD13900E86901F00DFCE6E7E8
:102FE00038B502F0D9F9009079A5594CC821684646
:102FF00002F00CF9022002F001F800BF00BF00BF90
:1030000000BF022001F0FCFF0021C943606A01F00B
:10301000F3FB280001F0E0F9002300220021606AA0
:1030200001F068FAE2E70000F4A7041050004048FD
:103030007FB502F0B1F9009068A6454C0025ED433C
:10304000FA214900684602F0E1F82900206A01F0FF
:10305000D3FB01A802F03CFC002300220021E06920
:1030600001F048FA002300220021206A01F042FA10
:103070006846007960762900206A01F0BDFB2300D4
:103080001B220321002001F0FAFF0023002200216F
:10309000E06901F02FFA002300220021206A01F0EC
:1030A00029FA2900606A01F0A7FB617E300001F077
:1030B00093F9002300220021606A01F01BFABFE7A8
:1030C000A0A70410E0B5002001900120009000238B
:1030D000204A00BF45A1204801F0DAFF00200190FE
:1030E000022000900023502243A11C4801F0D0FF91
:1030F00000200190022000900023962218A1194878
:1031000001F0C6FF02F0B6F8FEE70000BC030020A5
:1031100080B501F06BFE002803D101F06EFE00289F
:1031200001D0002002BD032002BD042808DABFF34D
:103130004F8F0D480D490860BFF34F8F00BFFDE76B
:1031400070470000312E310040A80410B8A40410CC
:10315000BC0300208A020000E12E0410E12F0410BD
:1031600041445600313004100400FA050CED00E033
:1031700072B6FEE772B6FEE76163695F6761705F12
:10318000696E69742829202D2D3E205355434345EF
:1031900053530D0A000000004C656761637920619C
:1031A00064766572746973696E6720636F6E6669B1
:1031B00067757265640A00004164766572746973AC
:1031C000696E6720737461727465640A00000000A0
:1031D00054657374205461736B0D0A00414456208A
:1031E0006368616E67652025640D0A00424C455393
:1031F0007461636B0000000054657374000000008C
:1032000081B08020400226490A6802430A600968AA
:1032100008400090009823480168234A0A40C021D2
:103220000902114301608020800120490860204884
:10323000016801220A4302600168802252030A43A6
:1032400002600168802212030A4302600168802242
:1032500092020A430260002001B0704780B500F07E
:10326000F9FF002801D1032002BD012002BD70B585
:1032700005000026864C2660666000F0F2FFA64935
:103280000D60B0002218926808180264761C082E9F
:10329000F7DB0020C043A26E904770BD0000000025
:1032A000500040480CE400E0FF00FFFF00E100E0B8
:1032B00000003048F8B5FA277F00754D964E07E0BC
:1032C000380002F02BFB002800D0C9E00E20686017
:1032D000286801281DD168680E2800D9D4E002A111
:1032E0004000095E8F4400BF1E00220026002C0013
:1032F00056006E009000AA00C600EC0006012C01EA
:103300005801D8FF7C01012002E0022000E00320E8
:103310006860F1BD002081002A00083252587250C6
:10332000401C0828F7DB310040313000203000F02D
:1033300033F904206860320008217E4817E02A0033
:103340006C320821380002F0DDFA05206860320096
:103350000821794837E02A008C320821380002F031
:10336000D1FA0620686032000821A920800002F00E
:10337000C9FA5A4B32005DE02C00AC34220008211F
:10338000380002F0BFFA0720686032000821804848
:103390004CE02C00CC3422000821380002F0B2FAB4
:1033A00008206860220029008C31F83055E009209F
:1033B0006860380002F0B2FA002801D0754864E075
:1033C000320008215B4802F09DFA00BF82A32A0068
:1033D0006C322FE02C00CC3422000821380002F09F
:1033E00091FA0A2068603200082174481EE02A0021
:1033F0006C320821380002F085FA0B206860320038
:103400000821A920800002F07DFA00BF72A32A00E3
:10341000AC320FE02C008C3422000821380002F07E
:1034200071FA0C20686032000821654802F06AFADF
:1034300069A3220031008020400000F07FF8F1BD38
:103440002C00AC3422000821380002F05BFA0D2079
:103450006860220029006C31F33000F041F8F1BDC2
:10346000584812E000242C606C6000F0FAFEA000C6
:103470002900083109583150641C082CF7DB310051
:103480000020AA6E9047F1BDA020FFF7F0FEF1BD2D
:10349000581E002010B54C4C2068000307D560680A
:1034A0008021090301436160B120FFF7E0FE20683D
:1034B000C00207D560688021490301436160B220E2
:1034C000FFF7D5FE2068800306D560688021890259
:1034D00001436160FFF7EEFE10BD0000D835041017
:1034E00070B50E001500394C2168394A0A40C021D8
:1034F0000901114321600100012002F0F1F93200BD
:103500000821FF202E3002F0EFF92A000821FF20C9
:10351000923003E0000000005C00002002F0E4F9BB
:103520006068C003C10FFBD1206802210143216004
:1035300070BD0000E30200007A020000F8B50E0042
:1035400015001F00214C2168214A0A4080214901B1
:10355000114321600100012002F0C2F9320008216C
:10356000FF202E3002F0C0F92A000821FF209230FF
:1035700002F0BAF93A000821164802F0B5F960687D
:10358000C003C10FFBD12068022101432160F1BDBE
:10359000B902000008FF000010B502000C00002A6C
:1035A00003D00821572002F0ADF9002C04D02200EE
:1035B00008216C2002F0A6F910BD00008F02000067
:1035C000CE0200000DFF000004003048000030482B
:1035D000FFC0FFFF57020000FFFFFFFFFFFFFFFFDD
:1035E000FFFFFFFF000000000000000000000000DF
:1035F00001000000FFFFFFFF8B0707D0521E22D300
:103600000B78491C0370401C8B07F7D1830730D01F
:10361000DB4219D0401E121F08D308C943701B0A91
:1036200043801B0C0371001D121FF6D2D20707D373
:103630000B88437001D08A78C2701B0A8370704770
:1036400001D00B7843707047121F06D308C903805E
:103650001B0C4380001D121FF8D2D20705D30B8824
:10366000038005D08B788370704701D00B7803708E
:10367000704770B4103A03D378C978C0103AFBD2BF
:10368000530701D318C918C001D508C908C0D2070B
:1036900004D30B880380801C891C002A01D50B7879
:1036A000037070BC70477047994800688103C80F69
:1036B0007047000081B0964801688903FCD5816895
:1036C00002220A438260002102E000BF0099491CE7
:1036D000009100990629F8DB816804220A43826080
:1036E00001B070478A4800688106C80F7047884853
:1036F00000684104C80F7047864800684107C80F3A
:10370000704730B50D00844C002A0AD0FA21890098
:10371000FEF7C0FC401E684360600020A0600520EA
:1037200002E0206801218843206030BD7A480068AB
:1037300080214902084000D00120C0B2704770B516
:103740000E00150001240122010074480068FFF7F3
:10375000D8FFB047A84204D06F480068C003F8D52E
:103760000024002200210020FFF7CBFF200070BDC5
:10377000FCB50121002817D0A6480268E0239A432F
:10378000202313430360826D04239A438265826B76
:103790000A438263826B8A438263826D0A43826535
:1037A000806D08400090009838229B4B18699B4C14
:1037B000A04215D1186800901D6818681C681B6825
:1037C0005B0D13406402640F0F26000C30402F0A7B
:1037D000F0253D400195009D2D0A2E40009605E004
:1037E0000820009070230193032418239B4D0F267B
:1037F000F6432F6B374038432863E86AF027B84315
:10380000019F0743EF62E86A064000983043E86290
:1038100028680726B04304432C602868904303437C
:103820002B603F20C043AB6F03400A241C43AC67AE
:10383000AB6F40241C43AC67EB6F034004241C4374
:10384000EC67EB6F80241C43EC67EB6F4024A343D1
:10385000EB67834B1C6804401C605C6804401025C7
:1038600025435D609C680440202525439D60DC68FD
:10387000044030252543DD601C69044022431A6161
:103880005A690240392414435C619A6902403A241F
:1038900014439C61DA6902403B241443DC611A6AD8
:1038A00002403C2414431C625A6A10403D220243E9
:1038B0005A625520FF22D2436A4C256815400543C1
:1038C0002560E568154066262E43E660256A1540AA
:1038D00028432062206C10401D2505432564E06BC1
:1038E000104059250543E563606C104032250543BF
:1038F0006564606A01436162986D10401F21014355
:103900009965D86D024009201043D865F3BD0000C9
:10391000000040481400504810E000E0C0180020AB
:10392000F8B50500524C206880214902014321600E
:10393000012250496420FFF702FF002801D1042032
:10394000F2BD28003025ED434B4F484E2021E022A8
:10395000D24303004BD0401E062847D801A31B5C6E
:103960009F4400BF083842505E6C7A003868284097
:10397000102101433960A0680240A26076003F48F0
:1039800006602068790C0143216001223C49C8206F
:10399000FFF7D5FE002833D10520F2BDA068024014
:1039A0001143A160EBE7A068024040201043A060F3
:1039B0007608E4E7A068024060201043A060B608E3
:1039C000DDE7A068024080201043A060F608D6E73B
:1039D000A0680240A0201043A0603609CFE7A0688D
:1039E0000240C0201043A0607609C8E7FEE7A06847
:1039F00002401143A160FFF75DFE2048066004E02D
:103A00001E4800681849884202D0386805403D6069
:103A10000020F2BD08004048E81E0010CCECBCFCC1
:103A2000FF2819D004290AD0052908D0062906D074
:103A3000072904D0844A032903D1002808D1012092
:103A40007047012804D0106804218843106003E007
:103A5000106804210143116000207047481600607F
:103A6000E8160060481500600090D0030048E801A7
:103A700000004048A936041004100040C01800207F
:103A8000EF360410F3B581B0704871490860714990
:103A90000861714D286820210143296028686F4919
:103AA0000140296001226E49C820FFF748FE002826
:103AB00001D10120FEBD2020A9693022914301439C
:103AC000A961684CA168C2010A43A260664B5969AA
:103AD000664A914214D119681A681E681B681F0251
:103AE000FC239B053B40F70A1E263E400096D6016C
:103AF000E022920132408E01F0218900314007E03E
:103B0000A0218900F8235B0510220092C0225201F7
:103B1000E668574F37403B43E360E36886041E4343
:103B2000E660E3681E26B343009E1E43E660E3683A
:103B300001261E43E6604F4B1E684F4F3740394306
:103B4000196019680843186018684C4901400A4315
:103B50001A6018688021C90001431960A869802192
:103B600049000143A9618020C0050168F0220A4094
:103B700000680007000F1043102803D1A8690F2127
:103B80008843A86100263E48696A01406962A96AC3
:103B90000840A862A0683B49014080200002084319
:103BA000A060E06860210143E1602068042188434F
:103BB0002060206810218843206096277F00324DC6
:103BC000002229003800FFF7BAFD002800D10226A4
:103BD0002068102101432160012229003800FFF7ED
:103BE000AEFD002801D1022601E0300001D03000F6
:103BF000FEBD6846047AFF2C02D00120FFF7B8FD15
:103C00006846057921480168214A0A4080218901D6
:103C100011430160016880220A430260016870223A
:103C2000914330220A4302602800FFF779FE010029
:103C300009D129002000FFF7F3FE010003D101F0B4
:103C4000BBFE62B60020FEBD6000404800000410CC
:103C500008ED00E00400002004005048FFFEFFFFD4
:103C6000F936041000004048E41E0010CCECBCFC07
:103C7000FFFFFFC0940050483FFCFFFFFFC7FFFF5E
:103C8000FFCFFFFFFF7FFEFFE5360410980040489E
:103C9000FFC0FFFFEFF31482EFF30981002080F3F0
:103CA0001488BFF36F8FF0B543464C4655465E46C9
:103CB0006746F8B40F4CEFF30883636006B4BFF3B4
:103CC0004F8F30BF00BF00BF0A4C646884F3088880
:103CD00082B003BCF8BC9846A146AA46B346BC468F
:103CE000F0BC04BC80F3098881F31488BFF36F8FA4
:103CF000104700000400002070B5074C0121206827
:103D000001F0C0FE054620680121103001F0BAFE26
:103D100001462943084670BDE0180020426801238F
:103D20009A43CB07DB0F134343607047194011439D
:103D300041607047426820239A434901F6E7426890
:103D4000834B134009028022520005E042687F4BFA
:103D5000134049028022920011401943416070478C
:103D600070B57C4C60688021884360607A4D6068E3
:103D70002840C90101436160784861680140FC2224
:103D800092030A436260764962680A4090231B05E9
:103D900013436360A2680240B423DB031343A360B0
:103DA000A2681140C82292050A43A260FF26F6438A
:103DB000A16831405A220A43A260A1682940C82262
:103DC00092010A43A260E1680840610A0143E16090
:103DD000102000F0D7F8042021693140014321610F
:103DE000E1680E4014213143E160E1680D40A021FB
:103DF000C9002943E160616908436061606980210D
:103E0000090401436161A0697F218843A061012009
:103E1000594908745E224A74584A136B8B74C874EB
:103E20005D230B75D36A4B7588755223CB75126869
:103E30000A76487612228A76514A1368CB7608773A
:103E400015234B77D3688B77C8771A2320254B55DA
:103E5000136A21254B5522254855222323254B55EE
:103E6000136C24254B5525254855212326254B55D4
:103E7000D36B27254B5528254855232329254B55FA
:103E8000536C2A254B552B2548551B232C254B5568
:103E9000526A2D23CA542E23C85490222F23CA5469
:103EA000404A136830254B5531254855912332251A
:103EB0004B5552683323CA54002234254A550B000F
:103EC00010330B604B600B000C338B60CA600968C9
:103ED000226821603449086060698021C905014376
:103EE000616170BD30B5012901D108240CE00624C0
:103EF0000D0003D1012A0DD199230CE0022903D032
:103F00000024032907D1F5E7012A01D19B2302E010
:103F10003D2300E03B23C01A001B30BD23490A6843
:103F2000234B1340234A34E02348016808220A4304
:103F30000260704721480168802291430160704708
:103F40001E48016880220A4302607047FFFDFFFFA0
:103F5000FFFEFFFFC0000020FF00FFFFFFFF00FF8C
:103F6000FFFFFF0015490A687F239A434006400E71
:103F700010430860704700000021002048160060D0
:103F80004815006056490A68564B13400006FC224B
:103F9000920502401A430A607047010052480840E7
:103FA00070470000401700601014006004000060BB
:103FB0004F000200B0FFFDFF18000060C4000020A9
:103FC0008021C90308407047802189040840704758
:103FD00080214902084070478021890308407047CA
:103FE00080218900084070478021090108407047FE
:103FF0008021090608407047416880229143416052
:10400000704780B50021FFF789FE01BD80B5102201
:10401000002101F044FD01BD80B50121FFF78AFEBA
:1040200001BDC168802292040A43C2607047C16822
:10403000802212060A43C2607047416804220A4384
:104040004260704780B50021FFF779FE01BD80B561
:104050000121FFF774FE01BD80B50121FFF75EFE6F
:1040600001BD80B51FE0C268120D12050903090BDE
:104070001143C1607047C168802252030A43C26085
:104080007047C168802212040A43C2607047C16849
:104090008022D2030A43C260704780B54168802203
:1040A000D2000A4342600121FFF750FE01BD2148C2
:1040B0000268214B13400902204A66E00000204AB2
:1040C0005C23584310180029016803D040220A439A
:1040D0000260704740229143016070470000000079
:1040E000CC000020FFFFFFC030DFC90038B504005E
:1040F0005C220021484823005C256B43C01801F076
:10410000CEFC01212000FFF7DAFF31BD424A5C23DB
:1041100058431018426A416270473F4A5C23584333
:104120001018826A120E12060902090A11438162EE
:1041300070470000D0000020FF0000F000FFFF0FDC
:10414000DC000020344A5C2358431018826A1202B3
:10415000120A09061143816270472F4A5C235843B3
:104160001018C26A2D4B13400902FC2292010A402A
:104170001A43C2627047284A5C23584310180268E9
:10418000264B13400902FC2292010A401A430260A6
:10419000704721495C2250430818016880229143EE
:1041A000016070471C4A5C23584310188268816084
:1041B0007047194A5C23584310180268184B134083
:1041C0000907E022D205E0E713495C2250430818B2
:1041D000016880220A43026070470F4A5C235843FB
:1041E00010184268416070470B4A5C23584310180E
:1041F00002680C4B13400906E022D204C5E7064AC8
:104200005C2358431018C26A1F239A43C906C90E7B
:104210001143C16270470000DC000020FFC0FFFFB7
:10422000FFFFFF8FFFFFFFF838B50025ED43174C68
:10423000206802280CD1FEF7E3FF002808D1EFF335
:10424000108072B60121216080F31088002032BDF9
:10425000280032BD0D480068012801D100207047B8
:104260000BE0EFF3108072B608490A68032A00D009
:1042700001E0012204E080F310880120C043704770
:104280000A6080F31088002070470000B0180020FA
:1042900081B08020C0020F490A6802430A600968A1
:1042A0000840009000980C48016804229143016086
:1042B0004168C907FCD54068104000D0012001B01A
:1042C000704706490A68D207FCD5496889B201607F
:1042D00000207047500040480000604804006048DB
:1042E00081B026490A6A012002400CD10A680243C3
:1042F0000A600A6882430A600A6A02430A62096A1B
:10430000084000900098002001B07047FCB50123E0
:104310001B4C1C4D6E4636792E700E6826604E681A
:1043200066608E68A660CE68E660066826614668AC
:1043300066618668A661C668E66164266F463E705F
:10434000266B1E4326636E463678761E3E70666B7D
:104350001E4003D06E463678002EF4D16E46367875
:10436000266A1660666A5660A66A9660E66AD66035
:104370002E783F79BE42CDD10020F6BD40004048A6
:10438000280000602022002010B5C17A0024802976
:104390000CD8418B172909D301229202914205D8EA
:1043A000C189172902D3121F914201D982240EE03C
:1043B000014628220748FFF71FF901F077FB05495E
:1043C0004968814201D5872401E001F07BFC204649
:1043D00010BD0000C82100200EB4C0B5020003A823
:1043E00001900020009001AB0121044878440C307A
:1043F00001F0B8FC029906B0084700BF196600003A
:1044000010B501F06FFF10BD10B501F0A7FF10BD92
:1044100010B502F07BF810BD38B50400002C01D1B6
:1044200072B6FEE70D0002F0C9F8216CE26B23685A
:10443000100048431818A0600020A0636360521E5B
:104440004A439818E060200044300021C9430170BD
:104450004170002D0BD12069002810D020001030B1
:1044600001F078F800280AD002F0A2F807E0200056
:10447000103002F0D7F82000243002F0D3F802F018
:10448000A9F8012032BD0000F8B504001700002C87
:1044900001D172B6FEE70E0001D1502001E0704359
:1044A000503002F007F905000DD0002E01D12D602B
:1044B00001E050302860EC632E6401212800FFF7F2
:1044C000ABFF4C202F542800F2BD10B50200002194
:1044D0000120FFF7D9FF040009D00020A060206070
:1044E000E060002300220021200000F003F82000FB
:1044F00010BD0000F6B583B004000027002C01D1E8
:1045000072B6FEE70291002902D1206C00280ED17C
:104510001E00022E02D1E06B01280AD101F0ECF856
:1045200000283ED1049800283BD072B6FEE772B650
:10453000FEE772B6FEE7049800284FD00125002F51
:1045400003D1684601F038F8012702F043F800F083
:10455000B7FE02F033F8200044300021C943442262
:10456000A2568A4201D10022027042578A4201D1EA
:104570000021417002F02EF804A9684601F022F8EB
:10458000002840D102F01AF8A06BE16B884229D1D3
:1045900002F020F8002D27D1200000F01CFA00F0D6
:1045A000ABFE02F00BF8A06BE16B884201D3022E48
:1045B000C1D132000299200000F0C2F9616A0029DD
:1045C00003D02000243000F0C5FF002801D001F006
:1045D000EFFF01F0FFFF012005B0F0BD01F0FAFF91
:1045E0000020F9E70025D3E704992000103000F0FF
:1045F00089FF200000F0EFF900F07EFE0028D0D106
:1046000001F0D6FFCDE7200000F0E5F900F074FEE0
:10461000E6E70000FEB504001700002C01D172B6D9
:10462000FEE70091002902D1206C002827D11E004E
:10463000022E02D1E06B012823D102F0E5F80190AF
:10464000A06BE16B884201D3022E20D14520255674
:1046500032000099200000F073F901260020C043C9
:10466000854210D1606A002812D02000243000F06A
:1046700071FF00280CD0002F0AD03E6008E072B60F
:10468000FEE772B6FEE76D1C4520255400E00026CB
:10469000019800BF80F310883000FEBDF8B504001B
:1046A0000F00002C01D172B6FEE7206C002801D06B
:1046B00072B6FEE72068002802D1A06800281CD14D
:1046C00002F0A2F80500A06BE16B88421BD24521E5
:1046D0006156401CA06301260020C04381420ED1D8
:1046E000606A002810D02000243000F033FF00283A
:1046F0000AD0002F08D03E6006E072B6FEE7491CE3
:104700004520215400E00026280080F31088300066
:10471000F2BD0000F7B5040000260025002C01D1F1
:1047200072B6FEE70F0002D1206C002808D100F01D
:10473000E3FF00280BD10298002808D072B6FEE7EC
:1047400072B6FEE7200000F046F900F0D5FD01F05A
:1047500035FFA06B002806D1029800280BD101F08C
:1047600039FF0020FEBD05003900200000F020F9CF
:104770006D1EA563D1E0002D03D1684600F01CFF3B
:10478000012501F027FF00F09BFD01F017FF20003D
:1047900044300021C9434422A2568A4200D1067007
:1047A000012282568A4200D1467001F013FF02A90D
:1047B000684600F007FF002813D1200000F040F900
:1047C0000028BFD002992000243000F09BFE20007A
:1047D00000F001F900F090FD0028B8D101F0E8FEEA
:1047E000B5E7200000F0F7F800F086FD200000F0AB
:1047F00027F90028ABD0B4E7F2B582B00400002757
:1048000000260025002C01D172B6FEE7206C00289E
:1048100001D072B6FEE700F06FFF002809D10298C0
:10482000002806D072B6FEE7200000F0D4F800F0B1
:1048300063FD01F0C3FEA06B002806D1029800289A
:104840000CD1002D65D072B6FEE7401EA063206833
:10485000002802D100F0F7FFA0605EE0002E03D137
:10486000684600F0A9FE012601F0B4FE00F028FD24
:1048700001F0A4FE200044300021C9434422A25686
:104880008A4200D10770012282568A4200D14770C5
:1048900001F0A0FE02A9684600F094FE00281ED197
:1048A000200000F0CDF80028BED02068002807D1F5
:1048B00001F084FEA06800F031FF050001F08AFEDF
:1048C00002992000243000F01DFE200000F083F843
:1048D00000F012FD0028ACD101F06AFEA9E720002B
:1048E00000F079F800F008FD200000F0A9F8002899
:1048F0009FD0002D0FD001F061FE606A002804D027
:104900000520216B0968411A00E00021A06800F031
:1049100067FF01F05FFE0020FEBD2069002807D080
:104920002000103000F016FE002801D001F040FEFB
:1049300001F050FE0120FEBD01F04CFE200010BD34
:10494000F8B50400100000260027A56B226C002A91
:1049500008D12068002827D1A06800F015FF0700C3
:10496000A66021E006000CD16068FCF797FB606848
:10497000216C40186060A168884215D3206860608F
:1049800012E0E068FCF78AFB216C4842E1680918F4
:10499000E1602268914202D2A1680818E060022E0C
:1049A00002D1002D00D06D1E6D1CA5633800F2BD34
:1049B0000B00026C002A00D1704710B5C16889183D
:1049C000C1608468A14201D30168C160C168180058
:1049D000FCF764FB10BDF8B5050001F0EFFD2F00FA
:1049E000443701203C5608E02800243000F0B2FD96
:1049F000002801D000F01AFE641E60B2012802DB1C
:104A0000686A0028F0D10024E4437C7001F0E2FDE4
:104A100001F0D4FD44202E5608E02800103000F0AC
:104A200099FD002801D000F001FE761E70B2012829
:104A300002DB28690028F0D13C7001F0CBFDF1BD0C
:104A400010B5040001F0BAFDA06B441EA441E40FB0
:104A500072E710B50022064BD4001B191C68002C0D
:104A600003D0521C082AF6D310BD1960586010BD3F
:104A7000C020002070B504000D00160001F09EFD5E
:104A800000200021C9434422A2568A4201D1442376
:104A9000E0544522A2568A4201D14521605401F0DA
:104AA00099FDA06B002805D1320029002000243098
:104AB00000F03AFD2000FFF78EFF70BDFFB583B018
:104AC0000D9F0E9E9C460D4604000BD0A00703D1FF
:104AD000600701D4200705D5002D06D0012D04D094
:104AE000022D02D0822007B0F0BD0C9800900197F3
:104AF000029662462046059B01F090FE0028F2D106
:104B00000020C046012806D00C990020088038807B
:104B100030800020E7E729462046059A0020C0465D
:104B20000028E0D1324639460C9801F00DFFF0E73D
:104B3000094902E0084908E008494A6882434A6096
:104B40000A6810430860704704490A6882430A6093
:104B50004A68104348607047200050482800504879
:104B600080B50120FFF7E4FF0220FFF7E1FF0420FA
:104B7000FFF7E0FF0820FFF7DBFF80204000FFF792
:104B8000D9FF80208000FFF7D5FF8020C000FFF70D
:104B9000D1FF80200001FFF7CDFF0120FFF7D4FFF8
:104BA0000220FFF7C9FF0420FFF7C6FF0820FFF728
:104BB000CBFF1020FFF7C0FF2020FFF7C5FF4020EC
:104BC000FFF7C2FF8020FFF7B7FF8020C001FFF78B
:104BD000BBFF80200002FFF7AFFF01BD81B08D4910
:104BE0000A6802430A60096808400090009801B012
:104BF000704710B50B004B4301685C00E418A143FB
:104C000053430B43036010BD43688B435143194327
:104C10004160704710B50B004B4381685C00E4189D
:104C2000A14353430B43836010BD30B5CB437A4C53
:104C30009025ED05A8421AD1002A03D0022A0FD0F0
:104C400007D330BD2068184020606068034063606F
:104C500030BD60680340636020680143216030BD5F
:104C600020680340236060680143616030BD002A12
:104C700003D0022A0FD007D330BDA0681840A0602F
:104C8000E0680340E36030BDE0680340E360A06893
:104C90000143A16030BDA0680340A360E068014308
:104CA000E16030BD10B50B004B434B434B43016AF1
:104CB0001C01E41AA14353430B43036210BD0000DF
:104CC00038B505000420FFF789FF9024E40502228F
:104CD00002212000FFF78DFF022202212000FFF7B2
:104CE00099FF002202212000FFF78EFF01220221FE
:104CF0002000FFF79AFF022202212000FFF7D2FFD7
:104D00000820FFF76BFF454C022201212000FFF72E
:104D100070FF022201212000FFF77CFF0022012109
:104D20002000FFF771FF012201212000FFF77DFF26
:104D3000002201212000FFF7B5FF8020C000384984
:104D40000A6802430A6009680840009000983548E4
:104D50008B21C1600168344A0A4002604168334ACD
:104D60000A40426001680C220A4302608168304AAE
:104D70000A40826081682F4A0A4082608168C900C7
:104D8000C90881600168802292050A430260416877
:104D9000294A0A40426081682A2291438160016861
:104DA00001220A430260290010D024490D600168E5
:104DB00020220A43026022480168FF2291434022D8
:104DC0000A430260802040001E49086031BD10B5D2
:104DD00000231D4A06E014682406FCD5DCB2045DFD
:104DE000D4605B1CDCB28C42F5D310BD1648006861
:104DF0000002C10F012048407047134801680906AE
:104E000002D50068400601D4012070470020704799
:104E100000000000500040482000504800001048AA
:104E20005800404800400041FFE9FFEFFFCFFFFF7F
:104E3000FFFCFFFFFFFFFFF1FFB7FFFF3000002087
:104E400008E400E000E100E01C40004170B50025EE
:104E5000012804D0022802D00020C04370BD0029E0
:104E600001D1002070BD0C00160005E001212000DA
:104E7000FFF7ADFF641C6D1C3000461E0028F5D105
:104E8000280070BD01B5012269460120FFF7DEFF51
:104E9000009802BD81B061490A6802430A6009684E
:104EA00008400090009801B0704710B50B004B43CC
:104EB00001685C00E418A14353430B43036010BD39
:104EC00043688B43514319434160704710B50B0051
:104ED0004B4381685C00E418A14353430B43836058
:104EE00010BD30B5CB434E4C9025ED05A8421AD1EC
:104EF000002A03D0022A0FD007D330BD2068184003
:104F0000206060680340636030BD60680340636098
:104F100020680143216030BD206803402360606841
:104F20000143616030BD002A03D0022A0FD007D3AD
:104F300030BDA0681840A060E0680340E36030BD69
:104F4000E0680340E360A0680143A16030BDA06851
:104F50000340A360E0680143E16030BD10B5314C0F
:104F6000010016D10820FFF795FF0220A061012261
:104F700002212000FFF799FF022202212000FFF703
:104F8000A5FF002202212000FFF79AFF0022022144
:104F900030E0012816D10820FFF77CFF1020A06127
:104FA000012210212000FFF780FF022210212000A3
:104FB000FFF78CFF002210212000FFF781FF002265
:104FC000102117E0022818D10820FFF763FF042002
:104FD000A061012204212000FFF767FF02220421C3
:104FE0002000FFF773FF002204212000FFF768FF75
:104FF000002204212000FFF774FF10BD0A4900E0E1
:105000000A49020001D1022006E0012801D1102046
:1050100002E0022801D10420086070475000404897
:105020002000504800001048280010481800104880
:10503000FFB58BB0189C1C9F22461D9E1E9D0D998E
:105040000C9801F087FC002817D101F0A7FC00287C
:1050500013D11B9808970A9507900996179A1999E2
:105060001A9814AB049403920591069007CB6B46F3
:1050700007C30BA80FC801F0BBFC0FB0F0BD10B503
:1050800001F0C8FC10BD10B501F0CAFC10BD70479E
:10509000F7B584B01C00900001F00CFB0500002661
:1050A000002D43D0542001F005FB07003BD0230026
:1050B000059904983D63039602970D9A01920C9A04
:1050C00000926A46128B00F05BF801F077FA654CAB
:1050D000606F401C6067644D606E00282AD167666F
:1050E000606F01282FD114207043201801F09AFA24
:1050F000761C052EF7D35D4E300001F093FA2000A8
:10510000983001F08FFA280001F08CFA2800143052
:1051100001F088FA2800283001F084FAA666200001
:105120009830E0660FE0280001F01DFB0020C0432E
:1051300007B0F0BD286C002805D1F86A616EC96A15
:10514000884200D36766E86C401CE864F863F86A3C
:10515000A16F814200D2A067391D1422504320184C
:1051600001F06FFA01F036FA286C002806D0606E64
:10517000C06AF96A884201D201F01AFA0120D7E721
:10518000F9B581B00E001500002E01D172B6FEE710
:105190000A9CA522A900206BFCF784F8206BA900CB
:1051A00047183F1F072087437807002500963426BD
:1051B000009909180A7823189A550978002902D00D
:1051C000401C0428F4D9089E38216554042E00D9C7
:1051D0000426E6626664A564201D002101612000AA
:1051E00018300021016124610520801BA0616462E8
:1051F000E56450202554029A0199380001F0A6F97F
:1052000020600998002800D00460F7BD10B5002880
:1052100001D172B6FEE7002901D172B6FEE7144A49
:105220001368002B01D072B6FEE713685B1C136095
:105230000D4AD26B03685C189A4203D29C4203D396
:10524000046008E09C4201D3A242F9D2046000212C
:10525000A01A00F009FB00F04FF8002801D101F07E
:10526000A7F910BD441F0020F01F0020C81F002018
:10527000C41F00201CB54A4C20005430019000206F
:1052800000900023502200BF0BA17F48FFF700FFD2
:10529000012801D101F0C8FB0021C943012807D131
:1052A00072B6216520640020E06301F067F913BD48
:1052B0008842FCD172B6FEE749444C45000000002C
:1052C00072480168491C0160704700200021094AAA
:1052D000936F002B00D00121536EDB6A002B08D1A5
:1052E0001268012A05D8002903D16648016DC06BF8
:1052F000081A7047441F0020F8B500250095294F73
:105300003C0080342068002801D172B6FEE701F02D
:1053100055F92068401E20602068002838D1786F39
:105320000028584E1AD133E0F068C56828001830BC
:1053300001F0ADF9281D01F0AAF9E86AB96F8142C0
:1053400000D2B867291D14225043381801F079F9AA
:10535000E86A796EC96A884200D3FC670124306824
:105360000028E1D1002D01D000F0B7F9756C002DB7
:1053700008D000F025F8002800D0FC676D1EF8D199
:1053800000207064F86F002802D0009401F010F93A
:1053900001F020F90098F2BD3A48C06B7047000058
:1053A000F01F0020441F002036490A6DCB6B1B18EC
:1053B0009A4201D272B6FEE7CA6B1018C8637047F2
:1053C000F8B500272F4E7B4C8020205800284DD167
:1053D000F56B6D1CF5630ED1A06E0068002801D03E
:1053E00072B6FEE7A06EE16EA166E066B06C401C8E
:1053F000B06400F072F9306D85422BD300951AE04D
:10540000281D01F044F9A86A002803D028001830AC
:1054100001F03DF9E86AA16F814200D2A067291D21
:1054200014225043201801F00CF9E86A616EC96A31
:10543000884200D30127A06E0068002807D0A06E24
:10544000C068C568686800998142D9D201E000202F
:10545000C0433065606EC06A14214843205802285A
:1054600000D30127706C002805D102E0706C401C4D
:105470007064C046C046E06F002800D001273800A5
:10548000F2BD0000F01F002035560410C41F00209C
:1054900010B5484C80202058002802D00120E06739
:1054A00010BDE067606E006B864902688A4208D1D1
:1054B00042688A4205D182688A4202D1C068884225
:1054C00004D0616E3431606EFDF754FEA06F00E0D1
:1054D000401E1421414361180A68002A03D10028A4
:1054E000F6D172B6FEE74A6852684A600B0008338C
:1054F0009A4201D152684A604968C9686166A067EA
:1055000010BD000010B50C00002801D172B6FEE7F6
:105510006249496E183101F0A0F8FFE7012120002F
:1055200000F0A2F910BD000038B50C00002801D130
:1055300072B6FEE715005949496E183101F081F83D
:105540002000002D01D00020C043290000F08CF97C
:1055500031BD000038B5C068C468002C01D172B6F6
:10556000FEE72000183001F092F8124D80202858F4
:1055700000280CD1201D01F08AF8E06AA96F814251
:1055800000D2A867211D14225043281802E02100F0
:105590001831614801F055F8686EC06AE16A8842C6
:1055A00002D20124EC6700E0002400F096F820000D
:1055B00032BD0000441F002057498A6C0260C96B4D
:1055C00041607047FEB50500002D01D172B6FEE7BF
:1055D0000E00002E01D172B6FEE700F0EFFF4E493B
:1055E000C86B0290686801900298019A801A009036
:1055F000326800240020C043824213D08B6C2F6895
:10560000BB4203D0029B019FBB420AD2009B934244
:1056100006D2D01A3060886C2860C86B686001E0E0
:105620003460012400F0D6FF2000FEBD01201B499C
:10563000C867704770B5384C184D11E000F0BEFFD8
:10564000206AC668301D01F022F8686F401E686746
:10565000286F401E286700F0BDFF300000F034F8CE
:10566000286F0028EAD12868022801D300F0A0FFA3
:10567000FFF72BFE0228F3D3FFF722FE206DE16B2C
:10568000884208D3FFF721FE022801D301F048FB2E
:10569000FFF732FEE4E772B6FEE70000441F002089
:1056A00001201D490A68002A03D16C4AD36F002BE0
:1056B00001D000207047896A526F521E914200D17A
:1056C00002207047A5A5A5A510B50400206B01F028
:1056D0004AF8200001F047F810BD60498A6E0E4874
:1056E0001268002A02D10021C94303E0896EC9680B
:1056F000C9684968016570470748006C002801D1F6
:105700000120704757480068002801D102207047E7
:105710000020704700000000F01F002070B5060058
:105720000020002E2ED0F16A4D4D6A6ED26A914251
:1057300022D2B069002804D405206A6ED26A801A89
:10574000B0617069142251436918884210D1301D2C
:1057500000F09DFF686EC06AF062A96F814200D2BE
:10576000A867311D14225043281800F06AFF08E092
:10577000686EC06AF06204E0716C6A6ED26A91422F
:1057800000D2012062BD000038B505000020002DC8
:1057900025D0334C616E8D4201D072B6FEE7A96C04
:1057A000002901D172B6FEE7491EA964EA6A6B6C52
:1057B0009A4214D0002912D1281D00F068FF686CAD
:1057C000E8620521091AA961A16F814200D2A06790
:1057D000291D14225043201800F033FF012032BD50
:1057E00038B504002ED0A26C002A01D172B6FEE7B3
:1057F000606C814200D20100E06A884222D0012A16
:1058000020D1174D6A6E944201D172B6FEE7E16273
:10581000A269002A02D40522511AA16161691422E9
:105820005043281881420DD1201D00F030FFE06A5E
:10583000A96F814200D2A867211D14225043281865
:1058400000F0FFFE31BD0648416E002903D0416ED5
:105850008A6C521C8A64406E70470000441F00200E
:10586000441F0020C41F0020F8B507000E00174C8D
:10587000E06B0090144D686E001D00F008FF0020E2
:10588000C043874208D1002E06D0686E011D20005B
:10589000283000F0D6FEF1BD0098C619686E46604B
:1058A00000988642686E04D2011DE86E00F0D5FEB5
:1058B000F1BD011DA86E00F0D0FE206D864200D221
:1058C0002665F1BD00000000441F0020F01F0020ED
:1058D00010B50022082101F065FA002010BD7047C4
:1058E000104A8000115070470E4B8000181804E0D9
:1058F00013680360121D001D491E0129F8DA0021FA
:1059000001607047074B8000181804E003681360BB
:10591000001D121D491E0129F8DA70470149800057
:10592000085870470004304810B5C20018231340CF
:10593000FF249C40E2438907090E9940030004D4E8
:1059400016489B089B00C01806E0154B0007000F87
:10595000083880088000181803681A401143016055
:1059600010BD80B50F480068002814D10E480168AA
:10597000002902D1806A00280DD001200B498860DF
:10598000FEF7A2F9BFF34F8F09480A490860BFF339
:105990004F8F00BFFDE7012002BD000000E400E0E2
:1059A0001CED00E094004048100050480400002026
:1059B0000400FA050CED00E080B503210020FFF79C
:1059C000B3FF03210120FFF7AFFF03210220FFF700
:1059D000ABFF03210320FFF7A7FF03210720FFF7F9
:1059E000A3FF03210820FFF79FFF03210920FFF7F2
:1059F0009BFF03210A20FFF797FF03210B20FFF7EE
:105A000093FF03210C20FFF78FFF03210D20FFF7E9
:105A10008BFF03210E20FFF787FF03210F20FFF7E5
:105A200083FF03211020FFF77FFF03211120FFF7E1
:105A30007BFF00211220FFF777FF03211320FFF7E0
:105A400073FF03211420FFF76FFF03211520FFF7D9
:105A50006BFF03211620FFF767FF01211720FFF7D7
:105A600063FF00211820FFF75FFF03211920FFF7D4
:105A70005BFF03211A20FFF757FF03211B20FFF7CD
:105A800053FF01BD0A469200121F8258491E002A88
:105A900001D0012070470029F4D10020704780B563
:105AA0000B0011001A00FBF7EDFB01BD70B50020E3
:105AB000C0460020C046814C012802D0E07A002870
:105AC00011D00020C0466F21C9004843E17A30223E
:105AD000514345180020C0469F2189004843E17A80
