:020000041004E6
:1000000000000120E1220410851A04105D21041073
:10001000AA5555AA45554C420000000000000000BA
:100020000000000000000000000000003B11041070
:100030000000000000000000FB1704105F21041006
:10004000B7180410EF180410871A0410E31F0410E7
:1000500033200410B72004100F2104109322041041
:100060009F220410CF220410F9220410FB22041056
:10007000FD220410FF2204100123041003230410A6
:100080000523041069210410072304100923041018
:100090000B2304100D2304100F230410112304104C
:1000A00013230410152304100000000000000000BA
:1000B0000000000000000000000000000000000040
:1000C000010005D40121C006C00E8140B448016082
:1000D0007047010009D40121C006C00E8140B1481B
:1000E0000160BFF34F8FBFF36F8F7047F0B5020011
:1000F00013D41822AC4B8408A4001C59FF25C60059
:100100001640B540AC438907090EC5002A4091400E
:100110002143800880001950F0BD0F25A34B1824FF
:100120002A40083A920892000540083DAD08AD000B
:100130005D59FF26C7002740BE40B5438907090E19
:10014000C0000440A14029439950F0BD016801223C
:100150000A43026070470168802212020A4302606B
:100160007047002901D1283070472430704701685A
:100170008F4A0A400260704701688E4A0A40026056
:10018000704710B5C368B84C1C4021430A43C26095
:1001900010BDC168B54A0A40C26070478069010756
:1001A000C80F704780698106C80F7047C16908226F
:1001B0000A43C2617047C16920220A43C261704785
:1001C0004168802292040A4342607047806980211E
:1001D0004902084070478069010CFE2008407047C2
:1001E00081B0A34901E081B0A2490A6802430A60D4
:1001F000096808400090009801B0704781B09E499E
:10020000F3E79E4908E09E490A6882430A60091D97
:1002100006E09B490FE09B490A6882430A60091F78
:100220000A6810430860704797490A6882430A6069
:10023000091DF5E794490A6882430A60091D0A68A6
:1002400082430A607047914814224A438218143A44
:100250001268012394E010B58C4814234B43C31853
:10026000143B1B688A4C31E08848142251434018E3
:100270001438016887480840704710B58348142334
:100280004B43C318143B1B682024A3431A431FE0AD
:1002900010B57E4814234B43C318143B1B684024FD
:1002A000A3431A4314E010B5784814234B43C318F2
:1002B000143B1B688024A3431A4309E010B573481C
:1002C00014234B43C318143B1B68734C1C4022433C
:1002D0001423594340181438026010BD10B56B4800
:1002E00014234B43C318143B1B686C4CEEE710B54A
:1002F000664814234B43C318143B1B68DF4CE5E7E7
:10030000624814234B43C318103B1B681B0C1B048F
:100310001A4314235943401810380260704710B52F
:10032000029810280AD1594814244C430419083C57
:1003300022601422514340180C3809E05348142419
:100340004C4304190C3C22601422514340180838D5
:10035000036010BD10B59120C0058B00C3181B1F92
:100360001B681F24A3431A4389004018001F026022
:1003700010BD464814224A438218143A12680223D8
:1003800013431422514340181438036070473F4808
:1003900014224A438218143A12680823F0E7000036
:1003A00000E100E080E100E000E400E01CED00E09E
:1003B000FFFFFDFFFFFFF7FF30B503680C004C4364
:1003C00065002C19A3430C004C4354431C430460A8
:1003D00030BD80B5030008009021C9058B420ED1C5
:1003E000002A03D0022A07D003D301BDFFF711FF73
:1003F00001BDFFF706FF01BDFFF705FF01BD002AA4
:1004000003D0022A07D003D301BDFFF713FF01BDBC
:10041000FFF701FF01BDFFF707FF01BD81617047D5
:1004200081627047426951404161704780B5FF2148
:10043000022000F07BFD002800D0FEE700F030F83D
:10044000CB48006800F0D7FD00F014FEC94800F06A
:10045000B0FF00F021F900F013F900F028F800F0E7
:100460006FF900F089F9FEE701F8FFFFFF7FFFFF5A
:10047000500040485400404858004048240050482C
:10048000200050482C005048280050480800704870
:10049000EFBFFFFF10400000FFFCFFFFFFF3FFFF77
:1004A00080B501210020C043FFF720FE01BDF0B55B
:1004B0008FB0D14801F04EF81C22002108A801F0AD
:1004C0005DF81822002101A801F058F88020800171
:1004D00001900227029703970124049405940026B3
:1004E00006969025ED0501A9280001F0DDF8A0038E
:1004F00001900297039704940594069601A9280099
:1005000001F0D2F8E005FFF779FEC84C0A2203217A
:100510002000FFF71FFF002203212000FFF79BFEB2
:100520003A0303212000FFF7E2FE0022032120000E
:10053000FFF7A3FE002203212000FFF7A9FE80227F
:1005400003212000FFF7AFFE002203212000FFF768
:10055000B5FE002203212000FFF7C0FE0B2202217E
:100560002000FFF7F7FE102202212000FFF773FEA4
:100570003A0302212000FFF7BAFE002202212000E8
:10058000FFF77BFE002202212000FFF781FE802280
:1005900002212000FFF787FE002202212000FFF742
:1005A0008DFE002202212000FFF798FEA04802786D
:1005B00003212000FFF7A4FE03212000FFF754FED3
:1005C00007909C4D01212800FFF7CBFD0200079802
:1005D0000090994B03212000FFF7A1FE9448027878
:1005E00002212000FFF78CFE02212000FFF73CFED5
:1005F000079000212800FFF7B4FD07990091030040
:100600008E48026802212000FFF789FE03212000A6
:10061000FFF7AFFE03212000FFF7B9FE0221200003
:10062000FFF7A7FE02212000FFF7B1FE08968448DD
:10063000006809900A960B97B4200C900D960E96C0
:1006400008A9280001F0B0F82800FFF7B9FD002242
:1006500000212800FFF795FD2800FFF79AFD2800EC
:10066000FFF78AFD2800FFF782FD2800FFF773FDE2
:100670002800FFF76BFD0FB0F0BD0000FFCFFFFFBC
:1006800080B50120FFF7ACFD01211120FFF72EFD01
:100690001120FFF715FD01BDF8B588B01822002123
:1006A00002A800F06BFF08220021684600F066FFF8
:1006B0000820FFF795FD0420FFF792FD80256D00CF
:1006C0002800FFF790FD5F4F29003800FFF7A6FED6
:1006D000029501260396002404940594069402A929
:1006E000380000F0E1FF29003800FFF797FE90275F
:1006F000FF05AD00002229003800FFF76AFE002246
:1007000029003800FFF758FE0095684606714471CD
:10071000867101F0B3F801210F20FFF7E7FC0F20ED
:10072000FFF7CEFC03210020C043FFF7DFFC09B038
:10073000F0BD80B5802149004248FFF771FE01BD40
:1007400080B5802149003F48FFF768FE01BD70B5C4
:1007500006003C4D8024640021002800FFF760FE65
:1007600021002800FFF75EFE300000F04AFCF7E7AA
:10077000400000207708041010B52E4C2000FFF731
:100780000DFD0028FAD02000FFF725FDB4282AD15E
:100790002000FFF71BFD002825D103212348FFF788
:1007A00052FD2000FFF702FD274800780028FBD00B
:1007B0002000FFF7F7FC0028FAD02000FFF7FBFC31
:1007C00022480078421ED2B221491B4800F016F898
:1007D00000280ED1FFF7ADFF1E4800F0BBFE1E48FB
:1007E00000F0B8FE10BD2000FFF7E0FC00F03AF882
:1007F000DAE700F037F810BDD022041010B501E0A0
:10080000401C491C13005A1E1B0605D003780C78A7
:10081000A342F5D0012010BD002010BD01200F49DA
:100820000870704701200849087070470000704840
:10083000A100002000100041900000203C0000209A
:100840003000002000001048A2000020A00000207E
:1008500034000020D82104104C220410A3000020F2
:1008600080B500E080B51120FFF733FCFA2080004E
:10087000FFF76DFF01BD002900D1704780B50178F9
:10088000632901D0432901D1FFF7C8FF01BD43000F
:10089000B3480168802252020A4302607047B048A0
:1008A00000688103C80F7047AE490A68AE4B134019
:1008B00000021843086008688022A8E0A9490A6875
:1008C00070233CE0A9490A68A94B1340000618436D
:1008D000086008688022120499E0000081B0A048F6
:1008E00000688003FBD5B748016802220A43026012
:1008F000002102E000BF0099491C009100990629DF
:10090000F8DB016804220A43026001B07047AD4978
:100910000A68AD4B2CE09248016810220A4302603D
:1009200070478F48016810229143016070478C48DE
:1009300000688106C80F70478C490A6860239A4393
:1009400010430860704786480168042291430160A3
:10095000704786490A681E239A4340001043086086
:1009600053E09A490A680623E9E796490A68984BD2
:10097000134018430860704779480168802292014B
:100980000A4302607047764800684104C80F704708
:100990008C490A68E023D2E78E490A68D0E78E487E
:1009A00000684107C80F70478C490A688C4BDFE725
:1009B0008A490A683023C2E78A490A6882430A6082
:1009C000091D3CE088490A68884B1340C002E022B8
:1009D000920102401A430A6008688022D20016E0A1
:1009E00081490A68824B13408001F0229200024044
:1009F0001A430A600868202209E07B490A681E231E
:100A00009A434000034013430B60086801220243ED
:100A10000A607047426830239A431143416070472F
:100A200081B06A490A6802430A6009680840009078
:100A3000009801B070476F490A6881E76D490A68FC
:100A400082430A6070478020C00500680007000FDD
:100A500070478020C00500680006000F704710B581
:100A60000C00002A0ED0FA21890000F025FF401E5C
:100A70006043CB4908600020CA4908600520CA4984
:100A8000086010BDC848016801229143016010BD93
:100A9000C548006880214902084000D00120C0B24A
:100AA000704770B50E001500012401220100BF48F7
:100AB0000068FFF7D4FFB047A84204D0FFF7E8FF73
:100AC0000028F8D00024002200210020FFF7C7FFF3
:100AD000200070BDF8B50122B549C820FFF7E1FF3D
:100AE000002801D10120F2BD2020FFF761FF802006
:100AF0004001FFF73AFFAF480068AF49884212D182
:100B00000F20AE490F6807400A685206540F0A6862
:100B1000150A05400A68120B104000900868800210
:100B2000800E012604E0082508271E200026032445
:100B3000FFF7C8FE002E02D00098FFF70AFF28003A
:100B4000FFF75BFF3800FFF74BFF2000FFF73AFF8E
:100B500080204000FFF728FF0020F2BD00000000C9
:100B60000000404898004048FFC0FFFF0C0040488C
:100B7000FFFFFFC070B50024C0208001FFF71CFFFD
:100B800080200002FFF7C3FE6020FFF7D5FEFFF7CD
:100B9000DAFEFFF7C6FE96267600894D0022290070
:100BA0003000FFF77EFF002800D10224FFF7B3FEDC
:100BB000012229003000FFF774FF002800D1022431
:100BC000200070BD08004048FF7FFEFF60004048E5
:100BD000FFEFFFFF04005048140050481C0050482D
:100BE000FFFEFFFF2800504894005048FFC7FFFF5A
:100BF0003FFCFFFF40004048F8B500280ED0202001
:100C0000FFF7C6FE0220FFF7ACFE0120FFF713FF3F
:100C10000120FFF713FF0120FFF702FF654800687E
:100C20006549884215D19D490A680D680B680720FF
:100C30000C68240D04400968090E08400090012149
:100C40000F201B0C03402E0AF0253540120A1040DD
:100C500003E008207025082300210F22D243904E84
:100C6000376817403B4333608E4B1E68F027BE4306
:100C700035431D601D682A4010431860002910D0BC
:100C800089480168072291436207520F0A430260B4
:100C9000016838229143009AD200382313400B4355
:100CA00003603F20C04381490A6802400A2313437E
:100CB0000B600A68402313430B60091D0A68024059
:100CC000042313430B600A68802313430B600A68F4
:100CD00040239A430A6024310A6802400A60091DD1
:100CE0000A680240102313430B60091D0A68024082
:100CF000202313430B60091D0A680240302313436D
:100D00000B60091D0A680240382313430B60091D5C
:100D10000A680240392313430B60091D0A68024028
:100D20003A2313430B60091D0A6802403B23134317
:100D30000B60091D0A6802403C2313430B60091D28
:100D40000A6810403D2202430A605521FF20C0433B
:100D5000754A136803400B4313600C321368034059
:100D600066241C4314601432136803401943116055
:100D700088490A6802401D2313430B60091F0A6853
:100D80000240592313430B6008310A681040322295
:100D900002430A608048016801220A430260F1BDF3
:100DA00014E000E018E000E010E000E04000002067
:100DB0009F090410F81E0010CCECBCFCE41E0010CF
:100DC0002F09041010B50400FFF762FD01227B49D2
:100DD0006420FFF766FE002801D1042010BD20002A
:100DE00009D1FFF736FE0401FFF72DFE204310283E
:100DF00040D1062010BD641E062C3AD801A0005D2B
:100E0000874400BF08323C46505A640010216C48A9
:100E1000FFF700FE0020FFF7BBFD6048664C206036
:100E2000FFF7AAFD01226749C820FFF73AFE002814
:100E300029D1052010BD2020FFF7AAFD5848EDE775
:100E40004020FFF7A5FD5748E8E76020FFF7A0FD29
:100E50005548E3E78020FFF79BFD5448DEE7A020DC
:100E6000FFF796FD5248D9E7C020FFF791FD5148A2
:100E7000D4E7FEE72020FFF78BFDFFF72FFD484862
:100E80004D49086003E020684449884203D00021AE
:100E90004B48FFF7BFFD002010BD0000E81E00100A
:100EA000781600607416006048160060C016006076
:100EB00070B50400FF282BD00D00042D09D0052D9E
:100EC00007D0062D05D0072D03D0032D03D1002C0C
:100ED00007D1012070BD012C03D00220FFF741FD96
:100EE00003E00420FFF73DFD0124FFF7B2FD0601FA
:100EF000FFF7A9FD304310280AD1012D0AD1012C9A
:100F00000ED12A2030490860304800680007FBD421
:100F1000002070BD022D05D1012C03D12920F1E75D
:100F2000002CFBD02820EDE74815006038B5040000
:100F30000D00274827490860274908612020FFF74E
:100F40002BFD4020FFF728FD8020FFF725FDFFF750
:100F5000C1FD01001DD1FFF70DFE010019D1FF2DCC
:100F600002D00120FFF748FE2020FFF79DFC302033
:100F7000FFF7A4FC2000FFF725FF010009D12100A5
:100F80002800FFF795FF010003D100F011FD62B6C4
:100F9000002032BD881500606C1500600090D00301
:100FA0000048E8010024F40000127A0000093D0026
:100FB00080841E0040420F00400000209F08041063
:100FC0000010004087090410005000400450004009
:100FD0000000041008ED00E00400002000B500F05F
:100FE0006BFC401E10490860002010490860072073
:100FF0000F49086000BD80B5FA218900FFF7EEFFB8
:1010000001BD81B00A490A680092009A0022D243C9
:10101000904202D0401C002804D00A68D203FCD5BC
:10102000401EF8E701B0704714E000E018E000E06F
:1010300010E000E00B4906E00B490A6882430A60B1
:10104000091D04E009490A6882430A60091F0A6809
:1010500010430860704706490A6882430A60091D08
:10106000F5E7000024005048200050482C0050486C
:1010700028005048F8B50120FFF7DEFF0220FFF7F7
:10108000DBFF0420FFF7D8FF0820FFF7D5FF102073
:10109000FFF7D2FF2020FFF7CFFF4020FFF7CAFF66
:1010A0008020FFF7C9FF80204000FFF7C5FF8020A8
:1010B0008000FFF7BFFF8027FF003800FFF7BCFF6D
:1010C0007C002000FFF7B8FF6000FFF7B5FFA0002D
:1010D000FFF7B2FFE5002800FFF7AEFF2601300062
:1010E000FFF7AAFF0120FFF7B6FF0220FFF7B3FFCB
:1010F0000420FFF7B0FF0820FFF7ADFF1020FFF737
:10110000AAFF2020FFF7A7FF4020FFF7A4FF8020C1
:10111000FFF7A1FFE008FFF795FFA008FFF792FF98
:101120003800FFF798FF2000FFF795FF2800FFF732
:1011300092FF3000FFF78FFFF1BD7047010005D42B
:101140000121C006C00E8140904801607047F0B593
:10115000020013D418228E4B8408A4001C59FF25CA
:10116000C6001640B540AC438907090EC5002A40A9
:1011700091402143800880001950F0BD0F25854B18
:1011800018242A40083A920892000540083DAD080C
:10119000AD005D59FF26C7002740BE40B543890713
:1011A000090EC0000440A14029439950F0BD81B010
:1011B000BC4901E081B078490A6802430A600968C5
:1011C00008400090009801B07047B74908E0B7495F
:1011D0000A6882430A60091D06E0B4490FE0B44979
:1011E0000A6882430A60091F0A6810430860704752
:1011F000B0490A6882430A60091DF5E7AD490A68EB
:1012000082430A60091D0A6882430A60704730B54C
:1012100003680C004C4365002C19A3430C004C439D
:1012200054431C43046030BD43688B43514319430E
:101230004160704730B583680C004C4365002C1941
:10124000A3430C004C4354431C43846030BD80B521
:10125000030008009021C9058B420ED1002A03D05B
:10126000022A07D003D301BDFFF7B7FF01BDFFF787
:10127000ACFF01BDFFF7ABFF01BD002A03D0022A7E
:1012800007D003D301BDFFF7B9FF01BDFFF7A7FFEB
:1012900001BDFFF7ADFF01BD30B5446A0B0A0D0A71
:1012A0006B436B436B431D01EB1A9C430B0A0D0A06
:1012B0006B436B43090A4B4353432343436230BDA3
:1012C000016801220A43026070470168802292058A
:1012D0000A43026070478268D200D208490711436E
:1012E0008160704782687F4B1340490619438160D3
:1012F000704702680C239A4311430160704730B570
:101300000468794D25402A43114301604168774ABA
:101310000A401343436030BD8268754B1340194344
:101320008160704730B504001D00802000028242B9
:1013300014D17048704A0904C90B515A00F0BCFA24
:10134000400069084018290000F0B6FA80B26B49E5
:1013500001400007400F0143E16030BD6548664A27
:101360000904C90B515A00F0A7FA6908401829006E
:1013700000F0A2FA80B2E06030BD4168604A0A40E5
:10138000426081682A2291438160704700E100E059
:1013900000E400E01CED00E058004048C069010690
:1013A000C80F7047016820220A43026070478162BB
:1013B000704770B506000420FFF7F9FE9024E4059D
:1013C0008025AD00022229002000FFF720FF022225
:1013D00029002000FFF72EFF002229002000FFF740
:1013E00023FF012229002000FFF731FF00222900FE
:1013F0002000FFF751FF0420FFF7D9FE6D080222FD
:1014000029002000FFF703FF022229002000FFF738
:1014100011FF002229002000FFF706FF012229000A
:101420002000FFF714FF002229002000FFF734FFFF
:10143000A800FFF7BFFE334CE1235B02002200212E
:101440002000FFF76FFF0023002200212000FFF79C
:1014500056FF0C212000FFF74CFF00212000FFF772
:101460005BFF00212000FFF73DFF00212000FFF778
:1014700032FF2000FFF729FF2000FFF77EFF20004A
:10148000FFF71EFF30000BD01F4806602000FFF75B
:1014900089FF01210820FFF75AFE0820FFF74EFEC2
:1014A00070BD0000500040482400504820005048C3
:1014B0002C00504828005048F8B507000E000024C2
:1014C0000BE0104D2800FFF769FF0028F9D0E0B2CB
:1014D000395C2800FFF76BFF641CE0B2B042F0D328
:1014E000F1BD0000FFFFFFF1FFE9FFEFFFCFFFFFBE
:1014F000FFFCFFFF0024F400A0220410F0FF000016
:10150000FFB7FFFF004000418C00002070B50025B0
:10151000012804D0022802D00020C04370BD002959
:1015200001D1002070BD0C00160005E00121200053
:10153000FFF7C2FF641C6D1C3000461E0028F5D169
:10154000280070BD01B5012269460120FFF7DEFFCA
:10155000009802BD0EB4C0B5020003A8019000209F
:10156000009001AB0121044878440C3000F08CFA63
:10157000029906B0084700BF410D000010B50400F5
:10158000080011000200200000F02CFD200010BD1A
:10159000644908E064490A6882430A60091D06E05C
:1015A00061490FE061490A6882430A60091F0A68BD
:1015B0001043086070475E490A6882430A60091D4B
:1015C000F5E75B490A6882430A60091D0A6882439D
:1015D0000A60704730B503680C004C4365002C1955
:1015E000A3430C004C4354431C43046030BD436888
:1015F0008B43514319434160704730B583680C00F9
:101600004C4365002C19A3430C004C4354431C432A
:10161000846030BD80B5030008009021C9058B426D
:101620000ED1002A03D0022A07D003D301BDFFF751
:10163000B7FF01BDFFF7ACFF01BDFFF7ABFF01BD79
:10164000002A03D0022A07D003D301BDFFF7B9FF58
:1016500001BDFFF7A7FF01BDFFF7ADFF01BD30B52D
:10166000036A0C004C434C434C4325012C1BA34301
:101670000C004C434C434C4354431C43046230BD68
:1016800030B5446A0B0A0D0A6B436B436B431D0173
:10169000EB1A9C430B0A0D0A6B436B43090A4B433D
:1016A00053432343436230BDF8B5002607000C00C6
:1016B00028E029003800FFF7E3FF0EE0206801254D
:1016C000B54005401DD06068022806D1FF2D626933
:1016D000EFD829003800FFF7C2FF62682900380000
:1016E000FFF778FF6068012801D0022804D1A268C2
:1016F00029003800FFF781FF226929003800FFF731
:1017000089FF761C2068F040D8D138006168012933
:1017100001D0022903D1E2682168FFF768FF0020A9
:10172000F2BD000024005048200050482C005048D2
:1017300028005048016801220A430260704701688E
:10174000012291430160704710B50368134C1C409F
:10175000214312020A43026010BD8368DB0ADB02E8
:1017600011431943816070478168802212020A4345
:101770008260704781680A4A0A408260704701614E
:1017800070470268074B1340194301607047426875
:10179000034B13401943416070470000FFE0FFFF17
:1017A000FF7FFFFFFFFFCFFF38B505000C00FFF7FD
:1017B000C6FFE268A1682800FFF7C6FF616828003D
:1017C000FFF7DDFF2800FFF7B5FF2800FFF7D2FF86
:1017D000A26921692800FFF7C0FF2069002802D014
:1017E0002800FFF7C1FF21682800FFF7CAFF6169E1
:1017F0002800FFF7CCFF002032BD70471B490A6864
:1018000010430860704719490A6882430A607047AC
:10181000002801D1164821E01548026811430160F3
:101820007047032803D1134802680A4308E00128DF
:101830000BD0022801D0042805D10E4802688A4343
:101840000260001D0AE0052807D10A4802688A43A1
:101850000260001D026811430160704702688A43FC
:10186000026070470449086070470000180000409B
:101870000C000040100000401C00004010B50400A7
:1018800020790028206812D0002812D00146607903
:10189000FFF7BEFFA079002802D02168FFF7C1FF43
:1018A0002068FFF7ABFF2068FFF7DCFF01E0FFF7E0
:1018B000AAFF002010BD7047094214D088420FD300
:1018C0000122030C01D100041204002300185B4123
:1018D0008B4200D35B1A5241F8D3190010007047B5
:1018E00001000020704708B500F0A4FB08BD704758
:1018F000F0B5020013D41822254B8408A4001C590B
:10190000FF25C6001640B540AC438907090EC50047
:101910002A4091402143800880001950F0BD0F25D6
:101920001C4B18242A40083A920892000540083DB2
:10193000AD08AD005D59FF26C7002740BE40B54346
:101940008907090EC0000440A14029439950F0BD09
:10195000BFF34F8F104811490860BFF34F8F00BF8E
:10196000FDE780B50E48006800280ED10D480068DC
:10197000002803D10C480068002806D001200B493C
:10198000886000F058FBFFF7E3FF012002BD000074
:1019900000E400E01CED00E00400FA050CED00E0BE
:1019A000940040481000504838005048040000207F
:1019B00080B503210020FFF79BFF03210120FFF7E3
:1019C00097FF03210220FFF793FF03210320FFF776
:1019D0008FFF03210420FFF78BFF03210520FFF772
:1019E00087FF03210620FFF783FF03210720FFF76E
:1019F0007FFF03210820FFF77BFF03210920FFF76A
:101A000077FF03210A20FFF773FF03210B20FFF765
:101A10006FFF03210C20FFF76BFF03210D20FFF761
:101A200067FF03210E20FFF763FF03210F20FFF75D
:101A30005FFF03211020FFF75BFF03211120FFF759
:101A400057FF00211220FFF753FF03211320FFF758
:101A50004FFF03211420FFF74BFF03211520FFF751
:101A600047FF03211620FFF743FF01211720FFF74F
:101A70003FFF00211820FFF73BFF03211920FFF74C
:101A800037FF01BD70477047F0B597B005001600ED
:101A90001F001C986A460023002418C2059104A95F
:101AA0002B2288540B9303950F960EE023000F9A78
:101AB00004A9039800F07AFA002800D5D8E001E0E4
:101AC000F4D501240F9800190F900F98007825285D
:101AD00009D10020089009900A900224082102915F
:101AE00004210F9D0CE06A460021C9430F9800F0C5
:101AF000D1FA0400E4D10B98BCE0020001201043AD
:101B00006D1C2A78202AF8D0232A0AD02B2A04D048
:101B10002D2A04D0302A07D009E02043F0E70843FB
:101B2000EEE702000820EAE702001020E7E72A2A91
:101B30000CD13B681A681B1D3B600D92002A03D52F
:101B400053420D93014308006D1C14E000210D91D8
:101B5000004A0BE0CBCCCC0C0D9B934205DA9E00E7
:101B6000F3185B00591830390D916D1C29780B0062
:101B7000303B0A2BF0D329782E2903D00021C9430A
:101B80000C9125E06D1C29782A2906D139680A684C
:101B9000091D39600C926D1C1AE02D2902D12D23EC
:101BA0006D1C00E0002300210C910CE0002B09D1FA
:101BB0000C9AB84EB24205DA9600B218520051188B
:101BC00030390C916D1C29780A00303A0A2AEDD37D
:101BD00004A908852E783100AFA000F063FA002830
:101BE00001D06D1C00E0002604A82A214654405C68
:101BF000682807D12878682804D1622004A92A22FD
:101C000088546D1C11A807902A78681C0F90252A0B
:101C100013D0582A4FD0632A00D1B1E0642A79D07A
:101C2000692A77D06F2A46D0702A3BD0732A0AD00F
:101C3000752A40D0782A3ED0ABE0012008902520BC
:101C400011A90870AFE038680468001D3860069478
:101C5000002C14D104A82B21405C00280CD00024B7
:101C6000E44300BF8EA000F027FA201A00D19AE0CA
:101C70000020C04317B0F0BD90A0069093E00C9DEB
:101C8000002D03D5200000F03BFA09E02A000021D6
:101C9000200000F03DFA002801D0001B00E02800E1
:101CA000099080E038680168001D3860049111A82F
:101CB0000690782160E004AB2A20185C622803D0EB
:101CC000682807D06C280BE039680868091D39605E
:101CD000C0B209E039680868091D396080B203E0C4
:101CE00039680868091D39600490188D0299C0B2DE
:101CF00008423CD00498002839D02020104378288E
:101D000035D1089811A930230B54401C431C08936B
:101D10000A542CE004AB2A20185C622803D06828FF
:101D200007D06C280BE039680868091D396040B29B
:101D300009E039680868091D396000B203E03968B4
:101D40000868091D39600490002802D508982D21E3
:101D500009E0188D204202D008982B2103E0C0072B
:101D600005D50898202111AB1954401C089011A8E2
:101D7000089940180690110004A800F0A0F812E09D
:101D80000120089038680168001D386011A80170B2
:101D900009E001200890252011A90870100002D048
:101DA000089411A842700D980899401A0A99401A8F
:101DB0000999401A109004A82821405C400713D4C8
:101DC000202069460872109800280DDD109C039DA4
:101DD000012302AA04A9280000F0E8F8002800D096
:101DE00046E7641EF4D10395089D11AC002D0ED07A
:101DF000039E21780598B0470590002800D137E769
:101E00000B98401C0B90641C6D1EF2D10396302081
:101E1000694608720A9C002C0CDD039D012302AA6E
:101E200004A9280000F0C2F8002800D020E7641EB2
:101E3000F4D10395069C099D002D0ED0039E2178B8
:101E40000598B0470590002800D111E70B98401C79
:101E50000B90641C6D1EF2D1039604A82821405CEF
:101E6000400700D431E62020694608721098002807
:101E700000DC2AE6109C039D0F9E012302AA04A900
:101E8000280000F093F8002800D0F1E6641E00D18D
:101E900009E6F2E7CBCCCC0C686C747A4C000000FD
:101EA0007072696E74665F733A2062616420257394
:101EB00020617267756D656E740000000000F0B5FA
:101EC00083B00A00C4686F2901D1082506E02021EB
:101ED0001143782901D00A2500E010251827016850
:101EE0000E00642A01D0692A03D1002901D571426C
:101EF0000E00002E0CD1016A002909D1082D31D124
:101F00002821415C09072DD517273021E17529E0EB
:101F10000290684602707F1E019730002900FFF78B
:101F2000CBFC3031C8B23A2803DB68460078513820
:101F30000918E15530002900FFF7BEFC060004D067
:101F400002988068E1198842E5D30298082D09D1EA
:101F50002821415C090705D5E15D302902D07F1EAB
:101F60003021E1551821C91B4161E2198260026AE2
:101F7000914206DA511A8161018D0B4A0A400285AD
:101F800010E0002A0ED52822825C14231340102B67
:101F900008D1426A0369D21A8369D21A511A0129F7
:101FA00000DB816103B0F0BDEFFF0000F8B5002455
:101FB000002B11D007000E0014001D00217870685E
:101FC000B8477060002809D0F069401CF06100201B
:101FD000641C6D1EF2D104002000F2BD0020C0433D
:101FE000F9E770471206130A1A43130C1A4300BF8D
:101FF000094205D0830705D00270401C491EF9D163
:10200000704700001300103906D330B414001500D7
:1020100010393CC0FCD230BC490700D30CC000D5FD
:1020200004C0890002D30280801C002900D5027000
:10203000704770477047704730B45368D41803E056
:102040005B1C491E641C401C042B06DA002904D0CA
:10205000057825700578002DF2D1536030BC7047AB
:1020600038B500290ED01D001400FFF7E5FF6168A8
:1020700020006A6B90470122D243811A02D0491E88
:1020800002D004E0012000E00020C04332BD002166
:10209000616032BD80B5024BFFF7E2FF02BD000078
:1020A00044000020C9B202788A4203D0401C002AB2
:1020B000F9D100207047704780B5002801D100BFDA
:1020C00007A006490B68002B03D022220021984765
:1020D00001E000F028F8222002BD00009C00002052
:1020E000636F6E73747261696E742068616E646C84
:1020F00065723A20626164206D6573736167650083
:10210000431C0178401C0942FBD1C01A704770473C
:10211000C9B2521E05D30378401C8B42F9D1401E30
:1021200070470020704780B5012000F001F801BD24
:1021300080B500BF00BF024A11001820ABBEFBE70C
:102140002600020000688105C80F7047006801057D
:10215000C80F70478021490041607047FEE70D4875
:102160000168491C0160704710B50B4C2000FFF757
:10217000E9FF002805D02000FFF7ECFFFEF752FB37
:1021800010BD2000FFF7E2FF002801D0FEF768FB3A
:1021900010BD0000980000200000704830B50168B4
:1021A0004118446862088A188368E40704D54C46DD
:1021B0001B1901E0641C06D191420BD00C7864B26B
:1021C000491C0D78491C1D705B1C002CF2D4641E48
:1021D000F7D5F1E70C3030BD536C6176652052784D
:1021E0002073657175656E636520636F6D706C65D6
:1021F000746564207375636365737366756C6C795D
:102200000A0D000010B5074979441831064C7C448A
:10221000163404E0081D0A68891888470100A142A5
:10222000F8D110BD080000002400000071FFFFFF7E
:102230001201000018000000C000002061FFFFFF35
:10224000D600000058000000300000202A2A205448
:10225000657374207375636365737366756C6C79ED
:102260002E202A2A200A0D0A0D000000FFF779FB14
:10227000002801D0FFF7C6FF00BF00BF002000BF4D
:1022800000BFFEF7D3F800F000F880B500F002F8C8
:1022900001BD704707463846FFF74AFFFBE7704726
:1022A000010002000400060008000A000C001000F3
:1022B000200040008000000138B505000C0020001F
:1022C000FFF740F9A04200D00025280032BD70473A
:1022D000534C41564520424F4152440A0D000000E4
:1022E00000BF00BF00BF00BFFFF7C0FF0078401E67
:1022F0008041C043C00F70477047704770477047B8
:102300007047704770477047704770477047704715
:1023100070477047704718090332104C4544204FEE
:102320004E0000340000200090D0038E08041001FD
:10233000D10003ED220410F8000001E500030706B8
:0E234000000081008100810081008100DF002B
:04000005100422E1E0
:00000001FF
