:020000041004E6
:1008000000600020816A0510B15F0510BD5F051012
:10081000AA5555AA45554C420000000000000000B2
:10082000000000000000000000000000C95F05108B
:100830000000000000000000CB2A0410CB5F051070
:100840000F2B04103F3E0410B33E041087430410E6
:100850000000000000000000000000001B44041025
:10086000D35F05100F450410474C0410FF550410CA
:10087000BB580410F5220510775B0410DD5F0510EE
:100880005F5D0410DB5F051003600510535E04100C
:10089000EF5F05109B61041047620410E75F0510CD
:1008A000DF5F05103160051087670410BB6A041014
:1008B0000000000000000000000000000000000038
:1008C000FEB51C00089FAA4D6B4658706846017023
:1008D00016001CE00422A9192C3101A801F01CF912
:1008E000002F0FD101A8C07869464978884209D104
:1008F0006846007806280FD06846007801A98978F4
:10090000884209D0684680883618B6B20027688DBC
:100910008642DFD10020FEBD002C00D026800120C1
:10092000FEBDF8B584B004000F001600904D607B4A
:10093000002802D12A8D002300E0E289009301AB58
:1009400001212078FFF7BCFF002801D1042019E025
:100950000120607368468088E081684680882C1892
:10096000062221002C3102A801F0D6F820003230F6
:10097000386068460089801F308002A800790A9993
:100980000870002005B0F0BD7CB5794D298D6A4610
:1009900091800021060019E0684680882C18042206
:1009A00021002C31684601F0B7F800F080FC694660
:1009B0000988421A61182C3120002C3001F0F8F817
:1009C000688D69460988401A68850121009101AB4C
:1009D0006846828806213000FFF772FF0028DBD1CD
:1009E00073BDBD4A514380081B22424388182530FD
:1009F000704770B506000D00EFF310840DE0012381
:100A000032780021B54801F00CF984F31088307871
:100A1000401C30702878401E2870287800280BD0A1
:100A200001210020FFF7DDFF72B601F029F900284F
:100A3000E5D184F31088072070BD0168002202818F
:100A4000428182730B78FF2B05D0FE2B09D10389DD
:100A50005B1C03810AE04268511A091F8181002052
:100A60007047002B0DD143895B1C43814A88D21CFF
:100A7000032313435B1CC9184A1D43689A42E1D300
:100A8000EDE703207047FCB585B00D9F427B002A3F
:100A90001BD10C9A130005D002AB5A80FE221A70AB
:100AA00002AD00E04568426883689A4215D26A4602
:100AB00091712978FF292E4E01D10EE020000021EE
:100AC000027B002A12D001731EE000970123069AD0
:100AD0000599FFF726FF002847D0042045E00320B2
:100AE00043E06A786B469B799A4216D042686B88DD
:100AF000DB1C03241C43641C151945608268954265
:100B0000E3D22A78FF2AE0D02A78002AEED0FE2A03
:100B1000E5D16A469279FF2AE3D1328D6B469A80FD
:100B200004000CE008226846808831182C3103A8A4
:100B300000F0F2FF049861688842BFD00121009163
:100B400001AB6846828802212078FFF7B9FE0028B1
:100B5000E8D16068001D05990860688806990880DA
:100B6000002F01D068783870002007B0F0BD000079
:100B7000501000207FB515001C00099E0022328015
:100B80000B9A01926A46128D009202AB03AAFFF7FC
:100B90007AFF010013D1694609898D4201D30620ED
:100BA0000DE0089A481B904200DA020020000399E9
:100BB000491900F0B1FF684600893080002004B078
:100BC00070BDFEB5A24D0D40491B6B461970002447
:100BD000070016000AE00422311901A800F09CFF6A
:100BE000019A39193D4800F0FBFF241DAC42F2DBAD
:100BF0000020C043019068460278711901A800F0F6
:100C00008BFF019A7919354800F0EAFFF7BDF6B578
:100C100085B00E001C0025000027FF43417B002902
:100C200018D000210091002301AA921C02A9FFF70D
:100C300078FE00283AD16846C088801B80B2A04266
:100C400046D32A0002988119069801F0B5F80028C9
:100C50003FD03DE0416802918268914202D209781A
:100C6000FF2901D1042034E0027B002A1ED1FE2995
:100C70001CD17849098D6A469180040001200090BA
:100C800001AB6846828802212078FFF719FE002810
:100C90000ED008226F486946898841182C3103A874
:100CA00000F03AFF049861688842E7D1052010E01F
:100CB000029949888E4201D306200AE020732A0057
:100CC0006068001D8119069801F076F8002800D0B0
:100CD000380007B0F0BD00003423000000100040D1
:100CE000FFB585B000270E9A178069460C8C417BB2
:100CF000002919D0009700230E9A01A9FFF711FED1
:100D0000002846D10E9800886946098B421A684629
:100D1000008C824200DB220001986946098B411851
:100D2000079800F0F9FE50E00F990A0005D002AADA
:100D30005180FE21117002AD00E045684168826873
:100D4000914202D22978FF2901D104203EE0027BA2
:100D5000002A1ED1FE291CD13E49098D6A46918088
:100D600006000120009001AB68468288022130789D
:100D7000FFF7A6FD00280ED008223648694689886C
:100D800041182C3103A800F0C7FE0498716888420E
:100D9000E7D105201AE06846008B6988884201D3B4
:100DA000062013E037736846008B69880A1A694683
:100DB000098C8A4200DB22007168091D0918079816
:100DC00000F0AAFE68880E990880002009B0F0BDE6
:100DD00038B5050000210420FFF703FEEFF310846F
:100DE00072B600F04DFF002803D184F3108807206D
:100DF00032BD2900FF22D243A84800F0F1FE84F35F
:100E00001088002032BDF8B507000E00150000F074
:100E1000D3FF00281BD0681EA1490143491C4B0386
:100E20001B0EA0483818C20A00219C4800F0F9FEA9
:100E300000240AE06010800F0019801080003258F2
:100E40003919964800F0CCFE241DAC42F2D3F1BD16
:100E5000FCFF0000501000200121017000214180A2
:100E600081807047F8B58AB005000E0017001C009D
:100E700000200090FF223900300000F0B3FFFE2078
:100E800069460876099508960794109D009C06AE61
:100E90001AE06846008A6988401A401E0324044309
:100EA000641CA4B268886946098A091A4A1E03218B
:100EB0001143491C89B2059A8A4244DB01209142C0
:100EC000287049D000206880381B001F80B2059030
:100ED0002878002828D0701C0390A888029004A8C5
:100EE0000190059880B200900898001D0319002217
:100EF000FF210998FFF73EFE6946098AA980010093
:100F00000ED16846008A7080042206A9089800194C
:100F100000F002FE7088C01C032101436418BFE783
:100F200007990C800BB0F0BDA888019004A8009030
:100F3000059883B20898021969880998FFF7D0FECE
:100F40000100A6D0EEE700212970059940186880BD
:100F5000079807800020E5E70020F8E7F1B58C4806
:100F600085440027CB48842109016944097814226B
:100F70005143411801914989002901D100208AE09B
:100F800000970023028D0621842000016844007828
:100F9000FFF796FC002801D009207CE0202000F01B
:100FA0008CF9002801D1082075E006A984200001F1
:100FB0006844007800F01AFB079C04A8FFF74CFF78
:100FC000EFF3108604A803C80AAA03C20CA806A956
:100FD000102200F087FD04A8009003AB80221201CC
:100FE00010A906A8FFF73EFF0500042D08D0002D2C
:100FF00051D168468089802109018842E2D103E00D
:1010000068468089002816D0012168468089FFF74C
:10101000E8FC72B600F034FE002829D068468289C8
:1010200010A92000FFF7EFFE86F310880127F802D1
:101030002418002DC6D00898401E19490143491CA8
:10104000081BC00A6946487016482018C00A087074
:10105000491C6846FFF7CDFC072819D1684642783D
:101060000178842000016844007800F0B1F912E0B2
:1010700086F31088002F01D107200CE00AA803C8CE
:101080000190029100940CA80FC800F072F902E0E0
:101090000198FFF7D2FCCC498D44F0BD0010004010
:1010A000FF0700000000FCEFF8B5C84CA5448027FE
:1010B0003F010500EFF3108602A82900183106222F
:1010C00000F02AFD04A8291D102200F00BFD2800C5
:1010D0001830009001AB3A0008A9281DFFF7C2FEA6
:1010E000040068468088B84205D0002CE4D06846E9
:1010F0008088002816D0002168468088FFF771FCA0
:1011000072B600F0BDFD002829D06846828808A983
:101110006869FFF778FE86F310886869C01968610E
:10112000002CC9D0E868401E791E0143491C68693B
:10113000081AC00A694648706869B4494018C00A6C
:1011400069460870491C6846FFF753FC072815D10B
:10115000684642780178287900F03AF915E086F37C
:101160001088281D04A9102200F0BCFC28001830AB
:1011700002A9062200F0D0FC072006E045482979A4
:10118000142251434018FFF758FCC6498D44F0BD66
:10119000C0F7FFFFF8B58D4CA54400216A46917158
:1011A000002400253B4F060000E06D1C307985428D
:1011B00016DAB0680C216943405C010014225143E7
:1011C00079184989002900D00124002100910023C9
:1011D0003A8D0621FFF774FB0028E6D0092055E080
:1011E0003500002C24D080273F013A00FF2108A8B9
:1011F00000F021FE00240DE002A8FFF72DFE02A85A
:10120000009001ABBA1B92B208A8811904A8FFF79D
:1012100029FE641C287984420CDAA8680C226243F7
:10122000011D8E5804A9805C00F0E0F90028E3D08D
:1012300000202BE001213800FFF7D3FBEFF31086ED
:1012400072B600F01DFD002803D186F31088072038
:101250001CE03A0008A92868FFF7D5FD86F310883E
:1012600000260C4F684684790CE0A8680C21714375
:10127000405C142148433818FFF7DFFB010000D021
:101280000400761C28798642EFDB200085498D44D6
:10129000F0BD000050100020C1498A79824201D17E
:1012A00002207047897C8142FAD000207047CE48E6
:1012B000418D008D081A80B2704770B50400FFF7A9
:1012C000F6FF050080204000411BA14201DA00200A
:1012D00070BDC54E718D401AA0420BDA2A00300055
:1012E0002C30318D411830002C3000F061FC002092
:1012F00030857585012070BD70B50C00BA4D6E8DBE
:1013000080214900891B2200914201DA002070BD32
:101310000100A8192C3000F0FFFB3019688501206E
:1013200070BDFEB504000D00099F581E0321014346
:10133000491C684601800088C619B61DB0B2FFF787
:10134000BCFF002801D10820FEBD01A80121817049
:101350000680C47005710621FFF7CEFF684601883C
:101360000898FFF7C9FF39000A98FFF7C5FF00206A
:10137000FEBD1FB588B02020FFF79FFF002801D1D8
:1013800008201EE00E9C6846202101800321817008
:10139000001D08A9102200F0A5FB0594684618302E
:1013A0000FA9062200F0B8FB20216846FFF7A4FF32
:1013B00001208D4908AA127814235A43891888738A
:1013C00000200CB010BD000044080000E0F7FFFF53
:1013D0007CB504000D0016000620FFF76EFF002804
:1013E00001D1082076BD6846062101800421817064
:1013F000C470057146710621FFF77EFF01207A490E
:101400001422544309198873002076BD0000FCEFB4
:10141000F8B5944CA54407000D0080221201FF216D
:1014200008A800F008FD00241BE00C266643A8680D
:10143000805DB84214D004A900F0D8F8A8688019DB
:10144000466802A8FFF708FD02A8009001AB8020C3
:101450000001821B92B208A8811904A8FFF702FDBF
:10146000641C28798442E0DB2E0080252D010121B7
:101470002800FFF7B6FAEFF3108472B600F000FC14
:10148000002803D184F31088072007E02A0008A968
:101490003068FFF7B8FC84F31088002001498D44C0
:1014A000F0BD000024080000FBB582B003236E49A4
:1014B0005218032515436D1C0CE03778FF2F17D009
:1014C000FE2F01D0002F2BD17288D21C1A43521C40
:1014D000B218426082684668741D9442EDD3424956
:1014E0000078142250430818408900281AD015E0CB
:1014F0000190901B884200D308003B4C80B2A9B2F7
:101500006A46128D8918091D88420DDA0198007803
:101510001421484320184089002803D00B203DE0C7
:1015200003203BE0022039E06846007BFE216A464A
:101530001170694648706846008D2818488000215F
:10154000001D80B2FFF74DFAEFF3108772B600F07E
:1015500097FB002803D187F3108807201EE0009A2C
:1015600031007C4800F03CFB049AA9B2301DFFF723
:1015700028FB0B9A6846018DADB27019001DFFF76C
:1015800020FB87F310882000083001990978142285
:10159000514340180188491C0180002005B0F0BD6E
:1015A0004069051010B500249B480C216143411887
:1015B0008A79694814235343C0180368002B11D15A
:1015C000012A0FDC0A6802608B88D2184260098900
:1015D0000182FFF732FA010005D1641C012CE3DD22
:1015E000002010BD012010BD5010002010B50200D9
:1015F000022A01DB012010BD574B142462439A18C4
:1016000013684B6052688A6001220A7308700020D8
:10161000487310BD7FB5504C057814267543641986
:10162000A47B002C01D00A2008E003940294099CBA
:1016300001946C46248C0094FFF79CFA04B070BDB2
:101640007CB5454C0578142675436419A47B002CA1
:1016500001D00A2076BD0194069C0094FFF740FB60
:1016600076BD0000E0F7FFFFFFFF0000F0B585B09A
:10167000060030786C462071374D68460079142496
:1016800060432818847B002C01D0092041E0521EC1
:1016900003241443641C8789BC46A7B26A46128D92
:1016A000BA18944506DA4089002801D00B2030E0B2
:1016B00002202EE06846017304930B9F00200090E7
:1016C00000232A8D062168460079FFF7F9F80028E3
:1016D00021D002976846008D019004980090A3B233
:1016E00072686846017B3078FFF71BFE010010D15D
:1016F00028000C30317814225143401801886A4682
:10170000128DA218521E03231343C91A491F0180C8
:10171000002005B0F0BD01976846008D0090049B45
:10172000A2B26846017B3000FFF7BEFE0100DFD0A9
:101730000728EED102976846008D0190049800902A
:10174000A3B272686846017B3078FFF7EAFD0100BA
:10175000CED0DEE70010004050100020FEB505009E
:10176000694E30000E30297814225143405C002825
:1017700001D00920FEBD0024687B002810D0E88934
:101780003518062229002C31684600F0C5F9684654
:1017900084700622694628002C3000F0BDF938E03C
:1017A0006868A96888421DD20178FF291AD0FE29ED
:1017B00016D1FFF70DFB010001D015D129E0300053
:1017C000083029781422514340180188491E0180AD
:1017D00028781421484330184189491C418118E078
:1017E0000520FEBD0420FEBD072813D16F682D78AB
:1017F00008260820FFF761FD002801D10820FEBD62
:101800006846068002218170C57001970821FFF7A4
:1018100073FD0020FEBD000040690510F0B585B0E5
:101820000400394F1421484338180290807B002867
:1018300001D0092066E001A92000FFF72DFD022854
:1018400025D102980068A3494118C90A6A46517017
:1018500002994968491EA04A0A43521C101AC00A3C
:10186000694608702000FFF78FF8694600A8401C01
:10187000FFF7BFF8072806D16846027841782000B4
:10188000FFF7A6FD3EE00298FFF7D7F835E0012804
:1018900037D101992000FFF7BBFD060013D10024CA
:1018A0000198007984422ADA019880680C2161430A
:1018B000455C2800FFF768F8142045437819FFF7C6
:1018C000BCF8641CECE7072E19D1019F08260820FC
:1018D000FFF7F3FC002801D1082013E02000FFF7F8
:1018E00053F803A8068005218170C470049708216D
:1018F000FFF702FD012002998873002002E030000A
:1019000000E0012005B0F0BD501000201CB504001F
:101910006946FFF7C1FC022803D12000FFF71EFB38
:1019200016BD012803D10098FFF734FC16BD012035
:1019300016BDF0B58BB00027684C208D618D8842B4
:1019400038D02518042229002C3102A800F0E4F830
:1019500002A88078012808D006D3032869D051D383
:10196000052800D190E071D3B2E0062229002C3185
:1019700003A800F0D1F805A903A8C078FFF736FE48
:1019800001970097208D2318323368468089821F83
:1019900092B203A8017905A8FFF786FD050053D18F
:1019A000208D6946098940182085618D80B2884262
:1019B000C3D1A7624A4800214156C8B2142242430B
:1019C000A2185389002B03D09389128A934213D310
:1019D000401CC0B2022800D100208842EED1002174
:1019E0000020C0433E4A1170010602D4C0B2FFF786
:1019F0008DFF00200BB0F0BD411C4AB2022AF1D18C
:101A00000021EFE7082229002C31684600F084F815
:101A10000198FFF7DDF9050016D16846C07814215A
:101A2000484320180189491E01814189491C41818F
:101A3000B6E7202229002C3103A800F06DF803A896
:101A4000FFF732FB0500ABD02800D3E706222900C0
:101A50002C31684600F060F86846411D001DFEF715
:101A6000C8FF05000622694620002C30238DC018CF
:101A700000F052F8002DE7D16846C07814214843A1
:101A80002018FEF7DAFF8BE7082229002C31684680
:101A900000F042F801996846C078FFF7B9FC0500EC
:101AA000D2D10025019801798D42ECDA80680C21B1
:101AB0006943465C30006946C978884201D0FEF728
:101AC00063FF14204643A019FEF7B7FF6D1CE9E73A
:101AD0000C208FE70000FCEFFF07000050100020F3
:101AE0001F14002070B4103A03D378C9103A78C09C
:101AF000FBD2530701D318C918C001D508C908C0C3
:101B0000D20704D30B880380891C801C002A01D5CE
:101B10000B78037070BC70478B0701D18307E1D04D
:101B2000124205D00B78491C0370401C521EF9D19B
:101B30007047F1B4016842184168480813180098CA
:101B40008068C9071ED5494640181BE01778521C0B
:101B50000770401C761EF9D1002C13D01678521C49
:101B600089080D40032D01D11578521C29027118E6
:101B70004D424119A41C05D00D78491C0570401C2C
:101B8000641EF9D19A420FD01178521C0325032606
:101B90000E4002D11678F61C521C0C090F2CD9D11C
:101BA00014780F34521CD5E700980C30F2BC704703
:101BB000814202D25318984203D300B5FFF7ACFF1D
:101BC00000BD521E03D38B5C8354521EFBD2704760
:101BD00000690840884201D1012070470020704709
:101BE00010B50F2303618903090C8161026433215D
:101BF0000EE010B50F2303618903090C81611168A0
:101C000001645168416491688164D168C164CC21E8
:101C10000160040001212000FFF7DAFF0128F9D15B
:101C200010BDF8B505000F26FF2909D12E6122202D
:101C3000286001212800FFF7CBFF0128F9D1F1BD71
:101C400017003C00009306E001212800FFF7C0FFC9
:101C50000128F9D1641C009838188442EFD22E6113
:101C6000E0028003000CA86111202860ECE710B5A9
:101C70004C788A780878CB1C2146C046C04610BDF7
:101C800058B5040000F07CFA0600684600F0A2FB9C
:101C9000002803D00098801B844201DA012052BD45
:101CA000002052BD10B5FFF77DFC424C211D0020E5
:101CB000FFF79CFC210014310120FFF797FC201D49
:101CC000206010BD3EB53B4C022802D125001435E2
:101CD00000E0251D256001936B461B8B00930B00D4
:101CE00001002068FFF7C2FC002805D0022801D1BE
:101CF000002000E00120C0433EBDF8B584B00E00D6
:101D000019002C4C022E03D125001435012301E0CB
:101D1000251D00230700256028466D466A81039132
:101D20000A9D022F08D102A900912B00039A69464F
:101D30004989FFF785FC0FE0002F03D1010018004F
:101D4000FFF754FC02A801900095039B6846428966
:101D500031002068FFF75EFC010001D1002005E0A2
:101D6000042801D1022000E00120C04305B0F0BDED
:101D700010B5140023000A0001000E480068FEF7A9
:101D800046FF002804D001D5200010BD0220C0432A
:101D900010BD80B5022807D1064908681431884271
:101DA00007D0FFF7DBFC01BD032802D10020FFF7BD
:101DB00035FD01BD5C130020A446521E08D30378F4
:101DC0000C78401C491CA342F7D0181B644670478E
:101DD0000020644670478078800701D586207047D0
:101DE000002070471206130A1A43130C1A4300BF4F
:101DF000094205D0830707D00270401C491EF9D163
:101E0000704700000022FFE71300103906D330B4FA
:101E10001400150010393CC0FCD230BC490700D377
:101E20000CC000D504C0890002D30280801C0029A8
:101E300000D50270704710B50400080011000200C0
:101E40002000FFF7CFFF200010BD10B50888C04666
:101E5000C04610BDF3B589B000250D700998807A91
:101E600000285CD0944803C8944A126800231218D2
:101E70004B4106A80CC0EFF31080029072B600F040
:101E800073FC02000B00099803C804AC03C404A847
:101E900003C80090019106A803C8C826B60200270F
:101EA00036184F4100980199B9420ED301D8B0427B
:101EB0000BD306A803C8B9267600002736184F4171
:101EC0009F4229D801D3964226D2012400200A320B
:101ED000434104A803C800264C38B1418B4213D8B3
:101EE00001D3824210D20998027A037B04A803C866
:101EF000190000F0ACFC0A990870099885720998DD
:101F000044720998C47207E09C488572029880F375
:101F100010880A98047002E0029880F310880BB0D1
:101F2000F0BD80B500F0BCFB01206449087101BD23
:101F3000F8B507000E003C000020307000E0246976
:101F4000002C1FD0207B0028F9D0EFF3108572B64B
:101F500000F00AFC02000B0003CC083C801A9941F7
:101F6000002906DB01DC012803D3012100F054FC29
:101F700001E00120307085F310883078002801D00E
:101F80003800F2BD2000F2BDFEB500256C4625707C
:101F9000017B002901D00120FEBD0CC008380121C1
:101FA0000173464CA6680196070001E035003669CA
:101FB000002E08D00CCE083E03CF083F8B42F5D34D
:101FC00001D88242F2D338000661002D01D1019080
:101FD00000E028610199814213D16946FFF7A8FF0B
:101FE000A0606846007800280BD0EFF3108072B62E
:101FF000217D4A1C637D9A4200D0491C217580F3E3
:10200000108868460078FEBD10B52C4C002808D01A
:10201000207B00280BD120001830FFF782FF012021
:1020200004E02000183000F072F80020207310BD8A
:10203000FEB500F0D3FB854D00246C726C81EFF38C
:10204000108672B600F090FB6A4603C200F0D4FB23
:1020500007000CCD684603C8121A8B410021D21B21
:102060008B4186F3108804DC01DB012A01D20120B8
:10207000FEBD002B04DC01DB0F2A01D20220FEBDD5
:102080000020FEBD18B572480168724A0A4002601D
:102090000A490A7D531C4C7DA34200D0521C0A758C
:1020A000C16901220A43C261C069009011BD0020CC
:1020B0006649C87270470000D813002080130020C2
:1020C00010B5FFF761FF04000120FFF79DFFE0B2AC
:1020D00010BD38B50300002568460570274C2173F4
:1020E00022725D4803C81A1A002312184B410CC40F
:1020F000083C6572E5720120A07269462000FFF776
:10210000A9FE0120FFF780FF6846007832BD7CB54C
:102110000300AA4CA268150000210026100001E06F
:102120002E002D69002D09D09D42F9D101932B6914
:10213000954201D1180002E0336100E001936D4641
:102140002970019B1973824214D06946FFF7F0FE93
:10215000A0606846007800280DD0EFF3108072B6BA
:10216000217D4A1C637D9A4200D0491C217580F371
:10217000108873BDA06073BD00000000F013002044
:1021800080B500F0F1FA04BD00B5801A99410A2229
:10219000002300F011FC000B0A051043090B00BDE1
:1021A0007CB5060000F0CCFB802040038449086029
:1021B0006846B17881707168002900D00121C17032
:1021C0003188018000F003FA234800F0EBFA7B4DE0
:1021D0000024AC60012028737068002800D0012022
:1021E000A8750020E875194A50725081002103C279
:1021F00030882861AC82706800030A2100F00EFC70
:1022000028602C71704E002804D1300000F0B4FB1F
:1022100028600AE0300000F0AFFB2968814203D358
:10222000300000F0A9FB0100296068482862EC62D8
:1022300000F09AFA2A68002312184B41280018303F
:10224000FFF7A2FE286800F0BEFA73BDF01300206D
:1022500030180060FFFFFFBFD8130020F8B584B02E
:10226000002469460C70EFF3108572B65848407A26
:1022700000280AD000F078FA554A0CCA8B4204D8DC
:1022800001D3824201D25248447285F310884B4FE9
:1022900022E0401C19E004690021017381680029D3
:1022A00000D088472000F6D16946B868FFF740FEA5
:1022B000B8606846007801280AD1EFF3108172B641
:1022C000387D421C7B7D9A42E3D1387581F31088BA
:1022D000787D039940187875787D397D0A1A02D285
:1022E000802040001218002A28D00392BC680026E3
:1022F00002940194002502E0260024696D1C002C44
:102300000FD0207B0028F7D000F02EFA02000B003F
:1023100003CC083C801A99410029EDDB01DC06283A
:10232000EAD3002D03D000203061029401E00020A8
:1023300001900298B86001980028B4E7214C3879E0
:10234000002824D000F0B8F9002834D13871B97DC4
:10235000002904D1F97D002901D0F87504E000F0CE
:10236000BDF9200000F01EFA69461948FFF772FD1A
:1023700038001830FFF7CBFE00F0F6F93A6800237A
:1023800012184B4138001830FFF7FEFD13E0207C97
:10239000002810D000F0E8F90CCCFA2464030025E2
:1023A000A4185D418D4206D801D3844203D200F0C7
:1023B00077F90120387105B0F0BD000080130020CE
:1023C00000E100E0D8130020FFEFFFFF231F0410FF
:1023D000F013002003490968CA680260087C0009FC
:1023E0007047000078060020A948816801220A434E
:1023F000826000210160704730B5A64BA4490A688D
:102400001A400C681C40A242F9D1002AF7D0A24B16
:1024100014125C43D5B25D432B12E31810335B11E9
:10242000436282619D4A4B6813404C681440A3424A
:10243000F9D1002BF7D09911A34A514380310912E9
:102440000162C36130BD10B50400FFF7CDFF9F48A6
:102450000068C007FBD52000FFF7CEFF10BD682144
:102460004143090ADB225043000C0818704780B52D
:10247000FFF7F5FF7AE2FEB504000A00EFF31087DC
:1024800072B603CC083C924B1B681360914E0090CF
:1024900001913200616AE06A181A00F017FB00210E
:1024A000009A019B80185941AE4D2A0038320CCA5F
:1024B00099420FD801D390420CD200900191320082
:1024C000616A0020C04300F001FB0021009A019BDB
:1024D000801859412A00383203C287F3108803B0AC
:1024E000F0BD70B506007C4C607A7D214843C90080
:1024F00000F091FA451CEDB2A94A316A1B2000F0A8
:10250000E5FA207041366078FFF7B1FF3072E0786D
:102510004019FFF7ACFF307020794019FFF7A7FF93
:1025200070706079FFF7A3FFB070A079FFF79FFF8D
:10253000F07070BDFEB5040065480568A76A654E79
:1025400032003900206B281A00F0C0FA0200200087
:10255000083003C80090019110000021009A019BEF
:102560008018594103C4083CA1480078002811D1C3
:10257000206B281A616B88420CD23200390000208F
:10258000C04300F0A3FA0CCC083C0021801859414C
:1025900003C4083CE562256303CC083C22000832F2
:1025A00003C2606AA062F7BD80B57D4A00F08EFA72
:1025B0008949884201DD080002E0102800DA102075
:1025C000684900118882888A8D49086001BDF8B584
:1025D0000700644C388820618A4880797D2148430F
:1025E000C90000F018FA461CF6B2F878002802D1AB
:1025F000B87800280DD08448C168C907FBD50168A8
:1026000017220A4302602000FFF71DFF606AA062E4
:1026100009E0C8204003A06260627C4820627C48D8
:10262000A0617C48E06125004035F8782870216A77
:10263000206980B2FFF7B8FF00220020A8720021B5
:1026400003C4083C224B1B68E36223632300383336
:1026500003C32300083303C3EA722000FFF741FFDE
:10266000684C20788019FFF7FAFE1B30687160789B
:102670008019FFF7F4FE1B30A871A078FFF7EFFE7A
:102680001B30E871E078FFF7EAFE1B302872F1BDDD
:1026900008100060FFFF0700F6BC0800FFFFFF07FF
:1026A00053480078002806D0AC48816801220A43CC
:1026B000826000210160704704480068C107C90FAB
:1026C00001204840704700005307000010100060D0
:1026D0001018006035060000C500002038B594B021
:1026E000204C4020205C002831D068462100502238
:1026F000FFF7F8F96846FFF77FFE0899049880B263
:10270000FFF752FF6846FFF7ECFEEFF3108572B655
:10271000200040300121C1720699A1610799E16151
:1027200008992162099961620A99A1626946412268
:102730008A5C427042228A5C827043228A5CC27048
:1027400044228A5C02714922895C417202E0EFF303
:10275000108572B62000FFF7EDFE85F3108815B0E6
:1027600030BD00006812002080B569468548FFF73B
:1027700082FE04BDF8B505001E4C69462000FFF737
:102780007AFE06000F00804A616A0098401B00F044
:102790009DF900233900301A9941F4BD0000000072
:1027A000260300000200774B4020185C1074D869A3
:1027B000D0601800083003C803C2083A98699060D6
:1027C000186B5061704710B50A4C704A216A00F0CE
:1027D0007DF9606310BD0000FF0F000000206C4910
:1027E00008606C4801686C4A0A400260704700004B
:1027F000A812002068120020694800787047000085
:1028000008180060C800002004100060C2F528000D
:102810008D5B0000ECEB650180B55C4A5949096AA3
:1028200000F054F90100212901D3083100E02821EA
:102830005C4A10684118D161916980239B050B4364
:102840009361116A8023DB050B43136202BDFEB561
:1028500004004C4D280041300079012908D1002A9C
:1028600002D04121695C0CE029004131497808E03F
:10287000002A03D029004131897802E02900413142
:10288000C9780091019002A92800FFF7F4FD201AF1
:10289000414F0026414C3D4A01992B69C918C83166
:1028A0008142296A17D200F011F93F490A78801A4B
:1028B000009A801A029A12182260626807239A43CB
:1028C0006260334A16606268C023DB0513436360AD
:1028D000009A097811E000F0F9F829004131097AED
:1028E000401A009A801A029A1218294B5A60022242
:1028F0001A6062683A406260009A5318C118581D05
:10290000814206D222480660606807406760012065
:10291000FEBD1D4A696A180000F0D8F8290041314F
:1029200048720020FEBDEFF3108072B61D490968A1
:10293000174A891C51600221116080F3108870478A
:102940001A48012142680A4342600268114301604B
:1029500080200004164908607047000008100060DD
:1029600080B514480068FFF705FF04BD074A054914
:10297000096A00F0ABF802BD80B5034A0149496A13
:10298000F7E700006812002035060000260300006B
:102990000C00006028180060FFFFFFBF24180060D3
:1029A000B212002010180060C50000204818006016
:1029B00000E100E01400006030B4434351435D186F
:1029C000010C0C00130C5C432D1980B2434392B2EE
:1029D00051430024C918644124040B04090C09194B
:1029E0005043C018694130BC7047F446002804D4F5
:1029F000494200F013F8404260474042002905D4A4
:102A00005FD000F00BF8404249426047494200F075
:102A100005F84942604703460B43E6D40022030A07
:102A20008B420BD203098B4219D243088B422ED220
:102A3000411A00D20146524110467047FF22090256
:102A40003FD012068B4205D3121209028B4201D3EA
:102A50001212090203098B4219D300E0090AC309C3
:102A60008B4201D3CB01C01A524183098B4201D35F
:102A70008B01C01A524143098B4201D34B01C01A4A
:102A8000524103098B4201D30B01C01A5241C308C2
:102A90008B4201D3CB00C01A524183088B4201D331
:102AA0008B00C01A524143088B4201D34B00C01A1D
:102AB0005241884200D3401A5241CFD201461046BB
:102AC000704708B5C046C04608BD704710B5904273
:102AD00016D98AB2030C090C0C46594380B25343F1
:102AE000444350431B191A041B0C101859418022EF
:102AF0005203002312184B41520DD802104310BD4F
:102B00004843802252031218520D104610BD7047E0
:102B1000F0B599B005460746403514906878159091
:102B2000788E401C7886149F384620300590407B74
:102B3000002808D0FFF77CFA159800F081FC159862
:102B400000F086FCFEE3F848006840210840394662
:102B50001431049114313C468034169001910028C0
:102B60007AD004980090064600F02AFF304600F024
:102B700022FF2079149E4007C00F0DD0FFF758FAAE
:102B8000687800F05DFC0598132141730020A036A1
:102B900030717071A075A0E3002006900598007B4D
:102BA000032836D100988068C04608903046806877
:102BB000C04607460198874211D038788007800FB9
:102BC000032807D1384601F025F9062802D13046FE
:102BD00001F027F901216068C90308436060089883
:102BE0003978007808431021084204D12079400642
:102BF000C00F0AD00DE0FFF7C3FA716C411A206DC7
:102C0000401A02D4316F814203D9FFF711FA012033
:102C10000690304601F00DF9022830D12069016894
:102C2000C806C00F19D0002008900990687800F0FD
:102C300069FF687808A901F04AF80598007B032825
:102C400002D1687801F057F8216910200A688243A0
:102C50000A60616801430EE01DE04806C00F0ED017
:102C6000687800F041FF2069402102688A430260D1
:102C70006168102081431420616001F0E1F806983A
:102C8000002803D0304601F0EBF826E3E16C009811
:102C900000F012FF5AE3149800F092FE149800F02E
:102CA0008AFE002008A9149E087710A94870012008
:102CB00006909D48006800F071FE002805D19A48F2
:102CC000006800F053FE002801D0012100E000213F
:102CD00008A8C1779448006800F064FE0A9008A82C
:102CE000FF37C07F01371797012819D08E4F3868FA
:102CF00000F050FE0990A08808A94005C017401CAC
:102D00008877386800F026FE00283CD020794006FD
:102D1000C00F1ED0FFF78CF9012008A908771EE02C
:102D2000FFF786F9179F7869002802D0C188491CEF
:102D3000C180B869002808D0687800F030FF4000F2
:102D4000B96994300A5A521C0A52012008A908771E
:102D500032E000F0BBFD6068402108436060179FCF
:102D60007869002802D04188491C4180B869002850
:102D70001DD0687800F013FF4000B9694A300A5A44
:102D8000521C0A5213E0386800F0ECFD002808D00D
:102D90000998002805D0FFF74BF93D2010A948708D
:102DA00005E06168402081430020616006900121B8
:102DB00060688902084360600A985C49002860687E
:102DC00005D0884360600698002802D07AE2084364
:102DD000F8E704988068C0460C90007808A980073E
:102DE000800F48760C9801F015F808A9C87601F014
:102DF00061F808A90876706E306620690A9A008822
:102E0000C005C10F20798007C00F002A05D0002817
:102E100003D0FFF70DF916200FE0002918D009980C
:102E2000002815D008A8407E032809D00C984078C7
:102E300000280DD0FFF7FCF83D2010A9487045E2AE
:102E400008A8007E012803D0142801D00428F1D15D
:102E500010A840780028F2D130468068C0460D9016
:102E6000002008A9487710A908700B90099800283D
:102E700076D005981290007B022816D10C980D99F7
:102E80000078097808431021084209D0FFF778F943
:102E9000716C411A306D401A02D4316F814204D9ED
:102EA000FFF7C6F8012008A9087720792746C00651
:102EB000C00F049011D001F031F8012816D01C2168
:102EC0000C984078014208D00C99001F487017995F
:102ED00002200872142000F0B3FF08A8407E0328E7
:102EE00006D01298007B03282ED03AE0FC21E7E7B9
:102EF00008A8C07E022803D10C984078022817D079
:102F0000304601F077F900281AD0687800F069FFA0
:102F10000498002802D0687801F074F901217868DB
:102F200049040843786045E07406002000800000F2
:102F30007868042108437860012010A90870EDE743
:102F4000012008A94877E9E70C984078002808D0C4
:102F50001798807A002804D00B980221084323E0B8
:102F60002EE00C980027039000F0D8FF01280CD029
:102F70001F20039949780840039014D000207067FF
:102F800001F052F9002802D00BE0FF20F1E7718F29
:102F90000120039A01F056F97067002801D0012042
:102FA00000E00220074638460B90800702D568787B
:102FB00000F017FF0C9820210078084008A98876B7
:102FC000002012900121304601F05AF90D998142FA
:102FD00001D1012000E00020844601980890814240
:102FE00001D1012100E00021F76F0022002F06D05F
:102FF000F87BC00903D0B869002800D001226046E0
:10300000084308D1002A06D001226068D203904309
:103010006060012012900A98002802D112980028BE
:1030200079D06046002807D00321304601F02EF900
:10303000304600F0BBFC1CE000291AD1B989BA7BEC
:1030400038468918B9813969796100210C30B97322
:103050000346B8897988884202D3BF69042005E015
:10306000C00602D178690068986000200B99084377
:103070000B90304601F01AF90490304600F0D9FE6A
:1030800010A90978002901D1012804D001F016F90E
:1030900000287DD167E00121304601F0F1F80146BA
:1030A000039030468268816003980078800603D5DB
:1030B000304600F09AFC09E003988078022805D198
:1030C0006168022211436160716EF16620692746D2
:1030D00001680807C00F1FD0002012901390687875
:1030E00000F010FD687812A900F02EFE0598007B14
:1030F000022802D1687800F034FE00F0E7FB3A695C
:1031000008201168814311607968014314207960B7
:1031100000F096FE14E066E08806C00F0ED06878D6
:1031200000F0E2FC3A69202110688843106078685A
:10313000082188437860142000F082FE00F0C6FB6E
:103140000221304601F0A2F8386900784007C00F2C
:1031500029D0B87D01210843B87538690422016877
:10316000914301601FE0002F24D00498012821D052
:1031700010A8007801281DD000F0A8FBAF48006817
:103180008030C168387BC006C00E801C081800E083
:1031900010E001460390304682688160394630462F
:1031A00001F09AF8B7670121304601F0D5F80128FF
:1031B00011D01AE000F08AFB0998002802D0012003
:1031C000308501E011213185089803900146304691
:1031D00082688160E7E703984078002805D003996A
:1031E000001D487001E000F071FB0B98800705D5C9
:1031F0002079C00602D5687801F004F80B984007E2
:1032000005D530467C3001F0B4F801F0BDF80B98DC
:10321000C0071DD000F082FE01281FD01F270C9888
:103220000C994078891C0740706F3A46406801F05D
:10323000CBF8706F4780706F002787610C98716FB3
:1032400000788007800F0872706F01F0E7F87767E9
:1032500008A9497F3046012902D026E0FF27DEE792
:10326000002101F00DF807460C9801784078000223
:10327000084338800020C04601F0ECF80C99001F8C
:103280004A78C0B2824200D3024608A8807E202835
:1032900010D0891CB81C01F0E3F8E0680122016835
:1032A00011430160162000F0CBFD08A8807E202885
:1032B00002D007E0C91CEDE70C9880788109304600
:1032C000C046C04610A84078002808D0687800F0B2
:1032D000B7F810A8417805984173012637E008A88F
:1032E000C07F00282CD1B06C00280CD0534F386818
:1032F0000168C0300191007E012836D0FEF798FEAB
:10330000012008A9087708A8807F012855D012203D
:1033100000F096FD179F7869002802D00188491CAB
:103320000180B869002807D0687800F038FCB969D6
:103330004200885A401C88520598007CC046C0460E
:1033400008A800E074E0007F012839D000266F78DB
:10335000384600F01DFC0028207936D00007C00F49
:10336000384634D000F0CEFB33E00020C0460128C0
:1033700015D00120776C00F047FD0199081A7064A0
:10338000B16C791A401A216D814201D9091A21655F
:1033900000207063B064304601F0BAF8B3E73868D3
:1033A0000E228030C069FF308130806E41690598FF
:1033B000007C5043C01D085CDCE7706E3066A9E7F6
:1033C00061684020814361605CE4C006C7E700F0AB
:1033D0008BFB002E1BD0A669002E14D0687800F05D
:1033E000C7FB0246314601231031304601F0C2F8D6
:1033F000687800F0B3FB014630460822203001F027
:10340000BDF80020A061159800F022F801E000F05E
:103410005DFA169800280BD101F0F2F805467F28D6
:1034200003D001F013F94019E0751498C046C04666
:10343000012001F017F9012019B0F0BD7806002035
:1034400010B501F021F9102181740021C17410BD63
:10345000F0B50646AFB00120039001F01FF9044615
:103460000120A07300207C4F09903968087205463E
:1034700001F00AF90A903F6801207874397C080944
:1034800000010909084338740207120F0120798AE4
:1034900090400C37014202D0002000F0D1FC387976
:1034A00096210007000F387196200090039848433A
:1034B000A060F0091BD0FF2E26D07606760E05966A
:1034C0002C200A9970434518FEF75AFE2968081AFD
:1034D000FF382D2809D5A87C102806D0202804D034
:1034E000012009900020A07351E00020A073FF2E5E
:1034F0000AD02C200A997043401801210175817C63
:10350000082901D10421817400990398484300904F
:10351000FEF736FE0099401801F0C8F80028F7D1F0
:103520000EA8089006A80590002001F0ADF84B4ABF
:103530008646D27A0020014694460CE02C220B46A7
:10354000534373449B7C042B03D10FAB1954401C91
:10355000C0B2491CC9B28C45F0D8002844D00FA98C
:10356000059B089A01F0E4F805900020C0436060D4
:103570000598FF280BD02C2148430A994518684626
:10358000007E002803D028680E99081A606000F0B9
:103590008EF901F083F804460598FF284ED00820E4
:1035A000A874286800902060059860732A6A69688A
:1035B000E8689047059800F09BF900F087F9E87CEF
:1035C0008007C1170998491C002813D0FFF7ABF9F1
:1035D000012020733879E97C0007000F09010843B6
:1035E00038710098386031E0FF200021059A0E9173
:1035F0001170B9E701220098FEF76BFD0028E7D0B3
:10360000039840000390102800D229E71448A12510
:1036100000680626122201234069294601F010F9AC
:10362000040013D00021267161710A46A01D00F02C
:1036300017FF2146284601F059F907E0FEF7F8FC8C
:1036400000F03EF9FF206073002020730249012042
:10365000096808722FB0F0BD78060020B013002072
:1036600084060020954A5C2358431018C269FF2342
:103670009A43C9B21143C1617047904A5C235843D1
:103680001018026A120C120489B2114301627047C9
:10369000426801239A43CB07DB0F13434360704713
:1036A000426808239A43C90003E0426810239A4302
:1036B00009011940114341607047426820239A4331
:1036C0004901F6E74268854B134009028022520007
:1036D00005E04268804B134049028022920011406D
:1036E00019434160704770B57D4C60688021884304
:1036F00060607C4D60682840C901014361607A4880
:1037000061680140FC2292030A4362607749626863
:103710000A4090231B0513436360A2680240B42350
:10372000DB031343A360A2681140C82292050A4339
:10373000A260FF26F643A16831405A220A43A260E4
:10374000A1682940C82292010A43A260E1680840AA
:10375000610A0143E160102000F0DAF804202169D9
:10376000314001432161E1680E4014213143E160A1
:10377000E1680D40A021C9002943E1606169084367
:10378000606160698021090401436161A0697F2152
:103790008843A06101205B4908745E224A745A4A3A
:1037A000136B8B74C8745D230B75D36A4B75887566
:1037B0005223CB7512680A76487612228A76534ACB
:1037C0001368CB76087715234B77D3688B77C87748
:1037D0001A2320254B55136A21254B552225485580
:1037E000222323254B55136C24254B55252548555D
:1037F000212326254B55D36B27254B552825485586
:10380000232329254B55536C2A254B552B254855E9
:103810001B232C254B55526A2D23CA542E23C854E2
:1038200090222F23CA54424A136830254B55312524
:103830004855912332254B5552683323CA540022F0
:1038400034254A550B0010330B604B600B000C33D2
:103850008B60CA6009682268216036490860606927
:103860008021C9050143616170BD30B5012901D1D5
:1038700008240CE006240D0003D1012A0DD1992360
:103880000CE0022903D00024032907D1F5E7012A1F
:1038900001D19B2302E03D2300E03B23C01A001B23
:1038A00030BD25490A68254B1340254A37E0254895
:1038B000016808220A43026070470000DC00002013
:1038C0002148016880229143016070471E480168C9
:1038D00080220A4302607047FFFDFFFFFFFEFFFFEB
:1038E000C0000020FF00FFFFFFFF00FFFFFFFF0001
:1038F00015490A687F239A434006400E104308602A
:1039000070470000B812002048160060481500609B
:1039100084490A68954B13400006FC229205024038
:103920001A430A607047010094480840704700003D
:103930004017006010140060040000604F00020097
:10394000B0FFFDFF18000060C40000208021C90303
:10395000084070478021C9050840704780218904CC
:103960000840704780218901084070478021C902C2
:103970000840704780214902084070478021890330
:103980000840704780218900084070478021090164
:103990000840704780210906084070478021C9040B
:1039A00008407047802149040840704780B50021D5
:1039B000FFF776FE01BD4168802291434160704768
:1039C00080B50021FFF764FE01BD80B51022002103
:1039D00000F0A2FF01BD80B50121FFF76EFE01BD21
:1039E00080B50121FFF761FE01BD80B50121FFF720
:1039F00057FE01BD416880220A4342607047C1689A
:103A00008022D2050A43C2607047C16880229204B6
:103A10000A43C2607047C168802212060A43C2602E
:103A20007047C1688022D2040A43C2607047C168EF
:103A3000802252040A43C2607047416804220A434C
:103A40004260704780B50021FFF73CFE01BD80B5A4
:103A50000121FFF737FE01BD416840220A43426061
:103A6000704780B50121FFF713FE01BD80B51FE04F
:103A7000C268120D12050903090B1143C16070479A
:103A8000C168802252030A43C2607047C168802225
:103A900012040A43C2607047C1688022D2030A43FD
:103AA000C260704780B541688022D2000A434260FC
:103AB0000121FFF70EFE01BD6B4802686B4B1340FE
:103AC00009026B4AFFE000006A4A5C235843101861
:103AD0000029016803D040220A4302607047402257
:103AE000914301607047000062495C22504308180E
:103AF0000168614A0A400260016A604A0A40026243
:103B0000704700005B495C2250430818016880221E
:103B100092030A430260016A802292050A4302620C
:103B200070470000CC00002052495C225043081826
:103B3000406A70474F4A5C2358431018C26A120CFF
:103B40000A70C26A120E4A70026B8A70026B120A05
:103B5000CA70006B8002800E0871704745495C2274
:103B6000504308183830704700000000FFFFFFC0C6
:103B700040495C22504308184030704730DFC9008C
:103B80003C495C2250430818C06A8004800E70478C
:103B900038495C22504308580106C80F7047354920
:103BA0005C22504308588004800E7047314A5C23E1
:103BB00058431018C269120A0A60036A1B061343AD
:103BC0000B60006A0004000E4860704729495C22BF
:103BD000504308584000400F704787495C225043CB
:103BE00008584001400F704738B504005C2200219E
:103BF000814823005C256B43C01800F08DFE012135
:103C00002000FFF761FF31BD7B4A5C235843101849
:103C1000426A4162704710B5774A5C2358431018D6
:103C2000C26A92B20B784C7824021C4323041343DB
:103C3000C362026B920D92058B78CC7824021C43F0
:103C40000979090421438902890A1143016310BDDE
:103C5000694A5C2358431018826A120E1206090240
:103C6000090A114381627047D0000020FF0000F074
:103C700000FFFF0FDC000020FFFFDFFFFFFFFFDF83
:103C80005D4A5C2358431018826A1202120A090620
:103C9000114381627047584A5C2358431018C26A26
:103CA000564B13400902FC2292010A401A43C26299
:103CB0007047514A5C235843101802684F4B134019
:103CC0000902FC2292010A401A430260704710B5B3
:103CD000494A03005C246343D218D369DBB20C6801
:103CE00024021C43D4614A6812020968090E114378
:103CF000FFF7C3FC10BD80B53F4902005C235A4367
:103D00008918096A8AB2802109021143FFF7B5FCBC
:103D100001BD39495C225043081801688022914353
:103D200001607047344A5C235843101882688160F0
:103D30007047314A5C23584310180268304B1340D7
:103D40000907E022D205BEE738B50A682A4B04000D
:103D50005C256C431B199C699A614968FFF782FCDA
:103D600031BD80B5244902005C235A438918C969D2
:103D7000CAB280211143FFF775FC01BD1E495C22C8
:103D800050430818016880220A43026070471A4AAB
:103D90005C2358431018426841607047164A5C2300
:103DA000584310180268174B13400906E022D2044A
:103DB00089E7114A5C2358431018C26A1F239A43AB
:103DC000C906C90E1143C16270470B4A5C235843B0
:103DD000101802683F239A438906890E1143016037
:103DE000704705495C22504308180168802212027E
:103DF0004A40026070470000DC000020FFC0FFFF67
:103E0000FFFFFF8FFFFFFFF8042801D19D207047BF
:103E1000122070470178890601D480787047C078F5
:103E20007047803000690188FF2201329143018090
:103E300070478030006900888007800F70477047A6
:103E40004109C206D20E0120904072B68A00034991
:103E500009688B5803438B5062B670478C0600206C
:103E600070B50446FF3001304069002802D08188D7
:103E7000491C8180204600F05AFDE16C41432046F8
:103E800000F080FD2546E06F7C35002810D0846965
:103E90000CE0E07BA669C00907D02146284600F067
:103EA000BCFE0021204600F0CFFE3446002CF0D1AD
:103EB00070BD7047252804D8410040180249085CAD
:103EC0007047162070470000E9F3041080B500F039
:103ED000D5FE01BD80B500F0D5FE01BD80B500F076
:103EE000FDFE02BD80B500F019FF01BD80B500F0F8
:103EF0003DFF02BD80B500F05FFF02BD80B500F060
:103F000079FF01BD80B500F093FF01BD80B500F0E1
:103F100099FF01BD80B500F0A9FF01BD80B501206A
:103F2000C04602BD80B50120C04602BD80B500F08C
:103F3000E1FF02BD80B500F0F3FF02BD80B500F0E7
:103F4000FEFF02BD80B501F009F802BD80B501F0A9
:103F500025F802BD80B501F046F802BD80B501F03C
:103F60004AF801BD80B501F04FF801BD80B501F000
:103F700050F801BD80B501F069F801BD80B501F0D0
:103F800082F801BD80B501F085F801BD80B501F072
:103F90008AF801BD80B501F08FF801BD80B501F050
:103FA00092F801BD80B501F093F801BD80B501F034
:103FB00097F801BD80B501F0B6F801BD80B501F0FC
:103FC000B9F801BD80B501F0D2F801BD80B501F0AE
:103FD000EAF801BD80B501F003F901BD80B501F03B
:103FE0001BF901BD80B501F033F901BD80B501F0C9
:103FF0004BF901BD80B501F064F901BD80B501F058
:104000007EF901BD80B501F07FF901BD80B501F0F9
:104010009EF901BD80B501F0A1F901BD80B501F0A7
:10402000A5F901BD80B501F0A9F901BD80B501F088
:10403000ACF901BD80B501F0BCF901BD80B501F05E
:10404000BFF901BD80B501F0D4F901BD80B501F023
:10405000DBF901BD80B501F0E3F901BD80B501F0E8
:10406000E4F901BD80B501F0E5F901BD80B501F0CD
:10407000ECF901BD80B501F0F0F901BD80B501F0AA
:10408000F7F901BD80B501F0FAF901BD80B501F085
:1040900001FA01BD80B501F004FA01BD80B501F05F
:1040A0000DFA01BD80B501F017FA01BD80B501F030
:1040B0001EFA01BD80B501F022FA01BD80B501F004
:1040C00023FA01BD80B501F023FA01BD80B501F0EE
:1040D00023FA02BD80B501F067FA02BD80B501F098
:1040E00087FA02BD80B501F08BFA01BD80B501F001
:1040F000BBFA01BD80B501F0BFFA01BD80B501F08A
:10410000E9FA01BD80B501F063FB01BD80B501F0A6
:1041100086FB02BD80B501F0B5FB02BD80B501F0A4
:10412000CDFB02BD18B585B00CAC247804940BAC63
:10413000247803940AAC2478029409AC247801947E
:1041400008AC2478009401F045FC06B010BD80B5A1
:1041500001F062FC01BD80B501F07EFC01BD80B5BF
:1041600001F0CAFC01BD80B501F0F4FC02BD80B5D0
:1041700001F002FD01BD80B501F044FD01BD80B537
:1041800001F04EFD01BD80B501F078FD01BD80B5A7
:1041900001F094FD01BD80B501F0A0FD01BD80B529
:1041A00001F0ACFD02BD80B501F0ACFD02BD80B5F3
:1041B00001F0ACFD02BD80B501F0ACFD02BD80B5E3
:1041C00001F0ACFD02BD80B501F0ACFD02BD1CB537
:1041D000049C009401F0AAFD16BD1CB5049C00943B
:1041E00001F0AAFD16BD1CB56C46248A009401F0AE
:1041F000AAFD16BD8030C0680088C007C00F00D07F
:10420000012070471CB504466946FFF7CFFC0099B2
:10421000491E0091491C02D10198401E0190694637
:104220002046FFF754FD1CBD054800688030017A28
:10423000807A814201D90120704700207047000038
:1042400078060020F8B50D460C49521E0968002476
:104250000E681F210A431D3297B2394601F080FDD6
:10426000002809D13946F06801F0A0FD041D00685E
:1042700060600020E07325802046F8BD7C060020A9
:10428000890008188030C068801C704710B58030E5
:104290000069028892089200028002888907890FCB
:1042A0000A4302801620FFF7CBFD10BD8030006965
:1042B00000880006C00F00D0012070470548006844
:1042C0008030417AC07A814201D9012070470020B4
:1042D0007047000078060020F8B50C4680308188D1
:1042E00010260A04A18901D5A57B0FE06288408EC3
:1042F000521A95B2A84205D20546E07B4006400E10
:10430000E07303E0A069002800D10026002904D151
:10431000207A800701D5022000E00120CF06064365
:10432000FF0EE81982B20B48616900688030C068EE
:10433000001D01F06BFD20610648A5730068803008
:10434000C168B81C0E54034800688030C068FF1C68
:10435000C555F8BD7806002084300068002905D0D6
:104360000007C00F002800D001207047C006C00F12
:10437000F8E701688A690260002A00D140600020E5
:10438000886108467047704770B5C17B044649068E
:10439000490EC1730A489025006800220069012374
:1043A000294600F04DFA010003D028464C6000F089
:1043B0009DFA044800688030417A491C417270BD02
:1043C0008406002078060020F8B504460D46501EED
:1043D0001F210843401C00041646470D1CD0201D19
:1043E0002946421A002A01DD082A03DB2022FDF7B4
:1043F000DFFB04E0082208C9521E08C0FBD12035AB
:10440000202E01D2304600E02020301A7F1E246882
:104410003F0486B23F0CE2D1F8BD704770B5044648
:104420000A4890250068012200691346294600F0D9
:1044300007FA010003D028464C6000F057FA044800
:1044400000688030017A491C017270BD840600202A
:104450007806002001462020002900D03020704737
:104460008B0707D0521E22D30B78491C0370401CC7
:104470008B07F7D1830730D0DB4219D0401E121FC3
:1044800008D308C943701B0A43801B0C0371001D2D
:10449000121FF6D2D20707D30B88437001D08A7857
:1044A000C2701B0A8370704701D00B78437070474D
:1044B000121F06D308C903801B0C4380001D121F66
:1044C000F8D2D20705D30B88038005D08B78837090
:1044D000704701D00B780370704770B4103A03D363
:1044E00078C978C0103AFBD2530701D318C918C055
:1044F00001D508C908C0D20704D30B880380801CEB
:10450000891C002A01D50B78037070BC7047704776
:1045100070B504460020C04625462035012816D037
:104520000120FFF771FC11494843010A2046803001
:104530001031C1642A7B032A08D1A36C626B5B0033
:10454000D2180A4B5A43120A5118C16470BD084868
:104550000E2200688030C069FF308130806E416972
:10456000287C5043C01D085CDBE70000710200009E
:104570007806002010B501F083FC10BD10B4002AAD
:104580000CD00B4CA2420BD80123012A06DB047885
:104590000C70401C491C5B1C9342F8DD10BC70473A
:1045A00003780B70401C491C521EF9D110BC704797
:1045B000FFFFFF7F7FB504000D001600684601F085
:1045C0009DFC6846017821704178297080783070B0
:1045D0007FBD000080B501F0E5FC01BD3CB5194A86
:1045E0001368019353680093019BDBB2009C240283
:1045F000FF252D0225401D4305609068086033BDEE
:10460000E0B501A96846FFF7E9FF0098002802D04D
:1046100001980C2801D37F2010E00621484376380A
:1046200002E0801D4908009100991F29F9D2FF225C
:10463000A2325143044A8918890A401840B20EBD7B
:1046400000000000A4160060A046000004480168B5
:104650005E20085E0D2148434030C01170470000C5
:10466000780600204109C206D20E0120904072B6A1
:104670008A000449096851180A6902430A6162B64E
:10468000704700008C06002003492C220968504323
:104690008031496A40187047780600200248006857
:1046A0008030006A7047000078060020F1B582B0C3
:1046B00000200090FFF7E8FF064600251B4F2FE083
:1046C0002C2068438419A07C0E21084218D00420B5
:1046D000A07422680299104601F002FD00280FD153
:1046E0000298811AE269E0689047218A09182182BC
:1046F000217D08187F2800D97F2020750120009097
:10470000A07C3021084209D0A16A002901D0E068CC
:1047100088470020A074E074012000906D1CEDB269
:10472000F87AA842CCD80098FEBD0000B013002053
:10473000FFB58BB00D460020FFF7A6FF099096202D
:1047400002900D99002008600E990646087070E0EE
:10475000801BC7B200200446009013E0285D2C2186
:104760004843099940180A90002C05D00068009928
:1047700001F0BBFC002803D00A9800680694009062
:10478000641CE4B2BC42E9D3E819069A2038C17F20
:10479000AA5CC27706987F1E2954F8B20690285C5E
:1047A0002C21484309994718002E18D008982C212D
:1047B000285C48430999441803CC083C41180298E6
:1047C0000818009901F091FC002811D00299009876
:1047D000411A0D9801600E98012101702CE0069895
:1047E00008903968786809180298081803901EE044
:1047F0002168039801F079FC002809D00B98401E2D
:10480000C0B208900D99002008600E99087013E05E
:104810003A7D797DB87D01F06DFC0746227D617D92
:10482000A07D01F067FCB84201D206980890761C82
:10483000F6B20B9886428BD30898285C0FB0F0BD77
:10484000FEB5044600269C4617460D46080616D5BA
:1048500072B601AB6A466146204601F053FC00285F
:104860000BD0684681880098827892089200827006
:1048700001806180012662B615E062B624E001ABDA
:104880006A466146204601F03DFC00281CD06806BF
:1048900009D46846818800988278920892008270D4
:1048A0000180618001260098AA0081786023890731
:1048B000890F1A4011438170C770002E02D000206A
:1048C000FFF7BEFA0098FEBD0020009072B6A80661
:1048D00008D40548082200680168114301600020DF
:1048E000FFF7AEFA62B6EDE78406002040060AD56F
:1048F000CA784D2A0CD288780B1D80089100054A91
:10490000525819461047887880088000801C8870AB
:1049100070470000D449051080B50B0011001A0043
:10492000FDF760FA01BD80B5FDF746FA02BD70B52E
:10493000054604462035287B03281DD1208F0028FA
:104940001AD0287C012101F021FC002814D1287CF8
:10495000002101F01BFC00280ED120468068C046D3
:1049600021462831884207D1842000590104C90F0B
:1049700002D18003C00F01D0012070BD208F401CE8
:1049800080B270BDF0B5044695B000200A90606C0E
:1049900011904018109020464030089021464688DB
:1049A00020310B91497C079140780490FFF7E8F89B
:1049B00009902046FFF7BBFF0746204680300C9049
:1049C00001224168520491434160099878430D9057
:1049D000E06C616C78430B18636410980799181A9F
:1049E00013900A98C0190A90F01986B20D984018D1
:1049F00080B207900C9DA87DC207D20F77D0AA8AFB
:104A0000911B0904090C03D0080470D5282575E012
:104A10000107C006C90FC00F00293BD0686C149075
:104A200000680F901498416880685918029061647A
:104A30000B98007B022814D001F0B0FB0F99616342
:104A400080680299884200D3084620650298E06495
:104A50001498016961661498F72180892087A87DE0
:104A60002BE008984078FFF7B8F8042801D0062812
:104A700000D102201499800049690019416502980B
:104A8000814200D3014621650F98616C40080918E6
:104A90006164DBE7002813D00898A96C4078FFF721
:104AA000BAF8FF200330005D012804D12046DC3035
:104AB000A96C01F07FFBA87DEF210840A8750DE0EF
:104AC0000B980290007C0020C046002806D0029877
:104AD0000023007C1A460121C046C046A87D022161
:104AE000400840000843A8751620FFF7A9F9089868
:104AF000002546801398002800DA69E7616C119858
:104B00000F1A206EC01B2066012806D50C988088DD
:104B10004005C00F51D13E2550E0002D4ED13A4600
:104B20000121204601F06DFB050047D13A460021E6
:104B3000204601F066FB050040D1FF200330005DF8
:104B400001281FD0079801F07FFB0B994874099941
:104B50000798401A80B201F077FB01460498FFF7EE
:104B600034F90B98007B032819D02046FEF779FF13
:104B70002046FEF73FFF0498FFF700F9636CE26CF4
:104B8000216D3CE00498FEF7CFFF089903464D786D
:104B900021463246DC31284601F064FBDDE7394628
:104BA000608D01F0B4FBA16C4018002900D10D30DC
:104BB000E16C49083E3981420BD208250498FEF782
:104BC0003FFC0C99002088750B9845730A9815B026
:104BD000F0BDA064616B4000002917D00D1820467D
:104BE00014300646FEF73DFF3046FEF703FF0498FB
:104BF000FFF78FF8A16C606CE26C431A29460498A9
:104C000001F08EFB608E401C6086DFE7216F0D187F
:104C1000206DA842E3D20546E1E702688A4206D148
:104C200092690260002A0BD1406009E01A4693693C
:104C30008B42FBD19B699361002B01D118324260FA
:104C40000020886170477047F8B50E460A49001F7A
:104C5000096807460C6801F06BFB05463946E068B9
:104C600001F070FB72B6B100605A401B605220899F
:104C70004019208162B6F8BD7C06002010B5C04600
:104C8000C04610BD7CB51348066828360020C046D3
:104C9000002803D010480024857D17E0012500245A
:104CA0002046142250430246F16A12328A5C012ADD
:104CB0000AD1801C085C800706D5684604706A46E5
:104CC0000121002001F056FB641CE4B2AC42E7D3A2
:104CD0007CBD000068060020B013002070B50C46B3
:104CE00005460020C04600280CD0FFF71BF900281D
:104CF00002D02407240F0AE0052004420CD10A2028
:104D0000044004E02007800F06D1A407A40F002C64
:104D100002D02C70002070BD822070BD38B51248C2
:104D2000046828340020C046002814D0882816D0F3
:104D3000852814D02034607D80214006400E6075A7
:104D40000020A075684601708621417069460220E6
:104D500001F014FB38BD02202034A07538BD0520B9
:104D6000FFF76EF838BD00006806002070B583229A
:104D70000025086810E084698561C17BC90702D0FD
:104D800001F054FB03E00146002001F05DFB02004E
:104D900001D083220CE020460028ECD1002A07D164
:104DA00072B6044800688030417A491E417262B68A
:104DB000104670BD7806002010B508680B490968D8
:104DC0002031097BC90705D001F07CFB002804D005
:104DD000832010BD01F089FBF8E772B60449096829
:104DE00080310A7A521E0A7262B610BD6406002033
:104DF0007806002070B50D4D2868446D002C13D046
:104E0000204601F0F1FB002807D1286821465430E4
:104E1000FFF703FFA469002CF2D12868406D002839
:104E200002D01020FFF70CF870BD000078060020BB
:104E300010B503480068543001F0E6FB10BD0000D7
:104E40007806002070B50024074D09E0204601F0E7
:104E5000DFFB002802D0204601F0DAFB641CE4B23C
:104E6000E87AA042F2D870BDB0130020FEB5002051
:104E700001F08AFC064600251D4F33E0FF201D305F
:104E8000684384192C20005D032801D0022827D113
:104E900020468030019080680090C0030BD5618F60
:104EA000002001F081FC3A2815D001980122816888
:104EB00012049143816020460099FFF72BF90028E6
:104EC00009D120460020C046002804D128460020F1
:104ED000C046002804D00121122001F09DFCFEBD37
:104EE0006D1CEDB238682030007DA842C6D8FEBDEA
:104EF0006406002070B504460D46488801F0A0FC09
:104F0000688801F0CBFC688801F0F8FCC046C04618
:104F10000020E070A078BF210840A070842070BD00
:104F200010B504464A880978032001F013FD0120DA
:104F3000E070A078BF210840A070842010BD10B59B
:104F400004464A880978042001F004FD0220E0703C
:104F5000A078BF210840A070842010BD70B5054620
:104F600008780C4600280CD1627921796088A31D4D
:104F700001F08CFD608801F0A1FD2179608801F0CD
:104F8000BBFD22796188207801F0C8FD0320E8701C
:104F9000A878BF210840A870842070BD7CB5054664
:104FA00008780C46002811D121461231881F019142
:104FB0000090627921796088A31D01F0B9FD6088B5
:104FC00001F07CFD2179608801F096FD22796188ED
:104FD000207801F0A3FD0820E870A878BF210840E0
:104FE000A87084207CBD10B54A890888891C01F00E
:104FF000C4FD002010BD10B54C888A8808888B1D20
:10500000214601F0B3FF10BD10B50888C046C04668
:1050100010BD70B5FFB0FFB084B005460C464A68BD
:105020006E460988304602F05FF8280703D5012153
:105030006068FFF709FE6846828841880088B31DD2
:10504000C046C0467FB07FB004B070BD70B5FFB041
:10505000FFB084B005460C464A686E460988304663
:1050600002F05BF8280703D501216068FFF7ECFD2B
:105070006846828841880088B31DC046C0467FB01C
:105080007FB004B070BD10B58A7808881146C0465C
:10509000C04610BD10B58C788B798A880888214667
:1050A000C046C04610BD10B54C880A7908884B1D13
:1050B0002146C046C04610BD10B54A880888114632
:1050C00001F07CFF10BD10B50888C046C04610BD79
:1050D00010B54B888A880888194601F0C1FF10BDB9
:1050E00050B5FFB00C46FFB0064685B08968E08831
:1050F00000900191A388A278218802A802F026F8E6
:10510000300703D50121A068FFF79EFD04A8009099
:105110006846C3898289817A008901F061FF7FB086
:105120007FB005B050BD10B54A880888114601F01F
:1051300037FF10BD70B5FFB0FFB084B005460C4618
:105140004A686E460988304602F00FF8280703D5F2
:1051500001216068FFF778FD6846828881780088C1
:10516000B31DC046C0467FB07FB004B070BD70B5FF
:10517000FFB0FFB082B005460C464A686E4609880B
:10518000304602F002F8280703D501216068FFF7D6
:105190005BFD684681780088321DC046C0467FB0FE
:1051A0007FB002B070BD70B5FFB0FFB084B00546EF
:1051B0000C464A686E460988304601F0F4FF28071D
:1051C00003D501216068FFF73FFD6846828881783A
:1051D0000088B31DC046C0467FB07FB004B070BD2C
:1051E00070B5FFB0FFB082B005460C464A686E4607
:1051F0000988304601F0E7FF280703D501216068E0
:10520000FFF722FD684641880088321DC046C0462F
:105210007FB07FB002B070BD70B5FFB0FFB082B09C
:1052200005460C464A686E460988304601F0D8FFAC
:10523000280703D501216068FFF706FD684641880D
:105240000088321DC046C0467FB07FB002B070BD3E
:1052500070B5FFB0FFB082B005460C464A686E4696
:105260000988304601F0C9FF280703D5012160688D
:10527000FFF7EAFC684641880088321DC046C046F8
:105280007FB07FB002B070BD70B5FFB0FFB084B02A
:1052900005460C464A686E460988304601F0BAFF5A
:1052A000280703D501216068FFF7CEFC6846828895
:1052B00081780088B31DC046C0467FB07FB004B07F
:1052C00070BD30B5FFB0FFB083B005460C464A68EC
:1052D000098801A801F0AEFF280703D50121606805
:1052E000FFF7B2FC03A80090684643890289C18891
:1052F0008088C046C0467FB07FB003B030BD10B5D7
:105300000888C046C04610BD30B5FFB00C46FFB09F
:10531000054683B08968E08800900191A38862887F
:10532000218802A801F0A9FF280703D50121A06860
:10533000FFF78AFC04A800906846C38982894189E6
:10534000008901F0A9FF7FB07FB003B030BD10B578
:105350008A780888114601F0A7FF10BD10B54B8868
:105360000A790878194601F0D7FD10BD10B54B88B1
:105370000A7908781946C046C04610BD10B54A885B
:1053800008781146C046C04610BD10B586B08C7C6A
:105390000B8ACA898889049401AC0DC4881D0090C9
:1053A0004C884B790A790878214601F091FD06B0C6
:1053B00010BD10B54A890888891CC046C04610BD7A
:1053C00010B588B08C7F8B8B4A8B088B069403AC0E
:1053D0000DC408461230821F8B1D0093019202906B
:1053E0004C884B790A790878214601F081FD08B094
:1053F00010BD38B5088900904C88CB880A790878A8
:105400002146C046C04638BD1CB50988684601F033
:1054100053FF684600A900780231C046C0461CBD53
:1054200010B50878C046C04610BD10B50888C04603
:10543000C04610BD38B5088900904C88CB888A8852
:1054400008782146C046C04638BD10B54B8808785C
:105450000A1D1946C046C04610BD38B508890090DF
:105460004C88CB888A880888214601F0A3FD38BD86
:1054700010B58A7808881146C046C04610BD38B5B8
:10548000881D00908C788B88CA7808882146002077
:10549000C04638BD10B54A8808881146C046C04687
:1054A00010BD08B50988684601F00BFF6846817891
:1054B00000AA00880332C046C04608BD3EB5088930
:1054C0008B894A896C460DC48C78CB888A88088879
:1054D0002146C046C0463EBD38B5C81D00908C78F8
:1054E0008B798A8808882146C046C04638BD10B5E9
:1054F0008B78CA7808881946C046C04610BD10B5DA
:105500000888C046C04610BD10B5C046C04610BD94
:1055100010B5C046C04610BD70B50421012001F091
:10552000D5FE1F4C10212060012001F0CFFE216824
:1055300008600C21012001F0C9FE2168194D09689D
:10554000C860A889242101F0C1FE21680A68D268D8
:1055500090600C68082200212046FFF7DDF9E889F9
:1055600023304009401CC1B2002001F0B9FEE88997
:10557000E97A23304009801C4843401CC1B2012015
:1055800001F0AEFEE168A8894880E06801F0B2FE53
:10559000E06872B6008862B62081002070BD00000D
:1055A0007C060020B013002070B501F0D3FE0D4C36
:1055B0000E4DE17A07230C4A286801F0FFFE2868A7
:1055C00017210185618B172901D2862070BD418585
:1055D000E17AC06A0A010021FFF79EF90020C04667
:1055E000002070BDB0130020D9690510700600209E
:1055F00010B5044600F0D2FDC470002010BD704705
:10560000F8B50025174E27E0284601F0BDF80446FE
:105610002030007B03281DD1208F00281AD0E71DE1
:10562000F937F878012815D172B6FCF7A9FD0121E8
:1056300089024118009101F0D7FE0099401AC00F6D
:105640000121484005D02046009901F0D2FE0020FB
:10565000F87062B66D1CEDB230682030007DA84253
:10566000D2D8F8BD6406002010B50249062001F02A
:1056700031FF10BD31390510F8B500242646144F0E
:1056800019E0204601F080F8050012D02C20405D82
:1056900002280ED1284601F026FF002809D0002E4E
:1056A00004D1284601F026FF002801D0012600E0A1
:1056B0000026641CE4B238682030007DA042E0D8A7
:1056C000002E03D00121132001F0A6F8F8BD000040
:1056D00064060020F0B585B0002001F055F80025E3
:1056E000019062E0FF201D302946414301980C18CB
:1056F0002C20005D032801D0022854D101210198FB
:10570000FEF72AFE064600210198FEF725FE3146E7
:10571000014301D0012000E0002004900020FF346C
:10572000039001340290277A38093E070001360FB2
:105730000090012E0DD0022E14D0032E20D0012077
:10574000029072B6207AB84229D100983043207274
:1057500028E004980028F4D002260121142001F04A
:105760005BF8EEE7A088E1880122431A0A20434350
:10577000154829460068B03001F0DAFE0326E0E75C
:105780008006DED50498002804D0284601F044FFA6
:105790000028D6D00098DF2108400090D1E7039878
:1057A00000280AD062B66D1CEDB2084800682030AF
:1057B000007DA84296D805B0F0BD0120039062B6E6
:1057C00002980028AFD0EEE778060020640600209B
:1057D000F0B585B015460F460446FEF7F1F8FCF724
:1057E00027FCCE20005B0395012100260090254672
:1057F00001960291E035AB78697A0122384601F0D2
:1058000029FF2046283002F01CFA2046403002F0E2
:1058100018FA2E70A878FDF71BFE05B0F0BD70B524
:10582000C821095C0446CD07C906CE17FF21E03424
:10583000ED0F761C6172002D04D002F019FA60722F
:10584000FF280DD002F038FAA070FF280AD0002EF1
:1058500004D002F031FAE070FF280AD0002070BDB9
:105860000C2070BD002D02D0607A02F049FA0720AA
:1058700070BD002D02D0607A02F042FAA07802F0EA
:1058800046FAF4E738B50025890614D5044600F039
:1058900085FC028A69460A80408A4880608F0099A8
:1058A00002F041FA3A2805D08034A06820218843CC
:1058B000A06000E00125284638BD7047FFB581B0E3
:1058C0001E461746002400F069FC054601981B2877
:1058D00000D23024FEF722FB012848D01B2101987A
:1058E000814200D23024FF2102984931884200D2FF
:1058F0003024FEF713FB01283BD00020C0460128CE
:1059000046D00020C046012845D0FF2149310298E9
:10591000814200D230241B2F00D23024FEF7FEFA41
:1059200001283BD01B20B84200D23024FF20493050
:10593000864200D23024FEF7F1FA012830D0002050
:10594000C04601283BD00020C04601283AD0FF20A5
:105950004930B04200D2302472B6019828830298B0
:105960006883AF83EE8362B6204605B0F0BDFB21AD
:10597000B5E70020C046012805D00020C046012818
:1059800003D01249C3E71249C1E785210901BEE7E7
:10599000A9210901BBE7FF215131B8E7FB20C2E78C
:1059A0000020C046012805D00020C046012803D0B1
:1059B0000648CEE70648CCE785200001C9E7A920C4
:1059C0000001C6E7FF205130C3E70000480800008F
:1059D00090420000F0B585B084460AA8F1C804974B
:1059E0006F4671C7604602F0C7F902F0FFF902F096
:1059F00095FA06480523C17A0648054A0068B03082
:105A000001F0DCFC02F0CAFA05B0F0BDB0130020D2
:105A1000E96905107806002070B500240C4E0D4D84
:105A200010E030688030016A7C206043081807D09D
:105A30000189002904D0817A002901D002F0BCFA42
:105A4000641CE4B228682030007DA042E9D870BD13
:105A5000800600206406002070B5264D45E0FEF764
:105A600088FC0646008802F04BFB00283DD02968E0
:105A7000A031097B002905D001230022082102F072
:105A800065FB1DE07168097A052905D0827A002A34
:105A900008D0F12A06D00FE00146304602F06CFB38
:105AA000002419E07422125CD20703D0012903D02C
:105AB000FD2411E00B29FBD10146304602F068FBC2
:105AC000040009D0FD2C07D03146286802F093FB72
:105AD0000F20FEF7B5F970BD01213046FFF7B4F88D
:105AE000002C02D10E20FEF7ABF9286801680029CE
:105AF000B5D170BD8006002010B502F085FB124CB8
:105B0000206800F081FD11480723C07A104AC01CAC
:105B1000C1B22068083001F051FC2368002118460A
:105B200020308177C17701224274072484741024C5
:105B3000C47402770176596302748176C1760020BD
:105B4000C046C04610BD000080060020B0130020F3
:105B5000F969051070B505460024204602F088FB5F
:105B6000002801D0852404E0012D02D10120C04687
:105B7000C046204670BD7047F8B58821012001F06D
:105B8000A5FB1C4D1C4C2860E07A102101F09EFB07
:105B900000232A681946D362936208E00F013E1879
:105BA000F380C155976AF760491CC9B29662E67ADC
:105BB0008E42F3D8B006010E01221048491C02F0B3
:105BC00079FB296802220862E07A8006010E0B4800
:105BD00002F070FB0146286807234162E17A084A17
:105BE0008906090E01F0EAFB02F076FB02F08CFB5D
:105BF000F8BD00006C060020B013002088060020CD
:105C0000A969051010B50021044802F081FB0028A5
:105C100002D00720FEF714F910BD00003D65051005
:105C200070B5002002F088FB1249C9892331490967
:105C3000491CFCF7F3FE002812D004460E4842250A
:105C400000684722806901232946FEF7F9FD01001B
:105C50000BD000208880CC802846FEF747FE70BD20
:105C60000021082000F0D8FD70BD0820FEF7E8F8FC
:105C700070BD0000B01300208406002070B50E4DEA
:105C800086B02868383002F06FFB044600260FE02B
:105C90006846067028683830FEF76BFB0190008874
:105CA00002F06CFB0290684602F07AFB641EA4B21C
:105CB000002CEDD106B070BD6C06002010B502F0CE
:105CC000C3FB0548FD2200684030017C114001748F
:105CD0000B20FEF7B5F810BD6C06002010B50021B2
:105CE000054802F015FB002804D0812802D00B20C3
:105CF000FEF7A6F810BD0000D95D051010B502F042
:105D0000F7FB10BD10B502F0F7FB10BD10B502F0A7
:105D1000FBFB10BD10B502F093FC10BD10B502F0F6
:105D200099FC10BD10B502F0FDFC10BD38B5049C07
:105D3000009402F001FD38BD38B5049C009402F0D7
:105D40001BFD002038BD3EB56C46069D208061805D
:105D5000A280E3802581684602F014FD3EBD7047B5
:105D600070B5114A01231268834312689B00491ED3
:105D700081249B184909491C89B272B615898D4244
:105D80000ED31E885B88AD19ADB25B18AB4207D845
:105D90008000135A00245B1813521089401A108196
:105DA00062B6204670BD00007C0600200346491EF6
:105DB00030B44809401C00250104090C72B61ED0FD
:105DC000188888421BD35D680129284610D0012419
:105DD000CA07E407E24200D000680B4CCA0312195C
:105DE000120C05D00468521E20681204120CF9D15E
:105DF00002685A60002202601888401A188062B651
:105E0000284630BC704700000080FFFF70B50C468C
:105E10001F21521E0A430546521C002011044E0D3C
:105E200016D0211D6A1A2846002A01DD082A03DB44
:105E30002022FBF7BDFE04E0082208C9521E08C05C
:105E4000FBD120352046761E24683604360CE8D176
:105E500070BD704781B026490A6A012002400CD10A
:105E60000A6802430A600A6882430A600A6A0243B7
:105E70000A62096A084000900098002001B070474B
:105E8000FCB501231B4C1C4D6E4636792E700E68F6
:105E900026604E6866608E68A660CE68E66006681A
:105EA0002661466866618668A661C668E661642602
:105EB0006F463E70266B1E4326636E463678761E0E
:105EC0003E70666B1E4003D06E463678002EF4D1CD
:105ED0006E463678266A1660666A5660A66A9660CE
:105EE000E66AD6602E783F79BE42CDD10020F6BD5D
:105EF00040004048280000601C14002081B0FF21B1
:105F000001708021C9054A68674B9A4201D103227A
:105F100003E0664B9A4201D1052202700F220B6802
:105F20001B09134043700B681A4082704968416036
:105F30005F49096889B2491C89008160002100918C
:105F4000009A002A04D000910099491C890301E0BD
:105F5000C021C901C16001B0704700230024554A27
:105F6000A5005351641C0A2CFAD31160506002231F
:105F7000C026F60199004418083CE0252D06651955
:105F8000B54201D2246854505B1C0A2BF2D3BFF3F4
:105F90004F8F494849490860BFF34F8F00BFFDE765
:105FA00000000000F8B5464D2E788021C9054A0949
:105FB0000123DB43012407001BD0002E27D12C70C6
:105FC0008D0D404E37682F43376036683540009559
:105FD000009D0D6B25430D634D6B1D404D63CD6AD8
:105FE0002B40CB628B6B23438B63CC63364B1A60A5
:105FF0000DE0012E0BD100262E708D6B2B408B6394
:10600000324B1A60BFF34F8FBFF36F8FCC63304AB0
:1060100093689B052DD493680C0D2340A34228D090
:1060200093684C0D1C43946013685B07DC0FFBD135
:106030000F23DB430028906804D003400E20184350
:1060400090600FE0184004240443946008680968D5
:10605000F02404400807000F2043102802D1906864
:106060000340936090681B490140916010684007AD
:10607000FCD5F1BD12480078002800D1704710B55A
:106080001548026801210A400CD0144A536CDB0603
:10609000136803D502241C43146002E00224A343C6
:1060A0001360016010BD000041E001024180020266
:1060B00014100040340000200400FA050CED00E04C
:1060C0001E1400205400404800E100E080E100E0A0
:1060D00014005048FFFDFFFF3C00004054160060D4
:1060E000401AC00F012148407047081AC00F012113
:1060F0004840704701238B4082401046834200D8BD
:1061000018467047F0B54488491CA4B2E5B2A4080B
:1061100009B21C808EB287883619BE4204D9A6B255
:10612000891B6D1C09B2EDB2A40024180834146058
:106130001C88AD076418A400AD0F2C43A4B21C80CA
:106140000388E51AAC079B079B0F5D198388A40F92
:10615000AD085C432C19A4B29C4201D9012300E094
:106160000023C588A54200D2C480002B01D00023A3
:106170000AE00123002907DA11688C78A408A4003A
:10618000641C8C70083010601846F0BD10B502F029
:1061900075FB0078C007C00F10BD70470448006849
:1061A0008030C069FF308130806E00687047000029
:1061B00078060020F0B58C46411C00242246234678
:1061C0008518521CD2B26B70252AF9D30023002205
:1061D0000DE06646F65C012797403E40D64002D06F
:1061E0000D55641CE4B2521CD2B2082A03D2DD0061
:1061F000AD18252DEDD35B1CDBB2052BE7D3047066
:10620000F0BDF8B505460446203516460F46287CF5
:10621000FFF7BCFF012814D1287C394602F035FB7A
:1062200000280ED1B8000119886E012801D522205E
:10623000F8BD7D225204904202D8801B886600E09F
:106240008A660020F8BD7047054925224143090CA4
:106250005143401A80B2252800D32538C0B2704778
:10626000EB060000FFB50D46180C584081B22C78A3
:106270004A4083B00023FF26023610463040D7093B
:106280003740C00138437600174637407F01384316
:10629000570937403843760017463740FF003843E8
:1062A000D708374038431746760037407F005208FA
:1062B0003843324010430201101840185B1CDBB217
:1062C00082B2032BD7D34A4016461046FFF7BCFFD5
:1062D000074669460398FDF72DFCF908CB006A468E
