:020000041004E6
:10000000000001209908071079F5061085F5061003
:10001000AA5555AA45554C420000000000000000BA
:1000200000000000000000000000000091F5061034
:1000300000000000000000006B77041093F506102C
:100040004F7904107F7A04103F7B04106F870410EF
:10005000DB920410BB930410E79804100FAE041059
:100060009DF5061033B5041083BA04104FBC04107C
:1000700017CB0410A7A005105FDE0410FFE10410E9
:100080004FE704109FF50610E7F5061017EC041073
:10009000D3F506107FEE0410BFF00410CBF5061068
:1000A000C3F5061035F60610000000000000000041
:1000B0000000000000000000000000000000000040
:1000C00010B5062B01DC002010BD1400032901D05F
:1000D000122008E0027841780906090C0A43817869
:1000E000100006F097FBE070042020700F21617073
:1000F000A070012121710621617100F003FD10B58E
:10010000062B01DC002010BD1400022901D01220B2
:1001100007E0017842781206120C1143080006F03D
:1001200061FBE070042020700F216170A07001213C
:1001300021711D21617100F0E5FC10B5062B01DC79
:10014000002010BD1400082901D0122001E006F0A3
:1001500007FDA071042020700E216170A0700120A5
:10016000E07046E038B500246D462C70092B01DCA8
:10017000002032BD1400032902D01220A07115E026
:100180000500287869780906090C08436A46A978A9
:1001900006F030FBA071287869780906090C08433D
:1001A000E071000A207268460078607204202070B6
:1001B0000E2060700720A0700120E0702D202071BB
:1001C0000C2060710A2032BD10B5062B01DC002026
:1001D00010BD1400082901D0122001E006F0D2FC65
:1001E000A071042020700E216170A0700120E070C9
:1001F000632020710C206071072010BD38B50024E9
:100200006D462C800B2B01DA002032BD1400022930
:1002100002D01220A07116E005002878697809063E
:10022000090C0843694606F037FBA0712878697805
:100230000906090C0843E071000A2072684600882C
:100240006072000AA072042020700E2060700820E6
:10025000A0700120E0707B2020710C2060710B20C9
:1002600032BD38B5092B01DA002032BD1400042953
:1002700002D01220A07115E00500A978E8780006E8
:10028000000C014328786A781206120C104306F01D
:1002900007FBA071287869780906090C0843E0710A
:1002A000000A2072042020700E2060700620A070CA
:1002B0000120E0707C2020710C2000F074FC3EB521
:1002C00000206D466C466860A0600F2B32DB140086
:1002D000002902D01220A07120E001A8801C00900B
:1002E00002AB01AA02A9891C01A8401C06F05AFC15
:1002F000A07168464079E071684640892072000A22
:10030000607268460079A07268460089E072000A4F
:1003100020736846C0886073000AA07304202070B0
:100320000E2060700C20A0700120E0702071102061
:1003300060710F203EBD10B590B0472B01DA002050
:100340001BE01400002902D01220A07108E06846CA
:1003500006F03AFCA07140226946E01D06F06CFDF3
:10036000042020700E2060704420A0700120E070F6
:100370000220207110206071472010B010BD1CB504
:100380000F2B01DA002016BD1400002902D0122024
:10039000A07108E0684606F0A6FDA0710822694633
:1003A000E01D06F049FD042020700E2060700C2036
:1003B000A0700120E0700320207110207AE31CB5AA
:1003C0000D2B01DA002016BD1400002902D01220E6
:1003D000A07108E0684606F097FDA0710622694604
:1003E000E01D06F029FD042020700E2060700A2018
:1003F000A0700120E07009202071102000F0ABFDFA
:1004000038B500246D462C70092B01DC002032BD6C
:100410001400022902D01220A07114E005002878EF
:1004200069780906090C0843694606F0E7F9A071E6
:10043000287869780906090C0843E071000A2072DF
:10044000684600786072042020700E2060700720DB
:10045000A0700120E07005202071142060710A2036
:1004600032BD10B5062B01DC002010BD1400082998
:1004700001D0122001E006F051FDA071042020708F
:100480000E216170A0700120E07020712020B2E682
:100490001CB500206C4660802070092B20DD140004
:1004A000002902D01220A0710DE0694600A8801C2E
:1004B00006F046FDA07168464088E071000A20728F
:1004C000684600786072042020700E20607007205B
:1004D000A0700120E07002202071202060710A20AD
:1004E00016BD1CB50F2B01DA002016BD1400002923
:1004F00002D01220A07108E0684606F03DFDA07110
:1005000008226946E01D06F097FC042020700E20AA
:1005100060700C20A0700120E0700320C8E210B5CC
:10052000062B01DC002010BD1400062901D012208A
:1005300001E006F026FDA071042020700E216170FC
:10054000A0700120E07005202071202053E61FB527
:10055000062B01DC002028E014000F2901D0122016
:1005600016E002009178D0780006000C0143107864
:1005700053781B061B0C1843937B0393537B029306
:10058000D31D0193937900935379127906F000FDFE
:10059000A071042020700E216170A0700120E07015
:1005A0000620207120206071072004B010BD1CB50A
:1005B00000206C462070072B19DD1400002902D0A2
:1005C0001220A07106E0684606F040FDA071684662
:1005D0000078E071042020700E2060700520A0706B
:1005E0000120E0700720207120206071082016BDD6
:1005F00010B5062B01DC002010BD1400202901D00D
:10060000122003E0411C007806F0F1FEA0710420E6
:1006100020700E216170A0700120E0700820207110
:100620002020E8E510B5062B01DC002010BD1400E9
:10063000202901D0122003E0411C007806F0DDFEE5
:10064000A071042020700E216170A0700120E07064
:10065000092020712020CEE510B5062B01DC0020FA
:1006600010BD1400012901D0122002E0007806F02C
:10067000D9FEA071042020700E216170A0700120AD
:10068000E0700A2020712020B5E51CB5062B01DCA6
:10069000002016BD1400072901D012200FE0C278F7
:1006A00001790906090C0A43417883781B061B0C63
:1006B0001943837900934379007806F0DCF9A0713F
:1006C000042020700E216170A0700120E0700B20CA
:1006D00000F0E6FD10B5062B01DC002010BD140073
:1006E000022901D0122003E04178007806F0CAF90F
:1006F000A071042020700E216170A0700120E070B4
:100700000C202071202076E5F8B58AB0062B01DC9C
:10071000002054E01400192901D0122042E0010009
:10072000CA7D087E0006000C0243684682844A7D2A
:10073000887D0006000C0243CB7C087D0006000C7F
:1007400003434D7C887C0006000C0543CE7B087C6F
:100750000006000C0643487B8F7B3F063F0C384366
:100760006F4678848878CF783F063F0C38436F46D1
:10077000388408784F783F063F0C38436F46BF8C6B
:10078000079706920593049503966A46528C029247
:100790000A7B01928A1D00924B790A796946098C7D
:1007A00006F03CF8E070042020700F216170A0700A
:1007B000012020710D2060712020A07107200BB056
:1007C000F0BD10B5062B01DC002010BD140000297F
:1007D00001D0122001E006F03EF8A0710420207044
:1007E0000E216170A0700120E0702171202002E5CF
:1007F0001CB500206C462070072B19DD1400002961
:1008000002D01220A07106E0684606F01DFEA0711D
:1008100068460078E071042020700E20607005208A
:10082000A0700120E0700F2020712020607108204E
:1008300016BD10B5062B01DC002010BD14000029E8
:1008400001D0122001E006F006FEA0710420207005
:100850000E216170A0700120E07010202071202016
:10086000C9E410B5062B01DC002010BD14000729D7
:1008700001D0122003E0411C007806F0F0FDA071C9
:10088000042020700E216170A0700120E070112002
:1008900020712020AFE438B5062B01DC002032BDEA
:1008A00012241500072901D0AC7104E0411C007826
:1008B00006F0EEFDA871042028700E216970A87062
:1008C0000120E8702C7120206871072032BDF8B536
:1008D00084B0062B01DC002041E014000E2901D079
:1008E00012202FE0027B417B0906090C0A43857A1E
:1008F000C17A0906090C0D43067A417A0906090CEA
:100900000E438379C1790906090C0B4301794779B4
:100910003F063F0C39436F46F9818178C7783F061F
:100920003F0C39436F46B981017847783F063F0C49
:10093000394308000292019500966946CA8989895F
:1009400006F0A4F8E070042020700F216170A07000
:1009500001202071132060712020A071072005B0B4
:10096000F0BD10B5062B01DC002010BD14000529D8
:1009700001D0122001E005F045FFA0710420207095
:100980000E216170A0700120E070142020712020E1
:1009900031E43EB50E2B01DA00203EBD14000229E1
:1009A00002D01220A07117E00500287869780906A6
:1009B000090C0843694605F029FFA0712878697879
:1009C0000906090C0843E071000A207205226946F5
:1009D0002000093006F030FA042020700E206070EC
:1009E0000B20A0700120E070152020712020607184
:1009F0000E203EBD10B5062B01DC002010BD1400FA
:100A0000022901D0122007E0017842781206120C68
:100A10001143080005F0EAFEE070042020700F2169
:100A20006170A07001202071162069E01FB5172B9E
:100A300001DA00201DE01400202902D01220A0714C
:100A40000AE06A460100103106F034FDA071102260
:100A50006946E01D06F0F0F9042020700E20607059
:100A60001420A0700120E0701720207120206071F8
:100A7000172004B010BD1CB50F2B01DA002016BDE5
:100A80001400002902D01220A07108E0684606F088
:100A90002DFDA07108226946E01D06F0CDF9042065
:100AA00020700E2060700C20A0700120E0701820D3
:100AB0002071202060710F2016BD10B5062B01DCBF
:100AC000002010BD14001C2901D012200FE00100ED
:100AD0008A7AC87A0006000C024308784B781B0615
:100AE0001B0C18430B000C33891C05F0C1FEE07091
:100AF000042020700F216170A07001202071192046
:100B000060712020A071072010BD38B5092B01DAD3
:100B1000002032BD1400122902D01220A07111E071
:100B20000500287869780906090C0843A91C05F016
:100B3000A3FEA071287869780906090C0843E071C2
:100B4000000A2072042020700E2060700620A07021
:100B50000120E0701A2024E038B5092B01DA0020CA
:100B600032BD1400022902D01220A07110E005004D
:100B7000287869780906090C084305F081FEA07100
:100B8000287869780906090C0843E071000A207288
:100B9000042020700E2060700620A0700120E070FC
:100BA0001B20207120206071092032BD1CB50F2B45
:100BB00001DA002016BD1400002902D01220A07115
:100BC00008E0684606F099FCA07108226946E01D1D
:100BD00006F032F9042020700E2060700C20A07006
:100BE0000120E0701C2063E710B5062B01DC00201B
:100BF00010BD1400012901D0122002E0007806F097
:100C000081FCA071042020700E216170A070012071
:100C1000E0701D2020712020FFF7EDFA10B5062BA3
:100C200001DC002010BD1400032901D0122004E0D3
:100C300082784178007806F078FCA071042020705A
:100C40000E216170A0700120E0701E202071202014
:100C5000FFF7D1FA1CB500206C462080092B1BDB66
:100C60001400002902D01220A07108E0684606F0A6
:100C700073FCA07168460088E071000A20720420AD
:100C800020700E2060700620A0700120E0701F20F0
:100C9000207120206071092016BD38B5092B01DABA
:100CA000002032BD1400062902D01220A0711AE0E3
:100CB00005002A7968790006000C0243A978E878D3
:100CC0000006000C014328786B781B061B0C1843A8
:100CD00005F074FEA071287869780906090C0843AC
:100CE000E071000A2072042020700E20607006203F
:100CF000A0700120E070222053E71CB500206C4654
:100D000020600B2B22DB1400002902D01220A071DE
:100D10000FE0694600A8801C05F054FEA0716846EB
:100D20004088E071000A2072684600886072000AFC
:100D3000A072042020700E2060700820A070012096
:100D4000E07023202071202060710B2016BD10B5AB
:100D5000062B01DC002010BD1400042901D0122054
:100D60000CE08178C2781206120C114302784378A5
:100D70001B061B0C1A43100005F028FEA07104206E
:100D800020700E216170A0700120E070242020717D
:100D90002020FFF730FA10B5062B01DC002010BD33
:100DA0001400002901D0122001E005F06DFDE07073
:100DB000042020700F216170A07001202071252077
:100DC0009EE610B5062B01DC002010BD1400402962
:100DD00001D0122001E005F05BFDE07004202070DE
:100DE0000F216170A07001202071262088E610B5C7
:100DF000062B01DC002010BD1400272901D0122091
:100E000006E003001733C21D411C007805F013FEF5
:100E1000A071042020700E216170A0700120E0708C
:100E2000272020712020FFF7E6F910B5062B01DC02
:100E3000002010BD1400072901D0122003E0411C3E
:100E4000007805F0F4FDA071042020700E2161707F
:100E5000A0700120E070282020712020FFF7CBF93E
:100E600010B5062B01DC002010BD1400002901D0B4
:100E7000122001E005F0F7FDA071042020700E2182
:100E80006170A0700120E070292020712020FFF700
:100E9000B2F91CB500206C462070072B19DD140038
:100EA000002902D01220A07106E0684605F0D7FDA7
:100EB000A07168460078E071042020700E206070F8
:100EC0000520A0700120E0702A2020712020607190
:100ED000082016BD1CB50D2B01DA002016BD14002C
:100EE000072902D01220A0710AE06A46411C00784E
:100EF00005F0ADFDA07106226946E01D05F09CFFDE
:100F0000042020700E2060700A20A0700120E07084
:100F10002B201EE01CB50D2B01DA002016BD14009D
:100F2000072902D01220A0710AE06A46411C00780D
:100F300005F091FDA07106226946E01D05F07CFFD9
:100F4000042020700E2060700A20A0700120E07044
:100F50002C202071202060710D2016BD10B5062BAD
:100F600001DC002010BD1400012901D0122002E094
:100F7000007805F068FDA071042020700E216170DA
:100F8000A0700120E0702D2020712020FFF733F9A0
:100F900010B5062B01DC002010BD1400022901D081
:100FA000122007E0017842781206120C1143080063
:100FB00005F045FDA071042020700E216170A07025
:100FC0000120E0702E2020712020FFF714F91CB5BD
:100FD00000206C46606020600F2B2FDB140000297E
:100FE00002D01220A0711CE06B4600AA921C01A93D
:100FF00001A8801C05F0EEFCA0716846C088E07175
:10100000000A2072684680886072000AA0726846F2
:101010004088E072000A2073684600886073000A06
:10102000A073042020700E2060700C20A07001209E
:10103000E0702F202071202060710F2016BD38B580
:1010400000246D462C800A2B01DC002032BD1400E8
:10105000022902D01220A07119E0050028786978D1
:101060000906090C08436A4600A9491C05F0D0FC92
:10107000A071287869780906090C0843E071000A14
:10108000207268464078607268460078A07204203A
:1010900020700E2060700820A0700120E0703020C9
:1010A0002071202060710B2032BD10B5062B01DCB1
:1010B000002010BD1400032901D0122004E0827822
:1010C0004178007805F0A8FCA071042020700E2162
:1010D0006170A0700120E070312020712020FFF7A6
:1010E0008AF81CB5062B01DC002016BD1400072968
:1010F00001D0122010E001004A7988790006000C26
:10110000024308784B781B061B0C184300920B799E
:10111000CA78897805F084FCE070042020700F21E3
:101120006170A07001202071322060712020A071B8
:10113000072016BD10B5062B01DC002010BD1400E1
:10114000032901D0122004E082784178007805F06C
:10115000ABFCA071042020700E216170A0700120F2
:10116000E070332020712020FFF745F810B5062BE2
:1011700001DC002010BD1400042901D0122005E07C
:10118000C37882784178007805F092FCA071042041
:1011900020700E216170A0700120E0703420207159
:1011A0002020FFF728F810B5062B01DC002010BD29
:1011B0001400072901D0122003E0411C007805F03B
:1011C0009CFBA071042020700E216170A070012092
:1011D000E070352020712020FFF70DF830B58DB07C
:1011E00000240CAD2C70072B01DC00203AE0140029
:1011F000192902D01220A07127E0417882781206C6
:10120000120C11430CAA0B92027E0A92C27D099223
:10121000827D0892427D0792027D069213228256B9
:101220000592827C049202000C320392C27A0292EE
:10123000827A0192427A0092831DC21C007805F0E6
:1012400033FBA0710CA80078E071042020700E2000
:1012500060700520A0700120E070362020712020F1
:10126000607108200DB030BD1CB5062B01DC0020DC
:1012700016BDC37814001A1D914201D0122006E059
:10128000011D009182784178007806F02BF8A0715A
:10129000042020700E216170A0700120E0703720C2
:1012A000207120206071072016BD1CB5062B01DCC3
:1012B000002016BDC37814001A1D914201D01220DF
:1012C00006E0011D009182784178007806F010F860
:1012D000A071042020700E216170A0700120E070C8
:1012E0003820DDE7F0B5BFB0062B01DC002037E089
:1012F000002510E06B4606246C431B19AC00041952
:10130000A6781E70E67827793F063F0C3E435E8044
:1013100064791C716D1C43789D42EBDB0500140061
:101320009800801C814201D012200CE06A4619000E
:10133000287806F03BF8A071002805D16A46697844
:10134000287805F0DEFAA071042020700E2161706B
:10135000A0700120E07039202071202060710720EA
:101360003FB0F0BD1CB500206C462080092B1BDB74
:101370001400002902D01220A07108E0684605F090
:1013800071FEA07168460088E071000A2072042096
:1013900020700E2060700620A0700120E0703A20BE
:1013A000207120206071092016BD1CB500206C46FC
:1013B0002070072B19DD1400002902D01220A07123
:1013C00006E0684605F0A1FAA07168460078E07171
:1013D000042020700E2060700520A0700120E070B5
:1013E0003B20207120206071082016BD10B5062B0F
:1013F00001DC002010BD1400012901D0122002E000
:10140000007805F086FAA071042020700E2161702A
:10141000A0700120E0703C2020712020FEF7EBFE40
:1014200010B5062B01DC002010BD1400002901D0EE
:10143000122001E005F071FAA071042020700E2145
:101440006170A0700120E0703D2020712020FEF727
:10145000D2FE38B5062B01DC002032BD140007296E
:1014600001D0122011E0437981790906090C0B4360
:10147000C27801790906090C0A43417885782D065E
:101480002D0C2943007805F04CFAA071042020703F
:101490000E216170A0700120E0703E203EE010B58A
:1014A000062B01DC002010BD0B0081781400CA1C43
:1014B000934201D0122005E0C31C0A004178007855
:1014C00005F01DFFA071042020700E216170A07036
:1014D0000120E0703F2020712020FEF78CFE38B5FF
:1014E000062B01DC002032BD1400022901D012209D
:1014F0000BE005006978287805F04AFFA071002804
:1015000004D16978287805F010FAA07104202070C1
:101510000E216170A0700120E07040202071202019
:101520006071072032BDF7B5C0B0062B01DC00208A
:1015300045E0002200210023012400948478DC404F
:101540000125254000D0491C5B1C082BF4D317E073
:101550000623534301ACE4189500AD184519EE7805
:1015600026702E796F793F063F0C3E4301AFBF1CBA
:10157000FE52AB79EE793606360C3343A380521C0B
:101580008A42E5DB41AA1288429C8B005918C91C8B
:101590008A4201D0122005E001AB827841780078C0
:1015A00005F0C7F9A071042020700E216170A070B1
:1015B0000098E0704120207120206071072043B026
:1015C000F0BD10B5062B01DC002010BD140006296B
:1015D00001D012200DE0037941790906090C0B4373
:1015E0008278C1780906090C0A434178007805F031
:1015F000A4F9A071042020700E216170A070012058
:10160000E070422020712020FEF7F5FDF7B5C2B052
:10161000062B01DC002062E00026002100220125CB
:10162000437AD3402B4000D0491C521C082AF7D3E0
:1016300034E03301C218947AD77A3F063F0C3C431A
:1016400002AFFB181C80147B577B3F063F0C3C43CA
:101650005C80947BD77B3F063F0C3C439C80147C92
:10166000577C3F063F0C3C43DC80947CD77C3F0694
:101670003F0C3C431C81147D577D3F063F0C3C438F
:101680005C81947DD77D3F063F0C3C439C81147E5A
:10169000577E3F063F0C3C43DC81761C8E42C8DB04
:1016A00043AA1288449C09010A318A4201D01220BF
:1016B00009E002A90191417A0091C31C8278417826
:1016C000007805F0CCF8E070042020700F216170E4
:1016D000A0702571432060712020A071072045B0C3
:1016E000F0BD1FB5062B01DC002025E014000E29FB
:1016F00001D0122013E0C17A027B1206120C1143B2
:10170000427A837A1B061B0C1A43437B0293019196
:101710000092C31C82784178007805F012F9E070DD
:10172000042020700F216170A070012020714420DE
:1017300060712020A071072004B010BD10B5062BE9
:1017400001DC002010BD1400002901D0122001E0AE
:1017500005F005F9A071042020700E216170A070C1
:101760000120E070452020712020FEF744FD10B5D7
:10177000062B01DC002010BD1400022901D012202C
:1017800007E0017842781206120C1143080005F0B8
:10179000EAF8A071042020700E216170A070012071
:1017A000E070462020712020FEF725FD10B5062BA5
:1017B00001DC002010BD1400082901D0122004E033
:1017C000C279411C007805F0D2F8A0710420207085
:1017D0000E216170A0700120E07047202071202050
:1017E000FEF709FD10B5062B01DC002010BD14002A
:1017F000082901D0122004E0C279411C007805F0CC
:10180000BAF8A071042020700E216170A070012030
:10181000E070482020712020FEF7EDFC10B5062B6B
:1018200001DC002010BD1400002901D0122001E0CD
:1018300005F0A5F8A071042020700E216170A07041
:101840000120E070492020712020FEF7D4FC1CB557
:1018500000206C462070072B19DD1400002902D0EF
:101860001220A07106E0684605F08DF8A071684668
:101870000078E071042020700E2060700520A070B8
:101880000120E0704A20207120206071082016BDE0
:101890001CB500206C462080082B1EDD140000299A
:1018A00002D01220A0710BE0694600A8401C05F090
:1018B00061FEA07168464078E07168460078207249
:1018C000042020700E2060700620A0700120E070BF
:1018D0004B20207120206071092016BD1CB500200E
:1018E0006C4620600B2B22DB1400002902D0122052
:1018F000A0710FE0694600A8801C05F049FEA071A8
:1019000000980014E071000A2072009800B2607222
:10191000000AA072042020700E2060700820A070C1
:101920000120E0704C202071202060710B2016BD3A
:1019300010B5062B01DC002010BD1400042901D0D5
:1019400012200DE08178C278120612141143027839
:1019500043781B061B141A4309B210B205F026FE89
:10196000A071042020700E216170A0700120E07031
:101970004D2020712020FEF73EFC10B5062B01DC27
:10198000002010BD1400082901D0122004E0C27903
:10199000411C007805F06BF8A071042020700E2126
:1019A0006170A0700120E0704E2020712020FEF7B1
:1019B00022FC1FB5062B01DC002020E083791400F7
:1019C000DA1D914201D012200CE0C11D0391029357
:1019D0004179019101790091C3788278417800784A
:1019E0000120C046A071042020700E216170A070FB
:1019F0000120E0704F20207120206071072004B08A
:101A000010BD1FB5062B01DC002020E083791400F7
:101A1000DA1D914201D012200CE0C11D0391029306
:101A20004179019101790091C378827841780078F9
:101A30000120C046A071042020700E216170A070AA
:101A40000120E0705020207120206071072004B038
:101A500010BD1CB5062B01DC002016BD0379140057
:101A60005A1D914201D0122008E0411D01910093BE
:101A7000C3788278417800780120C046A0710420A4
:101A800020700E216170A0700120E0705120FFF7DE
:101A900007FC10B5062B01DC002010BD1400022944
:101AA00001D0122003E0417800780120C046A071E7
:101AB000042020700E216170A0700120E07052207F
:101AC00020712020FEF797FB3EB5092B01DA00209C
:101AD0003EBD050014006879801D814202D01220AD
:101AE000A07116E0287869780906090C0843A91D39
:101AF0000191697900912B79EA78A9780120C04693
:101B0000A071287869780906090C0843E071000A79
:101B10002072042020700E2060700620A07001202A
:101B2000E07053203FE238B5092B01DA002032BDC6
:101B3000050014002879401D814202D01220A071B6
:101B400014E0287869780906090C0843691D00919A
:101B50002B79EA78A9780120C046A07128786978A5
:101B60000906090C0843E071000A20720420207065
:101B70000E2060700620A0700120E0705420FFF756
:101B800010F838B5092B01DA002032BD0500140029
:101B9000E878001D814202D01220A07112E028785E
:101BA00069780906090C08432B1DEA78A9780120F9
:101BB000C046A071287869780906090C0843E071CD
:101BC000000A2072042020700E2060700620A07091
:101BD0000120E0705520FEF7E4FF38B5092B01DA4B
:101BE000002032BD1400072902D01220A07119E094
:101BF0000500EA7828790006000C02432878697805
:101C00000906090C0843A97900916B79A97801208C
:101C1000C046A071287869780906090C0843E0716C
:101C2000000A2072042020700E2060700620A07030
:101C30000120E0705620FEF7B4FF38B5092B01DA19
:101C4000002032BD1400032902D01220A07111E03F
:101C50000500287869780906090C0843A97801204D
:101C6000C046A071287869780906090C0843E0711C
:101C7000000A2072042020700E2060700620A070E0
:101C80000120E0705720FEF78CFF1CB500206C4649
:101C900020600A2B28DD1400002902D01220A07138
:101CA00015E06B4600AA521C00A9891C00A8C01CA4
:101CB0000120C046A0716846C078E071684680780F
:101CC000207268464078607268460078A0720420EE
:101CD00020700E2060700820A0700120E070582055
:101CE0002071202060710B2016BD10B5062B01DC81
:101CF000002010BD1400032901D0122008E0027852
:101D000041780906090C0A438178100004F03FFE6F
:101D1000A071042020700E216170A0700120E0707D
:101D2000592020712020FEF766FA38B5092B01DA18
:101D3000002032BD1400062902D01220A0711AE042
:101D400005002A7968790006000C0243A978E87832
:101D50000006000C014328786B781B061B0C184307
:101D600004F028FEA071287869780906090C084358
:101D7000E071000A2072042020700E20607006209E
:101D8000A0700120E0705A20FEF70BFF38B5092B38
:101D900001DA002032BD1400052902D01220A07102
:101DA00016E00500A978E8780006000C01432878C1
:101DB0006A781206120C10432A7904F0F7FDA0711C
:101DC000287869780906090C0843E071000A207236
:101DD000042020700E2060700620A0700120E070AA
:101DE0005B20FEF7DEFE38B5092B01DA002032BD9C
:101DF0001400082902D01220A0711DE005006B79A3
:101E0000A8790006000C0343EA7828790006000C44
:101E10000243287869780906090C0843E97900919A
:101E2000A97804F0BCFDA071287869780906090C2E
:101E30000843E071000A2072042020700E206070B8
:101E40000620A0700120E0705C20FEF7AAFE10B50D
:101E5000062B01DC002010BD1400062901D0122041
:101E60000DE0C27801790906090C0A4341788378AC
:101E70001B061B0C19434379007804F08CFDA071FC
:101E8000042020700E216170A0700120E0705D20A0
:101E900020712020FEF7AFF938B500246D462C8064
:101EA0000B2B01DC002032BD1400032902D01220CC
:101EB000A0711CE00500287869780906090C084320
:101EC0006B4600AA521CA97804F088FDA0712878FE
:101ED00069780906090C0843E071000A2072A878A5
:101EE000607268464078A07268460078E07204200C
:101EF00020700E2060700920A0700120E070762014
:101F00002071202060710C2032BD10B5062B01DC41
:101F1000002010BD1400032901D0122008E002782F
:101F200041780906090C0A438178100004F05AFD33
:101F3000E070042020700F216170A07001202071DA
:101F40007720FEF7DDFD3EB5092B01DA00203EBD0E
:101F50001400082902D01220A0711BE00500A97905
:101F6000E8790006000C014328786A781206120C02
:101F700010430191697900912B79EA78A97804F0EE
:101F800035FDA071287869780906090C0843E071CD
:101F9000000A2072042020700E2060700620A070BD
:101FA0000120E070782020712020607109203EBD62
:101FB00038B5092B01DA002032BD1400032902D004
:101FC0001220A07111E00500287869780906090C33
:101FD0000843A97804F014FDA071287869780906EF
:101FE000090C0843E071000A2072042020700E20C2
:101FF00060700620A0700120E0707920FEF7D1FD0E
:1020000038B5092B01DA002032BD1400042902D0B2
:102010001220A07112E00500287869780906090CE1
:102020000843EA78A97804F0EFFCA0712878697871
:102030000906090C0843E071000A20720420207090
:102040000E2060700620A0700120E0707A20FEF75C
:10205000A8FD78B585B08579C41D6619062B01DC0D
:10206000002023E014002A000832914201D01220FF
:102070000FE0002171560491C11D03910295417931
:10208000019101790091C37882784178007804F059
:1020900013FDA071042020700E216170A07001203A
:1020A000E0707B20207120206071072006B070BD99
:1020B00038B5002568460580092B01DA002032BDBD
:1020C0001400002902D01220A07107E005F094FA54
:1020D000A07168460088E071000A20720420207018
:1020E0000E2060700620A0700120E0702571FC2099
:1020F000FEF759FD30B58BB0002008AD28606C4666
:1021000020856D46E8616062152B54DB12251400B2
:10211000002901D0A57143E009A80690801C059014
:1021200007A80490401C039007A8801C029007A8F1
:10213000C01C01900AA8009008AB08AA521C08A96C
:10214000891C08A8C01C05F065FAA07108A8C01C6D
:102150000078E07108A8801C0078207208A8401C54
:102160000078607208A80078A0726846008DE0725E
:10217000000A20736846C07F60736846807FA07342
:102180006846407FE0736846007F20746846C08CD4
:102190006074000AA0746846808CE074000A2075A0
:1021A000042020700E206070A5700120E070207166
:1021B000FC20607115200BB030BD10B5062B01DC82
:1021C000002010BD0B00417814008A1C934201D0FE
:1021D000122003E0821C007805F0B4FAA0710420FC
:1021E00020700E216170A0700120E0700C20207121
:1021F000FC20FEF700F878B5C1B01E0000236D4644
:102200002B70072E14DB1400012902D01220A071BC
:1022100017E001AA6946007805F098FAA071072E28
:1022200006DD68460078E07102460830864201D239
:10223000002014E001A92000083004F0FDFDE3793E
:102240009B1C042020700E206070D81CA070012000
:10225000E0700D202071FC2060719B1D98B242B08F
:1022600070BD10B5062B01DC002010BD1400022942
:1022700001D0122003E04178007805F06BFAA071DC
:10228000042020700E216170A0700120E0700F20EA
:102290002071FC20FDF7AFFF1CB5002000900B2B38
:1022A0001ADB1400002902D01220A07107E0684652
:1022B00005F054FAA071E11D009805F057FA0420CA
:1022C00020700E2060700820A0700120E0701420A3
:1022D0002071FC2060710B2016BD10B5062B01DCAF
:1022E000002010BD1400022901D0122003E0417823
:1022F000007805F045FAA071042020700E2161706D
:10230000A0700120E07015202071FC20FDF773FF04
:1023100010B5062B01DC002010BD1400002901D0EF
:10232000122001E005F084FAA071042020700E2133
:102330006170A0700120E07016202071FC20FDF774
:102340005AFF10B586B01F2B01DA002023E01400DD
:10235000012902D01220A07110E002AA694600787B
:1023600005F07AFAA07108226946E01D04F064FDC8
:10237000102202A920000F3004F05EFD042020701E
:102380000E2060701C20A0700120E07017202071CA
:10239000FC2060711F2006B010BD10B5062B01DCBB
:1023A000002010BD1400022901D0122007E001789E
:1023B00042781206120C1143080005F0B5FAA0711C
:1023C000042020700E216170A0700120E0701820A0
:1023D0002071FC20FDF70FFF10B5062B01DC00205B
:1023E00010BD1400042901D0122003E005F0A4FA66
:1023F00005F0AEFAA071042020700E216170A0706B
:102400000120E0701A202071FC20FDF7F4FE1CB5BD
:10241000062B01DC002016BD1400062901D0122075
:102420000BE041790191042141560091C3780221CA
:1024300042564178007804F076F9A07104202070AB
:102440000E216170A0700120E0701C202071FC2022
:10245000FEF728FF10B5062B01DC002010BD14008C
:10246000002901D0122001E005F0CCF8A071042071
:1024700020700E216170A0700120E070202020717A
:10248000FC20FDF7B8FE1CB5062B01DC002016BDB4
:102490001400062901D012200BE0C3780179090647
:1024A000090C0B434179009182784178007805F05E
:1024B000EEF8E070042020700F216170A070012000
:1024C00020712B206071FC20A071072016BD18B56B
:1024D00085B0062B01DC002028E01400027A0932C6
:1024E000914201D0122014E0C37801790906090C49
:1024F0000B43010009310491017A0391C1790291E2
:10250000817901914179009182784178007805F0D4
:10251000CBF8A071042020700E216170A070012002
:10252000E0702C202071FC206071072006B010BDE7
:1025300038B5062B01DC002032BD050014002879D7
:10254000401D814201D0122006E0280005F0F4F978
:102550006A1D297905F008FAA071042020700E2167
:102560006170A0700120E07035202071FC20FEF722
:10257000D7FFF0B5C1B01E0000236D462B70072EAB
:1025800017DB1400052902D01220A0711AE0070001
:1025900005F0D2F901AB6A46397905F0FEF9A07170
:1025A000072E06DD68460078E07102460830864254
:1025B00001D2002014E001A92000083004F03CFC06
:1025C000E3799B1C042020700E206070D81CA07042
:1025D0000120E07036202071FC2060719B1D98B2B4
:1025E00041B0F0BD10B5062B01DC002010BD140079
:1025F000042901D0122005E0C37882784178007860
:102600000120C046A071042020700E216170A070CE
:102610000120E07037202071FC20FDF7ECFD1CB597
:1026200000206C46A08020600D2B28DB14000029C0
:1026300002D01220A07115E06A4600A9891C01A8E9
:1026400005F0CEF9A07168468088E071000A20721A
:10265000684640886072000AA07268460088E0728E
:10266000000A2073042020700E2060700A20A070E1
:102670000120E07060202071FC2060710D2016BDEB
:1026800010B5062B01DC002010BD1400012901D07B
:10269000122002E0007803F0D2FEA0710420207026
:1026A0000E216170A0700120E07085202071FC2057
:1026B000FDF7A1FD38B584B0062B01DC002022E037
:1026C00014000B2901D0122010E00500E81D05F0D0
:1026D00033F90390A87902906879019028790090E5
:1026E000EB78AA786978287803F0ADFEA071042011
:1026F00020700E216170A0700120E0708620207192
:10270000FC206071072005B030BD38B50500062BF0
:1027100001DC002032BD1400062901D012200BE09C
:10272000A81C05F009F92A7869780906090C0A43FA
:102730000100100003F097FEA071042020700E210C
:102740006170A0700120E07088202071FC20FEF7ED
:10275000E7FE30B585B000246D462C82EC600D2B71
:1027600001DA00202EE01400042902D01220A0710A
:102770001BE003A90291891C019104A90091C3786F
:1027800082784178007805F040F9A0716846008AA7
:10279000E071000A20726846C0896072000AA07267
:1027A00068468089E072000A2073042020700E20A1
:1027B00060700A20A0700120E0708A202071FC2047
:1027C00060710D2005B030BD10B5062B01DC002076
:1027D00010BD1400022901D0122007E001784278D0
:1027E0001206120C1143080003F025FEE0700420CD
:1027F00020700F216170A070012020718D20607108
:10280000FC20FEF77FF938B500246D462C80082B9C
:1028100001DC002032BD1400022902D01220A07178
:1028200011E0010008784A781206120C10436A463B
:1028300000A9491C03F01BFEA07168464078E071B6
:10284000684600782072042020700E2060700620F8
:10285000A0700120E07090202071FC20FEF7A3F909
:1028600010B5062B01DC002010BD1400022901D098
:10287000122007E0017842781206120C114308007A
:1028800005F0FEF8A071042020700E216170A07088
:102890000120E07091202071FC20FDF7ACFC10B508
:1028A000062B01DC002010BD1400032901D01220EA
:1028B00008E0027841780906090C0A438178100083
:1028C00003F0D9FDE070042020700F216170A0702A
:1028D0000120207193206071FC20FEF713F910B5E0
:1028E000062B01DC002010BD1400002901D01220AD
:1028F00001E003F0C4FDA071042020700E2161707E
:10290000A0700120E07094202071FC20FDF773FC82
:1029100010B5062B01DC002010BD1400022901D0E7
:10292000122007E0017842781206120C11430800C9
:1029300003F0ADFDA071042020700E216170A07025
:102940000120E07095202071FC20FDF754FC10B5AB
:10295000062B01DC002010BD1400082901D0122034
:1029600004E0821C4178007803F0DEFDE070042072
:1029700020700F216170A070012020719C20607177
:10298000FC20FEF7BFF810B5062B01DC002010BDBF
:102990001400012901D0122002E0007803F0D0FDDC
:1029A000E070042020700F216170A0700120207160
:1029B0009D206071FC20FEF7A5F8F8B584B0062BC9
:1029C00001DC002041E014000E2901D012202FE08C
:1029D000027B417B0906090C0A43857AC17A090604
:1029E000090C0D43067A417A0906090C0E438379D6
:1029F000C1790906090C0B43017947793F063F0C61
:102A000039436F46F9818178C7783F063F0C3943D7
:102A10006F46B981017847783F063F0C394308007B
:102A20000292019500966946CA89898903F033FDAF
:102A3000E070042020700F216170A07001202071CF
:102A40009E206071FC20A071072005B0F0BD10B57C
:102A5000062B01DC002010BD1400032901D0122038
:102A600008E0027841780906090C0A4381781000D1
:102A700003F01FFDE070042020700F216170A07032
:102A8000012020719F206071FC20FEF73BF81CB5EF
:102A90000D2B01DA002016BD1400062902D01220E9
:102AA000A07108E0694604F0F9FFA07106226946AA
:102AB000E01D04F0C1F9042020700E2060700A208F
:102AC000A0700120E070A0202071FC20FEF743FAE6
:102AD000F8B5C0B01F00002400266D462C70072FEB
:102AE0003CDB1500022911D01220A87104202870A7
:102AF0000E206870F01CA8700120E870A3202871D7
:102B0000FC206871B61DB0B241B0F0BD01AB6A46A1
:102B10004178007803F0D1FCA871072F1EDD6846CC
:102B20000078E871022606E00622491C093004F00C
:102B300083F9B61D641C684600788442D6DAF11D1C
:102B40008F420BD3E000011B681801AA51180A78C4
:102B50000272761C33000C339F42E5DA0020D3E783
:102B600010B5062B01DC002010BD1400072901D090
:102B7000122003E0411C007803F0A3FCA0710420A4
:102B800020700E216170A0700120E070A4202071DF
:102B9000FC20FDF730FB10B5062B01DC002010BD3A
:102BA0001400032901D0122008E0027841780906B8
:102BB000090C0A438178100003F087FCA0710420FF
:102BC00020700E216170A0700120E070A52020719E
:102BD000FC20FDF710FB10B5062B01DC002010BD1A
:102BE0001400032901D0122008E002784178090678
:102BF000090C0A438178100003F06BFCA0710420DB
:102C000020700E216170A0700120E070A62020715C
:102C1000FC20FDF7F0FA38B588B000246D46AC8092
:102C2000202B01DA002031E01400012902D012200B
:102C3000A0711EE0050004A8009001AB02AA01A942
:102C4000491C287803F049FCA07168464079E0717E
:102C5000062202A92000083004F0EEF82878A073BC
:102C600068460079E073102204A92000103004F0B7
:102C7000E3F8042020700E2060701D20A070012059
:102C8000E070A7202071FC206071202009B030BDC9
:102C90001CB5062B01DC002016BD14001A2901D03A
:102CA00012200AE001000A310191417A0091037A71
:102CB000821C4178007803F016FCA071042020707B
:102CC0000E216170A0700120E070A8202071FC200E
:102CD000FEF7E8FA10B5062B01DC002010BD140049
:102CE000072901D0122003E0411C007803F0CBFB40
:102CF000A071042020700E216170A0700120E0708E
:102D0000AA202071FC20FDF776FA78B58BB0062B4F
:102D100001DC00203AE014001B2901D0122028E039
:102D20000500083004F008FE0600281D04F004FE2B
:102D3000AA78E9780906090C0A43A97E0A91697EF6
:102D40000991297E0891E97D0791A97D06911521B8
:102D500069560591297D049129000E310391697B03
:102D60000291297B0191009603006978287804F08C
:102D700099FEA071042020700E216170A0700120C6
:102D8000E070AB202071FC20607107200CB070BD9A
:102D9000F0B5BFB0062B01DC002037E0002510E0C5
:102DA0006B4606246C431B19AC000419A6781E70F0
:102DB000E67827793F063F0C3E435E8064791C71BC
:102DC0006D1C43789D42EBDB050014009800801CCD
:102DD000814201D012200CE06A461900287804F0E4
:102DE00002FBA071002805D16A466978287804F0B2
:102DF00080FEA071042020700E216170A07001205F
:102E0000E070AC202071FC20607107203FB0F0BD65
:102E100010B5062B01DC002010BD0B0081781400DA
:102E2000CA1C934201D0122005E0C31C0A0041785D
:102E3000007804F0EEFAA071042020700E21617079
:102E4000A0700120E070AD202071FC20FDF7D3F9C7
:102E500010B5062B01DC002010BD0B00817814009A
:102E6000CA1C934201D0122005E0C31C0A0041781D
:102E7000007804F0D3FAA071042020700E21617054
:102E8000A0700120E070AE202071FC20FDF7B3F9A6
:102E90001CB5062B01DC002016BD1400082901D04A
:102EA000122011E08179C2791206120C11430279C5
:102EB00043791B061B0C1A4301910092C378827858
:102EC0004178007803F018FBA071042020700E21D7
:102ED0006170A0700120E070AF202071FC20FEF72F
:102EE000E1F9F8B584B0062B01DC002039E01400CC
:102EF0000D2901D0122027E0C27A017B0906090CB6
:102F00000A43457A817A0906090C0D43C679017A8C
:102F10000906090C0E43437981790906090C0B4314
:102F2000C17807793F063F0C39436F46B981417834
:102F300087783F063F0C39430292019500966A4616
:102F40009289007803F0E2FAA071042020700E212B
:102F50006170A0700120E070B0202071FC206071D1
:102F6000072005B0F0BD10B5062B01DC002010BD18
:102F70001400062901D012200DE0037941790906D9
:102F8000090C0B438278C1780906090C0A43417881
:102F9000007803F0CDFAA071042020700E2161703A
:102FA000A0700120E070B1202071FC20FDF723F912
:102FB00010B5062B01DC002010BD1400082901D03B
:102FC000122004E0821C4178007803F0B5FAA07169
:102FD000042020700E216170A0700120E070B220EA
:102FE0002071FC20FDF707F9F0B5BFB00F00160007
:102FF000072B01DA00202BE0002405000CE0E000A4
:10300000011B684640186918CA7802700622091D1B
:10301000401C03F011FF641CAA789442EFDBD1003E
:10302000881AC01C874201D0122004E06B466978E0
:10303000287804F062FDB071042030700E217170A8
:10304000B0700120F070B3203071FC207071072047
:103050003FB0F0BD10B5062B01DC002010BD140000
:10306000012901D0122002E0007804F059FDA0717E
:10307000042020700E216170A0700120E070B42047
:103080002071FC20FDF7B7F838B5062B01DC0020D5
:1030900032BD1400072901D0122011E04379817953
:1030A0000906090C0B43C27801790906090C0A4389
:1030B000417885782D062D0C2943007803F044FAD9
:1030C000A071042020700E216170A0700120E070BA
:1030D000B5202071FC20FEF723FA10B5062B01DC89
:1030E000002010BD0B0081781400CA1C934201D04F
:1030F000122005E0C31C0A004178007804F002F9B0
:10310000A071042020700E216170A0700120E07079
:10311000B6202071FC20FDF76EF810B5062B01DCFF
:10312000002010BD1400022901D0122003E04178D4
:10313000007803F00DFAA071042020700E21617058
:10314000A0700120E070B7202071FC20FDF753F83B
:103150001FB5062B01DC002025E014000E2901D04C
:10316000122013E0C17A027B1206120C1143427A3C
:10317000837A1B061B0C1A43437B02930191009236
:10318000C31C82784178007803F0EAF9E0700420EB
:1031900020700F216170A07001202071B820607133
:1031A000FC20A071072004B010BD10B5062B01DC77
:1031B000002010BD1400002901D0122001E003F00E
:1031C000DDF9A071042020700E216170A070012033
:1031D000E070B9202071FC20FDF70DF810B5062B2A
:1031E00001DC002010BD1400012901D0122002E0F2
:1031F000007803F0F2F9A071042020700E216170B4
:10320000A0700120E070BA202071FC20FCF7F3FFD1
:1032100010B5062B01DC002010BD1400002901D0E0
:10322000122001E003F0DDF9A071042020700E21CE
:103230006170A0700120E070BB202071FC20FCF7C1
:10324000DAFF10B5062B01DC002010BD14000229A6
:1032500001D0122007E0017842781206120C1143C7
:10326000080003F08FF9A071042020700E21617016
:10327000A0700120E070C0202071FC20FCF7BBFF93
:1032800010B5062B01DC002010BD1400082901D068
:10329000122004E0C279411C007803F07BF9A07190
:1032A000042020700E216170A0700120E070C12008
:1032B0002071FC20FCF79FFF10B5062B01DC0020DD
:1032C00010BD1400082901D0122004E0C279411C6D
:1032D000007803F063F9A071042020700E21617062
:1032E000A0700120E070C2202071FC20FCF783FF59
:1032F00010B5062B01DC002010BD1400002901D000
:10330000122001E003F04EF9A071042020700E217C
:103310006170A0700120E070C3202071FC20FCF7D8
:103320006AFF1CB500206C462070072B19DD1400C5
:10333000002902D01220A07106E0684603F036F999
:10334000A07168460078E071042020700E20607043
:103350000520A0700120E070C4202071FC20607165
:10336000082016BD10B5062B01DC002010BD14008E
:10337000032901D0122008E0027841780906090CDF
:103380000A438178100003F001F9A0710420207035
:103390000E216170A0700120E070C5202071FC201A
:1033A000FCF729FF38B5092B01DA002032BD1400E3
:1033B000062902D01220A0711AE005002A79687946
:1033C0000006000C0243A978E8780006000C0143CF
:1033D00028786B781B061B0C184303F0EBF8A071E0
:1033E000287869780906090C0843E071000A207200
:1033F000042020700E2060700620A0700120E07074
:10340000C6202071FC20FDF7CEFB38B5092B01DA70
:10341000002032BD1400052902D01220A07116E050
:103420000500A978E8780006000C014328786A783E
:103430001206120C10432A7903F0C0F8A071287804
:1034400069780906090C0843E071000A207204201B
:1034500020700E2060700620A0700120E070C72050
:103460002071FC20FDF79FFB38B5092B01DA002005
:1034700032BD1400082902D01220A0711DE0050001
:103480006B79A8790006000C0343EA7828790006D6
:10349000000C0243287869780906090C0843E97989
:1034A0000091A97803F08EF8A07128786978090650
:1034B000090C0843E071000A2072042020700E20DD
:1034C00060700620A0700120E070C8202071FC20F0
:1034D000FDF769FB10B5062B01DC002010BD1400C0
:1034E000062901D012200DE0C27801790906090CE5
:1034F0000A43417883781B061B0C194343790078F3
:1035000003F067F8A071042020700E216170A07094
:103510000120E070C9202071FC20FCF76CFE10B582
:10352000062B01DC002010BD1400002901D0122060
:1035300001E003F05AF8A071042020700E216170A0
:10354000A0700120E0702071FD20FCF754FEF1B561
:1035500088B00F0016000078012801D1032004E094
:10356000022801D1112000E00120089908180290DA
:103570000022002069468880092B38DB08980078F3
:103580000225012801D1022202E0022800D11022E6
:103590000898411C03A803F04FFC08980078012804
:1035A00001D1052104E0022801D1132100E003210B
:1035B0008F4202D01220B0710DE001A90091029952
:1035C0004B780A7803A904F0D4FAB0716846808871
:1035D000F071000A3072042030700E2070700620E6
:1035E000B0700120F0703571FD20707109200AB0B3
:1035F000E0BD38B500246D462C80092B01DA00208F
:1036000032BD1400042902D01220A07113E0020080
:103610009178D0780006000C0143107853781B068F
:103620001B0C18436A4604F0E6FAA071684600884D
:10363000E071000A2072042020700E2060700620C5
:10364000A0700120E07003202071FD20FDF7ABFA8F
:10365000F0B58BB004000F001600A078012801D14E
:10366000052004E0022801D1132000E003202518E2
:103670000022002069460883092B46DBA078012838
:1036800001D1022202E0022800D11022E11C07A889
:1036900003F0D2FBA078012801D10C2004E002281D
:1036A00001D11A2000E00A20874202D01220B07116
:1036B0001FE02B7868780006000C034320786178BF
:1036C0000906090C084306A90591A97904916979AD
:1036D000039129790291E9780191A978009107AACB
:1036E000A17804F0A9FAB0716846008BF071000A65
:1036F0003072042030700E2171700621B1700121EA
:10370000F1703071FD20707109200BB0F0BDF7B57C
:103710008EB00400A0780326012802D1671D052081
:1037200007E0022803D127001337132001E0E71C2C
:103730000320B978FA781206120C114340182018A9
:10374000001D09900022002069460884092B5CDBDB
:10375000A078012801D1022202E0022800D1102223
:10376000E11C0AA803F068FBA078012801D1052616
:1037700002E0022800D113266846808FB978FA78D3
:103780001206120C1143109D71180931884202D0A3
:103790001220A8712CE0B978F8780006000C0143DB
:1037A0003B7878780006000C034320786278120694
:1037B000120C104308AA0792099A12790692099AE4
:1037C000D2780592099A92780492099A52780392D3
:1037D000099A127802923A1D019200910AAAA178E0
:1037E00004F000FBA8716846008CE871000A28729A
:1037F000042028700E2068700620A8700120E87050
:1038000005202871FD206871092011B0F0BD38B580
:10381000062B01DC002032BD030018795C792406F8
:10382000240C20431400801D814201D0122011E09D
:103830001A7958790006000C02439978D878000666
:10384000000C014318785D782D062D0C28439B1D34
:1038500004F0DCFBA071042020700E216170A070C8
:103860000120E07006202071FD20FDF759FE10B503
:10387000062B01DC002010BD1400022901D012200B
:1038800007E0017842781206120C1143080004F098
:1038900053FBA071042020700E216170A0700120E4
:1038A000E07007202071FD20FCF7A5FC10B5062B69
:1038B00001DC002010BD1400022901D0122007E015
:1038C000017842781206120C1143080004F045FBFF
:1038D000A071042020700E216170A0700120E070A2
:1038E00008202071FD20FCF786FC10B5062B01DCBA
:1038F000002010BD1400022901D0122007E0017839
:1039000042781206120C1143080004F036FBA07135
:10391000042020700E216170A0700120E070092049
:103920002071FD20FCF767FC10B5062B01DC0020A0
:1039300010BD1400042901D0122003E003F0FCFFA5
:1039400002F09BFEA071042020700E216170A07017
:103950000120E0700A202071FD20FCF74CFC10B51E
:10396000062B01DC002010BD1400022901D012201A
:1039700007E0017842781206120C1143080002F0A9
:1039800080FEE070042020700F216170A070012083
:1039900020710B206071FD20FDF7B4F87CB5062B7B
:1039A00001DC002076BD03009879DC792406240C24
:1039B000204314000830814201D0122018E09D7984
:1039C000D8790006000C05431A7958790006000CD6
:1039D00002439978D8780006000C014318785E7885
:1039E0003606360C3043083300932B0002F08DFE70
:1039F000E070042020700F216170A0700120207100
:103A000010205FE210B5062B01DC002010BD140071
:103A1000032901D0122008E0027841780906090C38
:103A20000A438178100002F076FEE07004202070D6
:103A30000F216170A0700120207111206071FD20A4
:103A4000FDF760F838B5062B01DC002032BD1225E9
:103A50001400022901D0E57008E0017842781206CE
:103A6000120C1143080002F010FEE07004202070D8
:103A70000F216170A07001202071657188E0F8B598
:103A800084B00E001500062B01DC002032E0070098
:103A9000B878012801D1022204E0022801D11022C5
:103AA00000E00022F91C684603F0C6F9B878132438
:103AB000012801D1052004E0022801D1132000E0F3
:103AC0000320864201D0122008E038787978090670
:103AD000090C08436A46B97802F0DBFDE87004205F
:103AE00028700F216970A870012028716C71FD2069
:103AF000A871072005B0F0BD38B5062B01DC002009
:103B000032BD1400062901D0122011E003001A79F9
:103B100058790006000C02439978D8780006000C0A
:103B2000014318785D782D062D0C284302F0C3FD63
:103B3000E070042020700F216170A07001202071BE
:103B4000142024E038B5062B01DC002032BD14001F
:103B5000062901D0122011E003001A7958790006D5
:103B6000000C02439978D8780006000C01431878BD
:103B70005D782D062D0C284302F08FFDE0700420A7
:103B800020700F216170A0700120207115206071DC
:103B9000FD20A071072032BD78B585B00D0014005E
:103BA000062B01DC00203DE00600B079012801D1A0
:103BB000022204E0022801D1102200E00022F11DBF
:103BC00001A803F039F9B079012801D1092004E0F6
:103BD000022801D1172000E00720854201D01220E1
:103BE00013E0327970790006000C0243B178F07866
:103BF0000006000C0143307873781B061B0C184339
:103C000001AB0093B37902F04CFDE070042020700A
:103C10000F216170A0700120207116206071FD20BD
:103C2000A071072006B070BD38B5062B01DC00205E
:103C300032BD1400062901D0122011E003001A79C8
:103C400058790006000C02439978D8780006000CD9
:103C5000014318785D782D062D0C284302F027FDCE
:103C6000E070042020700F216170A070012020718D
:103C700017208CE710B5062B01DC002010BD1400C6
:103C8000042901D012200CE08178C2781206120CAF
:103C90001143027843781B061B0C1A43100002F0F4
:103CA0000EFDE070042020700F216170A0700120D3
:103CB000207118206071FD20FCF724FF78B585B0D5
:103CC0000D001400062B01DC00203DE00600B07959
:103CD000012801D1022204E0022801D1102200E0D3
:103CE0000022F11D01A803F0A7F8B079012801D145
:103CF000092004E0022801D1172000E007208542B6
:103D000001D0122013E0327970790006000C0243D2
:103D1000B178F0780006000C0143307873781B0608
:103D20001B0C184301AB0093B37902F0D0FCE07098
:103D3000042020700F216170A070012020711920D3
:103D40006071FD20A071072006B070BD38B5062B4C
:103D500001DC002032BD1400062901D0122011E040
:103D600003001A7958790006000C02439978D87834
:103D70000006000C014318785D782D062D0C2843B1
:103D800002F0A1FCE070042020700F216170A0708F
:103D9000012020711A20FAE6F8B5C0B0062B01DC2C
:103DA00000202DE000250AE06B00C41CE6183478E2
:103DB00077783F063F0C3C436E46F4526D1C837887
:103DC0009D42F1DB14005A00D21C914201D0122016
:103DD00009E0037841780906090C0B436A468178AB
:103DE000180002F07AFCE070042020700F2161704E
:103DF000A070012020711B206071FD20A0710720A0
:103E000041B0F0BD38B5062B01DC002032BD030007
:103E100018795C792406240C20431400801D81420B
:103E200001D0122011E01A7958790006000C0243E3
:103E30009978D8780006000C014318785D782D0633
:103E40002D0C28439B1D04F0ECFAE0700420207038
:103E50000F216170A070012020711C2097E67CB5B5
:103E6000062B01DC002076BD03009879DC7924065E
:103E7000240C204314000830814201D0122018E0A5
:103E80009D79D8790006000C05431A795879000607
:103E9000000C02439978D8780006000C014318788A
:103EA0005E783606360C3043083300932B0004F05E
:103EB00064FAE070042020700F216170A07001206E
:103EC00020711D206071FD20A071072076BD7CB59A
:103ED000062B01DC002076BD03009879DC792406EE
:103EE000240C204314000830814201D0122018E035
:103EF0009D79D8790006000C05431A795879000697
:103F0000000C02439978D8780006000C0143187819
:103F10005E783606360C3043083300932B0004F0ED
:103F200056FAE070042020700F216170A07001200B
:103F300020711E20C6E738B5062B01DC002032BDFB
:103F4000030018795C792406240C20431400801D9A
:103F5000814201D0122011E01A7958790006000C34
:103F600002439978D8780006000C014318785D78F0
:103F70002D062D0C28439B1D02F0B3FBA0710420DD
:103F800020700E216170A0700120E070232020714C
:103F9000FD20FDF7C5FA38B5062B01DC002032BD47
:103FA000030018795C792406240C20431400801D3A
:103FB000814201D0122011E01A7958790006000CD4
:103FC00002439978D8780006000C014318785D7890
:103FD0002D062D0C28439B1D02F087FBA0710420A9
:103FE00020700E216170A0700120E07024202071EB
:103FF000FD20FDF795FA10B5062B01DC002010BD61
:104000001400022901D0122007E00178427812063C
:10401000120C1143080002F082FBA07104202070F2
:104020000E216170A0700120E07025202071FD201C
:10403000FCF7E1F810B5062B01DC002010BD1400E0
:10404000032901D0122008E0027841780906090C02
:104050000A438178100004F009F8A0710420207050
:104060000E216170A0700120E07028202071FD20D9
:10407000FCF7C1F8F0B5C3B01E0000236D46AB607D
:10408000062E33DD1400062902D01220A0713FE075
:10409000027941790906090C0A438178C3781B0625
:1040A0001B0C1943037847783F063F0C3B4318002D
:1040B00003AB019302AB00939B1C03F062FFA07162
:1040C000092E13DB68464089E071000A20720B2E2E
:1040D0000CDB684600896072000AA072607AA17ADF
:1040E0000906090C08430B30864201D200201DE06E
:1040F000627AA07A0006000C024303A920000B306C
:1041000002F09AFE637AA07A0006000C03435B1D5E
:10411000042020700E206070D81CA0700120E07078
:104120002A202071FD2060719B1D98B243B0F0BD24
:1041300010B5062B01DC002010BD1400032901D0AE
:10414000122008E0027841780906090C0A438178B8
:10415000100003F0D9FFA071042020700E216170BF
:10416000A0700120E0702E202071FD20FCF743F8A4
:1041700038B5072B01DA002032BD43798479240653
:10418000240C23431400DB1D994201D0122014E0BB
:10419000437981790906090C0B438178C2781206AC
:1041A000120C1143057842781206120C1543C21DF9
:1041B00000920279280002F048FAA07104202070D1
:1041C0000E216170A0700120E0702F202071FD2071
:1041D000FDF7A6F910B5062B01DC002010BD140078
:1041E000032901D0122008E0027841780906090C61
:1041F0000A438178100004F043F8E0700420207036
:104200000F216170A0700120207131206071FD20AC
:10421000FCF778FC7FB5062B01DC002035E0037A43
:10422000447A2406240C234314000A33994201D013
:1042300012201DE0027A417A0906090C0A438379AB
:10424000C1790906090C0B438178C5782D062D0C20
:104250002943057846783606360C354306000A367B
:1042600002960192009343790279280003F096FFA9
:10427000E070042020700F216170A0700120207177
:1042800033206071FD20A071072004B070BDF8B527
:10429000C4B01E00002400236F46BC816D46AC6094
:1042A000072E33DB1400032902D01220A0713FE057
:1042B000010008784A781206120C104304AA0192F1
:1042C00002AA009202AB9B1C03AA897804F03DF875
:1042D000A071092E1ADB68468089E071000A2072FD
:1042E0000B2E13DB684640896072000AA0720D2E07
:1042F0000CDB68460089E072000A2073E07A217BBB
:104300000906090C08430D30864201D200201DE049
:10431000E27A207B0006000C024304A920000D3045
:1043200002F08AFDE37A207B0006000C0343DB1DCC
:10433000042020700E206070D81CA0700120E07056
:1043400035202071FD2060719B1D98B245B0F0BDF5
:1043500038B5062B01DC002032BD030018795C79EA
:104360002406240C20431400801D814201D0122019
:1043700011E01A7958790006000C02439978D87830
:104380000006000C014318785D782D062D0C28439B
:104390009B1D02F06EF9A071042020700E21617047
:1043A000A0700120E07036202071FD20FDF7B8F8E4
:1043B00078B5C1B01E0000236D462B80072E24DB8C
:1043C0001400042902D01220A07130E0020091787C
:1043D000D0780006000C0143107853781B061B0CA4
:1043E000184301AB6A4603F07CFEA071092E0CDB7A
:1043F00068460088E071000A2072E079217A090697
:10440000090C08430930864201D200201DE0E27900
:10441000207A0006000C024301A92000093002F0B6
:104420000BFDE379207A0006000C0343DB1C04201B
:1044300020700E206070D81CA0700120E070372022
:104440002071FD2060719B1D98B242B070BDF8B51F
:10445000062B01DC0020F2BD14000A2901D0122035
:104460001CE0067A417A0906090C0E438379C1796A
:104470000906090C0B43027941790906090C0A4324
:104480008178C5782D062D0C2943057847783F069D
:104490003F0C3D432800009602F050F9E0700420E4
:1044A00020700F216170A070012020718120607147
:1044B000FD20A0710720F2BDF8B586B0062B01DC07
:1044C000002045E01400102901D0122033E0010043
:1044D0000A7B487B0006000C02438D7AC87A0006EE
:1044E000000C05430E7A487A0006000C06438B79CF
:1044F000C8790006000C034308794F793F063F0C4A
:1045000038436F46F8828878CF783F063F0C3843AF
:104510006F46B88208784F783F063F0C3843CF7B10
:104520000497897B03910292019500966946CA8A95
:10453000898A02F00AF9A071042020700E216170AE
:10454000A0700120E07082202071FD2060710720A2
:1045500007B0F0BDFEB5062B01DC0020FEBD140047
:104560000B2901D012201EE005002E7A687A000681
:10457000000C0643AB79E8790006000C03432A7966
:1045800068790006000C0243A978E8780006000C60
:10459000014328786F783F063F0C3843AD7A019588
:1045A000009604F02DF9E070042020700F21617056
:1045B000A0700120207183206071FD20A071072070
:1045C000FEBDFEB5062B01DC0020FEBD14000C294B
:1045D00001D0122020E001004D7A887A0006000CFC
:1045E0000543CE79087A0006000C06434B7988799A
:1045F0000006000C0343CA7808790006000C024349
:1046000008784F783F063F0C3843CF7A02970195E0
:104610000096897804F025F9A071042020700E21FD
:104620006170A0700120E07084202071FD20607115
:104630000720FEBD3EB500246D46AC80092B01DA93
:1046400000203EBD1400072902D01220A0711AE0FC
:1046500003001A7958790006000C02439978D8783B
:104660000006000C014318785D782D062D0C2843B8
:1046700001AD00959B7902F0A1F8A0716846808891
:10468000E071000A2072042020700E206070062065
:10469000A0700120E07085202071FD20FDF785FCD1
:1046A00010B5062B01DC002010BD1400042901D038
:1046B00012200CE08178C2781206120C11430278A5
:1046C00043781B061B0C1A43100002F07DF8E070C3
:1046D000042020700F216170A070012020718620BD
:1046E0006071FD20FCF70EFA38B5062B01DC0020C6
:1046F00032BD030018795C792406240C2043140091
:10470000801D814201D0122011E01A7958790006EB
:10471000000C02439978D8780006000C0143187801
:104720005D782D062D0C28439B1D04F0F9F8A0712F
:10473000042020700E216170A0700120E07087209D
:104740002071FD20FCF7ECFE70B5062B01DC00208B
:1047500070BD1400082901D0122016E08379C179B8
:104760000906090C0B43027941790906090C0A4331
:104770008178C5782D062D0C2943057846783606B4
:10478000360C3543280002F0B3FFA07104202070DE
:104790000E216170A0700120E07000202071FE20C9
:1047A0006071072070BD38B5062B01DC002032BDDA
:1047B0001400062901D0122011E003001A7958795B
:1047C0000006000C02439978D8780006000C0143DB
:1047D00018785D782D062D0C284302F08DFFA0710E
:1047E000042020700E216170A0700120E070207103
:1047F000FE20FCF795FE10B5062B01DC002010BD55
:104800001400052901D012200DE002009178D07823
:104810000006000C0143107853781B061B0C18434C
:10482000127902F06DFFA071042020700E216170DA
:10483000A0700120E07002202071FE20FBF7DBFC5D
:1048400010B5062B01DC002010BD1400012901D099
:10485000122002E0007802F057FFA07104202070BF
:104860000E216170A0700120E07003202071FE20F5
:10487000FBF7C1FC38B584B00020039002906D4670
:1048800028800190152B2ADB12251400002901D065
:10489000A57119E001AB6A4602A903A802F043FF23
:1048A000A071E11D039802F061FF21000B31029815
:1048B00002F05CFF68460088E073000A2074210063
:1048C0001131019802F052FF042020700E21617016
:1048D000A5700121E1702071FE206071152005B0E6
:1048E00030BD78B5C1B005000E00140003F030FFF4
:1048F00000280ED16846C5700671360A467184716B
:10490000042101700522427081700022072104F009
:104910001BFA42B070BD00B5C1B06B46D8701971BA
:10492000090A59719A7104201870082159709870F9
:10493000012201F005F918B5C1B06C46E070217193
:10494000090A6171A271E3711B0A237244A80088ED
:104950006072000AA072042020700C206070082091
:10496000A07002220B2101F0BEF800B5C1B069466B
:10497000C87004200870102048700120887005223B
:10498000042101F0DEF8F0B5C1B00B0000216C4647
:10499000E070002506000CE0A80022181F5A1771CD
:1049A0003F0A57719F1C385A9071000AD071091D37
:1049B0006D1CB542F0DB0420207013206070491C90
:1049C000A1700622C9B201F052F800B5C1B0694623
:1049D000C870042008701A204870012088700022D6
:1049E000D243042101F0ADF800B5C1B06A46D070E1
:1049F0001171090A51710420107030205070032089
:104A000090700722062101F09CF800B5C1B06946FC
:104A1000C870000A087104200870572048700220EE
:104A200088700022D243052101F08BF800B584463E
:104A3000FFB086B060466946887182200870FF200A
:104A40004870032088700020C87001220A714871E4
:104A50000822072102E1F6B5FFB086B01E00929D44
:104A6000939F6C46A071E11D859802F07FFE2100A6
:104A70000B31869802F07AFE21000F31300002F0EF
:104A800075FE210013318C9802F070FE2100173161
:104A90008D9802F06BFE21001B318E9802F066FEAD
:104AA00021001F318F9802F061FE21002331909880
:104AB00002F05CFE21002731919802F057FE2B2076
:104AC00025542A00390020002C3002F0B5F982204C
:104AD0002070FF20607028002830A0702900080096
:104AE00028300004000EE070032020710020607167
:104AF0000022D2432C3189B2684604F025F97FB0F8
:104B000008B0F0BD18B5FFB086B0030010006C46C9
:104B1000A371E1712100083102F028FE822020708B
:104B2000FF2060700820A0700020E0700421217137
:104B300060710022D2430C213EE218B5FFB086B06E
:104B40000B0011006C46A071E371062220000830B2
:104B500002F072F982202070FF2060700A20A0709D
:104B60000020E0700521217122E230B5FFB086B04F
:104B70000D0011006C46A071E5712A00200008307C
:104B800002F05AF982202070FF206070281DA0706A
:104B900029000004000EE0700620207100206071E2
:104BA0000022D243083189B27EE300B58446FFB0CB
:104BB00086B0604669468871000AC8718220087014
:104BC000FF204870042088700020C87007220A71F6
:104BD00048710022D24340E000B5FFB086B068467D
:104BE00082210170FF214170022181700021C1707A
:104BF0000171042141710922062130E000B584468B
:104C0000FFB086B060466B469871000AD871197281
:104C10005A7282201870FF20587006209870002069
:104C2000D87001201871042058710A220A2115E059
:104C300000B58446FFB086B0604669468871000AB8
:104C4000C87182200870FF204870042088700022FC
:104C5000CA7002220A7148710B220821684604F0CA
:104C600073F87FB006B000BD00B5FFB086B06846EF
:104C700082210170FF214170022181700021C170E9
:104C80000421017141710D220621E8E700B5FFB052
:104C900086B0684682210170FF2141700221817037
:104CA0000021C17005210171042141710E220621EC
:104CB000D5E778B5FFB086B00E00150019006C4638
:104CC000A071E67125722000093002F0B5F882204B
:104CD0002070FF206070681DA07029000004000E85
:104CE000E07007202071042060710F22093189B221
:104CF00095E200B58446FFB086B06046694688718B
:104D0000000AC87182200870FF2048700420887053
:104D10000022CA7008220A71487110229DE718B556
:104D2000FFB086B0020008006C46A271120AE27160
:104D30002100083102F01AFD82202070FF206070EF
:104D40000820A0700020E07009202071042060710C
:104D500036220C2130E100B58446FFB086B06046B3
:104D60006A469071000AD071117282201070FF2083
:104D70005070052090700020D0700A20107104201F
:104D800050713722092169E700B58446FFB086B02B
:104D900060466A469071000AD0711172090A517218
:104DA00082201070FF205070062090700020D0707C
:104DB00010710820507111220A214FE730B5FFB061
:104DC00086B00D0011006C46A071000AE0712572DA
:104DD0002A002000093002F02FF882202070FF20E6
:104DE0006070681DA07029000004000EE0700120B2
:104DF0002071082060711222093189B254E218B57D
:104E0000FFB086B06C46A071000AE0712172627238
:104E1000120AA272E3721B0A237388A800886073C7
:104E2000000AA07389A80088E073000A20748AA889
:104E300000886074000AA07482202070FF206070D7
:104E40000F20A0700020E070022020710820607107
:104E500013221321B0E0F5B5FFB08CB00D001C009B
:104E6000969F979E0596049795A80088039094A80E
:104E70000088029093A80088019092A80088009072
:104E80008BA8008803F021FD002837D106A88BA944
:104E900009888171090AC17105728CA9098841725A
:104EA000090A8172C47292A909880173090A4173BF
:104EB00093A909888173090AC17394A909880174A7
:104EC000090A417495A909888174090AC174077592
:104ED0003F0A47758675360AC67582210170FF2123
:104EE0004170142181700021C170032101710821DA
:104EF00041710022D243182103F026FF7FB00EB08B
:104F0000F0BD30B5FFB086B005000C0003F0E7FC43
:104F1000002817D1684685712D0AC5710472240ACC
:104F2000447282210170FF214170062181700021AD
:104F3000C17004210171082141710022D2430A216C
:104F400003F002FFB3E118B5FFB086B06C46A07164
:104F5000000AE0712172090A6172A272120AE272F9
:104F600023731B0A637382202070FF2060700A2065
:104F7000A0700020E070052018E018B5FFB086B0E2
:104F80006C46A071000AE0712172090A6172A27276
:104F9000120AE27223731B0A637382202070FF20BF
:104FA00060700A20A0700020E070062020710820A8
:104FB00060710022D2430E21684603F0C5FE7FB027
:104FC00007B010BD30B585B01400089A01ADA871C6
:104FD000000AE8712972090A6972AC72240AEC723B
:104FE0002B73180A687382202870FF2068701800DD
:104FF0000A30A87018000A300012E87007202871E3
:10500000082068710020C04300900E2101A803F021
:10501000AFFE05B030BD30B5FFB086B01D00889B37
:105020006C46A071000AE07121726272120AA272CB
:10503000E5722A00190020000C3001F0FDFE8220EC
:105040002070FF20607028000830A0702900080040
:1050500008300004000EE0700A2020710820607102
:105060000122D2430C3189B21EE1F1B5FFB087B005
:105070000F0015001E0086A8008803F0CDFF002851
:1050800026D16C4686A80088A071000AE0712772BC
:105090003F0A6772A572280AE0722A0031002000D8
:1050A0000C3001F0C9FE82202070FF2060702800C3
:1050B0000830A070280008300012E0700120207134
:1050C0000C20607114220C35A9B2684603F03CFE36
:1050D0007FB008B0F0BD00B58446FFB086B0604632
:1050E00069468871000AC87182200870FF204870E4
:1050F000042088700020C870022008710C204871BC
:105100001522AAE500B58446FFB086B060466A461F
:105110009071000AD0711172090A517282201070C8
:10512000FF205070062090700020D0700320107176
:105130000C20507116220A2190E578B5FFB086B098
:105140000E00150019006C46A071000AE07126726D
:105150006572280AA07220000B3001F06DFE8220DB
:105160002070FF206070E81DA0700012E070042025
:1051700020710C20607117224FE0F0B5FFB086B0AF
:105180006C46A071030AE371217200250E00130022
:1051900000210CE0AA009818A218078857723F0A4D
:1051A00097724088D072000A1073091D6D1CB542B9
:1051B000F0DB82202070FF206070481DA07000127C
:1051C000E070052020710C2060711822093189B22D
:1051D000684603F0B9FD7FB006B0F0BD78B5FFB00A
:1051E00086B00E00150019006C46A071000AE0712F
:1051F00026726572280AA07220000B3001F01CFE96
:1052000082202070FF206070E81DA0700012E07006
:10521000062020710C20607119220B35A9B2684656
:1052200003F092FD7FB007B070BD30B5FFB086B01F
:105230000D0011006C46A071000AE0712572280A69
:1052400060722A0020000A3001F0F6FD82202070F2
:10525000FF206070A81DA0700012E0700720207170
:105260000C2060711A221DE030B5FFB086B00D0031
:1052700011006C46A071000AE0712572280A607264
:105280002A0020000A3001F0D7FD82202070FF2084
:105290006070A81DA0700012E070082020710C2022
:1052A00060711B220A35A9B2684603F04DFD7FB03C
:1052B00006B030BD30B5FFB086B00D0011006C46B1
:1052C000A071000AE0712572280A60722A0020008D
:1052D0000A3001F0B1FD82202070FF206070A81D0F
:1052E000A0700012E070092020710C2060711C2257
:1052F000D8E778B5FFB086B00E00150019006C46EF
:10530000A071000AE07126726572280AA07220005E
:105310000B3001F091FD82202070FF206070E81DAD
:10532000A0700012E0700A2020710C2060711D2214
:1053300073E730B5FFB086B01D00889B6C46A07146
:10534000000AE0712172090A6172A272120AE27205
:105350002573280A60732A00190020000E3001F01E
:105360006BFD82202070FF20607028000A30A07042
:1053700028000A300012E0700C20207160711F229A
:105380000E3590E700B58446FFB086B060466946AA
:105390008871000AC87182200870FF2048700420BC
:1053A00088700020C8700D2008710C2048712022E0
:1053B00053E478B5FFB086B00E00150019006C46B6
:1053C000A071000AE0712672360A6672A572280A78
:1053D000E07220000C3001F02FFD82202070FF20B1
:1053E000607028000830A070280008300012E070BB
:1053F0000E2020710C20607121220C350EE7F1B5D2
:10540000FFB087B00F0015001E0086A8008803F0CB
:1054100007FE002826D16C4686A80088A071000AE5
:10542000E07127723F0A6772A572280AE0722A00AB
:10543000310020000C3001F0FFFC82202070FF20A2
:10544000607028000830A070280008300012E0705A
:105450000F2020710C20607122220C35A9B2684601
:1054600003F072FC7FB008B0F0BD30B5FFB086B07D
:1054700005000C0003F076F9002814D16846857108
:105480002D0AC571047282210170FF21417005212E
:1054900081700021C170102101710C214171232202
:1054A000092103F051FC02E718B5FFB086B06C4645
:1054B000A071000AE07121726272120AA272E37294
:1054C00082202070FF2060700820A0700020E07013
:1054D000112020710C20607124220C216CE578B51C
:1054E000FFB086B00E00150019006C46A071000ACE
:1054F000E0712672360A6672A57220000B3001F048
:105500009BFC82202070FF206070E81DA0702900A5
:105510000004000EE070122020710C206071252222
:105520000B3189B27BE630B5FFB086B005000C00C8
:1055300003F07AFD002816D1684685712D0AC571E1
:105540000472240A447282210170FF2141700621F5
:1055500081700021C170162101710C214171292235
:105560000A2103F0F1FBA2E600B58446FFB086B045
:10557000604669468871000AC87182200870FF2061
:105580004870042088700020C870172008710C2013
:1055900048712A22FFF761FB00B58446FFB086B050
:1055A00060466A469071000AD071117282201070B4
:1055B000FF205070052090700020D0701C201071CA
:1055C0000C2050712B220921FFF748FB78B5FFB062
:1055D00086B01E008A9D8B9B6C46A071000AE0710C
:1055E0002172090A6172A272E672360A2673657325
:1055F0002A00190020000E3001F01EFC82202070CD
:10560000FF20607028000A30A070290008000A30CE
:105610000004000EE0701D2020710C2060712C220F
:105620000E3189B2FBE578B5C1B01E00469B4A9D9C
:105630006C4620716171090AA171E271267206221D
:1056400019002000093001F0F7FB47A80088E0733B
:10565000000A207448A800886074000AA07449A851
:105660000088E074000A20756575042020703E20D3
:1056700060701320A0700120E0702C221621684673
:1056800003F062FB42B070BDF0B5C3B0002502AAC2
:10569000107100276A461070019124E0001D461920
:1056A0000198142179434418207870706078B070A4
:1056B0000622A11CF01C01F0BFFB207A7072227A36
:1056C000E16830000A3001F0B7FB207A01000931AF
:1056D0006D1801222100103133000A33181801F02F
:1056E000ABFB6D1C7F1C68460078874202A8D5DBA7
:1056F000042202703E224270A91C81700222C270F4
:105700002D2207E118B5C1B06C4620716171090AFC
:10571000A171E271120A227263721B0AA37244A879
:105720000088E072000A2073042020703E20607020
:105730000A20A0700320E0702E220D21D3E118B5BD
:10574000C1B00B0011006C46207163711B0AA3717C
:105750000822E01D01F070FB042020703E216170E2
:105760000C21A170E0702F220F21BCE130B5C1B037
:1057700015006C462071000A60710822A01D01F01E
:105780005BFBA5732D0AE573042020703E2060703A
:105790000D20A0700520E07030221021684603F033
:1057A000D3FA41B030BD18B5C1B06C462071000AC3
:1057B0006071A171090AE1712272120A6272A37208
:1057C0001B0AE37244A800882073000A6073042057
:1057D00020703E2060700B20A0700720E070312206
:1057E0000E2180E118B5C1B06C4620714022601DC9
:1057F00001F022FB042020703E2060704220A07047
:105800000820E070322245216DE118B5C1B06C4628
:1058100020712022601D01F00FFB042020703E202B
:1058200060702220A0700920E070332225215AE107
:10583000F3B5C1B04899499F4A9E4E9D6C46207170
:1058400042A800886071000AA071E27123720622EA
:105850002000093001F0F0FA0622390020000F3054
:1058600001F0EAFA062231002000153001F0E4FAD6
:105870004BA80088E076000A20774CA80088607763
:10588000000AA0774DA80088E077000A641CE07742
:10589000641E21202554042020703E2060701F20AB
:1058A000A0700A20E07034222221684635E0F0B56D
:1058B000C3B0002602AA107100276A461070019139
:1058C0001AE0380102A90D1801990C1820786871A6
:1058D0006078A8710622A11CE81D01F0ADFA207ABB
:1058E000687306222100093128000E3001F0A4FA65
:1058F000E07B287510367F1C684600788742E0DB25
:1059000002A8042202703E224270B11C81700B2258
:10591000C2703522C9B2C91C89B203F015FA43B06E
:10592000F0BD18B5C1B06C4620716171090AA17152
:10593000E2712372042020703E2060700620A07067
:105940000C20CCE0F0B5C3B0002602AA10710027ED
:105950006A461070019134E001981C217943441883
:1059600002A8851920886871000AA871A078E871DA
:105970000622E11C2800083001F05EFA607AA87364
:10598000A07AE873E07A2874207B6874607BA8743E
:10599000E089E874000A2875207C687506222100D9
:1059A00011312800163001F047FAE07D2877E27DBA
:1059B000A16928001D3001F03FFAE07D183036184B
:1059C0007F1C684600788742C6DB02A8042202706A
:1059D0003E224270B11C81700D22C2700022D2435F
:1059E00098E7F0B5C1B01F00469B479E499D6C46A5
:1059F00020716171090AA171E271277206221900F2
:105A00002000093001F018FAE67348A800882074D5
:105A1000000A6074A574042020703E20607010207D
:105A2000A0700E20E0700022D243132121E0F0B5D7
:105A3000C1B01E00469F479D489B6C462071000ADE
:105A40006071A171E27126726772A5722A00190055
:105A500020000B3001F0F0F9042020703E2060702F
:105A60000835A5700F20E0700022D243E9B2C91CAE
:105A700089B2684603F068F941B0F0BD00B5C1B025
:105A800069460871000A4871042008703E20487079
:105A9000032088701020C8700022D243062150E0F5
:105AA00000B5C1B06846042101703E21417001215A
:105AB00081701121C1700022D243042142E018B547
:105AC000C1B06C4620716171A271120AE271237239
:105AD000042020703E2060700620A0701220E0702C
