:020000041004E6
:100000000060002025190410A908041069180410C4
:10001000AA5555AA45554C420000000000000000BA
:100020000000000000000000000000000B0E0410A3
:1000300000000000000000008B0E04106B1804107C
:10004000E30E041007180410031904103D190410DE
:100050000000000000000000000000006D18041007
:100060003F190410411904104319041045190410D4
:1000700047190410491904104B1904104D190410A4
:100080004F19041051190410531904105519041074
:1000900057190410591904105B1904105D19041044
:1000A0005F19041061190410631904106519041014
:1000B0000000000000000000000000000000000040
:1000C000944800688103C80F7047000081B09148D0
:1000D00001688903FCD5816802220A4382600021FD
:1000E00002E000BF0099491C009100990629F8DB45
:1000F000816804220A43826001B070478548006825
:100100008106C80F7047834800684104C80F7047D4
:10011000814800684107C80F704730B50D007F4C1B
:10012000002A0AD0FA21890000F0B6FA401E68437E
:1001300060600020A060052002E020680121884363
:10014000206030BD70B50E001500012401220100B1
:1001500073480068FFF7E1FFB047A84204D06F483A
:100160000068C003F8D50024002200210020FFF71A
:10017000D4FF200070BDFCB50121002817D0A6488F
:100180000268E0239A43202313430360826D042313
:100190009A438265826B0A438263826B8A438263DD
:1001A000826D0A438265806D084000900098382275
:1001B0009A4B18699A4CA04215D1186800901D6896
:1001C00018681C681B685B0D13406402640F0F26DF
:1001D000000C30402F0AF0253D400195009D2D0A6E
:1001E0002E40009605E00820009070230193032420
:1001F00018239B4D0F26F6432F6B37403843286357
:10020000E86AF027B843019F0743EF62E86A0640B7
:1002100000983043E86228680726B04304432C6006
:100220002868904303432B603F20C043AB6F0340DB
:100230000A241C43AC67AB6F40241C43AC67EB6FD4
:10024000034004241C43EC67EB6F80241C43EC67E1
:10025000EB6F4024A343EB67824B1C6804401C6097
:100260005C680440102525435D609C68044020259F
:1002700025439D60DC68044030252543DD601C6912
:10028000044022431A615A690240392414435C61D4
:100290009A6902403A2414439C61DA6902403B2483
:1002A0001443DC611A6A02403C2414431C625A6AFB
:1002B00010403D2202435A625520FF22D2436A4C2D
:1002C0002568154005432560E568154066262E43E0
:1002D000E660256A154028432062206C10401D25E9
:1002E00005432564E06B104059250543E563606CC8
:1002F0001040322505436564606A01436162986D70
:1003000010401F2101439965D86D02400920104318
:10031000D865F3BD000040481400504810E000E0EC
:10032000FC030020F8B50500524C206880214902EA
:1003300001432160012250496420FFF703FF002898
:1003400001D10420F2BD28003025ED434B4F484E2B
:100350002021E022D24303004BD0401E062847D87C
:1003600001A31B5C9F4400BF083842505E6C7A00BA
:1003700038682840102101433960A0680240A2601B
:1003800076003F4806602068790C01432160012215
:100390003C49C820FFF7D6FE002833D10520F2BD26
:1003A000A06802401143A160EBE7A0680240402032
:1003B0001043A0607608E4E7A06802406020104384
:1003C000A060B608DDE7A068024080201043A0606E
:1003D000F608D6E7A0680240A0201043A0603609C6
:1003E000CFE7A0680240C0201043A0607609C8E7AC
:1003F000FEE7A06802401143A160FFF767FE2048B6
:10040000066004E01E4800681849884202D0386837
:1004100005403D600020F2BD08004048E81E001085
:10042000CCECBCFCFF2819D004290AD0052908D03F
:10043000062906D0072904D0844A032903D10028BD
:1004400008D101207047012804D010680421884396
:10045000106003E010680421014311600020704720
:1004600048160060E8160060481500600090D00350
:100470000048E80100004048C1000410041000409A
:10048000FC03002007010410F3B581B070487149E6
:10049000086071490861714D286820210143296075
:1004A00028686F490140296001226E49C820FFF782
:1004B00049FE002801D10120FEBD2020A96930227B
:1004C00091430143A961684CA168C2010A43A2603B
:1004D000664B5969664A914214D119681A681E68B8
:1004E0001B681F02FC239B053B40F70A1E263E406B
:1004F0000096D601E022920132408E01F02189005F
:10050000314007E0A0218900F8235B05102200920A
:10051000C0225201E668574F37403B43E360E3682F
:1005200086041E43E660E3681E26B343009E1E4316
:10053000E660E36801261E43E6604F4B1E684F4F9E
:1005400037403943196019680843186018684C49E6
:1005500001400A431A6018688021C90001431960EC
:10056000A869802149000143A9618020C005016874
:10057000F0220A4000680007000F1043102803D142
:10058000A8690F218843A86100263E48696A014096
:100590006962A96A0840A862A0683B4901408020BE
:1005A00000020843A060E06860210143E160206828
:1005B000042188432060206810218843206096270A
:1005C0007F00324D002229003800FFF7BBFD0028D4
:1005D00000D1022620681021014321600122290058
:1005E0003800FFF7AFFD002801D1022601E03000FE
:1005F00001D03000FEBD6846047AFF2C02D00120F5
:10060000FFF7B9FD6846057921480168214A0A408B
:100610008021890111430160016880220A43026040
:1006200001687022914330220A4302602800FFF7DC
:1006300079FE010009D129002000FFF7F3FE010037
:1006400003D100F0CBF862B60020FEBD6000404848
:100650000000041008ED00E00400002004005048F1
:10066000FFFEFFFF1101041000004048E41E0010CF
:10067000CCECBCFCFFFFFFC0940050483FFCFFFFE8
:10068000FFC7FFFFFFCFFFFFFF7FFEFFFD0004104E
:1006900098004048FFC0FFFF094214D088420FD3A2
:1006A0000122030C01D100041204002300185B4155
:1006B0008B4200D35B1A5241F8D3190010007047E7
:1006C00001000020704708B500F0F0F808BDF1B453
:1006D0000168421841684808131800988068C907E3
:1006E0001ED5494640181BE01778521C0770401C65
:1006F000761EF9D1002C13D01678521C89080D40B3
:10070000032D01D11578521C290271184D4241194F
:10071000A41C05D00D78491C0570401C641EF9D13D
:100720009A420FD01178521C032503260E4002D1A5
:100730001678F61C521C0C090F2CD9D114780F34E2
:10074000521CD5E700980C30F2BC704710B5C200BF
:1007500018231340FF249C40E2438907090E994067
:10076000030004D416489B089B00C01806E0154BF4
:100770000007000F083880088000181803681A4026
:100780001143016010BD80B50F480068002814D1E6
:100790000E480168002902D1806A00280DD001208E
:1007A0000B49886000F083F8BFF34F8F09480A496E
:1007B0000860BFF34F8F00BFFDE7012002BD0000BE
:1007C00000E400E01CED00E09400404810005048B8
:1007D000040000200400FA050CED00E080B50321C0
:1007E0000020FFF7B3FF03210120FFF7AFFF032134
:1007F0000220FFF7ABFF03210320FFF7A7FF032130
:100800000720FFF7A3FF03210820FFF79FFF032125
:100810000920FFF79BFF03210A20FFF797FF032121
:100820000B20FFF793FF03210C20FFF78FFF03211D
:100830000D20FFF78BFF03210E20FFF787FF032119
:100840000F20FFF783FF03211020FFF77FFF032115
:100850001120FFF77BFF00211220FFF777FF032114
:100860001320FFF773FF03211420FFF76FFF03210D
:100870001520FFF76BFF03211620FFF767FF01210B
:100880001720FFF763FF00211820FFF75FFF032108
:100890001920FFF75BFF03211A20FFF757FF032101
:1008A0001B20FFF753FF01BD70474300704770479F
:1008B000F0B597B0050016001F001C986A4600238B
:1008C000002418C2059104A92B2288540B93039588
:1008D0000F960EE023000F9A04A9039800F07AFA0D
:1008E000002800D5D8E001E0F4D501240F980019C4
:1008F0000F900F980078252809D1002008900990C2
:100900000A9002240821029104210F9D0CE06A46FE
:100910000021C9430F9800F0A7FA0400E4D10B9816
:10092000BCE00200012010436D1C2A78202AF8D078
:10093000232A0AD02B2A04D02D2A04D0302A07D00B
:1009400009E02043F0E70843EEE702000820EAE769
:1009500002001020E7E72A2A0CD13B681A681B1D09
:100960003B600D92002A03D553420D9301430800CA
:100970006D1C14E000210D91004A0BE0CBCCCC0C97
:100980000D9B934205DA9E00F3185B00591830392D
:100990000D916D1C29780B00303B0A2BF0D3297880
:1009A0002E2903D00021C9430C9125E06D1C297824
:1009B0002A2906D139680A68091D39600C926D1C14
:1009C0001AE02D2902D12D236D1C00E00023002107
:1009D0000C910CE0002B09D10C9AB84EB24205DA0A
:1009E0009600B2185200511830390C916D1C2978BC
:1009F0000A00303A0A2AEDD304A908852E7831007E
:100A0000AFA000F039FA002801D06D1C00E00026EC
:100A100004A82A214654405C682807D12878682811
:100A200004D1622004A92A2288546D1C11A80790C1
:100A30002A78681C0F90252A13D0582A4FD0632A91
:100A400000D1B1E0642A79D0692A77D06F2A46D0E4
:100A5000702A3BD0732A0AD0752A40D0782A3ED01B
:100A6000ABE001200890252011A90870AFE038689C
:100A70000468001D38600694002C14D104A82B21B2
:100A8000405C00280CD00024E44300BF8EA000F09E
:100A9000FDF9201A00D19AE00020C04317B0F0BD44
:100AA00090A0069093E00C9D002D03D5200000F04F
:100AB00011FA09E02A000021200000F013FA0028B2
:100AC00001D0001B00E02800099080E03868016830
:100AD000001D3860049111A80690782160E004ABF5
:100AE0002A20185C622803D0682807D06C280BE005
:100AF00039680868091D3960C0B209E039680868BA
:100B0000091D396080B203E039680868091D396041
:100B10000490188D0299C0B208423CD00498002875
:100B200039D020201043782835D1089811A93023D6
:100B30000B54401C431C08930A542CE004AB2A209D
:100B4000185C622803D0682807D06C280BE039684D
:100B50000868091D396040B209E039680868091D54
:100B6000396000B203E039680868091D39600490F3
:100B7000002802D508982D2109E0188D204202D0C6
:100B800008982B2103E0C00705D50898202111AB58
:100B90001954401C089011A808994018069011009B
:100BA00004A800F0A0F812E001200890386801685D
:100BB000001D386011A8017009E00120089025206F
:100BC00011A90870100002D0089411A842700D9865
:100BD0000899401A0A99401A0999401A109004A8D5
:100BE0002821405C400713D42020694608721098E1
:100BF00000280DDD109C039D012302AA04A92800F2
:100C000000F0E8F8002800D046E7641EF4D1039510
:100C1000089D11AC002D0ED0039E21780598B04799
:100C20000590002800D137E70B98401C0B90641CFE
:100C30006D1EF2D103963020694608720A9C002C82
:100C40000CDD039D012302AA04A9280000F0C2F8CC
:100C5000002800D020E7641EF4D10395069C099D6E
:100C6000002D0ED0039E21780598B04705900028EE
:100C700000D111E70B98401C0B90641C6D1EF2D143
:100C8000039604A82821405C400700D431E62020C8
:100C9000694608721098002800DC2AE6109C039D23
:100CA0000F9E012302AA04A9280000F093F800284F
:100CB00000D0F1E6641E00D109E6F2E7CBCCCC0C03
:100CC000686C747A4C0000007072696E74665F73B1
:100CD0003A2062616420257320617267756D656ECC
:100CE000740000000000F0B583B00A00C4686F29EA
:100CF00001D1082506E020211143782901D00A25D9
:100D000000E01025182701680E00642A01D0692A26
:100D100003D1002901D571420E00002E0CD1016AC9
:100D2000002909D1082D31D12821415C09072DD591
:100D300017273021E17529E00290684602707F1E76
:100D4000019730002900FFF7A7FC3031C8B23A28DC
:100D500003DB6846007851380918E1553000290056
:100D6000FFF79AFC060004D002988068E1198842D7
:100D7000E5D30298082D09D12821415C090705D542
:100D8000E15D302902D07F1E3021E1551821C91BB9
:100D90004161E2198260026A914206DA511A816168
:100DA000018D0B4A0A40028510E0002A0ED5282248
:100DB000825C14231340102B08D1426A0369D21AB3
:100DC0008369D21A511A012900DB816103B0F0BD99
:100DD000EFFF0000F8B50024002B11D007000E0033
:100DE00014001D0021787068B8477060002809D091
:100DF000F069401CF0610020641C6D1EF2D10400FB
:100E00002000F2BD0020C043F9E7704730B45368BA
:100E1000D41803E05B1C491E641C401C042B06DA3A
:100E2000002904D0057825700578002DF2D1536093
:100E300030BC704738B500290ED01D001400FFF7F4
:100E4000E5FF616820006A6B90470122D243811A56
:100E500002D0491E02D004E0012000E00020C0437F
:100E600032BD0021616032BD80B5024BFFF7E2FF69
:100E700002BD000000040020C9B202788A4203D0FB
:100E8000401C002AF9D100207047704780B5002827
:100E900001D100BF07A006490B68002B03D0222216
:100EA0000021984701E000F028F8222002BD000050
:100EB0008C040020636F6E73747261696E742068B5
:100EC000616E646C65723A20626164206D65737353
:100ED00061676500431C0178401C0942FBD1C01AC0
:100EE00070477047C9B2521E05D30378401C8B422D
:100EF000F9D1401E70470020704780B5012000F0F6
:100F000001F801BD80B500BF00BF024A11001820E2
:100F1000ABBEFBE72600020010B5C2001823134049
:100F2000FF249C40E2438907090E9940030004D442
:100F30009F489B089B00C01806E09E4B0007000FCF
:100F4000083880088000181803681A4011430160AF
:100F500010BD0000F0B591B0FF210220FFF794FA18
:100F6000002800D0FEE701210020C043FFF7D4FF96
:100F70009148006800F076F900F0AEF9002000F02A
:100F80005BFA1822002101A800F02CFB08268B4DEB
:100F90002868304328602868304000900098884FC7
:100FA0001020B86101900120029000240394049461
:100FB000059401A9380000F01FFB2822002107A892
:100FC00000F010FB18220021684600F00BFBF00235
:100FD000A9680143A960A968084006900698009690
:100FE000022501950326029603940495042005909A
:100FF0006946380000F000FBA802009001950296B7
:101000000394049505969027FF056946380000F083
:10101000F3FAE80100900195029603940495059671
:101020006946380000F0E8FA28020090019502961F
:1010300003940120049005966946380000F0DCFA1C
:1010400001210720FFF768FF80265E4806600794AD
:1010500008940A9501200B900C940E940F9407208D
:101060001090F02000010990574C07A9200000F0D3
:1010700059FB6068102188436060606808218843DC
:101080006060606851490140616060680643666065
:101090004020616801436160616820220A43626008
:1010A00021680843206000BF50A000F071FB00BF22
:1010B00052A000F06DFB464C200000F069FB2000C0
:1010C000243000F065FB00F00DF8FEE738B50500B0
:1010D000414C2068102141402160280000F0CFF8E9
:1010E000F7E7000080B53D4802784178531E9942E9
:1010F0008388FADB81789942FCD33949394800F07A
:1011000013F8002804D000BF42A000F041FB4AE0E1
:1011100010203049086000BF43A000F039FB00BF39
:1011200048A000F035FB01BD10B501E0401C491C92
:1011300013005A1E1B0605D003780C78A342F5D085
:10114000012010BD002010BD10B524498A78501C24
:10115000887025488368224C5200A3528A88897877
:101160008A4203D1016840229143016010BD1B49AE
:101170004A78501C48701C481A4B52009A5A826098
:101180004A7809788A4203D101688022914301603C
:10119000704780B51448016840229143016001689E
:1011A000802291430160FA208000FFF78FFF01BD8C
:1011B00000E400E01CED00E0FC030020500040488B
:1011C0000000104800E100E000700041FFEFFFFF69
:1011D000081804102800104814001048900400203B
:1011E0004C040020BC03002004700041536C617665
:1011F0006520626F6172642E0A0D00005350492011
:101200006461746120776964746820313620626992
:10121000740A0D0050726F63657373696E672045C1
:1012200072726F722E0A0D004461746120617265E2
:101230002077656C6C2072656365697665642E0A3B
:101240000D0000002A2A20546573742073756363AF
:1012500065737366756C6C792E202A2A200A0D0A34
:101260000D00000010B50F4CFA218900FFF714FAA9
:10127000401E60600020A0600720206010BD81B08B
:1012800008490A680092009A0022D243904202D094
:10129000401C002804D00A68D203FCD5401EF8E7A1
:1012A00001B0704710E000E0094902E0084908E099
:1012B00008494A6882434A600A68104308607047D8
:1012C00004490A6882430A604A68104348607047CC
:1012D000200050482800504880B50120FFF7E4FF67
:1012E0000220FFF7E1FF0420FFF7E0FF0820FFF7EF
:1012F000DBFF80204000FFF7D9FF80208000FFF750
:10130000D5FF8020C000FFF7D1FF80200001FFF74C
:10131000CDFF0120FFF7D4FF0220FFF7C9FF042013
:10132000FFF7C6FF0820FFF7CBFF1020FFF7C0FF35
:101330002020FFF7C5FF4020FFF7C2FF8020FFF706
:10134000B7FF8020C001FFF7BBFF80200002FFF73E
:10135000AFFF01BD81B083490A6802430A60096892
:1013600008400090009801B0704710B50B004B4347
:1013700001685C00E418A14353430B43036010BDB4
:1013800043688B43514319434160704710B50B00CC
:101390004B4381685C00E418A14353430B438360D3
:1013A00010BD30B5CB43704C9025ED05A8421AD145
:1013B000002A03D0022A0FD007D330BD206818407E
:1013C000206060680340636030BD60680340636014
:1013D00020680143216030BD2068034023606068BD
:1013E0000143616030BD002A03D0022A0FD007D329
:1013F00030BDA0681840A060E0680340E36030BDE5
:10140000E0680340E360A0680143A16030BDA068CC
:101410000340A360E0680143E16030BD10B50B00FC
:101420004B434B434B43016A1C01E41AA143534312
:101430000B43036210BD000038B505000420FFF720
:1014400089FF9024E405022202212000FFF78DFF8E
:10145000022202212000FFF799FF00220221200032
:10146000FFF78EFF012202212000FFF79AFF0222E0
:1014700002212000FFF7D2FF0820FFF76BFF3B4C53
:10148000022201212000FFF770FF0222012120002B
:10149000FFF77CFF002201212000FFF771FF0122EE
:1014A00001212000FFF77DFF002201212000FFF72E
:1014B000B5FF8020C0002E490A6802430A6009680F
:1014C0000840009000982B488B21C16001682A4A8F
:1014D0000A4002604168294A0A40426001680C22C1
:1014E0000A4302608168264A0A4082608168254A70
:1014F0000A4082608168C900C90881600168802251
:1015000092050A43026041681F4A0A4042608168AE
:101510002A2291438160016801220A430260290066
:1015200010D01A490D60016820220A430260184851
:101530000168FF22914340220A430260802040005C
:101540001449086031BD10B50023134A06E0146841
:101550002406FCD5DCB2045DD4605B1CDCB28C429A
:10156000F5D310BD500040482000504800001048FE
:101570005800404800400041FFE9FFEFFFCFFFFF68
:10158000FFFCFFFFFFFFFFF1FFB7FFFF4804002054
:1015900008E400E000E100E01C40004170B50025D7
:1015A000012804D0022802D00020C04370BD0029C9
:1015B00001D1002070BD0C00160005E001212000C3
:1015C000FFF7C1FF641C6D1C3000461E0028F5D1DA
:1015D000280070BD01B5012269460120FFF7DEFF3A
:1015E000009802BD10B504000800110002002000A0
:1015F00000F0E2F8200010BDFCB503000800002454
:10160000474A190000940FE0936823409360D36821
:101610001C40D46005E0D5682C40D4609468234316
:101620009360009B5B1C00930468009B2500DD40D9
:1016300068D00123009DAB402340F2D01C005C43E6
:101640004568022D1CD145690195FF2B0BD826005A
:101650005E435E430D6A3701BF1BBD43019F7E435E
:101660002E430E620CE01E0A350075437543754328
:101670004E6A2F017F1BBE43019F7D4335434D6260
:1016800065002E19F5430E682E40476867433743BF
:101690000F604668012E01D0022E05D18E683540BC
:1016A000866874432C438C600569DC439026F605FC
:1016B000B1421AD1002D11D0022D01D007D3B0E7CD
:1016C00015682C401460546823435360A9E755689B
:1016D0002C405460146823431360A2E7136823402E
:1016E000136053681C4054609BE7002D8CD0022D82
:1016F00001D090D395E795682C409460D46823433B
:10170000D3608EE74268012A01D0022A05D14A68D7
:10171000A243C068444314434C600020F6BD00005F
:10172000200050480200012013685B0625D4106891
:10173000144B0340086818434B680343C8681843B8
:101740000B690343486918438B690343C86918430D
:101750000B6A0343136050680B4B034088681843BF
:101760004B691B0C03435360086A80239B0198421A
:1017700002D1486A80B210610020D169034B0B404E
:10178000D36170474000FFFFFBF0FFFFFFF7FFFF53
:101790000EB4C0B5020003A801900020009001AB78
:1017A0000121044878440C30FFF782F8029906B012
:1017B000084700BF5B0100001206130A1A43130C0E
:1017C0001A4300BF094205D0830705D00270401CB0
:1017D000491EF9D1704700001300103906D330B408
:1017E0001400150010393CC0FCD230BC490700D3AE
:1017F0000CC000D504C0890002D30280801C0029DF
:1018000000D5027070477047456E61626C65207448
:101810006865205350495F534C41564520706572AE
:101820006970686572616C2E0A0D000057616974F9
:1018300020666F722074686520656E64206F662074
:10184000746865207472616E7366657220616E647F
:1018500020636865636B20726563656976656420E3
:10186000646174612E0A0D00FEE7704710B5084CE4
:101870002068C00701D5FFF767FC2068800701D505
:10188000FFF775FC2068400601D5FFF782FC10BD0C
:101890000870004110B5074979441831064C7C4462
:1018A000163404E0081D0A68891888470100A1421F
:1018B000F8D110BD080000002400000013EEFFFF67
:1018C000D900000014000000C000002003EEFFFF5C
:1018D000960000004E000000BC030020FEF753FFFE
:1018E000002801D0FFF7D6FF00BF00BF002000BFD7
:1018F00000BFFFF72FFB00F000F880B500F002F802
:1019000001BD704707463846FFF7FCFAFBE738B5DC
:1019100005000C002000FFF75DFEA04200D000256E
:10192000280032BD00BF00BF00BF00BFFFF7D6FFD9
:101930000078401E8041C043C00F70477047704719
:1019400070477047704770477047704770477047DF
:1019500070477047704770477047704770477047CF
:10196000704770477047F0022C0000FFFF04F0073B
:101970001D90D003AA08041001000160023119046F
:101980001033F33D0100011220500320000000003D
:10199000000000000000000000F2FF0001F1FF0164
:0319A000F1CA0188
:0400000510041925A5
:00000001FF
