:020000041004E6
:1000000000000120C12B0410B52304104F1104106F
:10001000AA5555AA45554C420000000000000000BA
:10002000000000000000000000000000CB190410D8
:100030000000000000000000C31A0410F12A0410A0
:10004000072204104F220410B72304105F29041064
:10005000FD2A0410FB2904106B2B0410F12B041053
:10006000F32B0410F52B0410F72B0410F92B0410BC
:10007000FB2B0410FD2B0410FF2B0410012C04108B
:10008000032C0410052C0410072C0410092C041058
:100090000B2C04100D2C04100F2C0410112C041028
:1000A000132C0410152C04100000000000000000A8
:1000B0000000000000000000000000000000000040
:1000C00070B5040001D1012070BD25004035002627
:1000D0006878002803D12E70200000F00DFE242047
:1000E00068702068016801229143016060681E49C0
:1000F00001402068016121681C488A6802408A60CA
:10010000E1680129A16801D1C24301E08422120201
:100110000A4321688A60E168022903D1802109012C
:100120002268516021684A68114B13434B60216873
:10013000CA681040C860206961690143A069000273
:1001400008432168C860E069216A014320680160B2
:100150002068016801220A4302606E6020206870F6
:100160002663AE70002070BDFFFFFFF0FF7FFFFF32
:1001700000800002F3B581B004004C4F403040785D
:10018000202842D14020205C01283ED0089801213F
:100190004025615521212500403569701021250039
:1001A0004035A9700025210040314D6062626385B1
:1001B000E0623F496163618DFF2904D9FF212185F8
:1001C0008026760402E0618D2185E66A216B112983
:1001D00007D1AA2805D0AA210902884201D0002708
:1001E00006E0200000F068FD608DFF2800D2E66A7E
:1001F0006846018900973300228DD2B2200000F0BA
:10020000D7FC40202554012154E00220FEBD00000F
:10021000F3B581B004002A4F40304078202842D105
:100220004020205C01283ED00898012140256155DE
:100230002221250040356970102125004035A97024
:100240000025210040314D6062626385E0621849FB
:100250006163618DFF2904D9FF2121858026760401
:1002600002E0618D2185E66A216B122907D1AA2857
:1002700005D0AA210902884201D0002706E020000B
:1002800000F01AFD608DFF2800D2E66A68460189F9
:1002900000973300228DD2B2200000F089FC40206C
:1002A0002554022106E00220FEBD0000002000804F
:1002B0003F030410200000F08CFC0020FEBD000075
:1002C00000240080026891691268436B002B00D102
:1002D000704780B5984701BD38B501688A690B68D9
:1002E000D40508D51C0606D5446C01252543456474
:1002F00080246400CC61510509D5190607D5416CED
:1003000008240C4344648021C9000468E16191051C
:1003100009D5190607D5416C02220A43426480219F
:1003200089000268D161416C0B220A4001D000F0C3
:10033000ADFB31BD4121405C7047406C7047FEB55C
:1003400004004020205C012801D10220FEBD0E00E7
:1003500027004037012038701500F0060CD5E8065C
:100360000AD510202168C8617868042101437960AA
:10037000200000F0EAFB6BE08448710706D56907AE
:1003800004D52168496A626A117007E0B1070FD588
:10039000A9070DD5616A097822689162616A491CD2
:1003A0006162218D09182185618D081860854FE0F3
:1003B00080239B04764831062ED569062CD5618DA5
:1003C000002924D0218D002921D12168496889057F
:1003D000890D6A469180618DFF2906D9FF2020850D
:1003E000002000905B08FF220BE0628D2285E16A0D
:1003F000814203D000200090E36A01E000200090D9
:10040000D2B268468188200000F0D2FB20E020684C
:100410004068034018D113E0710619D5690617D555
:10042000618D002910D121684A68134010D1E26A19
:10043000824205D148688022D20102434A6007E027
:10044000200000F0EDF903E04021200000F01EFB49
:10045000B00605D5A80603D53100200000F02FFA1C
:1004600000203870FEBDF8B50400E06A4023E35C6C
:10047000012B01D10220F2BD00912600403601215E
:1004800031700906424B1500009AD2062DD5EA06B6
:100490002BD51022678D002F18D17178282907D10C
:1004A0005105884204D10099200000F0C1FA5FE0B4
:1004B0007178292907D1984205D02068C2612000AF
:1004C00000F043FB51E02068C26151E02368DA612B
:1004D0007268042313437360002801D0884247D117
:1004E0007168200000F0D2FA42E0DA43009F7F07F3
:1004F00017D56F0715D5618D00290CD02168496A81
:10050000676A3970616A491C6162218D8918218589
:10051000618D89186185618D002929D1984227D084
:1005200023E0009B1B0706D52B0704D5009920006C
:1005300000F02AF91CE0009B9B0719D5AB0717D5E3
:10054000638D002B0DD0606A007821688862606A34
:10055000401C6062608D80186085208D8018208529
:1005600006E0884201D0002802D1200000F07BF98B
:100570000098800605D5A80603D50099200000F054
:10058000EDF900203070F2BD00000000FFFF000018
:100590000000FFFFF8B504004020205C012801D1D5
:1005A0000220F2BD2600403601203070C80610D56A
:1005B000D0060ED510202168C8617068042101435F
:1005C00071601221200000F004FB200000F0BDFA51
:1005D0005DE08025ED01EB026A480F0635D5570630
:1005E00033D521680A684027BA430A602168628DC2
:1005F000002A26D049688905890D628DFF2A03D912
:10060000FF2020855B0805E0628D2285E26A824238
:1006100000D0E36A00200090228DD2B2200000F0CA
:10062000C7FA608D218D401A608520687178222973
:10063000016803D16A000A43026028E00D430560A7
:1006400025E04868034012D015E04F0618D557063C
:1006500016D5618D00290ED121684A68134016D144
:10066000E26A824203D1486805434D600FE02000F2
:1006700000F0D6F80BE04021200000F007FA06E079
:10068000880604D5900602D5200000F018F9002055
:100690003070F2BDF8B50400E06A00250023402662
:1006A000A65D012E01D10220F2BD0091012140275B
:1006B000E155009EF6064ED5D6064CD51026C0272D
:1006C0003F02174044D0E26B002A04D012685268FF
:1006D000002A00D10123A16B002903D009684968D1
:1006E000002901D0002B1DD0210040314978282954
:1006F00007D17105884204D10099200000F098F9D3
:100700003CE0210040314978292921D11D49884206
:100710001ED02068C661200000F017FA200000F00B
:10072000A2F82BE02168CE61210040314968042203
:100730000A43210040314A60002802D03105884236
:100740001CD1200040304168200000F09FF915E0E6
:100750002068C66112E00098000706D5100704D58E
:100760000099200000F010F808E00098800605D5F8
:10077000900603D50099200000F0F0F840202554A1
:100780000020F2BD0000FFFFFEB507003C00403432
:10079000386800250821627828231340282B3CD193
:1007A0008269D203D30F6A4613708269120CFE2647
:1007B000164082689205920D6B465A80C368FE22ED
:1007C0001A406B469A80FA68022A1AD1062216400D
:1007D0005B88DB091A4096420BD1A268521CA260CA
:1007E000A268022A1BD1A560C161257068464288B3
:1007F0000EE00421380000F02DFA2570684682884A
:1008000006E00421380000F025FA25703200684621
:100810000178380000F0AEFAF7BDC1612570F7BD70
:1008200070B50400260040360025B5702020717890
:10083000212970700BD111202063656301212000F4
:1008400000F008FA3570200000F0D4FB70BD1220D3
:10085000206365630221200000F0FCF93570200060
:1008600000F0CDFB70BD38B50400002542202554B2
:100870002000303028214122A25C292A0DD14122BA
:10088000A154212101600121200000F0E3F9402062
:100890002554200000F0E0FB31BD4122A25C2A2A51
:1008A0000CD14122A154222101600221200000F03C
:1008B000D1F940202554200000F0CFFB31BDF8B520
:1008C000060020273068C76130684268A64B134095
:1008D0004360002434637463A448F06235004035FB
:1008E0001020014005D03168C861686804210143C7
:1008F0006960300000F029F90321300000F0AAF906
:1009000068686978602901D0002804D069683000DF
:1009100000F0BCF8F1BD687821280DD16F70A8787F
:100920004028AC702C7003D1300000F097FBF1BD73
:10093000300000F05FFBF1BD687822280CD16F70A9
:10094000A8784028AC702C7003D1300000F087FBF1
:10095000F1BD300000F053FBF1BD0000F2B5040022
:10096000206807682025C5610721200000F072F982
:100970002068AE02416831434160206841687A4A8C
:100980000A404260200000F0E0F8780401D5A06B36
:1009900002E03E4005D0E06B002802D000684068CD
:1009A0006085009F042007420FD02168496A626A6F
:1009B0001170616A491C6162218D002905D06C4A61
:1009C00089182185618D8918618526004036618DE1
:1009D000002902D071680843706000202063B07065
:1009E0006063716800290BD07168200000F04EF838
:1009F000707828281BD13900200000F019F8F1BDCB
:100A00005C49E26A8A4206D0E1627570307020006B
:100A100000F026FBF1BD717822297570307003D18A
:100A2000200000F01AFBF1BD200000F015FBF1BD25
:100A300070B504004D48E06200252563260040366D
:100A400020207070B57065630420014012D02168C9
:100A5000496A626A1170616A491C6162218D0029CC
:100A600008D0434A89182185618D8918618571688C
:100A7000084370600721200000F0ECF81020216886
:100A8000C8613570200000F0EBFA70BDF8B50400C5
:100A90002600403670780025B570344AE2626585DC
:100AA0007268114371602027282803D0292801D0BB
:100AB0002A2809D10321200000F0CCF828207070EA
:100AC00025632D48606309E00721200000F0C2F88B
:100AD0007078602800D077702563656321682748A7
:100AE0000A6852040A680ED5254B13400B60A16BAF
:100AF000002929D088633570A06B00F0B3FA002874
:100B000022D0A06B10E0120411D50A68274B1340C5
:100B10000B60E16B002917D088633570E06B00F043
:100B2000A1FA002810D0E06B816B8847F1BD707886
:100B3000602805D177703570200000F0BAFAF1BD59
:100B40003570200000F060FAF1BD00688169890706
:100B500001D500218162012182690A4002D18269A6
:100B6000114381617047000000E800FE0000FFFFB4
:100B7000FFFF00000000FFFF67040410850B041056
:100B8000FFBFFFFF80B5806A0021826B9163C26B5B
:100B900091634121415C602905D12021412281548A
:100BA00000F087FA01BD00F02FFA01BDFF7FFFFFC3
:100BB000F0B5059C00684568660D234F3743BD437B
:100BC0008905890D294312040A4313431C434460D9
:100BD000F0BDF1B581B00020019A526B00920A007D
:100BE00012230425009E194FBE4202D0184FBE4268
:100BF00010D1294200D0B82011211140112902D171
:100C00000100902008431340122B16D120210143EC
:100C1000402011E0294200D0B820CC0702D50400C2
:100C2000F2202043890702D50100F4200843134035
:100C3000122B02D1010020200843019909680A689B
:100C400010430860F3BD0000FF63FF039505041027
:100C50009506041010B500222823CC0706D54222A1
:100C60004124045D1C40282C00D0F2228C070AD5B8
:100C70001400442222434124045D2340282B02D047
:100C80001300B0221A434B0702D51300B8221A43AF
:100C900011230B40112B02D1130090221A4312236F
:100CA0000B40122B03D12021114340220A4300683C
:100CB00001689143016010BDC16AAA2901D10021D8
:100CC00006E0C16AAA221202914202D1802189045F
:100CD000C162704781B024490A6802430A6009680A
:100CE00008400090009801B0704780B501210020B5
:100CF000C04300F0FCF901BD00681C49884200D0E7
:100D00007047F8B586B00420FFF7E4FF0420FFF732
:100D1000E1FF8020800100901226019601240294B8
:100D2000002503950495B7066946380000F010FACF
:100D3000A00300900196029403950495694638003B
:100D400000F006FAE0050A490A6802430A600968E9
:100D50000840059005980121042000F0C8F90420FE
:100D600000F0CAF907B0F0BD500040480010004143
:100D7000580040487047F1B401684218416848087B
:100D8000131800988068C9071ED5494640181BE013
:100D90001778521C0770401C761EF9D1002C13D016
:100DA0001678521C89080D40032D01D11578521C6C
:100DB000290271184D424119A41C05D00D78491C17
:100DC0000570401C641EF9D19A420FD01178521C54
:100DD000032503260E4002D11678F61C521C0C097E
:100DE0000F2CD9D114780F34521CD5E700980C3051
:100DF000F2BC7047F8B5FF21022000F0C3FC0028C8
:100E000000D0FEE700F0D4FD00F0F8FD002000F077
:100E1000CBFE082071490A6802430A60096808404D
:100E2000009000986E4C6F486061A0202058A0612F
:100E30003C20E0610120206200276762A762E76230
:100E40002763676320001430FFF73AF9002801D0C8
:100E500000F0E5F800212000143000F077FF0028B2
:100E600001D000F0DCF800212000143000F08BFFEE
:100E7000002801D000F0D3F8012001F011F8022081
:100E800001F00EF868A001F099F80021002001F0AF
:100E90000BF9554E9AE0012001F066F8642001F04C
:100EA00081F9002001F059F90028F4D0012001F067
:100EB0004AF8A07800012018056E02224BA1406E6E
:100EC00001F084F90028756026D1280001F094F91A
:100ED0006070802080040090637872683C2120005C
:100EE0001430FFF747F9002801D000F098F82000EF
:100EF0001430FFF71FFA2028F9D120001430FFF733
:100F00001CFA0428E5D020006030A178090141587E
:100F100049A001F053F844E0280001F06DF9607039
:100F20000097637872683C2120001430FFF722F9A3
:100F3000002801D000F073F820001430FFF7FAF910
:100F40002028F9D120001430FFF7F7F90428E7D062
:100F5000A07880002018A821405801F04DF9802188
:100F60008904009183B2221D3C2120001430FFF738
:100F70004FF900282ED120001430FFF7DBF920288C
:100F8000F9D120001430FFF7D8F90428E0D0221D51
:100F900020006030A1780901415800BF2BA001F06A
:100FA0000DF8A078401C2278C1B2914200D30020F5
:100FB000A070FA20800001F0F5F80F21201D01F04B
:100FC00023F96770E770012000F0BDFF084800F0CA
:100FD000F5FF66E7022000F0A5FFFEE7500040485D
:100FE0005C03002000100041FC0300204E4F000075
:100FF000782A041080B5012000F094FF01BD80B56F
:10100000012000F0A0FF01BD80B5FFF796F904288C
:1010100004D0012000F097FF00F001F801BD80B579
:10102000022000F07FFFFEE74D617374657220625D
:101030006F6172640A0D0000536C61766520676F02
:10104000657320746F2025732E0A0D002573203AD6
:101050002025730A0D0000007047704770477047E5
:101060007047430070B50022002401212523C35C92
:10107000022B03D00422C263012418E003681D6818
:101080000E26B5431D6003681D688D431D60442313
:10109000C35C3C251D400123AB40056C6B602523E0
:1010A000C15424214254816B002900D0884720007C
:1010B00070BD704710B5C20018231340FF249C4038
:1010C000E2438907090E9940030004D41B489B089A
:1010D0009B00C01806E01A4B0007000F0838800874
:1010E0008000181803681A401143016010BD80B5D4
:1010F000FFF7E0FF01BD0000010005D40121C0069B
:10110000C00E81400F480160704710B5401E80211D
:101110004904884201D3012010BD0B4C60600321BB
:101120000020C043FFF7C6FF0020A0600721216018
:1011300010BD80B500F00AF801BD000000E400E039
:101140001CED00E000E100E010E000E070477047B7
:10115000F0B586B002007E48009200220EE0130433
:1011600023610AE02B00039D1D43A560009B902591
:10117000ED05AB42E368F2D12261521C0B68D3400B
:1011800000D1E3E0DB07F8D54B68022B01D0122B2E
:101190000ED1009BD408A4001B191C6A96001C25C4
:1011A00035400F26AE40B4430E69AE4026431E6262
:1011B000009B1D68530003269E40F44325400E7992
:1011C000B607B60F9E402E43009D2E604D68012D40
:1011D00005D0022D03D0112D01D0122D14D1009D68
:1011E000AD682C40CD689D402543009B9D60009BD1
:1011F0005C68012301259540AC434D682D092B40C7
:1012000093402343009C63608B68009C9025ED0510
:10121000AC421DD1002B03D0022B11D008D334E0F7
:101220000C68E34304681C400460446823400DE0FC
:101230000B6844689C43446004682343036024E0D3
:101240000B6804689C4304604468234343601CE0CB
:10125000002B03D0022B11D008D316E00C68E34317
:1012600084681C408460C46823400DE00B68C46837
:101270009C43C46084682343836006E00B688468F1
:101280009C438460C4682343C3604D68EB0000D472
:1012900073E700232F4C24680126964004963604F9
:1012A0000396F64302962D09802676013540954037
:1012B00001279740FE430196009E9027FF05BE42FE
:1012C00002D1019E264002E0029E26402D043543B5
:1012D000204C25604D680595ED031DD46568009E82
:1012E000BE4201D1019E00E0029E2E40059FC02516
:1012F000AD033D40C027BF03BD420CD10123A66012
:10130000009D9027FF05BD4202D13500049E01E0FB
:101310003500039E2E436660A568002B00D024E7AD
:101320009023DB05009E9E4202D12E00019D01E02C
:101330002E00029D35404E68F60200D415E7009E4F
:101340009E4200D00EE72B00049D0DE706B0F0BDD5
:10135000200050480C000040944800684107C80F26
:101360007047934800688103C80F704781B0904868
:1013700001688903FCD5816802220A43826000214A
:1013800002E000BF0099491C009100990629F8DB92
:10139000816804220A43826001B070478448006873
:1013A0008106C80F7047824800684104C80F704723
:1013B00030B50D007F4C002A0AD0FA21890000F0D8
:1013C0002BFF401E684360600020A060052002E003
:1013D000206801218843206030BD70B50E001500E3
:1013E00001240122010074480068FFF7E1FFB047C3
:1013F000A84204D06F480068C003F8D5002400223A
:1014000000210020FFF7D4FF200070BDFFB50121AF
:101410002022002818D0AE480368E024A3431343D9
:101420000360836D0624A34302241C438465836BFD
:101430000B438363836B8B438363836D0B438365B0
:10144000806D0840009000980723A2480469A24DCF
:10145000AC4218D1046800940468076805682D0D33
:101460001D4003950068000E1840029001250F26CC
:10147000380C3040270AF0243C400194009C240A98
:101480002640009604E00820009070240194002576
:10149000924C0F26F643276B374038432063E06AAF
:1014A000F027B843019F0743E762E06A06400098CF
:1014B0003043E0623820002D0CD025689D43039E08
:1014C00033402B43236023688343029DED00054096
:1014D0001D4325603F23DB43A56F1D400A262E4395
:1014E000A667A56F40262E43A667E56F1D4004261C
:1014F0002E43E667E56F80262E43E667E56F4026BC
:10150000B543E567A03425681D40256065681D402A
:1015100010262E436660A5681D402A43A260E2683B
:101520001A4030251543E56022691A4010432061B6
:1015300060691840392202436261A06918403A226A
:101540000243A261E06918403B220243E261206A43
:1015500018403C2202432262606A03403D20184347
:1015600060625523FF20C0437F4A146804401C4337
:101570001460D468044066252543D560146A04408D
:1015800023431362136C03401D241C431464D36B68
:10159000034059241C43D463536C18403223034343
:1015A0005364506A01435162FFBD0000140050486B
:1015B0000000404810E000E018040020F8B50500E5
:1015C0006B4C206880214902014321600122694956
:1015D0006420FFF702FF002801D10420F2BD28009B
:1015E0003025ED43614E2021E022D24303000BD190
:1015F0004B0618681F68F02303403807000F184394
:10160000102851D10620F2BD7700401E06284AD886
:1016100001A31B5C9F4400BF083C485664728000D5
:1016200055480168294010230B430360A06802401D
:10163000A2603800514E306020688021890101434A
:10164000216001224E49C820FFF7C7FE002834D18F
:101650000520F2BDA06802401143A1603000E9E717
:10166000A068024040201043A0607008E2E7A06834
:10167000024060201043A060B008DBE7A068024091
:1016800080201043A060F008D4E7A0680240A020AA
:101690001043A0603009CDE7A0680240C02010438D
:1016A000A0607009C6E7FEE7A06802401143A16090
:1016B000FFF75CFE3148066002E03068B84204D0B3
:1016C0002D48006805402C4805600020F2BD000050
:1016D00008004048E81E0010CCECBCFC4816006036
:1016E00010B5FF2833D004290CD005290AD00629CB
:1016F00008D0072906D00622D2439A4B032903D1EA
:10170000002809D1012010BD012805D01C68224005
:10171000022414431C6005E01868024004201043B2
:10172000186001208022D20513681268F0241C4042
:101730001207120F2243102A09D18B4A012908D11E
:1017400001280CD12A20106050680007FCD400202A
:1017500010BD022905D1012803D12920F3E7002873
:10176000FBD02820EFE70000481500600048E801A2
:1017700000004048631304100410004018040020C7
:10178000A7130410F3B583B0784879490860794904
:101790000861794D2868202101432960286840218B
:1017A000014329602868802101432960012273498F
:1017B000C820FFF712FE002801D10120CFE0A86960
:1017C0003021884320210143A9616D4CA06880210C
:1017D00049010143A16000266A4B58696A49884261
:1017E0001AD1186819681A681F683F043F0F0297DA
:1017F0001B6801270197D7091E223A4000921B025D
:10180000FC2292051A40CB01E02189011940830195
:10181000F0208000184007E0D80C10210091F02241
:1018200052050196C0214901E368584F1F403A43D1
:10183000E260E26880231B041343E3601E22D2436C
:10184000019B002B09D0E3681340029F7F001F43D8
:10185000E760E36801271F43E7604D4B1F683A408C
:10186000009F17431F601A68012717431F601A68FB
:10187000484F1740384318601868202202431A6006
:101880001868454A02401143196018688021C90050
:1018900001431960A869802149000143A9613F48BB
:1018A000696A01406962A96A0840A862A0683C4967
:1018B0000140802000020843A060E06860210143ED
:1018C000E16020680421884320602068102188435B
:1018D000206096277F00334D002229003800FFF753
:1018E0007CFD002800D102262068102101432160E0
:1018F000012229003800FFF770FD002801D10226DF
:1019000001E0300001D0300029E06846047CFF2C63
:1019100002D00120FFF77AFD6846057B2248016866
:10192000224A0A4080218901114301600168802216
:101930000A43026001687022914330220A43026028
:101940002800FFF73BFE010009D129002000FFF726
:10195000C7FE010003D100F0C3FC62B6002005B051
:10196000F0BD00006000404800500040000004103E
:1019700008ED00E004000020040050485913041052
:1019800000004048E41E0010CCECBCFCFFFFFFC090
:10199000940050483FFCFFFFFFC7FFFFFFCFFFFF52
:1019A000FF7FFEFF9D13041098004048FFC0FFFF1B
:1019B00010B50024032000F0FFFC002801D0012412
:1019C00001E0FFF792F9200010BD7047094902E0DD
:1019D000084908E008494A6882434A600A68104397
:1019E0000860704704490A6882430A604A681043E5
:1019F000486070472000504828005048F8B5012042
:101A0000FFF7E6FF0220FFF7E3FF0420FFF7E0FF08
:101A10000820FFF7DDFF1020FFF7DAFF2020FFF797
:101A2000D7FF4020FFF7D2FF8020FFF7D1FF8020B3
:101A30004000FFF7CDFF80208000FFF7C7FF802721
:101A4000FF003800FFF7C4FF7C002000FFF7C0FF55
:101A50006000FFF7BDFFA000FFF7BAFFE500280018
:101A6000FFF7B6FF26013000FFF7B2FF0120FFF7B6
:101A7000B9FF0220FFF7B6FF0420FFF7B3FF0820ED
:101A8000FFF7B0FF1020FFF7ADFF2020FFF7AAFF00
:101A90004020FFF7A7FF8020FFF7A4FFE008FFF733
:101AA00099FFA008FFF796FF3800FFF79BFF200083
:101AB000FFF798FF2800FFF795FF3000FFF792FF30
:101AC000F1BD704781B082490A6802430A60096823
:101AD00008400090009801B0704710B50B004B43D0
:101AE00001685C00E418A14353430B43036010BD3D
:101AF00043688B43514319434160704710B50B0055
:101B00004B4381685C00E418A14353430B4383605B
:101B100010BD30B5CB436F4C9025ED05A8421AD1CE
:101B2000002A03D0022A0FD007D330BD2068184006
:101B3000206060680340636030BD6068034063609C
:101B400020680143216030BD206803402360606845
:101B50000143616030BD002A03D0022A0FD007D3B1
:101B600030BDA0681840A060E0680340E36030BD6D
:101B7000E0680340E360A0680143A16030BDA06855
:101B80000340A360E0680143E16030BD10B5090A7D
:101B90000B004B434B434B43416A1C01E41AA143E6
:101BA00053430B43436210BD7CB506000420FFF78E
:101BB00089FF9025ED058024A40002222100280041
:101BC000FFF78BFF022221002800FFF797FF00227A
:101BD00021002800FFF78CFF012221002800FFF7D9
:101BE00098FF002221002800FFF7D0FF0420FFF714
:101BF00069FF6408022221002800FFF76EFF02221D
:101C000021002800FFF77AFF002221002800FFF7BB
:101C10006FFF012221002800FFF77BFF0022210037
:101C20002800FFF7B3FFA0002B490A6802430A60AF
:101C3000096808400090009828488B21C16001681D
:101C4000274A0A4002604168264A0A404260016809
:101C50000C220A4302608168234A0A40826081683C
:101C6000224A0A4082608168C900C908816001680F
:101C700062050A43026041681D4A0A404260816869
:101C80002A2291438160016801220A4302603100E7
:101C90000ED018490E60016820220A4302601648DF
:101CA0000168FF22914340220A4302601348046006
:101CB00073BD10B50023124A06E014682406FCD553
:101CC000DCB2045DD4605B1CDCB28C42F5D310BD89
:101CD0005000404820005048580040480040004113
:101CE000FFE9FFEFFFCFFFFFFFFCFFFFFFFFFFF16B
:101CF000FFB7FFFF6404002008E400E000E100E01B
:101D00001C40004170B50025012804D0022802D0F3
:101D10000020C04370BD002901D1002070BD0C001F
:101D2000160005E001212000FFF7C3FF641C6D1CB5
:101D30003000461E0028F5D1280070BD01B50122F3
:101D400069460120FFF7DEFF009802BD70B5020072
:101D500040325378202B14D14023C35C012B10D088
:101D60000123137024245470046825689D43256062
:101D700004682568164E2E402660046825682943AD
:101D80001CE0022070BD70B5020040325378202B59
:101D900012D14023C35C012B0ED0012313702424E5
:101DA0005470046825689D43256004682568094EC1
:101DB0002E400902314301E0022070BD216000681D
:101DC00001680B430360202050700020107070BD2C
:101DD000FFEFFFFFFFF0FFFF81B06F490A6802438A
:101DE0000A60096808400090009801B0704710B57B
:101DF0000B004B4301685C00E418A14353430B43C1
:101E0000036010BD43688B435143194341607047E1
:101E100010B50B004B4381685C00E418A1435343A9
:101E20000B43836010BD30B5CB435C4C9025ED0572
:101E3000A8421AD1002A03D0022A0FD007D330BDFE
:101E400020681840206060680340636030BD6068AF
:101E50000340636020680143216030BD2068034077
:101E6000236060680143616030BD002A03D0022A0C
:101E70000FD007D330BDA0681840A060E0680340D1
:101E8000E36030BDE0680340E360A0680143A16007
:101E900030BDA0680340A360E0680143E16030BD4D
:101EA00038B5010018D10420FFF796FF9024E4050F
:101EB0004020A061012240212000FFF798FF02226C
:101EC00040212000FFF7A4FF002240212000FFF75F
:101ED00099FF0122402121E0314C012805D1082041
:101EE000FFF77AFF80256D0006E0022819D108204F
:101EF000FFF772FF8025AD00A561012229002000B7
:101F0000FFF775FF022229002000FFF781FF002262
:101F100029002000FFF776FF012229002000FFF7AB
:101F200082FF31BD010002D140201E4909E01E4957
:101F3000012802D18020400003E0022802D1802045
:101F4000800008607047010002D14020174909E075
:101F50001749012802D18020400003E0022802D165
:101F60008020800008607047010005D11148016899
:101F700040224A40026070470F49012803D1086897
:101F80008022520004E0022804D1086880229200D6
:101F900042400A607047000050004048200050480E
:101FA0000000104828000048280010481800004889
:101FB0001800104814000048140010480EB4C0B5B2
:101FC000020003A801900020009001AB0121044809
:101FD00078440C3000F016FA029906B0084700BFAA
:101FE000970B0000010005D40121C006C00E8140FE
:101FF00062480160704710B5C20018231340FF24E7
:102000009C40E2438907090E9940030004D45C48D0
:102010009B089B00C01806E05A4B0007000F0838C9
:1020200080088000181803681A401143016010BD31
:10203000CA43554B032803D118680143196008E0CF
:1020400001280CD0022801D0042806D118681040BD
:102050001860586802405A607047052805D1186812
:1020600002401A60586801435960704781B047497F
:102070000A6802430A60096808400090009801B0AD
:10208000704710B50B004B4301685C00E418A14396
:1020900053430B43036010BD00690840884201D1DF
:1020A0000120704700207047F8B506000F00384C3B
:1020B0008025ED00300010D10420FFF7D7FF00226B
:1020C00029009020C005FFF7DCFF3248216801405D
:1020D000216061680840606011E0012E0FD1082086
:1020E000FFF7C4FF002240212B48FFF7CAFF402022
:1020F000C043A1680140A160E1680840E060012F91
:102100002AD1A80825490A6802430A6009680840DC
:1021100000900098224C30000DD129000120FFF7DB
:1021200087FF656020680543256003210F20FFF7C6
:1021300062FF0F200EE0012E0ED1250A2900FFF7C5
:1021400077FF656020680543256003211020FFF7B5
:1021500052FF1020FFF746FFF1BD80B501000020BF
:102160000A0004D18021C9009020C00503E00129A4
:1021700003D140210848FFF78FFF02BD00E100E0D6
:1021800000E400E01CED00E010000040500040487A
:1021900020005048FFFBFFFF00001048540040485B
:1021A0001800004038B5050000F0DAFB04000020FC
:1021B000C043854202D0044880682D1800F0D0FB4F
:1021C000001BA842FAD331BD0C04002010B404E077
:1021D000002C0ED0401C491C521E002A09D00B783E
:1021E00004789C42F4D002D20020C04302E00120D7
:1021F00000E0002010BC7047431C0178401C0942DD
:10220000FBD1C01A70477047002200BF094202D0BC
:10221000491E4254FCD17047094214D088420FD362
:102220000122030C01D100041204002300185B41B9
:102230008B4200D35B1A5241F8D31900100070474B
:1022400001000020704708B500F090FB08BD704702
:1022500010B5C20018231340FF249C40E2438907B5
:10226000090E9940030004D416489B089B00C0182F
:1022700006E0154B0007000F08388008800018188A
:1022800003681A401143016010BD80B50F48006813
:10229000002814D10E480168002902D1806A002864
:1022A0000DD001200B49886000F061FBBFF34F8F18
:1022B00009480A490860BFF34F8F00BFFDE70120BE
:1022C00002BD000000E400E01CED00E09400404886
:1022D00010005048040000200400FA050CED00E056
:1022E00080B503210020FFF7B3FF03210120FFF792
:1022F000AFFF03210220FFF7ABFF03210320FFF70D
:10230000A7FF03210420FFF7A3FF03210520FFF708
:102310009FFF03210620FFF79BFF03210720FFF704
:1023200097FF03210820FFF793FF03210920FFF700
:102330008FFF03210A20FFF78BFF03210B20FFF7FC
:1023400087FF03210C20FFF783FF03210D20FFF7F8
:102350007FFF03210E20FFF77BFF03210F20FFF7F4
:1023600077FF03211020FFF773FF03211120FFF7F0
:102370006FFF00211220FFF76BFF03211320FFF7EF
:1023800067FF03211420FFF763FF03211520FFF7E8
:102390005FFF03211620FFF75BFF01211720FFF7E6
:1023A00057FF00211820FFF753FF03211920FFF7E3
:1023B0004FFF01BD70477047F8B506000024104D6F
:1023C000A868002818D000F0D3FA0700FA2080008F
:1023D000A968FFF721FF01003800FFF71DFFFEF796
:1023E00094FE002808D1042E06D231000020C043FC
:1023F000FEF77DFE6E6000E001242000F2BD00BF0C
:102400000C040020F0B597B0050016001F001C98C2
:102410006A460023002418C2059104A92B2288547F
:102420000B9303950F960EE023000F9A04A90398CF
:1024300000F07AFA002800D5D8E001E0F4D50124B4
:102440000F9800190F900F980078252809D10020C7
:10245000089009900A9002240821029104210F9DFE
:102460000CE06A460021C9430F9800F0B5FA040059
:10247000E4D10B98BCE00200012010436D1C2A78C7
:10248000202AF8D0232A0AD02B2A04D02D2A04D0BF
:10249000302A07D009E02043F0E70843EEE70200C6
:1024A0000820EAE702001020E7E72A2A0CD13B685F
:1024B0001A681B1D3B600D92002A03D553420D93F1
:1024C000014308006D1C14E000210D91004A0BE04F
:1024D000CBCCCC0C0D9B934205DA9E00F3185B002D
:1024E000591830390D916D1C29780B00303B0A2B9F
:1024F000F0D329782E2903D00021C9430C9125E07F
:102500006D1C29782A2906D139680A68091D3960A5
:102510000C926D1C1AE02D2902D12D236D1C00E0B8
:10252000002300210C910CE0002B09D10C9AB84E2D
:10253000B24205DA9600B2185200511830390C91A7
:102540006D1C29780A00303A0A2AEDD304A90885BF
:102550002E783100AFA000F047FA002801D06D1CA2
:1025600000E0002604A82A214654405C682807D1D0
:102570002878682804D1622004A92A2288546D1C76
:1025800011A807902A78681C0F90252A13D0582A82
:102590004FD0632A00D1B1E0642A79D0692A77D07C
:1025A0006F2A46D0702A3BD0732A0AD0752A40D0B1
:1025B000782A3ED0ABE001200890252011A90870B0
:1025C000AFE038680468001D38600694002C14D110
:1025D00004A82B21405C00280CD00024E44300BF59
:1025E0008EA000F00BFA201A00D19AE00020C04320
:1025F00017B0F0BD90A0069093E00C9D002D03D580
:102600002000FFF7F9FD09E02A000021200000F07A
:1026100019FA002801D0001B00E02800099080E092
:1026200038680168001D3860049111A8069078216F
:1026300060E004AB2A20185C622803D0682807D029
:102640006C280BE039680868091D3960C0B209E0E0
:1026500039680868091D396080B203E03968086884
:10266000091D39600490188D0299C0B208423CD00F
:102670000498002839D020201043782835D10898B4
:1026800011A930230B54401C431C08930A542CE01E
:1026900004AB2A20185C622803D0682807D06C2875
:1026A0000BE039680868091D396040B209E03968F3
:1026B0000868091D396000B203E039680868091D1F
:1026C00039600490002802D508982D2109E0188D62
:1026D000204202D008982B2103E0C00705D50898B6
:1026E000202111AB1954401C089011A808994018DA
:1026F0000690110004A800F0A0F812E00120089054
:1027000038680168001D386011A8017009E00120D7
:102710000890252011A90870100002D0089411A873
:1027200042700D980899401A0A99401A0999401A5E
:10273000109004A82821405C400713D4202069464B
:102740000872109800280DDD109C039D012302AA39
:1027500004A9280000F0E8F8002800D046E7641E2D
:10276000F4D10395089D11AC002D0ED0039E217865
:102770000598B0470590002800D137E70B98401C1A
:102780000B90641C6D1EF2D10396302069460872CE
:102790000A9C002C0CDD039D012302AA04A9280039
:1027A00000F0C2F8002800D020E7641EF4D10395A1
:1027B000069C099D002D0ED0039E21780598B047F8
:1027C0000590002800D111E70B98401C0B90641C69
:1027D0006D1EF2D1039604A82821405C400700D466
:1027E00031E62020694608721098002800DC2AE6AD
:1027F000109C039D0F9E012302AA04A9280000F04B
:1028000093F8002800D0F1E6641E00D109E6F2E753
:10281000CBCCCC0C686C747A4C0000007072696E82
:1028200074665F733A206261642025732061726769
:10283000756D656E740000000000F0B583B00A008D
:10284000C4686F2901D1082506E0202111437829A9
:1028500001D00A2500E01025182701680E00642A1F
:1028600001D0692A03D1002901D571420E00002E42
:102870000CD1016A002909D1082D31D12821415CF0
:1028800009072DD517273021E17529E00290684608
:1028900002707F1E019730002900FFF7BDFC303128
:1028A000C8B23A2803DB6846007851380918E15568
:1028B00030002900FFF7B0FC060004D002988068C1
:1028C000E1198842E5D30298082D09D12821415CFD
:1028D000090705D5E15D302902D07F1E3021E15581
:1028E0001821C91B4161E2198260026A914206DA2D
:1028F000511A8161018D0B4A0A40028510E0002ABD
:102900000ED52822825C14231340102B08D1426A72
:102910000369D21A8369D21A511A012900DB816135
:1029200003B0F0BDEFFF0000F8B50024002B11D07C
:1029300007000E0014001D0021787068B847706011
:10294000002809D0F069401CF0610020641C6D1E55
:10295000F2D104002000F2BD0020C043F9E7704727
:1029600001480068704700BF0C04002070477047A2
:1029700001480068704700001804002030B4536814
:10298000D41803E05B1C491E641C401C042B06DAAF
:10299000002904D0057825700578002DF2D1536008
:1029A00030BC704738B500290ED01D001400FFF769
:1029B000E5FF616820006A6B90470122D243811ACB
:1029C00002D0491E02D004E0012000E00020C043F4
:1029D00032BD0021616032BD80B5024BFFF7E2FFDE
:1029E00002BD00001C040020C9B202788A4203D054
:1029F000401C002AF9D100207047704780B500289C
:102A000001D100BF07A006490B68002B03D022228A
:102A10000021984701E000F020F8222002BD0000CC
:102A200068040020636F6E73747261696E7420684D
:102A3000616E646C65723A20626164206D657373C7
:102A400061676500C9B2521E05D30378401C8B42F2
:102A5000F9D1401E70470020704780B5012000F07A
:102A600001F801BD80B500BF00BF024A1100182067
:102A7000ABBEFBE7260002005761697420666F72E7
:102A8000205573657220707573682D627574746F4C
:102A90006E20285055534831292070726573732079
:102AA0006265666F7265207374617274696E672007
:102AB00074686520436F6D6D756E69636174696FCD
:102AC0006E2E0A0D0000000010B507497944183138
:102AD000064C7C44163404E0081D0A6889188847AF
:102AE0000100A142F8D110BD3C00000058000000D8
:102AF00080B500F00FF8FEF71CFB01BD10B5044CCB
:102B00002000FDF7DFFB2000FDF7E6FB10BD000015
:102B100070030020024801688268891801607047CC
:102B20000C04002053E2FFFF2E01000014000000FF
:102B3000C000002043E2FFFFDE0000008000000034
:102B40005C030020FFF7A1FB002801D0FFF7BCFFCA
:102B500000BF00BF002000BF00BFFEF74BF900F030
:102B600000F880B500F002F801BD7047074638460E
:102B7000FFF778FFFBE738B505000C002000FFF7F2
:102B8000DDF8A04200D00025280032BD434849505E
:102B90005F5245564953494F4E0000004348495043
:102BA0005F4E414D450000004C4F575F504F574519
:102BB00052000000424C55454E52475F4C500000B9
:102BC00000BF00BF00BF00BFFFF7BCFF0078401E82
:102BD0008041C043C00F704757414B455F5550007F
:102BE000312E322E33000000594553004E4F000065
:102BF000704770477047704770477047704770471D
:102C0000704770477047704770477047704770470C
:102C1000704770477047F34D04000110039C2B046C
:102C200010E8046167D28C1012A80C92EC10D2D874
:102C300010100709033210BC030020B41452E0182E
:102C400021B4220109F0061E90D003621004100185
:102C5000C492CD60E13CF2FF0001F1FF01F16A0195
:0400000510042BC1F7
:00000001FF
