:020000041004E6
:100000000060002031280410C5260410C726041003
:10001000AA5555AA45554C420000000000000000BA
:10002000000000000000000000000000C9260410CD
:100030000000000000000000F7060410CB260410AA
:100040006B0E0410B72604100F2804101B28041090
:100050000000000000000000000000003D28041027
:10006000D32604103F28041041280410432804100C
:100070004528041047280410492804104B28041070
:100080004D2804104F28041005270410512804108F
:10009000EB2604105328041055280410E3260410FE
:1000A000DB26041057280410592804105B2804107C
:1000B0000000000000000000000000000000000040
:1000C000944800688103C80F7047000081B09148D0
:1000D00001688903FCD5816802220A4382600021FD
:1000E00002E000BF0099491C009100990629F8DB45
:1000F000816804220A43826001B070478548006825
:100100008106C80F7047834800684104C80F7047D4
:10011000814800684107C80F704730B50D007F4C1B
:10012000002A0AD0FA21890000F0CAFA401E68436A
:1001300060600020A060052002E020680121884363
:10014000206030BD70B50E001500012401220100B1
:1001500073480068FFF7E1FFB047A84204D06F483A
:100160000068C003F8D50024002200210020FFF71A
:10017000D4FF200070BDFCB50121002817D0A6488F
:100180000268E0239A43202313430360826D042313
:100190009A438265826B0A438263826B8A438263DD
:1001A000826D0A438265806D084000900098382275
:1001B0009A4B18699A4CA04215D1186800901D6896
:1001C00018681C681B685B0D13406402640F0F26DF
:1001D000000C30402F0AF0253D400195009D2D0A6E
:1001E0002E40009605E00820009070230193032420
:1001F00018239B4D0F26F6432F6B37403843286357
:10020000E86AF027B843019F0743EF62E86A0640B7
:1002100000983043E86228680726B04304432C6006
:100220002868904303432B603F20C043AB6F0340DB
:100230000A241C43AC67AB6F40241C43AC67EB6FD4
:10024000034004241C43EC67EB6F80241C43EC67E1
:10025000EB6F4024A343EB67824B1C6804401C6097
:100260005C680440102525435D609C68044020259F
:1002700025439D60DC68044030252543DD601C6912
:10028000044022431A615A690240392414435C61D4
:100290009A6902403A2414439C61DA6902403B2483
:1002A0001443DC611A6A02403C2414431C625A6AFB
:1002B00010403D2202435A625520FF22D2436A4C2D
:1002C0002568154005432560E568154066262E43E0
:1002D000E660256A154028432062206C10401D25E9
:1002E00005432564E06B104059250543E563606CC8
:1002F0001040322505436564606A01436162986D70
:1003000010401F2101439965D86D02400920104318
:10031000D865F3BD000040481400504810E000E0EC
:10032000AC000020F8B50500524C2068802149023D
:1003300001432160012250496420FFF703FF002898
:1003400001D10420F2BD28003025ED434B4F484E2B
:100350002021E022D24303004BD0401E062847D87C
:1003600001A31B5C9F4400BF083842505E6C7A00BA
:1003700038682840102101433960A0680240A2601B
:1003800076003F4806602068790C01432160012215
:100390003C49C820FFF7D6FE002833D10520F2BD26
:1003A000A06802401143A160EBE7A0680240402032
:1003B0001043A0607608E4E7A06802406020104384
:1003C000A060B608DDE7A068024080201043A0606E
:1003D000F608D6E7A0680240A0201043A0603609C6
:1003E000CFE7A0680240C0201043A0607609C8E7AC
:1003F000FEE7A06802401143A160FFF767FE2048B6
:10040000066004E01E4800681849884202D0386837
:1004100005403D600020F2BD08004048E81E001085
:10042000CCECBCFCFF2819D004290AD0052908D03F
:10043000062906D0072904D0844A032903D10028BD
:1004400008D101207047012804D010680421884396
:10045000106003E010680421014311600020704720
:1004600048160060E8160060481500600090D00350
:100470000048E80100004048C1000410041000409A
:10048000AC00002007010410F3B581B07048714939
:10049000086071490861714D286820210143296075
:1004A00028686F490140296001226E49C820FFF782
:1004B00049FE002801D10120FEBD2020A96930227B
:1004C00091430143A961684CA168C2010A43A2603B
:1004D000664B5969664A914214D119681A681E68B8
:1004E0001B681F02FC239B053B40F70A1E263E406B
:1004F0000096D601E022920132408E01F02189005F
:10050000314007E0A0218900F8235B05102200920A
:10051000C0225201E668574F37403B43E360E3682F
:1005200086041E43E660E3681E26B343009E1E4316
:10053000E660E36801261E43E6604F4B1E684F4F9E
:1005400037403943196019680843186018684C49E6
:1005500001400A431A6018688021C90001431960EC
:10056000A869802149000143A9618020C005016874
:10057000F0220A4000680007000F1043102803D142
:10058000A8690F218843A86100263E48696A014096
:100590006962A96A0840A862A0683B4901408020BE
:1005A00000020843A060E06860210143E160206828
:1005B000042188432060206810218843206096270A
:1005C0007F00324D002229003800FFF7BBFD0028D4
:1005D00000D1022620681021014321600122290058
:1005E0003800FFF7AFFD002801D1022601E03000FE
:1005F00001D03000FEBD6846047AFF2C02D00120F5
:10060000FFF7B9FD6846057921480168214A0A408B
:100610008021890111430160016880220A43026040
:1006200001687022914330220A4302602800FFF7DC
:1006300079FE010009D129002000FFF7F3FE010037
:1006400003D100F0A1F862B60020FEBD6000404872
:100650000000041008ED00E00400002004005048F1
:10066000FFFEFFFF1101041000004048E41E0010CF
:10067000CCECBCFCFFFFFFC0940050483FFCFFFFE8
:10068000FFC7FFFFFFCFFFFFFF7FFEFFFD0004104E
:1006900098004048FFC0FFFFCA0F00D04942031036
:1006A0005A400DD004B500D3404200F009F8009A3A
:1006B000D20701D34942124200D5404204BD000096
:1006C000094214D088420FD30122030C01D1000447
:1006D0001204002300185B418B4200D35B1A524185
:1006E000F8D319001000704701000020704708B5CA
:1006F00000F0B0F808BD704710B5C20018231340D1
:10070000FF249C40E2438907090E9940030004D46A
:1007100016489B089B00C01806E0154B0007000F09
:10072000083880088000181803681A4011430160D7
:1007300010BD80B50F480068002814D10E4801682C
:10074000002902D1806A00280DD001200B49886061
:1007500000F081F8BFF34F8F09480A490860BFF3E2
:100760004F8F00BFFDE7012002BD000000E400E064
:100770001CED00E0940040481000504804000020A8
:100780000400FA050CED00E080B503210020FFF71E
:10079000B3FF03210120FFF7AFFF03210220FFF782
:1007A000ABFF03210320FFF7A7FF03210720FFF77B
:1007B000A3FF03210820FFF79FFF03210920FFF774
:1007C0009BFF03210A20FFF797FF03210B20FFF770
:1007D00093FF03210C20FFF78FFF03210D20FFF76C
:1007E0008BFF03210E20FFF787FF03210F20FFF768
:1007F00083FF03211020FFF77FFF03211120FFF764
:100800007BFF00211220FFF777FF03211320FFF762
:1008100073FF03211420FFF76FFF03211520FFF75B
:100820006BFF03211620FFF767FF01211720FFF759
:1008300063FF00211820FFF75FFF03211920FFF756
:100840005BFF03211A20FFF757FF03211B20FFF74F
:1008500053FF01BD70477047A948816801220A43D0
:10086000826000210160704730B5A64BA4490A6838
:100870001A400C681C40A242F9D1002AF7D0A24BC2
:1008800014125C43D5B25D432B12E31810335B1195
:10089000436282619D4A4B6813404C681440A342F6
:1008A000F9D1002BF7D09911A34A51438031091295
:1008B0000162C36130BD10B50400FFF7CDFF9F4852
:1008C0000068C007FBD52000FFF7CEFF10BD6821F0
:1008D0004143090ADB225043000C0818704780B5D9
:1008E000FFF7F5FF7AE2FEB504000A00EFF3108788
:1008F00072B603CC083C924B1B681360914E00907B
:1009000001913200616AE06A181A00F08DFA002144
:10091000009A019B80185941AE4D2A0038320CCA0A
:1009200099420FD801D390420CD20090019132002D
:10093000616A0020C04300F077FA0021009A019B11
:10094000801859412A00383203C287F3108803B057
:10095000F0BD70B506007C4C607A7D214843C9002B
:10096000FFF79AFE451CEDB2A94A316A1B2000F040
:100970005BFA207041366078FFF7B1FF3072E078A3
:100980004019FFF7ACFF307020794019FFF7A7FF3F
:1009900070706079FFF7A3FFB070A079FFF79FFF39
:1009A000F07070BDFEB5040065480568A76A654E25
:1009B00032003900206B281A00F036FA02002000BD
:1009C000083003C80090019110000021009A019B9B
:1009D0008018594103C4083C9C480078002811D174
:1009E000206B281A616B88420CD23200390000203B
:1009F000C04300F019FA0CCC083C00218018594182
:100A000003C4083CE562256303CC083C220008329D
:100A100003C2606AA062F7BD80B57D4A00F004FAA7
:100A20008949884201DD080002E0102800DA102020
:100A3000684900118882888A9349086001BDF8B529
:100A40000700644C38882061904880797D214843B4
:100A5000C900FFF721FE461CF6B2F878002802D143
:100A6000B87800280DD08A48C168C907FBD501684D
:100A700017220A4302602000FFF71DFF606AA06290
:100A800009E0C8204003A062606282482062824878
:100A9000A0618248E06125004035F8782870216A1D
:100AA000206980B2FFF7B8FF00220020A872002161
:100AB00003C4083C224B1B68E362236323003833E2
:100AC00003C32300083303C3EA722000FFF741FF8A
:100AD0006E4C20788019FFF7FAFE1B306871607841
:100AE0008019FFF7F4FE1B30A871A078FFF7EFFE26
:100AF0001B30E871E078FFF7EAFE1B302872F1BD89
:100B000008100060FFFF0700F6BC0800FFFFFF07AA
:100B10004E480078002806D0AC48816801220A437C
:100B2000826000210160704704480068C107C90F56
:100B3000012048407047000053070000101000607B
:100B40001018006035060000C500002038B594B0CC
:100B5000204C4020205C002831D0684621005022E3
:100B600000F084F96846FFF77FFE0899049880B288
:100B7000FFF752FF6846FFF7ECFEEFF3108572B601
:100B8000200040300121C1720699A1610799E161FD
:100B900008992162099961620A99A1626946412214
:100BA0008A5C427042228A5C827043228A5CC270F4
:100BB00044228A5C02714922895C417202E0EFF3AF
:100BC000108572B62000FFF7EDFE85F3108815B092
:100BD00030BD0000980A002080B569468548FFF7BF
:100BE00082FE04BDF8B50500194C69462000FFF7E8
:100BF0007AFE06000F00804A616A0098401B00F0F0
:100C000013F900233900301A9941F4BD00000000A7
:100C1000260300000200774B4020185C1074D8694E
:100C2000D0601800083003C803C2083A9869906081
:100C3000186B5061704710B5054C704A216A00F07E
:100C4000F3F8606310BD0000FF0F0000D80A002019
:100C5000980A00206C494A68520003D5096801606F
:100C60000320704766490A68022A03D14968016077
:100C7000012070470A68032A03D1496801600220F5
:100C8000704700207047000008180060C80000206E
:100C900004100060C2F528008D5B0000ECEB6501DC
:100CA00080B5564A5349096A00F0BEF8010021296F
:100CB00001D3083100E02821544A10684118D1615D
:100CC000916980239B050B439361116A8023DB05A7
:100CD0000B43136202BDFEB50400464D28004130AF
:100CE0000079012908D1002A02D04121695C0CE079
:100CF00029004131497808E0002A03D02900413118
:100D0000897802E029004131C9780091019002A957
:100D10002800FFF7E8FD201A3A4F00263A4C374AE0
:100D200001992B69C918C8318142296A17D200F08C
:100D30007BF837490A78801A009A801A029A1218AA
:100D40002260626807239A4362602D4A16606268D7
:100D5000C023DB0513436360009A097811E000F0BB
:100D600063F829004131097A401A009A801A029AE0
:100D70001218234B5A6002221A6062683A4062607D
:100D8000009A5318C118581D814206D21C480660AB
:100D90006068074067600120FEBD174A696A180055
:100DA00000F042F82900413148720020FEBD0000E9
:100DB0001848012142680A434260026811430160F9
:100DC000802000041449086070470000081000608B
:100DD00080B512480068FFF705FF04BD074A0549C2
:100DE000096A00F021F802BD80B5034A0149496A49
:100DF000F7E70000980A00203506000026030000EF
:100E00000C000060FFFFFFBF241800601018006096
:100E1000C50000204818006000E100E014000060F8
:100E200080B5FFF754FD02BD10B5904216D98AB2C5
:100E3000030C090C0C46594380B2534344435043BE
:100E40001B191A041B0C101859418022520300234D
:100E500012184B41520DD802104310BD4843802256
:100E600052031218520D104610BD704770B4103A5C
:100E700003D378C9103A78C0FBD2530701D318C9FD
:100E800018C001D508C908C0D20704D30B88038055
:100E9000891C801C002A01D50B78037070BC704738
:100EA00078B5984A984B994C2568002D02D1984DF9
:100EB0002B601360002506E0009E865D2E706D1C81
:100EC0001560009D6D1C0095009D8D4204DA15682B
:100ED000EE1A882EF0DB71BD20684018206071BDCD
:100EE00080B500210120FFF7CFFA002800D0FEE7EF
:100EF000012000F0D7FA012000F024FB00F041FBB4
:100F0000844800F0D7FB00F0E3F800F04BFD00F060
:100F10009BFF00F0DCF900F005F9F8E7C268510624
:100F20000FD47D490023002A06D580680078A028C8
:100F300006D10120C87604E08820C005104000D00A
:100F4000CB760120704730B5C5687449724A0023DA
:100F50006C0614D40124002D09D580680078B028CF
:100F600003D10220D0760B7009E0D47607E0882008
:100F7000C005284003D0D4760878401C0870087853
:100F80000B2801DBD3760B70012030BD70B5C5682E
:100F900061490224624A00236E0611D4002D06D551
:100FA00080680078C02814D10120107011E08820DA
:100FB000C00528400DD0CC765078401C507008E019
:100FC0001078002804D0137053700320C87600E016
:100FD000CC7650780B2801DBCB765370012070BDA6
:100FE00038B5C46803234C490022650620D4002C80
:100FF00015D580680378D02B0ED14378022B07D10A
:1010000001238B7783781B02C07803434B8418E05D
:10101000012000F099FAFEE7E02B12D0FEE78820CD
:10102000C00520400DD0CB76C87F401CC87708E0B3
:10103000887F002804D0CA778A770420C87600E029
:10104000CB76C87F0B2800DBCA77012032BD70B594
:10105000C2680324304D002651062FD40421002AF3
:1010600022D52023EE5480680278E02A0AD1287E17
:10107000002805D0012000F067FA0620E8761DE080
:10108000EC761BE0D02A0DD14278022A06D1827874
:101090001202C07802436A84E9760FE0012000F072
:1010A00053FAFEE7EE7609E08820C005104005D02F
:1010B000E9762020285C401C202168542020285CF0
:1010C0000B2802DB20202E54EC76012070BD00009E
:1010D000E0B500BFBFA003C86A4603C201F054F9DF
:1010E000684600F053FEAF4801F0CEF91F2001F032
:1010F0009DF9AD48A021017000214170AB48C17637
:1011000000200EBD500B0020100A0020400B0020D4
:10111000440B0020A10E0410C4070020560B002031
:10112000540B0020FEB5A14C607E012800D187E061
:1011300002206076E06B072100269B4DE27E002AAC
:1011400016D1267666840209A284000702D0A08CFC
:10115000401CA084A02028706E70E07E6063E17661
:10116000962001F00FF8012000F0ECF9904814E00F
:10117000E27E012A1AD1B0222A7004226A70020E7D
:10118000AA70020CEA70020A2A716871E07E60633C
:10119000E176962000F0F6FF86480290FF2001904D
:1011A000F5300090230044332A007DE0824F9620E2
:1011B0004000E27E022A09D1C0222A706E70E27ECF
:1011C0006263E17600F0DEFF7C480EE0E27E032AF7
:1011D00018D1A27E012A32D0D0222A706E70E27E0F
:1011E0006263E17600F0CEFF75480290FF20019027
:1011F00000972B0022004432C8214900182001F03A
:1012000093F95EE0E07E042854D1608C0201A36B68
:1012100010001030834205D3A06A401CA062122344
:10122000002528E0501CA36B83420BD2E06A401CCF
:10123000E0620320E076A07E042800D1FEE7667617
:101240000020FEBDA36B83420BD3206B401C2063A8
:10125000A06B831A9B1CA07E0428E1D1012020767C
:10126000DEE7FEE757489705BF0D7F19C05D671998
:1012700038716D1CEDB29D42F4D3E0202070637094
:10128000608C000AA070608CE070E07E6063E176A4
:10129000962000F077FF4C480290FF200190F53037
:1012A000009023004433220096218900182001F089
:1012B000EFF806E0E07E062803D1E676267666841F
:1012C0006676207F002800D02677607FFEBDF8B5C7
:1012D0003E4CA54400260096344C607E02285CD02B
:1012E000012565760927A07E00280FD1236C581CA4
:1012F000206422003C32002102A800F059FB0228A1
:1013000001D0A77649E0A576667646E0A07E012862
:1013100022D100F042FB236C581C20646A46002155
:10132000284800F045FB022801D0A77636E0667613
:10133000E06B0099A26B8918884206D20420A0763F
:1013400000F02BFBE06BA06327E0A06B0099401836
:10135000A0630220A07620E0A07E022801D1A5761D
:101360001BE0A07E042810D10520A076236C581C19
:10137000206401AA002102A800F01AFB042801D071
:1013800000F003FB00F009FB07E0A07E052804D075
:10139000A07E092801D100F0F8FA00200C498D4404
:1013A000F0BD0000DA88D1880C090020C4070020B5
:1013B0001D0F0410470F0410881300008D0F041038
:1013C000E10F0410BC0300204F100410F0FBFFFFDE
:1013D00014040000010000000000000081B0614919
:1013E0000A6802430A60096808400090009801B04A
:1013F000704710B50B004B4301685C00E418A14333
:1014000053430B43036010BD43688B43514319435F
:101410004160704710B50B004B4381685C00E418D5
:10142000A14353430B43836010BD30B5CB434E4CB7
:101430009025ED05A8421AD1002A03D0022A0FD028
:1014400007D330BD206818402060606803406360A7
:1014500030BD60680340636020680143216030BD97
:1014600020680340236060680143616030BD002A4A
:1014700003D0022A0FD007D330BDA0681840A06067
:10148000E0680340E36030BDE0680340E360A068CB
:101490000143A16030BDA0680340A360E068014340
:1014A000E16030BD10B5314C010016D10820FFF7C6
:1014B00095FF0220A061012202212000FFF799FF81
:1014C000022202212000FFF7A5FF002202212000B6
:1014D000FFF79AFF0022022130E0012816D10820F0
:1014E000FFF77CFF1020A061012210212000FFF7F0
:1014F00080FF022210212000FFF78CFF0022102124
:101500002000FFF781FF0022102117E0022818D1E8
:101510000820FFF763FF0420A061012204212000BE
:10152000FFF767FF022204212000FFF773FF00226C
:1015300004212000FFF768FF002204212000FFF7AC
:1015400074FF10BD0A4900E00A49020001D10220DF
:1015500006E0012801D1102002E0022801D1042078
:101560000860704750004048200050480000104874
:10157000280010481800104811480168491C0160F3
:10158000704780B5684601F041F80098FA2189005B
:10159000FFF796F8401E401E0A4988420CD80A4AB6
:1015A00050600A4803681940C0231B060B430360C0
:1015B000002090600720106001BD0148006870475E
:1015C0004C0B0020FFFFFF0010E000E020ED00E0EA
:1015D00081B08C490A6802430A600968084000909B
:1015E000009801B0704710B50B004B4301685C00D8
:1015F000E418A14353430B43036010BD43688B437E
:10160000514319434160704710B50B004B4381684B
:101610005C00E418A14353430B43836010BD30B515
:10162000CB43794C9025ED05A8421AD1002A03D06E
:10163000022A0FD007D330BD2068184020606068B0
:101640000340636030BD606803406360206801430D
:10165000216030BD20680340236060680143616001
:1016600030BD002A03D0022A0FD007D330BDA068B6
:101670001840A060E0680340E36030BDE0680340CC
:10168000E360A0680143A16030BDA0680340A3608F
:10169000E0680143E16030BD10B50B004B434B43A4
:1016A0004B43016A1C01E41AA14353430B430362F9
:1016B00010BD000038B505000420FFF789FF902415
:1016C000E405022202212000FFF78DFF0222022101
:1016D0002000FFF799FF002202212000FFF78EFF74
:1016E000012202212000FFF79AFF0222022120009E
:1016F000FFF7D2FF0820FFF76BFF444C02220121C5
:101700002000FFF770FF022201212000FFF77CFF7D
:10171000002201212000FFF771FF0122012120009A
:10172000FFF77DFF002201212000FFF7B5FF802099
:10173000C00037490A6802430A60096808400090FF
:10174000009834488B21C1600168334A0A40026026
:101750004168324A0A40426001680C220A43026032
:1017600081682F4A0A40826081682E4A0A4082605E
:101770008168C900C90881600168802292050A4316
:1017800002604168284A0A40426081682A229143E7
:101790008160016801220A430260290010D02349B8
:1017A0000D60016820220A43026021480168FF227F
:1017B000914340220A430260802040001D49086096
:1017C00031BD10B500231C4A06E014682406FCD580
:1017D000DCB2045DD4605B1CDCB28C42F5D310BD7E
:1017E00012480268002A00D1704780B5124801688B
:1017F000890605D5806869460870012168469047CA
:1018000001BD000050004048200050480000104832
:101810005800404800400041FFE9FFEFFFCFFFFFC5
:10182000FFFCFFFFFFFFFFF1FFB7FFFF480B0020AA
:1018300008E400E000E100E01C40004170B5002534
:10184000012804D0022802D00020C04370BD002926
:1018500001D1002070BD0C00160005E00121200020
:10186000FFF7AFFF641C6D1C3000461E0028F5D149
:10187000280070BD01B5012269460120FFF7DEFF97
:10188000009802BD3EB50400002900D10121684640
:1018900000F0F6FE454D2868002807D1684600F0A4
:1018A000F7FE0028F7D00020C0433EBD72B668683E
:1018B00001782170401C68602868401E286062B66C
:1018C00000203EBD80B5FFF7D5FF002002BDFCB56E
:1018D00002000025002000241678302E32D15678E0
:1018E000782E01D0582E2DD19578002D1ED0019242
:1018F00000910221019A525C002A11D01600350095
:10190000413D062D07D33700613F062F03D3370033
:10191000303F0A2F07D2303E0A2E08D2303A0BE071
:101920000098046001200A2900D90020F6BD062D88
:1019300001D2373A00E0573A2401A418491C0A2979
:10194000D8D9F0E7565D002E17D06B2E01D04B2E64
:1019500001D1002D14D16D2E01D04D2E01D1002DBD
:1019600011D13700303F0A2FE0D20A277C43303EA6
:10197000A4196D1C0A2DE5D9F6BD0C600120F6BD39
:10198000A0020860FAE72005FBE780B51820FFF702
:1019900099FF1820FFF796FF01BD80B50620FFF7DD
:1019A00091FF01BD0020014908607047400B0020F5
:1019B000FCB583B006000027019702E04320FFF743
:1019C00081FFFA204000029001466846FFF75AFF67
:1019D000002849D168460078012820D002281BD071
:1019E000042853D0182808D0412801D061283BD1C1
:1019F0001820FFF767FF18200AE002996846FFF7F2
:101A000041FF002830D16846007818282CD10620E4
:101A1000FFF758FF012037E08024E40000E0802435
:101A200068460078307001250299A8B23018FFF797
:101A300029FF002818D16D1CA8B2611D8842F3DB74
:101A40007078B278FF23534098420DD101970499E2
:101A5000C9B28842B5D103990498002831D1F078F1
:101A6000002825D0F21C17E00498002802D0019825
:101A7000401C019001980528A0DD1820FFF722FFE7
:101A80001820FFF71FFF032005B0F0BD0620FFF769
:101A900019FF0420F8E7521C10780028FBD1501CD5
:101AA000521C1378202BFBD11770FFF710FF0BE0AF
:101AB0000620FFF707FF0520E6E7F01CC05DF055A4
:101AC0007F1CA742F9DB0C600220DDE7F3B589B08B
:101AD00000250D700998807A00285CD07D4803C8E5
:101AE0007D4A1268002312184B4106A80CC0EFF380
:101AF0001080029072B6FFF76FF802000B00099891
:101B000003C804AC03C404A803C80090019106A84C
:101B100003C8C826B602002736184F41009801991D
:101B2000B9420ED301D8B0420BD306A803C8B926D8
:101B30007600002736184F419F4229D801D396429C
:101B400026D2012400200A32434104A803C80026FB
:101B50004C38B1418B4213D801D3824210D209983C
:101B6000027A037B04A803C81900FFF7B4F80A99A6
:101B7000087009988572099844720998C47207E040
:101B800081488572029880F310880A98047002E0F8
:101B9000029880F310880BB0F0BD80B5FEF7B8FF57
:101BA00001204D49087101BDF8B507000E003C0049
:101BB0000020307000E02469002C1FD0207B00281A
:101BC000F9D0EFF3108572B6FFF706F802000B00AC
:101BD00003CC083C801A9941002906DB01DC01286E
:101BE00003D30121FFF75CF801E00120307085F399
:101BF00010883078002801D03800F2BD2000F2BDF6
:101C0000FEB500256C462570017B002901D001201E
:101C1000FEBD0CC00838012101732F4CA668019647
:101C2000070001E035003669002E08D00CCE083ED2
:101C300003CF083F8B42F5D301D88242F2D338005C
:101C40000661002D01D1019000E0286101998142D7
:101C500013D16946FFF7A8FFA06068460078002806
:101C60000BD0EFF3108072B6217D4A1C637D9A423F
:101C700000D0491C217580F3108868460078FEBDAD
:101C800010B5154C002808D0207B00280BD120006F
:101C90001830FFF782FF012004E02000183000F028
:101CA0003CF80020207310BD704718B563480168E8
:101CB000634A0A40026008490A7D531C4C7DA342D6
:101CC00000D0521C0A75C16901220A43C261C06971
:101CD000009011BD180B0020E80A0020704738B5AD
:101CE0000300002568460570274C21732272554871
:101CF00003C81A1A002312184B410CC4083C657221
:101D0000E5720120A07269462000FFF7DFFE012086
:101D1000FFF7B6FF6846007832BD7CB50300A24CE1
:101D2000A268150000210026100001E02E002D6998
:101D3000002D09D09D42F9D101932B69954201D123
:101D4000180002E0336100E001936D462970019BA9
:101D50001973824214D06946FFF726FFA0606846D7
:101D6000007800280DD0EFF3108072B6217D4A1C58
:101D7000637D9A4200D0491C217580F3108873BDA1
:101D8000A06073BD00000000300B00207CB5060091
:101D9000FFF70EF880204003844908606846B17858
:101DA00081707168002900D00121C17031880180E3
:101DB000FEF745FE2348FEF72DFF7B4D0024AC6067
:101DC000012028737068002800D00120A875002029
:101DD000E875194A50725081002103C23088286189
:101DE000AC82706800030A21FEF76AFC28602C713F
:101DF000704E002804D13000FEF7F6FF28600AE09C
:101E00003000FEF7F1FF2968814203D33000FEF76E
:101E1000EBFF0100296068482862EC62FEF7DCFEF7
:101E20002A68002312184B4128001830FFF7E8FEFB
:101E30002868FEF700FF73BD300B002030180060EB
:101E4000FFFFFFBF180B0020F8B584B000246946DF
:101E50000C70EFF3108572B65848407A00280AD00B
:101E6000FEF7BAFE554A0CCA8B4204D801D382420F
:101E700001D25248447285F310884B4F22E0401C37
:101E800019E00469002101738168002900D08847A6
:101E90002000F6D16946B868FFF786FEB86068464C
:101EA000007801280AD1EFF3108172B6387D421C08
:101EB0007B7D9A42E3D1387581F31088787D039950
:101EC00040187875787D397D0A1A02D2802040004A
:101ED0001218002A28D00392BC68002602940194AC
:101EE000002502E0260024696D1C002C0FD0207B09
:101EF0000028F7D0FEF770FE02000B0003CC083C70
:101F0000801A99410029EDDB01DC0628EAD3002D77
:101F100003D000203061029401E00020019002987B
:101F2000B86001980028B4E7214C3879002824D003
:101F3000FEF7FAFD002834D13871B97D002904D1AB
:101F4000F97D002901D0F87504E0FEF7FFFD2000BF
:101F5000FEF760FE69461948FFF7B8FD38001830F3
:101F6000FFF7DBFEFEF738FE3A68002312184B41FC
:101F700038001830FFF744FE13E0207C002810D012
:101F8000FEF72AFE0CCCFA2464030025A4185D4158
:101F90008D4206D801D3844203D2FEF7B9FD012059
:101FA000387105B0F0BD0000E80A002000E100E053
:101FB000180B0020FFEFFFFF9B1B0410300B0020CD
:101FC000814908684A681202FF231B021340C0B20D
:101FD0001843896801D00C2901D37F200EE0062226
:101FE0005143773901E0891D40081F28FBD2FF22A9
:101FF000A23250438F4A8018800A081840B27047B6
:10200000F8B58D4807680760B80100D483E08B4CB1
:10201000A06889498969402211403943C160016B38
:1020200088470128A06801D1856A00E0C56A7F2140
:1020300083480026002D0AD17F4A9660814A1368A2
:10204000814E1E4016600278114001704CE02A78E3
:1020500080231343037018302A785C235A43821874
:10206000137819403823EB5C0B43137029001831A7
:102070000091011D2A785C235A43009B8B5001007C
:1020800008312A785C235A43009B8B5029785C22C4
:10209000514340182B21AA7842546878400723D531
:1020A000654886606878810612D5FEF795FD009038
:1020B0006868FEF7B5FE009A10183821695C80291F
:1020C00001D1012100E000216B78DA07D20F09E08D
:1020D00001223821695C802901D1012100E0002121
:1020E00002406868FFF7FBFDB80F800708D0FFF7D4
:1020F00067FFA1684861FEF76BFEA168086105E013
:10210000780103D5FFF75CFFA1684861A068A5606E
:102110002900426B904748480068F1BD30B5002265
:10212000984B5C24604318182E258B5C84186355EB
:10213000521C052AF9DB3221415CC906C90E322244
:10214000815430BD10B58F4B5C2460431818C023F8
:1021500004781C400C4304704478234019434170B8
:102160002D21425410BD10B5864B5C2460431818D5
:1021700041622823C254110A2923C154110C2A2276
:10218000815410BD2D490860704710B57D4B5C240B
:1021900060431818012901D0012A09D12021827831
:1021A0000A4382702322825C11432322815403E07C
:1021B0008178DF220A4082702321415C40220A4359
:1021C0002321425410BD0000A416006003219D4A43
:1021D000D30A984205D21070030A5370000C0140D4
:1021E00026E0530A984209D283081370830A537079
:1021F000800C014091709078042118E09B00984277
:1022000009D203091370030B5370000D0140917044
:10221000907808210BE09B0098420AD28309137042
:10222000830B5370800D0140917090780C21014315
:1022300091707047A046000004000060B0000020CC
:10224000C400002028180060FFFFFFBF70B5040025
:1022500010220021183000F027FA20001830A06169
:10226000A06820627848006846382422A054010AF9
:102270002522A1540003000F262160541020615C28
:1022800010220A4326216254617880224023194299
:1022900003D12623E35C134302E02625655D2B432F
:1022A00026256355237F81250D4004262E431E439A
:1022B0002677637F0840062505431D436577FF2089
:1022C0002723E0540220A36A5B78034203D0637F94
:1022D00001251D436577002338256355014200D051
:1022E000625570BDBCB50400684600F093F8002844
:1022F00045D100255548056022787F207F21114077
:1023000080231343524A137018325C2359435118E7
:10231000220018328A604A60A2782B23CA54CA78F5
:1023200008231343CB704B4A94600A78104038223C
:10233000A25C02430A7072B66078810611D5FEF77E
:102340004BFC07006068FEF76BFD38183821615CB4
:10235000802901D1012100E00021637801221A4087
:1023600009E03821615C802901D1012100E00021D0
:10237000012202406068FFF7B2FC62B6B6BDC4201D
:10238000B6BD0000DC000020F8B58026F602324819
:102390000660BFF34F8FBFF36F8F00252C48057089
:1023A0002E4FBD602E4C21682E4A0A40226020210B
:1023B00041703F2181700921C1705C2101713A2176
:1023C0004171742181713821C1711421017205217B
:1023D00041720221017310218172C172400DFFF719
:1023E000F5FE1F2000F022F8002200210020FFF758
:1023F000CCFE1548962101600571386838600120CF
:10240000E1690143E161A1690843A06116480660E2
:102410003868F1BD010000200D4A1278120600D480
:10242000704780B50800FEF715FC02BD00210F4A79
:102430005C234B43D2182C23D054491C0829F6DBCB
:1024400070470000D1000020B00000200C000060A8
:10245000C4000020B000002080E100E00400006023
:1024600028180060FFFFFFBF00E100E0DC00002053
:102470000120704701207047C0688021090608408C
:1024800000D00120C0B270475749886700207047CC
:10249000F9B583B00C0017000C9EFEF79DFB0500FC
:1024A0002000FEF7BDFC2D186846FFF7B3FF01A81A
:1024B00052A10CC90CC001A90020FFF72FFE002279
:1024C0006846017B0020FFF73DFE474C474AA16F5D
:1024D0000020FFF748FE0A98FFF778FE00202070E2
:1024E000032161706560A070A76027003C37A76278
:1024F000E7623F4921633F4A6263388025640BAA43
:1025000012783E23E254049A62646066A066E16633
:1025100026672000FFF79AFE3800FFF797FE20009D
:10252000FFF7E0FE05B0F0BDFDB584B00E0000255C
:102530000024FEF751FB07003000FEF771FC38184D
:1025400000906846007C282800DBC02401A8FFF723
:1025500061FF002801D0C42442E0200040D10E9E3B
:102560000D9F02A827A10CC90CC002A90020FFF7EB
:10257000D5FD00226846017C0020FFF7E3FD1A4CE0
:102580001A4AA16F0020FFF7EEFD0C98FFF71EFE20
:1025900025700120607000986060A7700598A060A9
:1025A00027003C37A762E5621348206366633D70ED
:1025B00002203D216054009820643E216554069815
:1025C00060646566A5660A48E06626672000FFF736
:1025D0003DFE3800FFF73AFE2000FFF783FE0400BF
:1025E000200007B0F0BD0000300000205555550018
:1025F000712404107524041079240410FFFFFFFFD8
:10260000FF000000FFFFFFFFFF00000010B5040007
:1026100000F002F8206010BD00B50220154A1368D2
:10262000034004D013685B0701D5134800BD12684E
:10263000E02313400CD0202B0CD0402B0CD0602B6F
:102640000CD0802B0CD0A02B0CD0C02B0CD00CE0CD
:1026500001210AE0022108E0042106E0082104E04B
:10266000102102E0202100E040210448FEF728F874
:1026700000BD0000080040480048E8010090D00379
:1026800010B504006160FFE7FEF797FF206010BD02
:1026900010B50400FEF791FF61682268801A401CA3
:1026A00081428041C00F10BD80B50B0011001A009F
:1026B00000F002F801BD7047094202D0491E4254A1
:1026C000FCD17047FEE7FEE7704780B5FEF754FF88
:1026D00001BD80B5FFF784F801BD80B5FFF7E4FACE
:1026E00001BD80B5FFF7E1FA01BD81B00448016882
:1026F00001220A4302600068009001B070470000A8
:102700007400006080B5FFF77BFCFFF7E7FA01BDBE
:1027100070B40123002413E00168001D194202D0A7
:102720004D466D1E49190C60091D121F042AFAD26C
:102730000D00960701D50C80AD1C1A4000D02C70FE
:102740000268001D002AE7D170BC704730B50168EF
:102750004118446862088A188368E40704D54C4627
:102760001B1901E0641C06D191420BD00C7864B2B5
:10277000491C0D78491C1D705B1C002CF2D4641E92
:10278000F7D5F1E70C3030BD10B507497944183161
:10279000064C7C44163404E0081D0A6889188847F2
:1027A0000100A142F8D110BD080000003C0000006B
:1027B00061FFFFFF0C000000B00000209C0700003C
:1027C000BC0300200000000085FFFFFF9000000018
:1027D0001C000000C000002075FFFFFF8E000000FD
:1027E0001600000030000020FDF7A3FF002801D0F4
:1027F000FFF7CAFF00BF00BF002000BF00BFFEF709
:102800006FFB00F000F880B500F002F801BD7047E2
:102810000746384600F002F8FBE7704780B500BF76
:1028200000BF024A11001820ABBEFBE726000200E1
:1028300000BF00BF00BF00BFFFF7D6FF7047704763
:1028400070477047704770477047704770477047D0
:10285000704770477047704770477047810081002C
:102860008100810081008100FE00880007DF88DF91
:05287000880090D00378
:04000005100428318A
:00000001FF
