:020000041004E6
:100000000060002081220410252104102721041003
:10001000DDCCBBAA45554C420000000000000000AA
:100020000000000000000000000000002921041072
:100030000000000000000000F70604106B0E041022
:100040001F190410232104105F2204106B220410D6
:100050000000000000000000000000008D220410DD
:100060008F22041091220410932204109522041070
:1000700097220410992204109B2204109D22041040
:100080009F220410A122041055210410A322041061
:100090003B210410A5220410A722041033210410D0
:1000A0002B210410A9220410AB220410AD2204104D
:1000B0000000000000000000000000000000000040
:1000C000944800688103C80F7047000081B09148D0
:1000D00001688903FCD5816802220A4382600021FD
:1000E00002E000BF0099491C009100990629F8DB45
:1000F000816804220A43826001B070478548006825
:100100008106C80F7047834800684104C80F7047D4
:10011000814800684107C80F704730B50D007F4C1B
:10012000002A0AD0FA21890000F0CAFA401E68436A
:1001300060600020A060052002E020680121884363
:10014000206030BD70B50E001500012401220100B1
:1001500073480068FFF7E1FFB047A84204D06F483A
:100160000068C003F8D50024002200210020FFF71A
:10017000D4FF200070BDFCB50121002817D0A6488F
:100180000268E0239A43202313430360826D042313
:100190009A438265826B0A438263826B8A438263DD
:1001A000826D0A438265806D084000900098382275
:1001B0009A4B18699A4CA04215D1186800901D6896
:1001C00018681C681B685B0D13406402640F0F26DF
:1001D000000C30402F0AF0253D400195009D2D0A6E
:1001E0002E40009605E00820009070230193032420
:1001F00018239B4D0F26F6432F6B37403843286357
:10020000E86AF027B843019F0743EF62E86A0640B7
:1002100000983043E86228680726B04304432C6006
:100220002868904303432B603F20C043AB6F0340DB
:100230000A241C43AC67AB6F40241C43AC67EB6FD4
:10024000034004241C43EC67EB6F80241C43EC67E1
:10025000EB6F4024A343EB67824B1C6804401C6097
:100260005C680440102525435D609C68044020259F
:1002700025439D60DC68044030252543DD601C6912
:10028000044022431A615A690240392414435C61D4
:100290009A6902403A2414439C61DA6902403B2483
:1002A0001443DC611A6A02403C2414431C625A6AFB
:1002B00010403D2202435A625520FF22D2436A4C2D
:1002C0002568154005432560E568154066262E43E0
:1002D000E660256A154028432062206C10401D25E9
:1002E00005432564E06B104059250543E563606CC8
:1002F0001040322505436564606A01436162986D70
:1003000010401F2101439965D86D02400920104318
:10031000D865F3BD000040481400504810E000E0EC
:10032000AC000020F8B50500524C2068802149023D
:1003300001432160012250496420FFF703FF002898
:1003400001D10420F2BD28003025ED434B4F484E2B
:100350002021E022D24303004BD0401E062847D87C
:1003600001A31B5C9F4400BF083842505E6C7A00BA
:1003700038682840102101433960A0680240A2601B
:1003800076003F4806602068790C01432160012215
:100390003C49C820FFF7D6FE002833D10520F2BD26
:1003A000A06802401143A160EBE7A0680240402032
:1003B0001043A0607608E4E7A06802406020104384
:1003C000A060B608DDE7A068024080201043A0606E
:1003D000F608D6E7A0680240A0201043A0603609C6
:1003E000CFE7A0680240C0201043A0607609C8E7AC
:1003F000FEE7A06802401143A160FFF767FE2048B6
:10040000066004E01E4800681849884202D0386837
:1004100005403D600020F2BD08004048E81E001085
:10042000CCECBCFCFF2819D004290AD0052908D03F
:10043000062906D0072904D0844A032903D10028BD
:1004400008D101207047012804D010680421884396
:10045000106003E010680421014311600020704720
:1004600048160060E8160060481500600090D00350
:100470000048E80100004048C1000410041000409A
:10048000AC00002007010410F3B581B07048714939
:10049000086071490861714D286820210143296075
:1004A00028686F490140296001226E49C820FFF782
:1004B00049FE002801D10120FEBD2020A96930227B
:1004C00091430143A961684CA168C2010A43A2603B
:1004D000664B5969664A914214D119681A681E68B8
:1004E0001B681F02FC239B053B40F70A1E263E406B
:1004F0000096D601E022920132408E01F02189005F
:10050000314007E0A0218900F8235B05102200920A
:10051000C0225201E668574F37403B43E360E3682F
:1005200086041E43E660E3681E26B343009E1E4316
:10053000E660E36801261E43E6604F4B1E684F4F9E
:1005400037403943196019680843186018684C49E6
:1005500001400A431A6018688021C90001431960EC
:10056000A869802149000143A9618020C005016874
:10057000F0220A4000680007000F1043102803D142
:10058000A8690F218843A86100263E48696A014096
:100590006962A96A0840A862A0683B4901408020BE
:1005A00000020843A060E06860210143E160206828
:1005B000042188432060206810218843206096270A
:1005C0007F00324D002229003800FFF7BBFD0028D4
:1005D00000D1022620681021014321600122290058
:1005E0003800FFF7AFFD002801D1022601E03000FE
:1005F00001D03000FEBD6846047AFF2C02D00120F5
:10060000FFF7B9FD6846057921480168214A0A408B
:100610008021890111430160016880220A43026040
:1006200001687022914330220A4302602800FFF7DC
:1006300079FE010009D129002000FFF7F3FE010037
:1006400003D100F0A1F862B60020FEBD6000404872
:100650000000041008ED00E00400002004005048F1
:10066000FFFEFFFF1101041000004048E41E0010CF
:10067000CCECBCFCFFFFFFC0940050483FFCFFFFE8
:10068000FFC7FFFFFFCFFFFFFF7FFEFFFD0004104E
:1006900098004048FFC0FFFFCA0F00D04942031036
:1006A0005A400DD004B500D3404200F009F8009A3A
:1006B000D20701D34942124200D5404204BD000096
:1006C000094214D088420FD30122030C01D1000447
:1006D0001204002300185B418B4200D35B1A524185
:1006E000F8D319001000704701000020704708B5CA
:1006F00000F0B0F808BD704710B5C20018231340D1
:10070000FF249C40E2438907090E9940030004D46A
:1007100016489B089B00C01806E0154B0007000F09
:10072000083880088000181803681A4011430160D7
:1007300010BD80B50F480068002814D10E4801682C
:10074000002902D1806A00280DD001200B49886061
:1007500000F081F8BFF34F8F09480A490860BFF3E2
:100760004F8F00BFFDE7012002BD000000E400E064
:100770001CED00E0940040481000504804000020A8
:100780000400FA050CED00E080B503210020FFF71E
:10079000B3FF03210120FFF7AFFF03210220FFF782
:1007A000ABFF03210320FFF7A7FF03210720FFF77B
:1007B000A3FF03210820FFF79FFF03210920FFF774
:1007C0009BFF03210A20FFF797FF03210B20FFF770
:1007D00093FF03210C20FFF78FFF03210D20FFF76C
:1007E0008BFF03210E20FFF787FF03210F20FFF768
:1007F00083FF03211020FFF77FFF03211120FFF764
:100800007BFF00211220FFF777FF03211320FFF762
:1008100073FF03211420FFF76FFF03211520FFF75B
:100820006BFF03211620FFF767FF01211720FFF759
:1008300063FF00211820FFF75FFF03211920FFF756
:100840005BFF03211A20FFF757FF03211B20FFF74F
:1008500053FF01BD70477047A948816801220A43D0
:10086000826000210160704730B5A64BA4490A6838
:100870001A400C681C40A242F9D1002AF7D0A24BC2
:1008800014125C43D5B25D432B12E31810335B1195
:10089000436282619D4A4B6813404C681440A342F6
:1008A000F9D1002BF7D09911A34A51438031091295
:1008B0000162C36130BD10B50400FFF7CDFF9F4852
:1008C0000068C007FBD52000FFF7CEFF10BD6821F0
:1008D0004143090ADB225043000C0818704780B5D9
:1008E000FFF7F5FF7AE2FEB504000A00EFF3108788
:1008F00072B603CC083C924B1B681360914E00907B
:1009000001913200616AE06A181A00F08DFA002144
:10091000009A019B80185941AE4D2A0038320CCA0A
:1009200099420FD801D390420CD20090019132002D
:10093000616A0020C04300F077FA0021009A019B11
:10094000801859412A00383203C287F3108803B057
:10095000F0BD70B506007C4C607A7D214843C9002B
:10096000FFF79AFE451CEDB2A94A316A1B2000F040
:100970005BFA207041366078FFF7B1FF3072E078A3
:100980004019FFF7ACFF307020794019FFF7A7FF3F
:1009900070706079FFF7A3FFB070A079FFF79FFF39
:1009A000F07070BDFEB5040065480568A76A654E25
:1009B00032003900206B281A00F036FA02002000BD
:1009C000083003C80090019110000021009A019B9B
:1009D0008018594103C4083C9C480078002811D174
:1009E000206B281A616B88420CD23200390000203B
:1009F000C04300F019FA0CCC083C00218018594182
:100A000003C4083CE562256303CC083C220008329D
:100A100003C2606AA062F7BD80B57D4A00F004FAA7
:100A20008949884201DD080002E0102800DA102020
:100A3000684900118882888A9349086001BDF8B529
:100A40000700644C38882061904880797D214843B4
:100A5000C900FFF721FE461CF6B2F878002802D143
:100A6000B87800280DD08A48C168C907FBD501684D
:100A700017220A4302602000FFF71DFF606AA06290
:100A800009E0C8204003A062606282482062824878
:100A9000A0618248E06125004035F8782870216A1D
:100AA000206980B2FFF7B8FF00220020A872002161
:100AB00003C4083C224B1B68E362236323003833E2
:100AC00003C32300083303C3EA722000FFF741FF8A
:100AD0006E4C20788019FFF7FAFE1B306871607841
:100AE0008019FFF7F4FE1B30A871A078FFF7EFFE26
:100AF0001B30E871E078FFF7EAFE1B302872F1BD89
:100B000008100060FFFF0700F6BC0800FFFFFF07AA
:100B10004E480078002806D0AC48816801220A437C
:100B2000826000210160704704480068C107C90F56
:100B3000012048407047000053070000101000607B
:100B40001018006035060000C500002038B594B0CC
:100B5000204C4020205C002831D0684621005022E3
:100B600000F084F96846FFF77FFE0899049880B288
:100B7000FFF752FF6846FFF7ECFEEFF3108572B601
:100B8000200040300121C1720699A1610799E161FD
:100B900008992162099961620A99A1626946412214
:100BA0008A5C427042228A5C827043228A5CC270F4
:100BB00044228A5C02714922895C417202E0EFF3AF
:100BC000108572B62000FFF7EDFE85F3108815B092
:100BD00030BD0000E00D002080B569468548FFF774
:100BE00082FE04BDF8B50500194C69462000FFF7E8
:100BF0007AFE06000F00804A616A0098401B00F0F0
:100C000013F900233900301A9941F4BD00000000A7
:100C1000260300000200774B4020185C1074D8694E
:100C2000D0601800083003C803C2083A9869906081
:100C3000186B5061704710B5054C704A216A00F07E
:100C4000F3F8606310BD0000FF0F0000200E0020CD
:100C5000E00D00206C494A68520003D50968016024
:100C60000320704766490A68022A03D14968016077
:100C7000012070470A68032A03D1496801600220F5
:100C8000704700207047000008180060C80000206E
:100C900004100060C2F528008D5B0000ECEB6501DC
:100CA00080B5564A5349096A00F0BEF8010021296F
:100CB00001D3083100E02821544A10684118D1615D
:100CC000916980239B050B439361116A8023DB05A7
:100CD0000B43136202BDFEB50400464D28004130AF
:100CE0000079012908D1002A02D04121695C0CE079
:100CF00029004131497808E0002A03D02900413118
:100D0000897802E029004131C9780091019002A957
:100D10002800FFF7E8FD201A3A4F00263A4C374AE0
:100D200001992B69C918C8318142296A17D200F08C
:100D30007BF837490A78801A009A801A029A1218AA
:100D40002260626807239A4362602D4A16606268D7
:100D5000C023DB0513436360009A097811E000F0BB
:100D600063F829004131097A401A009A801A029AE0
:100D70001218234B5A6002221A6062683A4062607D
:100D8000009A5318C118581D814206D21C480660AB
:100D90006068074067600120FEBD174A696A180055
:100DA00000F042F82900413148720020FEBD0000E9
:100DB0001848012142680A434260026811430160F9
:100DC000802000041449086070470000081000608B
:100DD00080B512480068FFF705FF04BD074A0549C2
:100DE000096A00F021F802BD80B5034A0149496A49
:100DF000F7E70000E00D00203506000026030000A4
:100E00000C000060FFFFFFBF241800601018006096
:100E1000C50000204818006000E100E014000060F8
:100E200080B5FFF754FD02BD10B5904216D98AB2C5
:100E3000030C090C0C46594380B2534344435043BE
:100E40001B191A041B0C101859418022520300234D
:100E500012184B41520DD802104310BD4843802256
:100E600052031218520D104610BD704770B4103A5C
:100E700003D378C9103A78C0FBD2530701D318C9FD
:100E800018C001D508C908C0D20704D30B88038055
:100E9000891C801C002A01D50B78037070BC704738
:100EA000F3B589B000250D700998807A00285CD0D0
:100EB0007D4803C87D4A1268002312184B4106A8DA
:100EC0000CC0EFF31080029072B6FFF785FE0200AF
:100ED0000B00099803C804AC03C404A803C800901D
:100EE000019106A803C8C826B602002736184F414C
:100EF00000980199B9420ED301D8B0420BD306A88D
:100F000003C8B9267600002736184F419F4229D8DA
:100F100001D3964226D2012400200A32434104A87C
:100F200003C800264C38B1418B4213D801D382420A
:100F300010D20998027A037B04A803C81900FFF7AE
:100F4000CAFE0A990870099885720998447209982E
:100F5000C47207E081488572029880F310880A986D
:100F6000047002E0029880F310880BB0F0BD80B5E9
:100F7000FFF7CEFD01204D49087101BDF8B507000E
:100F80000E003C000020307000E02469002C1FD0CF
:100F9000207B0028F9D0EFF3108572B6FFF71CFE16
:100FA00002000B0003CC083C801A9941002906DBA3
:100FB00001DC012803D30121FFF772FE01E00120CB
:100FC000307085F310883078002801D03800F2BDE9
:100FD0002000F2BDFEB500256C462570017B00297E
:100FE00001D00120FEBD0CC00838012101732F4C37
:100FF000A6680196070001E035003669002E08D08A
:101000000CCE083E03CF083F8B42F5D301D8824275
:10101000F2D338000661002D01D1019000E0286173
:101020000199814213D16946FFF7A8FFA060684685
:10103000007800280BD0EFF3108072B6217D4A1C97
:10104000637D9A4200D0491C217580F31088684660
:101050000078FEBD10B5154C002808D0207B002874
:101060000BD120001830FFF782FF012004E02000A0
:10107000183000F03CF80020207310BD704718B500
:1010800063480168634A0A40026008490A7D531CAC
:101090004C7DA34200D0521C0A75C16901220A434B
:1010A000C261C069009011BD600E0020300E0020AA
:1010B000704738B50300002568460570274C21733A
:1010C0002272554803C81A1A002312184B410CC447
:1010D000083C6572E5720120A07269462000FFF7A6
:1010E000DFFE0120FFF7B6FF6846007832BD7CB511
:1010F0000300A24CA268150000210026100001E0A8
:101100002E002D69002D09D09D42F9D101932B6944
:10111000954201D1180002E0336100E001936D4671
:101120002970019B1973824214D06946FFF726FF8C
:10113000A0606846007800280DD0EFF3108072B6EA
:10114000217D4A1C637D9A4200D0491C217580F3A1
:10115000108873BDA06073BD00000000B0000020C7
:101160007CB50600FFF724FE802040038449086018
:101170006846B17881707168002900D00121C17082
:1011800031880180FFF75BFC2348FFF743FD7B4D6F
:101190000024AC60012028737068002800D0012072
:1011A000A8750020E875194A50725081002103C2C9
:1011B00030882861AC82706800030A21FFF780FA4A
:1011C00028602C71704E002804D13000FFF70CFE0F
:1011D00028600AE03000FFF707FE2968814203D348
:1011E0003000FFF701FE0100296068482862EC62C8
:1011F000FFF7F2FC2A68002312184B412800183030
:10120000FFF7E8FE2868FFF716FD73BDB000002069
:1012100030180060FFFFFFBF600E0020F8B584B0FB
:10122000002469460C70EFF3108572B65848407A76
:1012300000280AD0FFF7D0FC554A0CCA8B4204D8CC
:1012400001D3824201D25248447285F310884B4F39
:1012500022E0401C19E00469002101738168002923
:1012600000D088472000F6D16946B868FFF786FEAF
:10127000B8606846007801280AD1EFF3108172B691
:10128000387D421C7B7D9A42E3D1387581F310880A
:10129000787D039940187875787D397D0A1A02D2D5
:1012A000802040001218002A28D00392BC68002633
:1012B00002940194002502E0260024696D1C002C94
:1012C0000FD0207B0028F7D0FFF786FC02000B0030
:1012D00003CC083C801A99410029EDDB01DC06288B
:1012E000EAD3002D03D000203061029401E00020F9
:1012F00001900298B86001980028B4E7214C387931
:10130000002824D0FFF710FC002834D13871B97DB3
:10131000002904D1F97D002901D0F87504E0FFF718
:1013200015FC2000FFF776FC69461948FFF7B8FD69
:1013300038001830FFF7DBFEFFF74EFC3A68002359
:1013400012184B4138001830FFF744FE13E0207CA0
:10135000002810D0FFF740FC0CCCFA2464030025D1
:10136000A4185D418D4206D801D3844203D2FFF711
:10137000CFFB0120387105B0F0BD0000300E002019
:1013800000E100E0600E0020FFEFFFFF6F0F041090
:10139000B000002038B5814D814C206881498842D9
:1013A00006D100228049280000F072FA0020206057
:1013B000A648A749A74A13688B4204D103690024B1
:1013C000E443A34212D013688B4202D10369002B7D
:1013D0000CD012688A4209D101699F4A914205D115
:1013E0004168006880F308888847FEE700210120F3
:1013F000FFF74AF8002800D0FEE7022000F0F4FAD8
:10140000022000F041FB592305220021280000F0B2
:1014100060FA00F023F9FFF701FF00F03FF901281F
:10142000F9D1BFF34F8F9A489A490860BFF34F8FA5
:1014300000BFFDE730B5C468974901220023650667
:101440000CD4002C05D580680078A0280DD1CA7076
:101450000BE08820C005204007D005E0C8780028B0
:1014600002D0CB700A7000E00B70012030BD70B567
:10147000C468894A01210023650621D4002C16D5B1
:1014800084682078B02817D16078042821D11171A0
:10149000536100255069611989780326761BF6008F
:1014A000B140014351616D1C042D12DAF2E788202E
:1014B000C00520400DD011705079401C507108E0DB
:1014C0001079002804D0537113710220107000E0CD
:1014D00011705079052801DD53711370012070BD22
:1014E00010B5C4686C490022630612D40223002C94
:1014F00007D580680078C02807D18A71032008705A
:1015000007E08820C005204003D00B708879401C7C
:1015100088718879062801DB8A710A70012010BD64
:1015200010B5C4685C490022630611D40223002C64
:1015300006D580680078F02806D1CA710A7007E0E5
:101540008820C005204003D00B70C879401CC871AA
:10155000C879062801DBCA710A70012010BD10B5D8
:10156000C468B5490022630612D40323002C07D5B2
:1015700080680078D02807D10A720420087007E03C
:101580008820C005204003D00B70087A401C0872E8
:10159000087AFB2800DB0A72012010BD0010004011
:1015A00004000020554201B010280410F8B50021B5
:1015B0006B461980C4680423374A650635D4002C6D
:1015C0002AD583681C78E02C38D1012454725C78C9
:1015D000022C33DD9C782402DB781C436B461C8094
:1015E000138A6C462488A34228D10024009006E088
:1015F0002D192D79914E00193554641CE4B20098D0
:1016000085686E78D089B71EBC42F1DBB41E001924
:10161000D0815B1C138211E08820C00520400DD0D2
:101620001370907A401C907208E0507A002804D021
:10163000917251720520107000E01370907A0628A4
:1016400002DB9172032010700120F2BD002804100B
:10165000DDCCBBAA10000410AA5555AAE0B500BF06
:1016600085A003C86A4603C200F00AFC6846FFF77B
:1016700077FD734800F084FC1F2000F053FC714894
:10168000A0210170002141706B48017000200EBD47
:101690000400FA050CED00E0BC0B0020FEB5664D21
:1016A0002B789620400007210026664C002B25D180
:1016B0006E61EE812E826E82AE81A02222706670F3
:1016C000297000F0DBFA60480290FF2001905F482B
:1016D000009023002A001832C8214900182000F089
:1016E0009FFC6878002807D0594A5A495A4800F0A8
:1016F000CFF86E700120A870A878FEBD012B07D12D
:10170000B02222706670297000F0B8FA5348DBE707
:101710006A69FA277F00022B25D15148824219D2EB
:10172000C020207066701009120700D0401C68822B
:101730002970962000F0A2FA4A480290FF200190FA
:1017400000972B001833220096218900182000F002
:101750001BFCC6E7F020207066702970962000F010
:101760008DFA4148E9E7032B13D1288A6A8A90420F
:101770000CD2D022227002226270020AA270E070A3
:101780002970962000F07AFA3848D6E705202870AC
:10179000A7E7042B07D1E02222706670297000F0C1
:1017A0006DFA334890E7052B9BD1E889111A802206
:1017B0001201904201D0002934D1002900D5FEE762
:1017C0000024254800901D4F0EE0002A06D1102C61
:1017D00004D1FF2038747874B874F8743A190098FA
:1017E00000F05FF81034A4B2E9890800AA898442A5
:1017F0000DDAD10209191F4BC91823001033984282
:10180000E3DA3A59009800F043F8241DEBE7521C44
:10181000AA810C0002D0380000F074FC6869001B3B
:101820006861EE816869002801D00320AFE70620D7
:1018300028700120687057E7BC0B0020BC03002013
:10184000DA88D188D80C00203514041088130000E1
:10185000AA5555AA10280410001000406F14041057
:1018600001C80200E1140410211504105F150410D2
:10187000AD15041000280410010000000000000055
:1018800000690840884201D101207047002070475C
:1018900010B50F2303618903090C816102643321B0
:1018A0000EE010B50F2303618903090C81611168F3
:1018B00001645168416491688164D168C164CC213C
:1018C0000160040001212000FFF7DAFF0128F9D1AF
:1018D00010BDF8B505000F26FF2909D12E61222081
:1018E000286001212800FFF7CBFF0128F9D1F1BDC5
:1018F00017003C00009306E001212800FFF7C0FF1D
:101900000128F9D1641C009838188442EFD22E6166
:10191000E0028003000CA86111202860ECE770470A
:1019200081B061490A6802430A6009680840009072
:10193000009801B0704710B50B004B4301685C0084
:10194000E418A14353430B43036010BD43688B432A
:10195000514319434160704710B50B004B438168F8
:101960005C00E418A14353430B43836010BD30B5C2
:10197000CB434E4C9025ED05A8421AD1002A03D046
:10198000022A0FD007D330BD20681840206060685D
:101990000340636030BD60680340636020680143BA
:1019A000216030BD206803402360606801436160AE
:1019B00030BD002A03D0022A0FD007D330BDA06863
:1019C0001840A060E0680340E36030BDE068034079
:1019D000E360A0680143A16030BDA0680340A3603C
:1019E000E0680143E16030BD10B5314C010016D113
:1019F0000820FFF795FF0220A061012202212000AC
:101A0000FFF799FF022202212000FFF7A5FF002225
:101A100002212000FFF79AFF0022022130E0012876
:101A200016D10820FFF77CFF1020A06101221021B1
:101A30002000FFF780FF022210212000FFF78CFF1B
:101A4000002210212000FFF781FF0022102117E063
:101A5000022818D10820FFF763FF0420A0610122AB
:101A600004212000FFF767FF022204212000FFF776
:101A700073FF002204212000FFF768FF00220421E9
:101A80002000FFF774FF10BD0A49FFE7020001D1F3
:101A9000022006E0012801D1102002E0022801D135
:101AA0000420086070470000500040482000504863
:101AB0000000104828001048814908684A6812024E
:101AC000FF231B021340C0B21843896801D00C29C0
:101AD00001D37F200EE006225143773901E0891DB2
:101AE00040081F28FBD2FF22A23250438F4A8018A1
:101AF000800A081840B27047F8B58D48076807603B
:101B0000B80100D483E08B4CA068894989694022E0
:101B100011403943C160016B88470128A06801D199
:101B2000856A00E0C56A7F2183480026002D0AD11E
:101B30007F4A9660814A1368814E1E401660027883
:101B4000114001704CE02A78802313430370183051
:101B50002A785C235A438218137819403823EB5CA7
:101B60000B431370290018310091011D2A785C2362
:101B70005A43009B8B50010008312A785C235A435A
:101B8000009B8B5029785C22514340182B21AA7866
:101B900042546878400723D5654886606878810696
:101BA00012D5FFF719F800906868FFF739F9009A25
:101BB00010183821695C802901D1012100E0002141
:101BC0006B78DA07D20F09E001223821695C80299D
:101BD00001D1012100E0002102406868FFF769FAA5
:101BE000B80F800708D0FFF767FFA1684861FFF7CB
:101BF000EFF8A168086105E0780103D5FFF75CFF05
:101C0000A1684861A068A5602900426B90474848D8
:101C10000068F1BD30B50022984B5C246043181871
:101C20002E258B5C84186355521C052AF9DB322162
:101C3000415CC906C90E3222815430BD10B58F4BAC
:101C40005C2460431818C02304781C400C430470C3
:101C500044782340194341702D21425410BD10B5E2
:101C6000864B5C246043181841622823C254110A31
:101C70002923C154110C2A22815410BD2D4908601A
:101C8000704710B57D4B5C2460431818012901D0C2
:101C9000012A09D1202182780A4382702322825CA2
:101CA00011432322815403E08178DF220A408270AD
:101CB0002321415C40220A432321425410BD0000ED
:101CC000A416006003219D4AD30A984205D21070E1
:101CD000030A5370000C014026E0530A984209D2CF
:101CE00083081370830A5370800C014091709078C0
:101CF000042118E09B00984209D203091370030BDA
:101D00005370000D01409170907808210BE09B000A
:101D100098420AD283091370830B5370800D0140DF
:101D2000917090780C21014391707047A04600009B
:101D300004000060780E0020C40000202818006015
:101D4000FFFFFFBF70B5040010220021183000F023
:101D5000E1F920001830A061A0682062784800688E
:101D600046382422A054010A2522A1540003000F62
:101D7000262160541020615C10220A4326216254FF
:101D8000617880224023194203D12623E35C134368
:101D900002E02625655D2B4326256355237F81259B
:101DA0000D4004262E431E432677637F08400625F8
:101DB00005431D436577FF202723E0540220A36AD3
:101DC0005B78034203D0637F01251D4365770023C1
:101DD00038256355014200D0625570BDBCB5040082
:101DE000684600F093F8002845D100255548056065
:101DF00022787F207F21114080231343524A1370A1
:101E000018325C2359435118220018328A604A6004
:101E1000A2782B23CA54CA7808231343CB704B4AA9
:101E200094600A7810403822A25C02430A7072B6AD
:101E30006078810611D5FEF7CFFE07006068FEF7D7
:101E4000EFFF38183821615C802901D1012100E0C1
:101E50000021637801221A4009E03821615C802961
:101E600001D1012100E00021012202406068FFF75A
:101E700020F962B6B6BDC420B6BD0000DC0000206B
:101E8000F8B58026F60232480660BFF34F8FBFF3E5
:101E90006F8F00252C4805702E4FBD602E4C216899
:101EA0002E4A0A402260202141703F218170092181
:101EB000C1705C2101713A21417174218171382115
:101EC000C171142101720521417202210173102197
:101ED0008172C172400DFFF7F5FE1F2000F022F85D
:101EE000002200210020FFF7CCFE1548962101605A
:101EF0000571386838600120E1690143E161A16939
:101F00000843A061164806603868F1BD0100002052
:101F10000D4A1278120600D4704780B50800FEF70B
:101F200099FE02BD00210F4A5C234B43D2182C239B
:101F3000D054491C0829F6DB70470000D10000206E
:101F4000780E00200C000060C4000020780E0020F5
:101F500080E100E00400006028180060FFFFFFBF80
:101F600000E100E0DC000020012070470120704704
:101F7000C06880210906084000D00120C0B2704727
:101F80005749886700207047F9B583B00C001700E7
:101F90000C9EFEF721FE05002000FEF741FF2D18E4
:101FA0006846FFF7B3FF01A852A10CC90CC001A9F4
:101FB0000020FFF72FFE00226846017B0020FFF77C
:101FC0003DFE474C474AA16F0020FFF748FE0A98A4
:101FD000FFF778FE00202070032161706560A0701B
:101FE000A76027003C37A762E7623F4921633F4A69
:101FF0006263388025640BAA12783E23E254049A67
:1020000062646066A066E16626672000FFF79AFEBC
:102010003800FFF797FE2000FFF7E0FE05B0F0BDA7
:10202000FDB584B00E0000250024FEF7D5FD0700A5
:102030003000FEF7F5FE381800906846007C28282E
:1020400000DBC02401A8FFF761FF002801D0C424F1
:1020500042E0200040D10E9E0D9F02A827A10CC98E
:102060000CC002A90020FFF7D5FD00226846017CC4
:102070000020FFF7E3FD1A4C1A4AA16F0020FFF77A
:10208000EEFD0C98FFF71EFE257001206070009891
:102090006060A7700598A06027003C37A762E562E2
:1020A0001348206366633D7002203D216054009810
:1020B00020643E216554069860646566A5660A48FA
:1020C000E06626672000FFF73DFE3800FFF73AFE86
:1020D0002000FFF783FE0400200007B0F0BD0000E1
:1020E0003000002055555500691F04106D1F041065
:1020F000711F0410FFFFFFFFFF000000FFFFFFFF45
:10210000FF000000002200BF094202D0491E4254D5
:10211000FCD1704780B50B0011001A00FFF7F4FFE7
:1021200001BD7047FEE7FEE7704780B5FEF7A6FFEA
:1021300001BD80B5FEF7A3FF01BD81B00448016871
:1021400001220A4302600068009001B0704700005D
:102150007400006080B5FFF7CFFCFEF7A9FF01BD5A
:1021600070B40123002413E00168001D194202D05D
:102170004D466D1E49190C60091D121F042AFAD222
:102180000D00960701D50C80AD1C1A4000D02C70B4
:102190000268001D002AE7D170BC704730B50168A5
:1021A0004118446862088A188368E40704D54C46DD
:1021B0001B1901E0641C06D191420BD00C7864B26B
:1021C000491C0D78491C1D705B1C002CF2D4641E48
:1021D000F7D5F1E70C3030BD10B507497944183117
:1021E000064C7C44163404E0081D0A6889188847A8
:1021F0000100A142F8D110BD080000003C00000021
:1022000061FFFFFF10000000B0000020C80A0000BE
:10221000BC0300200000000085FFFFFF92000000CB
:102220001C000000C000002075FFFFFF90000000B0
:102230001600000030000020FEF77BFA002801D0D5
:10224000FFF7CAFF00BF00BF002000BF00BFFFF7BD
:10225000A1F800F000F880B500F002F801BD704769
:102260000746384600F002F8FBE7704780B500BF2C
:1022700000BF024A11001820ABBEFBE72600020097
:1022800000BF00BF00BF00BFFFF7D6FF7047704719
:102290007047704770477047704770477047704786
:1022A00070477047704770477047704770478100AC
:1022B00081008100810081008100FE00880007DF2D
:0722C00088DF880090D003C5
:040000051004228140
:00000001FF
