:020000041004E6
:100000000000012019250410711B04107722041030
:10001000AA5555AA45554C420000000000000000BA
:10002000000000000000000000000000DB190410C8
:100030000000000000000000731B0410792204106F
:10004000CF2004101F210410A3210410FB21041051
:10005000932404109F240410032504103125041058
:10006000832204103325041035250410372504108D
:10007000392504103B2504103D2504108B22041063
:100080003F250410C5220410412504104325041007
:100090004525041047250410492504104B2504105C
:1000A0004D2504104F250410000000000000000042
:1000B0000000000000000000000000000000000040
:1000C000010005D40121C006C00E8140984801609E
:1000D0007047F0B5020013D41822964B8408A40090
:1000E0001C59FF25C6001640B540AC438907090ED0
:1000F000C5002A4091402143800880001950F0BD7E
:100100000F258D4B18242A40083A9208920005408A
:10011000083DAD08AD005D59FF26C7002740BE4031
:10012000B5438907090EC0000440A14029439950F6
:10013000F0BD824814224A438218143A12680123FF
:10014000A2E07E4814224A438218143A126801231E
:100150009A4314235943401814380260704710B56D
:10016000764814234B43C318143B1B68B04C31E052
:10017000724814225143401814380168AD480840B1
:10018000704710B56D4814234B43C318143B1B68CC
:100190002024A3431A431FE010B5684814234B439F
:1001A000C318143B1B684024A3431A4314E010B542
:1001B000624814234B43C318143B1B688024A34399
:1001C0001A4309E010B55D4814234B43C318143B90
:1001D0001B68994C1C40224314235943401814387F
:1001E000026010BD10B5554814234B43C318143B8F
:1001F0001B68C14CEEE710B5504814234B43C3189D
:10020000143B1B68BD4CE5E74C4814234B43C31813
:10021000103B1B681B0C1B041A4314235943401842
:1002200010380260704710B5029810280AD1434870
:1002300014244C430419083C2260142251434018F2
:100240000C3809E03D4814244C4304190C3C22604E
:100250001422514340180838036010BD10B5912096
:10026000C0058B00C3181B1F1B681F24A3431A4320
:1002700089004018001F026010BD304814224A4314
:100280008218143A1268022313431422514340186F
:10029000143803607047294814224A438218143ADC
:1002A00012680823F0E781B0B84901E081B0B8498D
:1002B0000A6802430A60096808400090009801B08B
:1002C000704781B0B349F3E7B34908E0B3490A681E
:1002D00082430A60091D06E0B0490FE0B0490A6890
:1002E00082430A60091F0A68104308607047AD49DD
:1002F0000A6882430A60091DF5E7AA490A68824331
:100300000A60091D0A6882430A607047016840223A
:100310000A4302607047426810239A4311434160C8
:1003200070474268A04B134019434160704700007A
:1003300000E100E000E400E01CED00E0080070488F
:1003400041680822914341607047416801220A4395
:1003500042607047416802220A43426070470C3095
:10036000704730B503680C004C4365002C19A3435B
:100370000C004C4354431C43046030BD80B5030063
:1003800008009021C9058B420ED1002A03D0022A11
:1003900007D003D301BDFFF79FFF01BDFFF794FF17
:1003A00001BDFFF793FF01BD002A03D0022A07D049
:1003B00003D301BDFFF7A1FF01BDFFF78FFF01BD13
:1003C000FFF795FF01BD8161704781627047426907
:1003D00051404161704780B5FF21022000F0E4FDEB
:1003E000002800D0FEE700F029F8EA48006800F095
:1003F00040FE00F07DFEE84801F05EF800F076F97E
:1004000000F023F800F07CF800F0D0F8E84801F0A4
:1004100039F900F0C3F9EB4801F034F900F0E8F9DC
:1004200000F0B1F9E84801F02DF900F0F9F9FEE724
:10043000EFBFFFFF10400000FFFCFFFF80B5012170
:100440000020C043FFF745FE01BD38B590B028221B
:10045000002106A801F02AF918220021684601F0BF
:1004600025F90120FFF72DFF0120FFF71CFF802059
:1004700080010090022401940294002503950494C5
:10048000059469469020C00501F0A6F9600300902C
:10049000019402940395049405956946DE4801F0A1
:1004A0009BF9C02000020690822040000790E020C7
:1004B000C0000890099401200A9040020B90382057
:1004C0000C900D950E9507200F90D44C06A9200096
:1004D00001F0CFF900212000FFF71DFF2000FFF7FA
:1004E0002FFF802149012000FFF71BFF2000FFF7AD
:1004F00031FF11B030BD0000FFF3FFFFFFCFFFFF62
:10050000F8B590B02822002106A801F0CFF81822F3
:100510000021684601F0CAF880277F013800FFF704
:10052000D0FE0120FFF7BFFEA0200090022401941E
:1005300002940025039504940126059669469020AF
:10054000C00501F049F9A00306900795E020C0001E
:10055000089009940A9620020B900D950E9507209D
:100560000F90D04C06A9200001F083F90021200053
:10057000FFF7D1FE2000FFF7E3FE39002000FFF770
:10058000D0FE2000FFF7E1FE11B0F0BD5000404862
:10059000540040485800404824005048200050482B
:1005A0002C00504828005048FFEFFFFF7CB5012089
:1005B000FFF779FEC44C062201212000FFF74EFE12
:1005C000002201212000FFF7CAFD002201212000A6
:1005D000FFF711FE002201212000FFF7D2FD0022CB
:1005E00001212000FFF7D8FD802201212000FFF724
:1005F000DEFD002201212000FFF7E4FD00220121A1
:100600002000FFF7EFFD052203212000FFF726FE63
:10061000102203212000FFF7A2FD00220321200069
:10062000FFF7E9FD002203212000FFF7AAFD0022C9
:1006300003212000FFF7B0FD802203212000FFF7F7
:10064000B6FD002203212000FFF7BCFD002203219C
:100650002000FFF7C7FD03212000FFF789FD0500FB
:100660006E48FFF77CFE03000095984A03212000A6
:10067000FFF7D9FD964D2A7803212000FFF7C4FD2E
:10068000052203212000FFF7E9FD01212000FFF7EB
:100690006FFD06008348FFF762FE00968D4B020057
:1006A00001212000FFF7BFFD2A7801212000FFF77C
:1006B000ABFD062201212000FFF7D0FD0321200021
:1006C000FFF7DBFD03212000FFF7E5FD01212000FE
:1006D000FFF7D3FD01212000FFF7DDFD01211120EF
:1006E000FFF7F7FC1120FFF7EBFC73BDF8B588B0FE
:1006F0001822002102A800F0D9FF08220021684634
:1007000000F0D4FF0820FFF7CEFD0420FFF7CBFD5B
:1007100080256D002800FFF7C9FD3F4F29003800F4
:10072000FFF751FE029501260396002404940594D8
:10073000069402A9380001F04FF829003800FFF7AD
:1007400042FE9027FF05AD00002229003800FFF788
:1007500015FE002229003800FFF703FE00956846C9
:1007600006714471867101F0FFF801210F20FFF737
:10077000B0FC0F20FFF7A4FC03210020C043FFF7CB
:10078000A8FC09B0F0BD80B52448FFF7BFFD0321E8
:1007900009E00000B0030020F508041080B54148CE
:1007A000FFF7B4FD01214848FFF7C3FC01BD00007D
:1007B000D424041080B5802149001748FFF705FEB6
:1007C00001BD0000F8230410A823041080B5802187
:1007D00049001148FFF7F7FD01BD10B50400802165
:1007E00049000D48FFF7F3FD200000F048FCF6E754
:1007F00080B5394800F046FF07E0802149000648EF
:10080000FFF7E5FDC82000F03AFC344800780028E6
:10081000F3D0FFF7DBFF01BD0000104800200041CE
:1008200010B52F4800780128FBD1274C0321200068
:10083000FFF787FC2B4800780128FBD1012120001D
:10084000FFF77FFC53222349204800F00FF80028CF
:1008500003D0254800F016FF30E0244800F012FFD6
:10086000FFF7A8FF224800F00DFF10BD10B501E012
:10087000401C491C13005A1E1B0605D003780C7837
:10088000A342F5D0012010BD002010BD0120134966
:100890000870704701201249087070470120114903
:1008A000087070470030004110B5074C032120004C
:1008B000FFF747FC01212000FFF743FCFA208000EE
:1008C000FFF78BFF10BD0000000070485C030020A4
:1008D000FC0300203000002024230410940000209A
:1008E000950000209600002004250410A024041088
:1008F0004C240410002900D1704780B50178632989
:1009000001D0432901D1FFF7C1FF01BDB348016800
:10091000802252020A4302607047B0480068810397
:10092000C80F7047AE490A68AE4B13400002184327
:10093000086008688022A8E0A9490A6870233CE0A2
:10094000A9490A68A94B13400006184308600868C3
:100950008022120499E0000081B0A0480068800362
:10096000FBD5B748016802220A430260002102E079
:1009700000BF0099491C009100990629F8DB016825
:1009800004220A43026001B07047AD490A68AD4BCA
:100990002CE09248016810220A43026070478F4899
:1009A000016810229143016070478C4800688106FD
:1009B000C80F70478C490A6860239A431043086047
:1009C0007047864801680422914301607047864958
:1009D0000A681E239A4340001043086053E09A4976
:1009E0000A680623E9E796490A68984B13401843BA
:1009F0000860704779480168802292010A430260CA
:100A00007047764800684104C80F70478C490A68EF
:100A1000E023D2E78E490A68D0E78E480068410794
:100A2000C80F70478C490A688C4BDFE78A490A680F
:100A30003023C2E78A490A6882430A60091D3CE004
:100A400088490A68884B1340C002E02292010240A4
:100A50001A430A6008688022D20016E081490A68B9
:100A6000824B13408001F022920002401A430A6038
:100A70000868202209E07B490A681E239A43400047
:100A8000034013430B600868012202430A60704769
:100A9000426830239A4311434160704781B06A49EC
:100AA0000A6802430A60096808400090009801B093
:100AB00070476F490A6881E76D490A6882430A6096
:100AC00070478020C00500680007000F7047802035
:100AD000C00500680006000F704710B50C00002A22
:100AE0000ED0FA21890000F05DFF401E6043CB4923
:100AF00008600020CA4908600520CA49086010BD86
:100B0000C848016801229143016010BDC5480068D2
:100B100080214902084000D00120C0B2704770B562
:100B20000E001500012401220100BF480068FFF7F4
:100B3000D4FFB047A84204D0FFF7E8FF0028F8D060
:100B40000024002200210020FFF7C7FF200070BD15
:100B5000F8B50122B549C820FFF7E1FF002801D10F
:100B60000120F2BD2020FFF761FF80204001FFF748
:100B70003AFFAF480068AF49884212D10F20AE4912
:100B80000F6807400A685206540F0A68150A0540A4
:100B90000A68120B1040009008688002800E01263F
:100BA00004E0082508271E2000260324FFF7C8FEBE
:100BB000002E02D00098FFF70AFF2800FFF75BFF26
:100BC0003800FFF74BFF2000FFF73AFF802040007E
:100BD000FFF728FF0020F2BD0000000000004048A1
:100BE00098004048FFC0FFFF0C004048FFFFFFC0D7
:100BF00070B50024C0208001FFF71CFF8020000298
:100C0000FFF7C3FE6020FFF7D5FEFFF7DAFEFFF720
:100C1000C6FE96267600894D002229003000FFF797
:100C20007EFF002800D10224FFF7B3FE0122290035
:100C30003000FFF774FF002800D10224200070BDAF
:100C400008004048FF7FFEFF60004048FFEFFFFFC5
:100C500004005048140050481C005048FFFEFFFF9D
:100C60002800504894005048FFC7FFFF3FFCFFFF9B
:100C700040004048F8B500280ED02020FFF7C6FEFF
:100C80000220FFF7ACFE0120FFF713FF0120FFF762
:100C900013FF0120FFF702FF65480068654988429D
:100CA00015D19D490A680D680B6807200C68240D52
:100CB00004400968090E0840009001210F201B0C18
:100CC00003402E0AF0253540120A104003E00820A8
:100CD0007025082300210F22D243904E3768174019
:100CE0003B4333608E4B1E68F027BE4335431D6087
:100CF0001D682A4010431860002910D089480168F7
:100D0000072291436207520F0A43026001683822AA
:100D10009143009AD200382313400B4303603F20D5
:100D2000C04381490A6802400A2313430B600A68E2
:100D3000402313430B60091D0A6802400423134338
:100D40000B600A68802313430B600A6840239A43B0
:100D50000A6024310A6802400A60091D0A680240DC
:100D6000102313430B60091D0A680240202313431C
:100D70000B60091D0A680240302313430B60091DF4
:100D80000A680240382313430B60091D0A680240B9
:100D9000392313430B60091D0A6802403A231343A9
:100DA0000B60091D0A6802403B2313430B60091DB9
:100DB0000A6802403C2313430B60091D0A68104077
:100DC0003D2202430A605521FF20C043754A136843
:100DD00003400B4313600C321368034066241C432A
:100DE00014601432136803401943116088490A687B
:100DF00002401D2313430B60091F0A680240592358
:100E000013430B6008310A681040322202430A6023
:100E10008048016801220A430260F1BD14E000E04D
:100E200018E000E010E000E0B00300201B0A04100E
:100E3000F81E0010CCECBCFCE41E0010AB09041042
:100E400010B50400FFF762FD01227B496420FFF723
:100E500066FE002801D1042010BD200009D1FFF753
:100E600036FE0401FFF72DFE2043102840D1062056
:100E700010BD641E062C3AD801A0005D874400BF57
:100E800008323C46505A640010216C48FFF700FEBF
:100E90000020FFF7BBFD6048664C2060FFF7AAFD0D
:100EA00001226749C820FFF73AFE002829D1052012
:100EB00010BD2020FFF7AAFD5848EDE74020FFF7BE
:100EC000A5FD5748E8E76020FFF7A0FD5548E3E798
:100ED0008020FFF79BFD5448DEE7A020FFF796FD3A
:100EE0005248D9E7C020FFF791FD5148D4E7FEE70B
:100EF0002020FFF78BFDFFF72FFD48484D49086084
:100F000003E020684449884203D000214B48FFF7A2
:100F1000BFFD002010BD0000E81E00107816006024
:100F20007416006048160060C016006070B50400BA
:100F3000FF282BD00D00042D09D0052D07D0062D3C
:100F400005D0072D03D0032D03D1002C07D101209C
:100F500070BD012C03D00220FFF741FD03E0042007
:100F6000FFF73DFD0124FFF7B2FD0601FFF7A9FDE4
:100F7000304310280AD1012D0AD1012C0ED12A208C
:100F800030490860304800680007FBD4002070BD7D
:100F9000022D05D1012C03D12920F1E7002CFBD033
:100FA0002820EDE74815006038B504000D002748FB
:100FB00027490860274908612020FFF72BFD4020C2
:100FC000FFF728FD8020FFF725FDFFF7C1FD010099
:100FD0001DD1FFF70DFE010019D1FF2D02D0012018
:100FE000FFF748FE2020FFF79DFC3020FFF7A4FC10
:100FF0002000FFF725FF010009D121002800FFF79D
:1010000095FF010003D100F049FD62B6002032BD1A
:10101000881500606C1500600090D0030048E8015E
:101020000024F40000127A0000093D0080841E00B4
:1010300040420F00B00300201B09041000100040C4
:10104000030A041000500040045000400000041047
:1010500008ED00E00400002000B500F0A3FC401EF5
:101060001049086000201049086007200F490860F7
:1010700000BD80B5FA218900FFF7EEFF01BD81B008
:101080000A490A680092009A0022D243904202D094
:10109000401C002804D00A68D203FCD5401EF8E7A3
:1010A00001B0704714E000E018E000E010E000E05C
:1010B0000B4906E00B490A6882430A60091D04E0F7
:1010C00009490A6882430A60091F0A6810430860D8
:1010D000704706490A6882430A60091DF5E7000067
:1010E00024005048200050482C0050482800504808
:1010F000F8B50120FFF7DEFF0220FFF7DBFF042039
:10110000FFF7D8FF0820FFF7D5FF1020FFF7D2FF29
:101110002020FFF7CFFF4020FFF7CAFF8020FFF716
:10112000C9FF80204000FFF7C5FF80208000FFF747
:10113000BFFF8027FF003800FFF7BCFF7C002000C6
:10114000FFF7B8FF6000FFF7B5FFA000FFF7B2FFA1
:10115000E5002800FFF7AEFF26013000FFF7AAFFE9
:101160000120FFF7B6FF0220FFF7B3FF0420FFF7CF
:10117000B0FF0820FFF7ADFF1020FFF7AAFF2020E7
:10118000FFF7A7FF4020FFF7A4FF8020FFF7A1FF94
:10119000E008FFF795FFA008FFF792FF3800FFF780
:1011A00098FF2000FFF795FF2800FFF792FF30001F
:1011B000FFF78FFFF1BDF1B401684218416848089C
:1011C000131800988068C9071ED5494640181BE0CF
:1011D0001778521C0770401C761EF9D1002C13D0D2
:1011E0001678521C89080D40032D01D11578521C28
:1011F000290271184D424119A41C05D00D78491CD3
:101200000570401C641EF9D19A420FD01178521C0F
:10121000032503260E4002D11678F61C521C0C0939
:101220000F2CD9D114780F34521CD5E700980C300C
:10123000F2BC7047010005D40121C006C00E8140F8
:10124000904801607047F0B5020013D418228E4B0D
:101250008408A4001C59FF25C6001640B540AC43C5
:101260008907090EC5002A4091402143800880006B
:101270001950F0BD0F25854B18242A40083A9208D2
:1012800092000540083DAD08AD005D59FF26C7003E
:101290002740BE40B5438907090EC0000440A14065
:1012A00029439950F0BD81B0C04901E081B078492F
:1012B0000A6802430A60096808400090009801B07B
:1012C0007047BB4908E0BB490A6882430A60091DB0
:1012D00006E0B8490FE0B8490A6882430A60091F6E
:1012E0000A68104308607047B4490A6882430A607C
:1012F000091DF5E7B1490A6882430A60091D0A68B9
:1013000082430A60704730B503680C004C436500A7
:101310002C19A3430C004C4354431C43046030BDC0
:1013200043688B43514319434160704730B583682C
:101330000C004C4365002C19A3430C004C43544350
:101340001C43846030BD80B5030008009021C905AE
:101350008B420ED1002A03D0022A07D003D301BD4D
:10136000FFF7B7FF01BDFFF7ACFF01BDFFF7ABFF14
:1013700001BD002A03D0022A07D003D301BDFFF725
:10138000B9FF01BDFFF7A7FF01BDFFF7ADFF01BD2D
:1013900030B5446A0B0A0D0A6B436B436B431D0166
:1013A000EB1A9C430B0A0D0A6B436B43090A4B4330
:1013B00053432343436230BD016801220A43026064
:1013C00070470168802292050A4302607047826874
:1013D000D200D208490711438160704782688D4B63
:1013E0001340490619438160704702680C239A43F1
:1013F00011430160704730B50468874D25402A438A
:10140000114301604168854A0A401343436030BD7F
:101410008268834B134019438160704730B50400E4
:101420001D0080200002824214D17E487E4A0904B9
:10143000C90B515A00F0B6FA40006908401829005B
:1014400000F0B0FA80B2794901400007400F014333
:10145000E16030BD7348744A0904C90B515A00F069
:10146000A1FA69084018290000F09CFA80B2E060F7
:1014700030BD41686E4A0A40426081682A22914329
:101480008160704700E100E000E400E01CED00E056
:1014900058004048C0698106C80F7047C0690106FE
:1014A000C80F7047016820220A4302607047406AF3
:1014B000C0B270478162704770B506000420FFF724
:1014C000F2FE9024E4058025AD00022229002000D0
:1014D000FFF719FF022229002000FFF727FF002253
:1014E00029002000FFF71CFF012229002000FFF740
:1014F0002AFF002229002000FFF74AFF0420FFF7FF
:10150000D2FE6D08022229002000FFF7FCFE022215
:1015100029002000FFF70AFF002229002000FFF722
:10152000FFFE012229002000FFF70DFF0022290005
:101530002000FFF72DFFA800FFF7B8FE3D4CE12388
:101540005B02002200212000FFF768FF0023002239
:1015500000212000FFF74FFF0C212000FFF745FF7F
:1015600000212000FFF754FF00212000FFF736FF85
:1015700000212000FFF72BFF2000FFF722FF2000B3
:10158000FFF777FF2000FFF717FF30000BD02A4846
:1015900006602000FFF786FF01210820FFF753FEB9
:1015A0000820FFF747FE70BD0000000050004048D3
:1015B00024005048200050482C0050482800504833
:1015C000F8B507000E0000240BE01A4D2800FFF7C5
:1015D00065FF0028F9D0E0B2395C2800FFF76AFF08
:1015E000641CE0B2B042F0D3F1BD38B5124C2068B3
:1015F00000280ED00F4D2800FFF74CFF012808D11E
:101600002800FFF754FF69460870012168462268E8
:10161000904731BDFFFFFFF1FFE9FFEFFFCFFFFF75
:10162000FFFCFFFF0024F400BC240410F0FF0000C6
:10163000FFB7FFFF004000418400002070B5002587
:10164000012804D0022802D00020C04370BD002928
:1016500001D1002070BD0C00160005E00121200022
:10166000FFF7AEFF641C6D1C3000461E0028F5D14C
:10167000280070BD01B5012269460120FFF7DEFF99
:10168000009802BD0EB4C0B5020003A8019000206E
:10169000009001AB0121044878440C3000F06AFA54
:1016A000029906B0084700BF450E000010B50400BF
:1016B000080011000200200000F00AFD200010BD0B
:1016C000644908E064490A6882430A60091D06E02B
:1016D00061490FE061490A6882430A60091F0A688C
:1016E0001043086070475E490A6882430A60091D1A
:1016F000F5E75B490A6882430A60091D0A6882436C
:101700000A60704730B503680C004C4365002C1923
:10171000A3430C004C4354431C43046030BD436856
:101720008B43514319434160704730B583680C00C7
:101730004C4365002C19A3430C004C4354431C43F9
:10174000846030BD80B5030008009021C9058B423C
:101750000ED1002A03D0022A07D003D301BDFFF720
:10176000B7FF01BDFFF7ACFF01BDFFF7ABFF01BD48
:10177000002A03D0022A07D003D301BDFFF7B9FF27
:1017800001BDFFF7A7FF01BDFFF7ADFF01BD30B5FC
:10179000036A0C004C434C434C4325012C1BA343D0
:1017A0000C004C434C434C4354431C43046230BD37
:1017B00030B5446A0B0A0D0A6B436B436B431D0142
:1017C000EB1A9C430B0A0D0A6B436B43090A4B430C
:1017D00053432343436230BDF8B5002607000C0095
:1017E00028E029003800FFF7E3FF0EE0206801251C
:1017F000B54005401DD06068022806D1FF2D626902
:10180000EFD829003800FFF7C2FF626829003800CE
:10181000FFF778FF6068012801D0022804D1A26890
:1018200029003800FFF781FF226929003800FFF7FF
:1018300089FF761C2068F040D8D138006168012902
:1018400001D0022903D1E2682168FFF768FF002078
:10185000F2BD000024005048200050482C005048A1
:101860002800504800684106C80F704789B20161DE
:10187000704770B505000C000126FFF7F3FF002844
:1018800025D1286815490140206808436168014353
:10189000E06808432169014360690843A169014385
:1018A000E0690843216A0143296068680C490140E6
:1018B000A06808436169090C01436960206A7103EB
:1018C000884203D1616A2800FFF7D0FF0026E8694B
:1018D00004490140E961300070BD00004000FFFF95
:1018E000FBF0FFFFFFF7FFFF1B490A68104308608A
:1018F000704719490A6882430A607047002801D17D
:10190000164821E01548026811430160704703281A
:1019100003D1134802680A4308E001280BD00228CB
:1019200001D0042805D10E4802688A430260001DD8
:101930000AE0052807D10A4802688A430260001DB0
:10194000026811430160704702688A430260704771
:101950000449086070470000180000400C00004077
:10196000100000401C00004010B504002079002841
:10197000206812D0002812D001466079FFF7BEFF20
:10198000A079002802D02168FFF7C1FF2068FFF787
:10199000ABFF2068FFF7DCFF01E0FFF7AAFF0020A4
:1019A00010BD4300094214D088420FD30122030C1A
:1019B00001D100041204002300185B418B4200D3C4
:1019C0005B1A5241F8D31900100070470100002043
:1019D000704708B500F0A4FB08BD7047F0B50200E1
:1019E00013D41822254B8408A4001C59FF25C600D7
:1019F0001640B540AC438907090EC5002A40914006
:101A00002143800880001950F0BD0F251C4B18247D
:101A10002A40083A920892000540083DAD08AD0002
:101A20005D59FF26C7002740BE40B5438907090E10
:101A3000C0000440A14029439950F0BDBFF34F8F2F
:101A4000104811490860BFF34F8F00BFFDE780B514
:101A50000E48006800280ED10D480068002803D108
:101A60000C480068002806D001200B49886000F06F
:101A700058FBFFF7E3FF012002BD000000E400E097
:101A80001CED00E00400FA050CED00E09400404875
:101A900010005048380050480400002080B5032151
:101AA0000020FFF79BFF03210120FFF797FF032191
:101AB0000220FFF793FF03210320FFF78FFF03218D
:101AC0000420FFF78BFF03210520FFF787FF032189
:101AD0000620FFF783FF03210720FFF77FFF032185
:101AE0000820FFF77BFF03210920FFF777FF032181
:101AF0000A20FFF773FF03210B20FFF76FFF03217D
:101B00000C20FFF76BFF03210D20FFF767FF032178
:101B10000E20FFF763FF03210F20FFF75FFF032174
:101B20001020FFF75BFF03211120FFF757FF002173
:101B30001220FFF753FF03211320FFF74FFF03216C
:101B40001420FFF74BFF03211520FFF747FF032168
:101B50001620FFF743FF01211720FFF73FFF002169
:101B60001820FFF73BFF03211920FFF737FF01BDC6
:101B700070477047F0B597B0050016001F001C981D
:101B80006A460023002418C2059104A92B22885418
:101B90000B9303950F960EE023000F9A04A9039868
:101BA00000F07AFA002800D5D8E001E0F4D501244D
:101BB0000F9800190F900F980078252809D1002060
:101BC000089009900A9002240821029104210F9D97
:101BD0000CE06A460021C9430F9800F0D1FA0400D6
:101BE000E4D10B98BCE00200012010436D1C2A7860
:101BF000202AF8D0232A0AD02B2A04D02D2A04D058
:101C0000302A07D009E02043F0E70843EEE702005E
:101C10000820EAE702001020E7E72A2A0CD13B68F7
:101C20001A681B1D3B600D92002A03D553420D9389
:101C3000014308006D1C14E000210D91004A0BE0E7
:101C4000CBCCCC0C0D9B934205DA9E00F3185B00C5
:101C5000591830390D916D1C29780B00303B0A2B37
:101C6000F0D329782E2903D00021C9430C9125E017
:101C70006D1C29782A2906D139680A68091D39603E
:101C80000C926D1C1AE02D2902D12D236D1C00E051
:101C9000002300210C910CE0002B09D10C9AB84EC6
:101CA000B24205DA9600B2185200511830390C9140
:101CB0006D1C29780A00303A0A2AEDD304A9088558
:101CC0002E783100AFA000F063FA002801D06D1C1F
:101CD00000E0002604A82A214654405C682807D169
:101CE0002878682804D1622004A92A2288546D1C0F
:101CF00011A807902A78681C0F90252A13D0582A1B
:101D00004FD0632A00D1B1E0642A79D0692A77D014
:101D10006F2A46D0702A3BD0732A0AD0752A40D049
:101D2000782A3ED0ABE001200890252011A9087048
:101D3000AFE038680468001D38600694002C14D1A8
:101D400004A82B21405C00280CD00024E44300BFF1
:101D50008EA000F027FA201A00D19AE00020C0439C
:101D600017B0F0BD90A0069093E00C9D002D03D518
:101D7000200000F03BFA09E02A000021200000F0DA
:101D80003DFA002801D0001B00E02800099080E007
:101D900038680168001D3860049111A80690782108
:101DA00060E004AB2A20185C622803D0682807D0C2
:101DB0006C280BE039680868091D3960C0B209E079
:101DC00039680868091D396080B203E0396808681D
:101DD000091D39600490188D0299C0B208423CD0A8
:101DE0000498002839D020201043782835D108984D
:101DF00011A930230B54401C431C08930A542CE0B7
:101E000004AB2A20185C622803D0682807D06C280D
:101E10000BE039680868091D396040B209E039688B
:101E20000868091D396000B203E039680868091DB7
:101E300039600490002802D508982D2109E0188DFA
:101E4000204202D008982B2103E0C00705D508984E
:101E5000202111AB1954401C089011A80899401872
:101E60000690110004A800F0A0F812E001200890EC
:101E700038680168001D386011A8017009E0012070
:101E80000890252011A90870100002D0089411A80C
:101E900042700D980899401A0A99401A0999401AF7
:101EA000109004A82821405C400713D420206946E4
:101EB0000872109800280DDD109C039D012302AAD2
:101EC00004A9280000F0E8F8002800D046E7641EC6
:101ED000F4D10395089D11AC002D0ED0039E2178FE
:101EE0000598B0470590002800D137E70B98401CB3
:101EF0000B90641C6D1EF2D1039630206946087267
:101F00000A9C002C0CDD039D012302AA04A92800D1
:101F100000F0C2F8002800D020E7641EF4D1039539
:101F2000069C099D002D0ED0039E21780598B04790
:101F30000590002800D111E70B98401C0B90641C01
:101F40006D1EF2D1039604A82821405C400700D4FE
:101F500031E62020694608721098002800DC2AE645
:101F6000109C039D0F9E012302AA04A9280000F0E3
:101F700093F8002800D0F1E6641E00D109E6F2E7EC
:101F8000CBCCCC0C686C747A4C0000007072696E1B
:101F900074665F733A206261642025732061726702
:101FA000756D656E740000000000F0B583B00A0026
:101FB000C4686F2901D1082506E020211143782942
:101FC00001D00A2500E01025182701680E00642AB8
:101FD00001D0692A03D1002901D571420E00002EDB
:101FE0000CD1016A002909D1082D31D12821415C89
:101FF00009072DD517273021E17529E002906846A1
:1020000002707F1E019730002900FFF7CBFC3031B2
:10201000C8B23A2803DB6846007851380918E15500
:1020200030002900FFF7BEFC060004D0029880684B
:10203000E1198842E5D30298082D09D12821415C95
:10204000090705D5E15D302902D07F1E3021E15519
:102050001821C91B4161E2198260026A914206DAC5
:10206000511A8161018D0B4A0A40028510E0002A55
:102070000ED52822825C14231340102B08D1426A0B
:102080000369D21A8369D21A511A012900DB8161CE
:1020900003B0F0BDEFFF0000F8B50024002B11D015
:1020A00007000E0014001D0021787068B8477060AA
:1020B000002809D0F069401CF0610020641C6D1EEE
:1020C000F2D104002000F2BD0020C043F9E77047C0
:1020D0001206130A1A43130C1A4300BF094205D013
:1020E000830705D00270401C491EF9D170470000DB
:1020F0001300103906D330B41400150010393CC059
:10210000FCD230BC490700D30CC000D504C0890004
:1021100002D30280801C002900D5027070477047EE
:102120007047704730B45368D41803E05B1C491EF5
:10213000641C401C042B06DA002904D005782570A5
:102140000578002DF2D1536030BC704738B50029B6
:102150000ED01D001400FFF7E5FF616820006A6BD8
:1021600090470122D243811A02D0491E02D004E0D6
:10217000012000E00020C04332BD0021616032BD7B
:1021800080B5024BFFF7E2FF02BD0000B403002060
:10219000C9B202788A4203D0401C002AF9D100203B
:1021A0007047704780B5002801D100BF07A00649DD
:1021B0000B68002B03D022220021984701E000F099
:1021C00028F8222002BD000090000020636F6E738B
:1021D000747261696E742068616E646C65723A2015
:1021E000626164206D65737361676500431C0178EB
:1021F000401C0942FBD1C01A70477047C9B2521E39
:1022000005D30378401C8B42F9D1401E7047002053
:10221000704780B5012000F001F801BD80B500BF16
:1022200000BF024A11001820ABBEFBE726000200E7
:1022300000688107C80F704700688105C80F7047A4
:1022400000680107C80F704700680105C80F704794
:1022500001214160704780214900416070472D494C
:1022600009680140814201D1012070470020704778
:10227000284908607047FEE727480168491C01604B
:10228000704780B5FFF7B1F901BD80B500F001F8E6
:1022900001BD10B58024E4002000FFF7E0FF002816
:1022A0000FD02000FFF7E4FF1C481B490A680368B1
:1022B000D21AAF235B009A4203D309680160FEF78C
:1022C000E5FA10BD10B5164C2000FFF7B5FF002849
:1022D00005D02000FFF7BFFFFEF7DCFA06E0200084
:1022E000FFF7B2FF002801D0FEF7DEFA2000FFF76B
:1022F0009FFF002805D02000FFF7AAFFFEF7CEFAC7
:1023000010BD2000FFF79CFF002801D0FEF7CCFA9B
:1023100010BD00001C000040880000208C00002040
:10232000000070485761697420666F7220557365AC
:102330007220707573682D627574746F6E202850EA
:102340005553483129207072657373206F72206570
:102350006E746572202763272F27432720636861E7
:102360007261637465722E0A0D00000070B401235F
:10237000002413E00168001D194202D04D466D1E75
:1023800049190C60091D121F042AFAD20D00960784
:1023900001D50C80AD1C1A4000D02C700268001DC5
:1023A000002AE7D170BC7047456E61626C6520748D
:1023B0006865206D617374657220535049312070D7
:1023C00065726970686572616C2E0A0D000000000C
:1023D00010B5074979441831064C7C44163404E0A2
:1023E000081D0A68891888470100A142F8D110BD6C
:1023F0002C00000058000000456E61626C6520747E
:10240000686520736C617665205350493220706591
:10241000726970686572616C2E0A0D0051FFFFFFD2
:102420006800000030000020000000008BEDFFFF7E
:102430005C01000014000000C00000207BEDFFFFE5
:1024400010010000700000005C0300202A2A2054C4
:10245000657374207375636365737366756C6C79EB
:102460002E202A2A200A0D0A0D000000FFF7EFFA9D
:10247000002801D0FFF7ACFF00BF00BF002000BF65
:1024800000BFFDF7A8FF00F000F880B500F002F8EB
:1024900001BD704707463846FFF7C0FEFBE77047AF
:1024A00044617461206172652077656C6C2072658F
:1024B0006365697665642E0A0D0000000100020064
:1024C0000400060008000A000C0010002000400074
:1024D0008000000153504920646174612077696471
:1024E00074682038206269740A0D000038B5050050
:1024F0000C002000FFF7BEF8A04200D00025280005
:1025000032BD704750726F63657373696E672045A3
:1025100072726F722E0A0D0000BF00BF00BF00BFB5
:10252000FFF7A4FF0078401E8041C043C00F7047F2
:1025300070477047704770477047704770477047E3
:1025400070477047704770477047704770477047D3
:10255000122A01F01427205350495F495420636F19
:102560006D6D756E69636174696F6E201AF00A1D76
:1025700000000090D003A2190410010001600225A0
:1025800025041033613C025300000000F2FF0001FB
:06259000F1FF01F16A01F8
:0400000510042519A5
:00000001FF
