:020000041004E6
:10000000006000207927041089090410AB24041033
:10001000AA5555AA45554C420000000000000000BA
:100020000000000000000000000000008B09041028
:100030000000000000000000EB0E0410AD240410CE
:100040006B0F0410C30F04102B170410D31B0410E4
:10005000000000000000000000000000F324041075
:10006000F31F04100F200410132704101F2704107F
:100070004F2704109127041093270410C124041063
:1000800095270410FD2404109727041099270410C5
:100090009B2704109D2704109F270410A1270410FC
:1000A000A3270410A5270410A7270410A9270410CC
:1000B0000000000000000000000000000000000040
:1000C0008020C00500680007000F70478020C00531
:1000D00000680006000F70479149D5E0B3480068FA
:1000E0004107C80F7047B2490A68B24B7AE0B0497D
:1000F0000A6830239A43C8E0AD490A680F239A433F
:10010000C3E0AD490A6882430A60091DC1E0AB49FA
:100110000A68AB4B1340C002E022920102401A432E
:100120000A6008688022D20002430A607047A3492F
:100130000A68B84B13408001F022920002401A4333
:100140000A600868202202430A6070477448016808
:10015000984A0A4002607047AF4801688022520204
:100160000A4302607047AC4800688103C80F7047BB
:10017000AA490A68AA4B134000021843086008689D
:10018000802202430A607047A4490A6870239A4398
:100190007BE0A4490A68A44B13400006184308609A
:1001A00008688022120402430A60704781B09A48AE
:1001B00000688003FBD59D48016802220A43026063
:1001C000002102E000BF0099491C00910099062916
:1001D000F8DB016804220A43026001B070479349CA
:1001E0000A68934B13401843086070478A480168B7
:1001F00010220A4302607047874801681022914329
:1002000001607047844800688106C80F70478549BF
:100210000A6860239A4338E07F48016804229143CA
:10022000016070477F490A681E239A4340001043CB
:1002300008600868012202430A6070477D490A6825
:1002400004239A4321E079490A687B4BCAE7724844
:100250000168802292010A43026070476E4800687C
:100260004104C80F704771490A68E0239A430CE0C3
:1002700081B070490A6802430A600968084000902A
:10028000009801B070476D490A68104308607047D4
:100290006A490A6882430A607047426830239A4379
:1002A00011434160704710B50C00002A0ED0FA21AE
:1002B000890000F087FA401E6043CD4908600020A5
:1002C000CC4908600520CC49086010BDCA480168C7
:1002D00001229143016010BDC74800688021490296
:1002E000084000D00120C0B2704770B50E00150064
:1002F000012401220100C1480068FFF7D4FFB04784
:10030000A84204D0FFF7E8FF0028F8D0002400221C
:1003100000210020FFF7C7FF200070BD0000000093
:100320000400504870B50122B549C820FFF7DDFF31
:10033000002801D1012070BD2020FFF7D8FE8020C9
:100340004001FFF780FFAF480068AF4988420DD1F8
:100350000F26AE4804683440016849064D0F016815
:10036000090B0E4000688002800E03E00A241F2063
:1003700008260325FFF70DFF3000FFF753FF20008D
:10038000FFF7D5FE2800FFF7C2FE80204000FFF7F0
:10039000AAFEFFF79BFE0401FFF792FE2043102800
:1003A00002D10020FFF7A8FE002070BD14005048C5
:1003B0001C005048FFFEFFFF2800504894005048A2
:1003C000FFC7FFFF70B50024C0208001FFF799FE32
:1003D00080200002FFF703FF6020FFF718FFFFF700
:1003E0001BFFFFF709FF96267600BA4D0022290071
:1003F0003000FFF77AFF002800D10224FFF7F6FE55
:10040000012229003000FFF770FF002800D10224EC
:10041000200070BD3FFCFFFF0000404898004048AE
:10042000FFC0FFFF0C004048FFFFFFC0080040482E
:10043000FF7FFEFF60004048FFEFFFFF40004048A5
:10044000F8B500280ED02020FFF70DFF0020FFF7A1
:10045000F5FE0120FFF717FF0120FFF719FF01202C
:10046000FFF706FF674800686749884213D19A483A
:1004700005680468036802680068400D382101407F
:100480005002420F0F201B0C0340260AF024344078
:100490002D0A284004E00820702408230322182194
:1004A0000F25ED438D4E37682F403B4333608C4B17
:1004B0001E68F027BE4334431C601C682540284357
:1004C0001860884803680724A3431A43026002683F
:1004D00038239A43114301603F20C04382490A6890
:1004E00002400A2313430B600A68402313430B6046
:1004F000091D0A680240042313430B600A68802325
:1005000013430B600A6840239A430A6024310A6847
:1005100002400A60091D0A680240102313430B6061
:10052000091D0A680240202313430B60091D0A6855
:100530000240302313430B60091D0A680240382330
:1005400013430B60091D0A680240392313430B60F3
:10055000091D0A6802403A2313430B60091D0A680B
:1005600002403B2313430B60091D0A6802403C23F1
:1005700013430B60091D0A6810403D2202430A60C4
:100580005521FF20C0437E4A136803400B4313608C
:100590000C321368034066241C4314601432136841
:1005A00003401943116077490A6802401D23134331
:1005B0000B60091F0A680240592313430B6008317E
:1005C0000A680240322313430B6020390A68012372
:1005D00013430B606C490A6802401F2313430B60EE
:1005E000091D0A681040092202430A60F1BD00009B
:1005F00014E000E018E000E010E000E03800002027
:10060000DD000410F81E0010CCECBCFCE41E001051
:1006100010B50400FFF7A0FD012264496420FFF734
:1006200064FE002801D1042010BD20003ED0641ECD
:10063000062C3AD801A0005D874400BF08323C4632
:10064000505A640010215A48FFF727FE0020FFF798
:100650000AFE4E48544C2060FFF7F9FD012255492F
:10066000C820FFF742FE002829D1052010BD202018
:10067000FFF7F9FD4648EDE74020FFF7F4FD454858
:10068000E8E76020FFF7EFFD4348E3E78020FFF74E
:10069000EAFD4248DEE7A020FFF7E5FD4048D9E744
:1006A000C020FFF7E0FD3F48D4E7FEE72020FFF73A
:1006B000DAFDFFF77BFD36483B49086003E0206820
:1006C0003249884203D000213948FFF7E6FD002077
:1006D00010BD000005020410E81E0010781600602E
:1006E0007416006048160060C016006080B5FF28D0
:1006F00014D0042909D0052907D0062905D00729D7
:1007000003D0032903D1002805D1012002BD01280F
:1007100001D0002000E00420FFF790FD002002BD82
:1007200038B504000D0024482449086024490861B4
:100730002020FFF7D1FCFFF709FDFFF7F3FD0100D3
:100740001DD1FFF73FFE010019D1FF2D02D001207E
:10075000FFF776FE2020FFF70BFD3020FFF714FD9A
:100760002000FFF755FF010009D121002800FFF705
:10077000BDFF010003D100F0A1F862B6002032BD38
:100780004815006088150060401700600090D00395
:100790000048E8010024F40000127A0000093D003E
:1007A00080841E0040420F003800002067010410C2
:1007B000001000405D0204100000041008ED00E08D
:1007C00004000020094214D088420FD30122030CF8
:1007D00001D100041204002300185B418B4200D3B6
:1007E0005B1A5241F8D31900100070470100002035
:1007F000704708B500F0CAF808BD4300F0B5020024
:1008000013D41822254B8408A4001C59FF25C600C8
:100810001640B540AC438907090EC5002A409140F7
:100820002143800880001950F0BD0F251C4B18246F
:100830002A40083A920892000540083DAD08AD00F4
:100840005D59FF26C7002740BE40B5438907090E02
:10085000C0000440A14029439950F0BDBFF34F8F21
:10086000104811490860BFF34F8F00BFFDE780B506
:100870000E48006800280ED10D480068002803D1FA
:100880000C480068002806D001200B49886000F061
:100890007EF8FFF7E3FF012002BD000000E400E066
:1008A0001CED00E00400FA050CED00E09400404867
:1008B00010005048380050480400002080B5032143
:1008C0000020FFF79BFF03210120FFF797FF032183
:1008D0000220FFF793FF03210320FFF78FFF03217F
:1008E0000720FFF78BFF03210820FFF787FF032175
:1008F0000920FFF783FF03210A20FFF77FFF032171
:100900000B20FFF77BFF03210C20FFF777FF03216C
:100910000D20FFF773FF03210E20FFF76FFF032168
:100920000F20FFF76BFF03211020FFF767FF032164
:100930001120FFF763FF00211220FFF75FFF032163
:100940001320FFF75BFF03211420FFF757FF03215C
:100950001520FFF753FF03211620FFF74FFF01215A
:100960001720FFF74BFF00211820FFF747FF032157
:100970001920FFF743FF03211A20FFF73FFF032150
:100980001B20FFF73BFF01BD704770477047704762
:10099000F0B597B0050016001F001C986A460023AA
:1009A000002418C2059104A92B2288540B930395A7
:1009B0000F960EE023000F9A04A9039800F07AFA2C
:1009C000002800D5D8E001E0F4D501240F980019E3
:1009D0000F900F980078252809D1002008900990E1
:1009E0000A9002240821029104210F9D0CE06A461E
:1009F0000021C9430F9800F0A7FA0400E4D10B9836
:100A0000BCE00200012010436D1C2A78202AF8D097
:100A1000232A0AD02B2A04D02D2A04D0302A07D02A
:100A200009E02043F0E70843EEE702000820EAE788
:100A300002001020E7E72A2A0CD13B681A681B1D28
:100A40003B600D92002A03D553420D9301430800E9
:100A50006D1C14E000210D91004A0BE0CBCCCC0CB6
:100A60000D9B934205DA9E00F3185B00591830394C
:100A70000D916D1C29780B00303B0A2BF0D329789F
:100A80002E2903D00021C9430C9125E06D1C297843
:100A90002A2906D139680A68091D39600C926D1C33
:100AA0001AE02D2902D12D236D1C00E00023002126
:100AB0000C910CE0002B09D10C9AB84EB24205DA29
:100AC0009600B2185200511830390C916D1C2978DB
:100AD0000A00303A0A2AEDD304A908852E7831009D
:100AE000AFA000F039FA002801D06D1C00E000260C
:100AF00004A82A214654405C682807D12878682831
:100B000004D1622004A92A2288546D1C11A80790E0
:100B10002A78681C0F90252A13D0582A4FD0632AB0
:100B200000D1B1E0642A79D0692A77D06F2A46D003
:100B3000702A3BD0732A0AD0752A40D0782A3ED03A
:100B4000ABE001200890252011A90870AFE03868BB
:100B50000468001D38600694002C14D104A82B21D1
:100B6000405C00280CD00024E44300BF8EA000F0BD
:100B7000FDF9201A00D19AE00020C04317B0F0BD63
:100B800090A0069093E00C9D002D03D5200000F06E
:100B900011FA09E02A000021200000F013FA0028D1
:100BA00001D0001B00E02800099080E0386801684F
:100BB000001D3860049111A80690782160E004AB14
:100BC0002A20185C622803D0682807D06C280BE024
:100BD00039680868091D3960C0B209E039680868D9
:100BE000091D396080B203E039680868091D396061
:100BF0000490188D0299C0B208423CD00498002895
:100C000039D020201043782835D1089811A93023F5
:100C10000B54401C431C08930A542CE004AB2A20BC
:100C2000185C622803D0682807D06C280BE039686C
:100C30000868091D396040B209E039680868091D73
:100C4000396000B203E039680868091D3960049012
:100C5000002802D508982D2109E0188D204202D0E5
:100C600008982B2103E0C00705D50898202111AB77
:100C70001954401C089011A80899401806901100BA
:100C800004A800F0A0F812E001200890386801687C
:100C9000001D386011A8017009E00120089025208E
:100CA00011A90870100002D0089411A842700D9884
:100CB0000899401A0A99401A0999401A109004A8F4
:100CC0002821405C400713D4202069460872109800
:100CD00000280DDD109C039D012302AA04A9280011
:100CE00000F0E8F8002800D046E7641EF4D1039530
:100CF000089D11AC002D0ED0039E21780598B047B9
:100D00000590002800D137E70B98401C0B90641C1D
:100D10006D1EF2D103963020694608720A9C002CA1
:100D20000CDD039D012302AA04A9280000F0C2F8EB
:100D3000002800D020E7641EF4D10395069C099D8D
:100D4000002D0ED0039E21780598B047059000280D
:100D500000D111E70B98401C0B90641C6D1EF2D162
:100D6000039604A82821405C400700D431E62020E7
:100D7000694608721098002800DC2AE6109C039D42
:100D80000F9E012302AA04A9280000F093F800286E
:100D900000D0F1E6641E00D109E6F2E7CBCCCC0C22
:100DA000686C747A4C0000007072696E74665F73D0
:100DB0003A2062616420257320617267756D656EEB
:100DC000740000000000F0B583B00A00C4686F2909
:100DD00001D1082506E020211143782901D00A25F8
:100DE00000E01025182701680E00642A01D0692A46
:100DF00003D1002901D571420E00002E0CD1016AE9
:100E0000002909D1082D31D12821415C09072DD5B0
:100E100017273021E17529E00290684602707F1E95
:100E2000019730002900FFF7CDFC3031C8B23A28D5
:100E300003DB6846007851380918E1553000290075
:100E4000FFF7C0FC060004D002988068E1198842D0
:100E5000E5D30298082D09D12821415C090705D561
:100E6000E15D302902D07F1E3021E1551821C91BD8
:100E70004161E2198260026A914206DA511A816187
:100E8000018D0B4A0A40028510E0002A0ED5282267
:100E9000825C14231340102B08D1426A0369D21AD2
:100EA0008369D21A511A012900DB816103B0F0BDB8
:100EB000EFFF0000F8B50024002B11D007000E0052
:100EC00014001D0021787068B8477060002809D0B0
:100ED000F069401CF0610020641C6D1EF2D104001A
:100EE0002000F2BD0020C043F9E7704730B45368DA
:100EF000D41803E05B1C491E641C401C042B06DA5A
:100F0000002904D0057825700578002DF2D15360B2
:100F100030BC704738B500290ED01D001400FFF713
:100F2000E5FF616820006A6B90470122D243811A75
:100F300002D0491E02D004E0012000E00020C0439E
:100F400032BD0021616032BD80B5024BFFF7E2FF88
:100F500002BD00003C000020C9B202788A4203D0E2
:100F6000401C002AF9D100207047704780B5002846
:100F700001D100BF07A006490B68002B03D0222235
:100F80000021984701E000F028F8222002BD00006F
:100F9000A0060020636F6E73747261696E742068BE
:100FA000616E646C65723A20626164206D65737372
:100FB00061676500431C0178401C0942FBD1C01ADF
:100FC00070477047C9B2521E05D30378401C8B424C
:100FD000F9D1401E70470020704780B5012000F015
:100FE00001F801BD80B500BF00BF024A1100182002
:100FF000ABBEFBE726000200010005D40121C006BC
:10100000C00E81408F4801607047F0B5020013D4D4
:1010100018228D4B8408A4001C59FF25C6001640D9
:10102000B540AC438907090EC5002A4091402143D1
:10103000800880001950F0BD0F25844B18242A40E9
:10104000083A920892000540083DAD08AD005D5990
:10105000FF26C7002740BE40B5438907090EC000E0
:101060000440A14029439950F0BDBA4908E0BA496B
:101070000A6882430A60091D06E0B7490FE0B749D4
:101080000A6882430A60091F0A68104308607047B3
:10109000B3490A6882430A60091DF5E7B0490A6846
:1010A00082430A60091D0A6882430A60704781B062
:1010B000AC4901E081B0AC490A6802430A600968A2
:1010C00008400090009801B0704730B503680C00EC
:1010D0004C4365002C19A3430C004C4354431C4360
:1010E000046030BD43688B435143194341607047EE
:1010F00030B583680C004C4365002C19A3430C00E9
:101100004C4354431C43846030BD80B50300080049
:101110009021C9058B420ED1002A03D0022A07D0A4
:1011200003D301BDFFF7A9FF01BDFFF79EFF01BD7E
:10113000FFF79DFF01BD002A03D0022A07D003D389
:1011400001BDFFF7ABFF01BDFFF799FF01BDFFF741
:101150009FFF01BD30B5036A0C004C434C434C4328
:1011600025012C1BA3430C004C434C434C435443DC
:101170001C43046230BD016801220A4302607047CB
:101180000168802292050A43026070478268D2009B
:10119000D208490711438160704782687E4B134033
:1011A000490619438160704702680C239A43114332
:1011B0000160704730B50468784D25402A431143DB
:1011C00001604168764A0A401343436030BD82683B
:1011D000744B134019438160704730B504001D0003
:1011E00080200002824214D16F48704A0904C90B62
:1011F000515AFFF7E7FA4000690840182900FFF745
:10120000E1FA80B26A4901400007400F0143E16002
:1012100030BD6548654A0904C90B515AFFF7D2FA37
:10122000690840182900FFF7CDFA80B2E06030BDB0
:101230004168604A0A40426081682A229143816085
:101240007047000000E100E000E400E01CED00E079
:10125000C0690106C80F7047016820220A43026076
:1012600070478162704738B505000420FFF71FFF03
:101270009024E405022202212000FFF726FF02222B
:1012800002212000FFF734FF002202212000FFF797
:1012900029FF012202212000FFF737FF022202214D
:1012A0002000FFF757FF0820FFF701FF424C022202
:1012B00001212000FFF709FF022201212000FFF792
:1012C00017FF002201212000FFF70CFF012201215E
:1012D0002000FFF71AFF002201212000FFF73AFF4C
:1012E0008020C000FFF7E6FE344CE1235B020022C1
:1012F00000212000FFF771FF0023002200212000C1
:10130000FFF758FF0C212000FFF74EFF00212000BF
:10131000FFF75DFF00212000FFF73FFF00212000C5
:10132000FFF734FF2000FFF72BFF2000FFF780FFBF
:101330002000FFF720FF28000BD021480560200087
:10134000FFF78AFF01210820FFF75FFE0820FFF763
:1013500053FE31BD24005048200050482C00504816
:10136000280050485000404858004048F8B5070051
:101370000E0000240BE0114D2800FFF769FF002844
:10138000F9D0E0B2395C2800FFF76BFF641CE0B2D3
:10139000B042F0D3F1BD0000FFFFFFF1FFE9FFEF26
:1013A000FFCFFFFFFFFCFFFF0024F4002027041005
:1013B000F0FF0000FFB7FFFF0000104800400041B1
:1013C0009006002070B50025012804D0022802D024
:1013D0000020C04370BD002901D1002070BD0C0069
:1013E000160005E001212000FFF7C0FF641C6D1C02
:1013F0003000461E0028F5D1280070BD01B501223D
:1014000069460120FFF7DEFF009802BDFEB504002B
:10141000022000900027019710250026002C50D0B4
:101420003520205C002804D134216754200000F0CE
:101430008FF902203522A0542168C969374A0A4031
:101440002168CA61216808626069022831D0E068B9
:10145000002800D02025A068212800D26D00206837
:101460002F49884203D1082000F0D9F906002069ED
:1014700080218900884208D1E068002802D030002D
:10148000A90004E03000E90001E030002900FFF786
:1014900099F90A2148436169FFF794F9401D0A212F
:1014A000FFF790F9C107C90F401A400800900802E1
:1014B00001900098801EFE2805D3A06B10210143E7
:1014C000A1630120FEBD00980199014320690843F2
:1014D000216808622068C0691049014060680843BB
:1014E000A1680143E0680843A1690143802000012D
:1014F00008432168C861A068302801D0B02806D10F
:101500002068C0698021490101432068C161A76347
:101510000120352160540020FEBD000040F0FFFF97
:1015200000700041F8B50400002500273520205C3C
:10153000012801D0022753E0002901D0100001D179
:101540000120F2BD3420205C012801D10220F2BD2F
:1015500001263423E65404203523E054A563616258
:101560002068C0694007400F032801D0052803D137
:1015700050002085608501E0228562851B48216B33
:1015800008631B48216BC8621748216B4863C02061
:1015900080002168C9690140814207D10095206817
:1015A000C06800902068806800900098238D626A6F
:1015B00021680C31206B00F0DFF9B0022168C969A5
:1015C000014004D12168C96908432168C8612068C5
:1015D0004068304004D12068406806432068466077
:1015E000342025543800F2BD991604108F160410CB
:1015F0006716041010B50168896841220A40012A63
:1016000006D102685268520602D500F074F810BD87
:101610000222114206D003685B681B0602D500F067
:1016200050F810BD03685B689B061BD54B0608D5B8
:1016300003685B686024A34304686360836B1A4398
:101640008263090709D501684968A02291430268AD
:101650005160816B04220A43826301213522815447
:1016600000F044FA10BD80B50100886AC9690029FC
:101670000AD1016849680122914302685160002142
:10168000418501213522815400F031FA01BD80B538
:10169000806A00F02DFA01BD80B5806A0168496852
:1016A0000322914302685160002141844185012158
:1016B00035228154816B08220A43826300F016FAB6
:1016C00001BDC1698A1CC26109880268D160418C70
:1016D000491E4184418C002900D0704780B50168C3
:1016E0004968A0229143026851600121352281544A
:1016F00000F0FFF901BD416A8A1C42620268D268AB
:101700000A80418D491E4185418D002900D07047D6
:1017100080B50168496860229143026851600121E7
:101720003522815400F0E3F901BD704781B02E49A4
:101730000A6802430A60096808400090009801B0F6
:10174000704780B501210020C04300F024FA01BD9C
:10175000F0B585B00700082000900224019402949F
:101760000394042004906946204800F055FA0325AC
:101770000495E601009669469020C00500F04CFAF9
:1017800004952002009069469020C00500F044FABC
:101790000120FFF7CBFF38681549884222D1154D4B
:1017A0006C600020A860E860802028616E61C00045
:1017B000A8612020E861000228620F482860280004
:1017C00000F0A1F83D63AF62280000F05BF800284C
:1017D00001D000F00DFC0021112000F0DCF91120F7
:1017E00000F0DDF905B0F0BD5000404800001048A1
:1017F000007000413C060020080070481B4800684B
:101800000421084070471A480068802149010840B7
:10181000704717480168C02000040840704738B579
:1018200004000025012C06D1FFF7E8FF002819D09D
:10183000042815D00EE0022C0CD1FFF7E4FF00289D
:1018400004D080214901884202D003E0094D0AE01A
:10185000094D08E0082C06D1FFF7DBFF002801D175
:10186000064D00E0064D280032BD000060004048F3
:101870000800404800127A0000093D000024F400EE
:101880000048E80110B5040001D1012010BD206816
:10189000364940181421FEF795FF800060643448F3
:1018A00020640220252160542068006831490140ED
:1018B000A0680843E1680143206908436169014366
:1018C000A0690843E1690143206A08432168086070
:1018D0009120C005616C890889004018A064A06847
:1018E0008021C901884201D1002060602079C006B2
:1018F000C00EA16C08600020E06301212522A154E4
:101900002421605410BD10B5040001D1012010BD88
:101910002068006801218843216808602068134915
:1019200040181421FEF74EFF8000606410482064C8
:1019300000202168086001214422A25C3C2313405E
:101940009940226C51609121C905626C9208920005
:101950008918A164A16C0860E06220636063A063E1
:10196000E0632522A0542421605410BDF8FF8FB7F6
:10197000000070480F80FFFFF8B50400002000252C
:101980002426A65D012E01D10220F2BD01262427C6
:10199000E6552526A65D012E24D102262527E655EB
:1019A000E063206800680126B043266830602000AC
:1019B00000F085F8206B00282068006801D00E2117
:1019C00006E00421884321680860206800680A2135
:1019D00001432068016020680068012101432068FC
:1019E000016001E0E05502252800F2BD70B5016CF0
:1019F0000968026813683C220424456C3C262E408A
:101A00000425B5400D4014D0234212D00168096866
:101A1000890604D401680968A14303681960416C10
:101A20000A409440016C4C60016B002946D0884705
:101A300070BD0224456C3C262E400225B5400D4069
:101A40001BD0234219D001680968890608D40168AF
:101A500009680A2399430368196001212523C154A9
:101A6000416C0A409440016C4C6000212422815456
:101A7000C16A002922D0884770BD0824456C3C26E5
:101A80002E400825B5400D4018D01C4016D00168E6
:101A900009680E239943036819600121436C1A40B9
:101AA00001239340026C5360C163252281540021BD
:101AB00024228154416B002900D0884770BD70B545
:101AC00001244425455D3C262E40B440056C6C60E5
:101AD000046863608368102B036803D19A60006810
:101AE000C16070BD99600068C26070BD704770478A
:101AF00070477047010005D40121C006C00E814027
:101B00002D4801607047F0B5020013D418222B4B0A
:101B10008408A4001C59FF25C6001640B540AC43FC
:101B20008907090EC5002A409140214380088000A2
:101B30001950F0BD0F25224B18242A40083A92086C
:101B400092000540083DAD08AD005D59FF26C70075
:101B50002740BE40B5438907090EC0000440A1409C
:101B600029439950F0BD80B5411E80225204914214
:101B700001D3012002BD401E12490860032100204C
:101B8000C043FFF7C0FF00200F49086007200F493E
:101B90000860002002BD80B5FFF7B5FF01BD80B52C
:101BA000FFF7A8FF01BD80B5FFF7DDFF02BD80B5DF
:101BB00000F00EF801BD000000E100E000E400E0EC
:101BC0001CED00E014E000E018E000E010E000E0B0
:101BD00070477047874908E087490A6882430A606E
:101BE000091D06E084490FE084490A6882430A60BF
:101BF000091F0A6810430860704781490A688243D8
:101C00000A60091DF5E77E490A6882430A60091DDA
:101C10000A6882430A607047F8B5002507000C0087
:101C200013E0784800682804083108600CE01000D0
:101C3000AE40320402430A609020C0058742F0D1D2
:101C400070480068704805606D1C2068E84000D14D
:101C5000CFE001262068E8403040F5D060680228D7
:101C600001D0122815D1E80880003818036A1C201A
:101C7000E908890079188C460F21AA00024091409A
:101C80008B4319002269AB00184082400A43614629
:101C90000A62396803206A0003239340994362680B
:101CA00002406B009A400A433A606168012905D0FE
:101CB000022903D0112901D0122911D1B9686A0073
:101CC00090408143E06890400843B8607868012103
:101CD000A9408843616809093140A94001437960FE
:101CE0009020C0058742A06811D1002803D00228A7
:101CF00009D004D31CE02068FFF774FF18E02068C7
:101D0000FFF768FF14E02068FFF766FF10E0002887
:101D100003D0022809D004D30AE02068FFF773FF3C
:101D200006E02068FFF760FF02E02068FFF765FF2C
:101D30006068C00088D5002034490B689022D20525
:101D40009742324608D1AA4093439C4662681209E2
:101D50008B0C1A40AA4009E0AA40120493439C4607
:101D6000626813098A0C1340AB401A0463461A4395
:101D70000A606168C90324D4254909689022D20504
:101D80009742324601D1AA4001E0AA401204914391
:101D9000C022920363681340934210D101201D4A70
:101DA00011609022D205974204D10A000121A94076
:101DB000114304E00122AA4012040A431100144A0C
:101DC000116014490A68002812D19020C00587428A
:101DD000334601D1AB4001E0AB401B049A4363683A
:101DE000DB0205D5874200D021E7AE401643320022
:101DF00021E7F1BD24005048200050482C005048F5
:101E000028005048180000401C0000400C00004012
:101E1000100000401400004063490A68634B1340FF
:101E200018430860704781B0614901E081B06149A1
:101E30000A6802430A60096808400090009801B0EF
:101E4000704781B05C49F3E710B5FF210220FEF72F
:101E500067FC002801D000F0CBF800F0CBF800F0D0
:101E6000F7F80020FFF7FFF9012000F0A7F900F0D4
:101E700048F800F01EF8514800F026FA00F07CF80F
:101E80004F4C2068C0698021C90001432068C161AE
:101E90004C4800F019FAA02252004B492000FFF7ED
:101EA00041FB002804D0494800F00EFA00F0A0F8E9
:101EB000FEE710B5424C2068C069454901402068E2
:101EC000C16144482060FA20C00160610020A06127
:101ED000E0602061C02189006160A0608020C001B5
:101EE000FFF7AFFF8020C003FFF796FF2000FFF74A
:101EF0008DFA002804D0384800F0E6F900F078F8B0
:101F000010BD38B588B00420FFF78DFF8020400059
:101F1000FFF78CFF0024049405948025ED000395C1
:101F200003A99020C005FFF777FE009501200290DD
:101F300001942A4C6946200000F024FA284A002126
:101F4000200000F035FA0121200000F039FA2000CD
:101F500000F05BFA01210F20FFF71DFE0F20FFF7B5
:101F60001EFE01210020C043FFF715FE09B030BD61
:101F700001201C490870704710B51B4800F0A4F9F7
:101F8000184C05E0012000F081F9C82000F042FA69
:101F900020780028F6D0012000F068F9134800F0FE
:101FA00093F90020207010BD08004048FFFF3FFF5C
:101FB0005000404854004048580040485027041002
:101FC0008400002084250410BC030020382604105F
:101FD000FFFBFFFF0070004164260410880600200C
:101FE000711F0410A4060020442504106427041067
:101FF000FEE7704710B50024032000F01FFA002808
:1020000001D0012401E0FFF79CFB200010BD7047C8
:102010000B4906E00B490A6882430A60091D04E087
:1020200009490A6882430A60091F0A681043086068
:10203000704706490A6882430A60091DF5E70000F7
:1020400024005048200050482C0050482800504898
:1020500080B50120FFF7DCFF0220FFF7D9FF042045
:10206000FFF7D8FF0820FFF7D3FF80204000FFF7DD
:10207000D1FF80208000FFF7CDFF8020C000FFF758
:10208000C9FF80200001FFF7C5FF0120FFF7D1FF46
:102090000220FFF7C5FF0420FFF7C2FF0820FFF76B
:1020A000C8FF1020FFF7BCFF2020FFF7C2FF402031
:1020B000FFF7BFFF8020FFF7B3FF8020C001FFF7CD
:1020C000B8FF80200002FFF7ABFF01BD784908E0B0
:1020D00078490A6882430A60091D06E075490FE0E5
:1020E00075490A6882430A60091F0A68104308603C
:1020F000704772490A6882430A60091DF5E76F4913
:102100000A6882430A60091D0A6882430A607047B0
:1021100081B06B490A6802430A6009680840009070
:10212000009801B0704730B503680C004C4365005F
:102130002C19A3430C004C4354431C43046030BD92
:1021400043688B43514319434160704730B58368FE
:102150000C004C4365002C19A3430C004C43544322
:102160001C43846030BD80B5030008009021C90580
:102170008B420ED1002A03D0022A07D003D301BD1F
:10218000FFF7ACFF01BDFFF7A1FF01BDFFF7A0FF07
:1021900001BD002A03D0022A07D003D301BDFFF7F7
:1021A000AEFF01BDFFF79CFF01BDFFF7A2FF01BD20
:1021B00081617047426951404161704710B501002B
:1021C00019D10820FFF7A4FF3E4C02212000FFF7A1
:1021D000EFFF012202212000FFF7A5FF02220221CA
:1021E0002000FFF7B3FF002202212000FFF7A8FF25
:1021F0000022022136E0012819D10820FFF788FFCC
:10220000304C10212000FFF7D3FF012210212000C5
:10221000FFF789FF022210212000FFF797FF00221D
:1022200010212000FFF78CFF002210211AE0022865
:102230001BD10820FFF76CFF224C04212000FFF780
:10224000B7FF012204212000FFF76DFF02220421C5
:102250002000FFF77BFF002204212000FFF770FF22
:10226000002204212000FFF77EFF10BD80B5010091
:1022700001D1022106E0012801D1102102E002284B
:1022800003D104210F48FFF793FF01BD80B5010082
:1022900001D1022106E0012801D1102102E002282B
:1022A00003D104210748FFF785FF01BD00000000AE
:1022B00024005048200050482C0050482800504826
:1022C00050004048000010480EB4C0B5020003A8FA
:1022D00001900020009001AB0121044878440C30AB
:1022E000FEF756FB029906B0084700BF4D040000F8
:1022F00020490A681043086070471E490A688243F3
:102300000A607047002801D11B4821E01A48026882
:10231000114301607047032803D1184802680A433B
:1023200008E001280BD0022801D0042805D1134869
:1023300002688A430260001D0AE0052807D10F48A1
:1023400002688A430260001D026811430160704701
:1023500002688A4302607047094909680140814266
:1023600001D101207047002070470549086070477F
:1023700000000000180000400C0000401000004069
:102380001C00004010B50C00002801D0002C01D129
:10239000012010BD2168016021686068C0B2FFF7AC
:1023A000B1FF2168A068C0B2FFF7B5FF002010BDE3
:1023B00003000020002901D15A60704701207047B6
:1023C00080B5002801D1012002BD0129006802D199
:1023D000FFF78EFF01E0FFF790FF002002BD10B570
:1023E00004002068FFF7B8FF002808D060680028C4
:1023F00002D02068616888472068FFF7B6FF10BDEB
:1024000080B50068FFF7A8FF02BD80B50068FFF740
:10241000ACFF01BD38B5050000F038F8040000201D
:10242000C043854202D0044800682D1800F02EF801
:10243000001BA842FAD331BD34000020F8B50500D6
:102440000024104E3068002819D000F025F807004D
:10245000FA2080003168FEF7B5F901003800FEF778
:10246000B1F9FFF7A0FB002809D1042D07D22900FC
:102470000020C043FFF78FFB0348056000E0012404
:102480002000F2BD34000020300000200148006828
:10249000704700BF9C06002001480068704700009C
:1024A000380000201B4908607047FEE780B500F047
:1024B0003DF8FFF77CFB18480168491C016001BD2D
:1024C00010B5164C2000FFF79BFF002810D01448D1
:1024D00011490A680368D21AAF235B009A4204D3F9
:1024E000096801602000FFF77AFF2068FFF7DAFF34
:1024F00010BD80B50B48FFF77DF801BD0A480068A4
:10250000800700D4704780B50648006BFFF76EFA6D
:1025100001BD00001C000040940600208806002039
:1025200098060020840000200000704803480168DD
:10253000034A126889180160704700BF9C0600209A
:10254000340000205761697420666F7220557365EE
:102550007220707573682D627574746F6E202850C8
:10256000555348312920707265737320746F20733E
:1025700074617274207472616E736665722E0A0DD6
:10258000000000004E6F6E2D426C6F636B696E67CA
:10259000204D6173746572205278206D6F646520E0
:1025A000776974682063697263756C617220444D49
:1025B0004120737461727465642E0A0D000000007E
:1025C00070B40123002413E00168001D194202D0F9
:1025D0004D466D1E49190C60091D121F042AFAD2BE
:1025E0000D00960701D50C80AD1C1A4000D02C7050
:1025F0000268001D002AE7D170BC704730B5016841
:102600004118446862088A188368E40704D54C4678
:102610001B1901E0641C06D191420BD00C7864B206
:10262000491C0D78491C1D705B1C002CF2D4641EE3
:10263000F7D5F1E70C3030BD4E6F6E2D426C6F63F5
:102640006B696E67206D6F64653A20444D4120656B
:102650006E6465642077697468206572726F722E8B
:102660000A0D0000496E697469616C697A657320AE
:102670007468652049325320656E6465642077690B
:102680007468206572726F722E0A0D0010B50749CA
:1026900079441831064C7C44163404E0081D0A685D
:1026A000891888470100A142F8D110BD0800000038
:1026B0003C0000000DFFFFFF3C00000084000020F4
:1026C000EC020000BC0300200000000031FFFFFF0F
:1026D000F80000001C000000C000002021FFFFFFE8
:1026E000CA0000003C00000030000020FEF7BFF8E8
:1026F000002801D0FFF7CAFF00BF00BF002000BFC5
:1027000000BFFFF7A1FB00F000F880B500F002F871
:1027100001BD704707463846FEF764FCFBE770478B
:10272000010002000400060008000A000C0010006E
:10273000200040008000000138B505000C0020009A
:10274000FEF75CFEA04200D00025280032BD704795
:102750004D61737465722052656365697665720AAE
:102760000D00000050555348312070726573736539
:10277000642E0A0D0000000000BF00BF00BF00BFB4
:10278000FFF7B4FF0078401E8041C043C00F704780
:102790007047704770477047704770477047704781
:1027A000704770477047704770470004FD00000194
:1027B000FC000790D003FA07041001D1000385271D
:1027C0000410F8000001F9008100810081008100FF
:0627D00081008100FE0003
:040000051004277943
:00000001FF
